{"contracts/F.sol":{"F":{"abi":[{"inputs":[{"internalType":"address","name":"_initialOwner","type":"address"},{"internalType":"address","name":"_stakingContract","type":"address"},{"internalType":"address","name":"_treasuryContract","type":"address"}],"stateMutability":"nonpayable","type":"constructor"},{"inputs":[{"internalType":"address","name":"spender","type":"address"},{"internalType":"uint256","name":"allowance","type":"uint256"},{"internalType":"uint256","name":"needed","type":"uint256"}],"name":"ERC20InsufficientAllowance","type":"error"},{"inputs":[{"internalType":"address","name":"sender","type":"address"},{"internalType":"uint256","name":"balance","type":"uint256"},{"internalType":"uint256","name":"needed","type":"uint256"}],"name":"ERC20InsufficientBalance","type":"error"},{"inputs":[{"internalType":"address","name":"approver","type":"address"}],"name":"ERC20InvalidApprover","type":"error"},{"inputs":[{"internalType":"address","name":"receiver","type":"address"}],"name":"ERC20InvalidReceiver","type":"error"},{"inputs":[{"internalType":"address","name":"sender","type":"address"}],"name":"ERC20InvalidSender","type":"error"},{"inputs":[{"internalType":"address","name":"spender","type":"address"}],"name":"ERC20InvalidSpender","type":"error"},{"inputs":[{"internalType":"address","name":"owner","type":"address"}],"name":"OwnableInvalidOwner","type":"error"},{"inputs":[{"internalType":"address","name":"account","type":"address"}],"name":"OwnableUnauthorizedAccount","type":"error"},{"anonymous":false,"inputs":[{"indexed":true,"internalType":"address","name":"owner","type":"address"},{"indexed":true,"internalType":"address","name":"spender","type":"address"},{"indexed":false,"internalType":"uint256","name":"value","type":"uint256"}],"name":"Approval","type":"event"},{"anonymous":false,"inputs":[{"indexed":true,"internalType":"address","name":"botAddress","type":"address"},{"indexed":false,"internalType":"uint256","name":"amount","type":"uint256"}],"name":"BotTransactionRedirected","type":"event"},{"anonymous":false,"inputs":[{"indexed":false,"internalType":"uint256","name":"newCooldown","type":"uint256"}],"name":"CooldownChanged","type":"event"},{"anonymous":false,"inputs":[{"indexed":true,"internalType":"address","name":"account","type":"address"},{"indexed":false,"internalType":"bool","name":"isExempt","type":"bool"}],"name":"FeeExemptionChanged","type":"event"},{"anonymous":false,"inputs":[{"indexed":false,"internalType":"uint256","name":"burnAmount","type":"uint256"},{"indexed":false,"internalType":"uint256","name":"stakingAmount","type":"uint256"},{"indexed":false,"internalType":"uint256","name":"liquidityAmount","type":"uint256"}],"name":"FeesDistributed","type":"event"},{"anonymous":false,"inputs":[{"indexed":true,"internalType":"address","name":"account","type":"address"},{"indexed":false,"internalType":"bool","name":"isExempt","type":"bool"}],"name":"LimitExemptionChanged","type":"event"},{"anonymous":false,"inputs":[{"indexed":true,"internalType":"address","name":"previousOwner","type":"address"},{"indexed":true,"internalType":"address","name":"newOwner","type":"address"}],"name":"OwnershipTransferred","type":"event"},{"anonymous":false,"inputs":[{"indexed":true,"internalType":"address","name":"pair","type":"address"}],"name":"PancakeSwapPairSet","type":"event"},{"anonymous":false,"inputs":[{"indexed":true,"internalType":"address","name":"from","type":"address"},{"indexed":true,"internalType":"address","name":"to","type":"address"},{"indexed":false,"internalType":"uint256","name":"value","type":"uint256"}],"name":"Transfer","type":"event"},{"anonymous":false,"inputs":[{"indexed":true,"internalType":"address","name":"wallet","type":"address"},{"indexed":false,"internalType":"uint256","name":"amount","type":"uint256"},{"indexed":false,"internalType":"uint256","name":"lockUntil","type":"uint256"}],"name":"WalletLocked","type":"event"},{"inputs":[],"name":"BURN_STOP_THRESHOLD","outputs":[{"internalType":"uint256","name":"","type":"uint256"}],"stateMutability":"view","type":"function"},{"inputs":[],"name":"LAUNCH_TIMESTAMP","outputs":[{"internalType":"uint256","name":"","type":"uint256"}],"stateMutability":"view","type":"function"},{"inputs":[],"name":"MAX_SUPPLY","outputs":[{"internalType":"uint256","name":"","type":"uint256"}],"stateMutability":"view","type":"function"},{"inputs":[],"name":"STAKING_CONTRACT","outputs":[{"internalType":"address","name":"","type":"address"}],"stateMutability":"view","type":"function"},{"inputs":[],"name":"TREASURY_CONTRACT","outputs":[{"internalType":"address","name":"","type":"address"}],"stateMutability":"view","type":"function"},{"inputs":[{"internalType":"address","name":"owner","type":"address"},{"internalType":"address","name":"spender","type":"address"}],"name":"allowance","outputs":[{"internalType":"uint256","name":"","type":"uint256"}],"stateMutability":"view","type":"function"},{"inputs":[{"internalType":"address","name":"spender","type":"address"},{"internalType":"uint256","name":"value","type":"uint256"}],"name":"approve","outputs":[{"internalType":"bool","name":"","type":"bool"}],"stateMutability":"nonpayable","type":"function"},{"inputs":[{"internalType":"address","name":"account","type":"address"}],"name":"balanceOf","outputs":[{"internalType":"uint256","name":"","type":"uint256"}],"stateMutability":"view","type":"function"},{"inputs":[],"name":"deadblockCount","outputs":[{"internalType":"uint256","name":"","type":"uint256"}],"stateMutability":"view","type":"function"},{"inputs":[],"name":"decimals","outputs":[{"internalType":"uint8","name":"","type":"uint8"}],"stateMutability":"view","type":"function"},{"inputs":[],"name":"dynamicCooldownSeconds","outputs":[{"internalType":"uint256","name":"","type":"uint256"}],"stateMutability":"view","type":"function"},{"inputs":[],"name":"feeConfigPhase1","outputs":[{"internalType":"uint256","name":"burnFee","type":"uint256"},{"internalType":"uint256","name":"stakingFee","type":"uint256"},{"internalType":"uint256","name":"liquidityFee","type":"uint256"}],"stateMutability":"view","type":"function"},{"inputs":[],"name":"feeConfigPhase2","outputs":[{"internalType":"uint256","name":"burnFee","type":"uint256"},{"internalType":"uint256","name":"stakingFee","type":"uint256"},{"internalType":"uint256","name":"liquidityFee","type":"uint256"}],"stateMutability":"view","type":"function"},{"inputs":[],"name":"launchBlockNumber","outputs":[{"internalType":"uint256","name":"","type":"uint256"}],"stateMutability":"view","type":"function"},{"inputs":[],"name":"maxWalletHolding","outputs":[{"internalType":"uint256","name":"","type":"uint256"}],"stateMutability":"view","type":"function"},{"inputs":[],"name":"name","outputs":[{"internalType":"string","name":"","type":"string"}],"stateMutability":"view","type":"function"},{"inputs":[],"name":"owner","outputs":[{"internalType":"address","name":"","type":"address"}],"stateMutability":"view","type":"function"},{"inputs":[],"name":"pancakeSwapPair","outputs":[{"internalType":"address","name":"","type":"address"}],"stateMutability":"view","type":"function"},{"inputs":[],"name":"renounceOwnership","outputs":[],"stateMutability":"nonpayable","type":"function"},{"inputs":[{"internalType":"uint256","name":"newCooldownSeconds","type":"uint256"}],"name":"setDynamicCooldown","outputs":[],"stateMutability":"nonpayable","type":"function"},{"inputs":[{"internalType":"address","name":"account","type":"address"},{"internalType":"bool","name":"isExempt","type":"bool"}],"name":"setFeeExempt","outputs":[],"stateMutability":"nonpayable","type":"function"},{"inputs":[{"internalType":"address","name":"account","type":"address"},{"internalType":"bool","name":"isExempt","type":"bool"}],"name":"setLimitExempt","outputs":[],"stateMutability":"nonpayable","type":"function"},{"inputs":[{"internalType":"address","name":"_pair","type":"address"}],"name":"setPancakeSwapPair","outputs":[],"stateMutability":"nonpayable","type":"function"},{"inputs":[],"name":"symbol","outputs":[{"internalType":"string","name":"","type":"string"}],"stateMutability":"view","type":"function"},{"inputs":[],"name":"totalSupply","outputs":[{"internalType":"uint256","name":"","type":"uint256"}],"stateMutability":"view","type":"function"},{"inputs":[{"internalType":"address","name":"to","type":"address"},{"internalType":"uint256","name":"value","type":"uint256"}],"name":"transfer","outputs":[{"internalType":"bool","name":"","type":"bool"}],"stateMutability":"nonpayable","type":"function"},{"inputs":[{"internalType":"address","name":"from","type":"address"},{"internalType":"address","name":"to","type":"address"},{"internalType":"uint256","name":"value","type":"uint256"}],"name":"transferFrom","outputs":[{"internalType":"bool","name":"","type":"bool"}],"stateMutability":"nonpayable","type":"function"},{"inputs":[{"internalType":"address","name":"newOwner","type":"address"}],"name":"transferOwnership","outputs":[],"stateMutability":"nonpayable","type":"function"}],"evm":{"bytecode":{"linkReferences":{},"object":"61012060405261dead60e0526a52b7d2dcc80cd2e4000000610100526002601155600f6014553480156200003257600080fd5b5060405162001f7b38038062001f7b8339810160408190526200005591620009b1565b826040518060400160405280600b81526020016a119c9959591bdb55195cdd60aa1b815250604051806040016040528060018152602001602360f91b8152508160039081620000a5919062000a9f565b506004620000b4828262000a9f565b5050506001600160a01b038116620000e757604051631e4fbdf760e01b8152600060048201526024015b60405180910390fd5b620000f28162000240565b504260c052436012556001600160a01b03808316608052811660a052604080516060808201835260fa80835260016020848101829052938501819052600791909155600881905560098190558351918201845260648083529282018190529201829052600a819055600b829055600c919091556200017e6b019d971e4fe8401e74000000600362000b81565b6200018a919062000ba1565b600d556001600160a01b038381166000908152600f602090815260408083208054600160ff1991821681179092553080865283862080548316841790556080518716808752848720805484168517905560a05190971680875284872080548416851790559086526010909452828520805482168317905592845281842080548416821790559383529091208054909116909117905562000237836b019d971e4fe8401e7400000062000292565b50505062000bf0565b600580546001600160a01b038381166001600160a01b0319831681179093556040519116919082907f8be0079c531659141344cd1fd0a4f28419497f9722a3daafe3b4186f6b6457e090600090a35050565b6001600160a01b038216620002be5760405163ec442f0560e01b815260006004820152602401620000de565b620002cc60008383620002d0565b5050565b6001600160a01b038316620002f157620002ec8383836200053e565b505050565b6001600160a01b0383166000908152600f602052604081205460ff161580156200033457506001600160a01b0383166000908152600f602052604090205460ff16155b90508080156200035157506006546001600160a01b038581169116145b80156200036f57506011546012546200036b919062000bc4565b4311155b15620003875762000381838362000671565b50505050565b801562000415576014546001600160a01b038516600090815260136020526040902054620003b6919062000bc4565b421015620003f95760405162461bcd60e51b815260206004820152600f60248201526e436f6f6c646f776e2061637469766560881b6044820152606401620000de565b6001600160a01b03841660009081526013602052604090204290555b80156200042f5762000429848484620006d5565b6200043c565b6200043c8484846200053e565b6001600160a01b03831660009081526010602052604090205460ff16620004c957600d546001600160a01b0384166000908152602081905260409020541115620004c95760405162461bcd60e51b815260206004820152601860248201527f45786365656473206d61782077616c6c6574206c696d697400000000000000006044820152606401620000de565b6006546001600160a01b0385811691161480156200050657508162000503846001600160a01b031660009081526020819052604090205490565b10155b80156200052c57506001600160a01b03831660009081526010602052604090205460ff16155b15620003815762000381838362000843565b6001600160a01b0383166200056d57806002600082825462000561919062000bc4565b90915550620005e19050565b6001600160a01b03831660009081526020819052604090205481811015620005c25760405163391434e360e21b81526001600160a01b03851660048201526024810182905260448101839052606401620000de565b6001600160a01b03841660009081526020819052604090209082900390555b6001600160a01b038216620005ff576002805482900390556200061e565b6001600160a01b03821660009081526020819052604090208054820190555b816001600160a01b0316836001600160a01b03167fddf252ad1be2c89b69c2b068fc378daa952ba7f163c4a11628f55a4df523b3ef836040516200066491815260200190565b60405180910390a3505050565b60065460a0516200068d916001600160a01b031690836200053e565b816001600160a01b03167fab4a0400b4e49e5be3fcfd84afea49e7d6e0352a244e32f3734e2791532d887682604051620006c991815260200190565b60405180910390a25050565b6000620006e16200090a565b90506000612710826000015184620006fa919062000b81565b62000706919062000ba1565b905060006127108360200151856200071f919062000b81565b6200072b919062000ba1565b9050600061271084604001518662000744919062000b81565b62000750919062000ba1565b90506000818362000762868962000bda565b6200076e919062000bda565b6200077a919062000bda565b905080156200079057620007908888836200053e565b61010051600254118015620007a55750600084115b15620007c057620007c08860e051866200053e60201b60201c565b8215620007dc57620007dc88608051856200053e60201b60201c565b8115620007f857620007f88860a051846200053e60201b60201c565b60408051858152602081018590529081018390527f312c5308f42848705a866c73dec11fd0783c2d64aac6a97e94467062ad3f40589060600160405180910390a15050505050505050565b600d5460009062000859836301e1338062000b81565b62000865919062000ba1565b905062278d00811115620002ec57604051806040016040528082426200088c919062000bc4565b815260209081018490526001600160a01b0385166000818152600e8352604090208351815592909101516001909201919091557f5394ea92aca3ea4a83aa22b55619ded8d5ec09b9bfc1c5802c41ae182dfc878e83620008ed844262000bc4565b6040805192835260208301919091520160405180910390a2505050565b6200092f60405180606001604052806000815260200160008152602001600081525090565b60c05162000942906303c2670062000bc4565b4210156200096f575060408051606081018252600754815260085460208201526009549181019190915290565b5060408051606081018252600a548152600b546020820152600c549181019190915290565b80516001600160a01b0381168114620009ac57600080fd5b919050565b600080600060608486031215620009c757600080fd5b620009d28462000994565b9250620009e26020850162000994565b9150620009f26040850162000994565b90509250925092565b634e487b7160e01b600052604160045260246000fd5b600181811c9082168062000a2657607f821691505b60208210810362000a4757634e487b7160e01b600052602260045260246000fd5b50919050565b601f821115620002ec57600081815260208120601f850160051c8101602086101562000a765750805b601f850160051c820191505b8181101562000a975782815560010162000a82565b505050505050565b81516001600160401b0381111562000abb5762000abb620009fb565b62000ad38162000acc845462000a11565b8462000a4d565b602080601f83116001811462000b0b576000841562000af25750858301515b600019600386901b1c1916600185901b17855562000a97565b600085815260208120601f198616915b8281101562000b3c5788860151825594840194600190910190840162000b1b565b508582101562000b5b5787850151600019600388901b60f8161c191681555b5050505050600190811b01905550565b634e487b7160e01b600052601160045260246000fd5b808202811582820484141762000b9b5762000b9b62000b6b565b92915050565b60008262000bbf57634e487b7160e01b600052601260045260246000fd5b500490565b8082018082111562000b9b5762000b9b62000b6b565b8181038181111562000b9b5762000b9b62000b6b565b60805160a05160c05160e0516101005161132362000c58600039600081816104500152610e5101526000610e91015260008181610416015261104a01526000818161036001528181610d4b0152610ef30152600081816103ad0152610ec201526113236000f3fe608060405234801561001057600080fd5b50600436106101c45760003560e01c806384e92c00116100f9578063a9059cbb11610097578063e14e751911610071578063e14e751914610408578063e954f41d14610411578063f2fde38b14610438578063f5d7abb31461044b57600080fd5b8063a9059cbb14610395578063da19ddfb146103a8578063dd62ed3e146103cf57600080fd5b80638ebfc796116100d35780638ebfc7961461034057806395d89b41146103535780639e9df2b91461035b578063a06655a61461038257600080fd5b806384e92c0014610314578063876b33c81461031d5780638da5cb5b1461032f57600080fd5b806340a24e6c116101665780634ee13e97116101405780634ee13e97146102c75780635d0f1ada146102d057806370a08231146102e3578063715018a61461030c57600080fd5b806340a24e6c1461027e578063429494f21461029357806348d79155146102be57600080fd5b806318160ddd116101a257806318160ddd1461023757806323b872dd14610249578063313ce5671461025c57806332cb6b0c1461026b57600080fd5b806306fdde03146101c9578063095ea7b3146101e757806314b800b41461020a575b600080fd5b6101d1610472565b6040516101de91906110c4565b60405180910390f35b6101fa6101f536600461112e565b610504565b60405190151581526020016101de565b600a54600b54600c5461021c92919083565b604080519384526020840192909252908201526060016101de565b6002545b6040519081526020016101de565b6101fa610257366004611158565b61051e565b604051601281526020016101de565b61023b6b019d971e4fe8401e7400000081565b61029161028c366004611194565b610542565b005b6006546102a6906001600160a01b031681565b6040516001600160a01b0390911681526020016101de565b61023b600d5481565b61023b60115481565b6102916102de3660046111d0565b6105aa565b61023b6102f13660046111e9565b6001600160a01b031660009081526020819052604090205490565b610291610638565b61023b60125481565b60075460085460095461021c92919083565b6005546001600160a01b03166102a6565b61029161034e366004611194565b61064c565b6101d16106ac565b6102a67f000000000000000000000000000000000000000000000000000000000000000081565b6102916103903660046111e9565b6106bb565b6101fa6103a336600461112e565b61073b565b6102a67f000000000000000000000000000000000000000000000000000000000000000081565b61023b6103dd36600461120b565b6001600160a01b03918216600090815260016020908152604080832093909416825291909152205490565b61023b60145481565b61023b7f000000000000000000000000000000000000000000000000000000000000000081565b6102916104463660046111e9565b610749565b61023b7f000000000000000000000000000000000000000000000000000000000000000081565b6060600380546104819061123e565b80601f01602080910402602001604051908101604052809291908181526020018280546104ad9061123e565b80156104fa5780601f106104cf576101008083540402835291602001916104fa565b820191906000526020600020905b8154815290600101906020018083116104dd57829003601f168201915b5050505050905090565b600033610512818585610787565b60019150505b92915050565b60003361052c858285610799565b610537858585610818565b506001949350505050565b61054a610877565b6001600160a01b038216600081815260106020908152604091829020805460ff191685151590811790915591519182527fcb24e6b3b5c6d8781cb66cd454a8e78078dccd370402b5c2c3f2f92553556f9b91015b60405180910390a25050565b6105b2610877565b61012c8111156105fd5760405162461bcd60e51b8152602060048201526011602482015270436f6f6c646f776e20746f6f206c6f6e6760781b60448201526064015b60405180910390fd5b60148190556040518181527faa382e040a4d9efeb5a813fb9d768cb574053b0dfd7cdf78936a29006e0a7a1c9060200160405180910390a150565b610640610877565b61064a60006108a4565b565b610654610877565b6001600160a01b0382166000818152600f6020908152604091829020805460ff191685151590811790915591519182527f9f1eaee9ad9cb68284f0dc523aa42c465ed33b53f8da7fc7294ccea47358bbdf910161059e565b6060600480546104819061123e565b6106c3610877565b600680546001600160a01b0319166001600160a01b0383169081179091556000818152600f60209081526040808320805460ff1990811660019081179092556010909352818420805490931617909155517fe0d3fb541ce2b3c956d367ec89ad81e907e861539cdc01a6b81cd5652ae05f899190a250565b600033610512818585610818565b610751610877565b6001600160a01b03811661077b57604051631e4fbdf760e01b8152600060048201526024016105f4565b610784816108a4565b50565b61079483838360016108f6565b505050565b6001600160a01b03838116600090815260016020908152604080832093861683529290522054600019811015610812578181101561080357604051637dc7a0d960e11b81526001600160a01b038416600482015260248101829052604481018390526064016105f4565b610812848484840360006108f6565b50505050565b6001600160a01b03831661084257604051634b637e8f60e11b8152600060048201526024016105f4565b6001600160a01b03821661086c5760405163ec442f0560e01b8152600060048201526024016105f4565b6107948383836109cb565b6005546001600160a01b0316331461064a5760405163118cdaa760e01b81523360048201526024016105f4565b600580546001600160a01b038381166001600160a01b0319831681179093556040519116919082907f8be0079c531659141344cd1fd0a4f28419497f9722a3daafe3b4186f6b6457e090600090a35050565b6001600160a01b0384166109205760405163e602df0560e01b8152600060048201526024016105f4565b6001600160a01b03831661094a57604051634a1406b160e11b8152600060048201526024016105f4565b6001600160a01b038085166000908152600160209081526040808320938716835292905220829055801561081257826001600160a01b0316846001600160a01b03167f8c5be1e5ebec7d5bd14f71427d1e84f3dd0314c0f7b2291e5b200ac8c7c3b925846040516109bd91815260200190565b60405180910390a350505050565b6001600160a01b0383166109e457610794838383610c0f565b6001600160a01b0383166000908152600f602052604081205460ff16158015610a2657506001600160a01b0383166000908152600f602052604090205460ff16155b9050808015610a4257506006546001600160a01b038581169116145b8015610a5d5750601154601254610a59919061128e565b4311155b15610a6c576108128383610d39565b8015610af5576014546001600160a01b038516600090815260136020526040902054610a98919061128e565b421015610ad95760405162461bcd60e51b815260206004820152600f60248201526e436f6f6c646f776e2061637469766560881b60448201526064016105f4565b6001600160a01b03841660009081526013602052604090204290555b8015610b0b57610b06848484610dab565b610b16565b610b16848484610c0f565b6001600160a01b03831660009081526010602052604090205460ff16610ba057600d546001600160a01b0384166000908152602081905260409020541115610ba05760405162461bcd60e51b815260206004820152601860248201527f45786365656473206d61782077616c6c6574206c696d6974000000000000000060448201526064016105f4565b6006546001600160a01b038581169116148015610bdb575081610bd8846001600160a01b031660009081526020819052604090205490565b10155b8015610c0057506001600160a01b03831660009081526010602052604090205460ff16155b15610812576108128383610f63565b6001600160a01b038316610c3a578060026000828254610c2f919061128e565b90915550610cac9050565b6001600160a01b03831660009081526020819052604090205481811015610c8d5760405163391434e360e21b81526001600160a01b038516600482015260248101829052604481018390526064016105f4565b6001600160a01b03841660009081526020819052604090209082900390555b6001600160a01b038216610cc857600280548290039055610ce7565b6001600160a01b03821660009081526020819052604090208054820190555b816001600160a01b0316836001600160a01b03167fddf252ad1be2c89b69c2b068fc378daa952ba7f163c4a11628f55a4df523b3ef83604051610d2c91815260200190565b60405180910390a3505050565b600654610d70906001600160a01b03167f000000000000000000000000000000000000000000000000000000000000000083610c0f565b816001600160a01b03167fab4a0400b4e49e5be3fcfd84afea49e7d6e0352a244e32f3734e2791532d88768260405161059e91815260200190565b6000610db5611021565b90506000612710826000015184610dcc91906112a1565b610dd691906112b8565b90506000612710836020015185610ded91906112a1565b610df791906112b8565b90506000612710846040015186610e0e91906112a1565b610e1891906112b8565b905060008183610e2886896112da565b610e3291906112da565b610e3c91906112da565b90508015610e4f57610e4f888883610c0f565b7f0000000000000000000000000000000000000000000000000000000000000000610e7960025490565b118015610e865750600084115b15610eb657610eb6887f000000000000000000000000000000000000000000000000000000000000000086610c0f565b8215610ee757610ee7887f000000000000000000000000000000000000000000000000000000000000000085610c0f565b8115610f1857610f18887f000000000000000000000000000000000000000000000000000000000000000084610c0f565b60408051858152602081018590529081018390527f312c5308f42848705a866c73dec11fd0783c2d64aac6a97e94467062ad3f40589060600160405180910390a15050505050505050565b600d54600090610f77836301e133806112a1565b610f8191906112b8565b905062278d008111156107945760405180604001604052808242610fa5919061128e565b815260209081018490526001600160a01b0385166000818152600e8352604090208351815592909101516001909201919091557f5394ea92aca3ea4a83aa22b55619ded8d5ec09b9bfc1c5802c41ae182dfc878e83611004844261128e565b6040805192835260208301919091520160405180910390a2505050565b61104560405180606001604052806000815260200160008152602001600081525090565b6110737f00000000000000000000000000000000000000000000000000000000000000006303c2670061128e565b42101561109f575060408051606081018252600754815260085460208201526009549181019190915290565b5060408051606081018252600a548152600b546020820152600c549181019190915290565b600060208083528351808285015260005b818110156110f1578581018301518582016040015282016110d5565b506000604082860101526040601f19601f8301168501019250505092915050565b80356001600160a01b038116811461112957600080fd5b919050565b6000806040838503121561114157600080fd5b61114a83611112565b946020939093013593505050565b60008060006060848603121561116d57600080fd5b61117684611112565b925061118460208501611112565b9150604084013590509250925092565b600080604083850312156111a757600080fd5b6111b083611112565b9150602083013580151581146111c557600080fd5b809150509250929050565b6000602082840312156111e257600080fd5b5035919050565b6000602082840312156111fb57600080fd5b61120482611112565b9392505050565b6000806040838503121561121e57600080fd5b61122783611112565b915061123560208401611112565b90509250929050565b600181811c9082168061125257607f821691505b60208210810361127257634e487b7160e01b600052602260045260246000fd5b50919050565b634e487b7160e01b600052601160045260246000fd5b8082018082111561051857610518611278565b808202811582820484141761051857610518611278565b6000826112d557634e487b7160e01b600052601260045260246000fd5b500490565b818103818111156105185761051861127856fea26469706673582212201252959e112f2b45e9d2b9cdae9fabc5f3d4c0d05bb99f233e5daf58494d3b7864736f6c63430008140033","opcodes":"PUSH2 0x120 PUSH1 0x40 MSTORE PUSH2 0xDEAD PUSH1 0xE0 MSTORE PUSH11 0x52B7D2DCC80CD2E4000000 PUSH2 0x100 MSTORE PUSH1 0x2 PUSH1 0x11 SSTORE PUSH1 0xF PUSH1 0x14 SSTORE CALLVALUE DUP1 ISZERO PUSH3 0x32 JUMPI PUSH1 0x0 DUP1 REVERT JUMPDEST POP PUSH1 0x40 MLOAD PUSH3 0x1F7B CODESIZE SUB DUP1 PUSH3 0x1F7B DUP4 CODECOPY DUP2 ADD PUSH1 0x40 DUP2 SWAP1 MSTORE PUSH3 0x55 SWAP2 PUSH3 0x9B1 JUMP JUMPDEST DUP3 PUSH1 0x40 MLOAD DUP1 PUSH1 0x40 ADD PUSH1 0x40 MSTORE DUP1 PUSH1 0xB DUP2 MSTORE PUSH1 0x20 ADD PUSH11 0x119C9959591BDB55195CDD PUSH1 0xAA SHL DUP2 MSTORE POP PUSH1 0x40 MLOAD DUP1 PUSH1 0x40 ADD PUSH1 0x40 MSTORE DUP1 PUSH1 0x1 DUP2 MSTORE PUSH1 0x20 ADD PUSH1 0x23 PUSH1 0xF9 SHL DUP2 MSTORE POP DUP2 PUSH1 0x3 SWAP1 DUP2 PUSH3 0xA5 SWAP2 SWAP1 PUSH3 0xA9F JUMP JUMPDEST POP PUSH1 0x4 PUSH3 0xB4 DUP3 DUP3 PUSH3 0xA9F JUMP JUMPDEST POP POP POP PUSH1 0x1 PUSH1 0x1 PUSH1 0xA0 SHL SUB DUP2 AND PUSH3 0xE7 JUMPI PUSH1 0x40 MLOAD PUSH4 0x1E4FBDF7 PUSH1 0xE0 SHL DUP2 MSTORE PUSH1 0x0 PUSH1 0x4 DUP3 ADD MSTORE PUSH1 0x24 ADD JUMPDEST PUSH1 0x40 MLOAD DUP1 SWAP2 SUB SWAP1 REVERT JUMPDEST PUSH3 0xF2 DUP2 PUSH3 0x240 JUMP JUMPDEST POP TIMESTAMP PUSH1 0xC0 MSTORE NUMBER PUSH1 0x12 SSTORE PUSH1 0x1 PUSH1 0x1 PUSH1 0xA0 SHL SUB DUP1 DUP4 AND PUSH1 0x80 MSTORE DUP2 AND PUSH1 0xA0 MSTORE PUSH1 0x40 DUP1 MLOAD PUSH1 0x60 DUP1 DUP3 ADD DUP4 MSTORE PUSH1 0xFA DUP1 DUP4 MSTORE PUSH1 0x1 PUSH1 0x20 DUP5 DUP2 ADD DUP3 SWAP1 MSTORE SWAP4 DUP6 ADD DUP2 SWAP1 MSTORE PUSH1 0x7 SWAP2 SWAP1 SWAP2 SSTORE PUSH1 0x8 DUP2 SWAP1 SSTORE PUSH1 0x9 DUP2 SWAP1 SSTORE DUP4 MLOAD SWAP2 DUP3 ADD DUP5 MSTORE PUSH1 0x64 DUP1 DUP4 MSTORE SWAP3 DUP3 ADD DUP2 SWAP1 MSTORE SWAP3 ADD DUP3 SWAP1 MSTORE PUSH1 0xA DUP2 SWAP1 SSTORE PUSH1 0xB DUP3 SWAP1 SSTORE PUSH1 0xC SWAP2 SWAP1 SWAP2 SSTORE PUSH3 0x17E PUSH12 0x19D971E4FE8401E74000000 PUSH1 0x3 PUSH3 0xB81 JUMP JUMPDEST PUSH3 0x18A SWAP2 SWAP1 PUSH3 0xBA1 JUMP JUMPDEST PUSH1 0xD SSTORE PUSH1 0x1 PUSH1 0x1 PUSH1 0xA0 SHL SUB DUP4 DUP2 AND PUSH1 0x0 SWAP1 DUP2 MSTORE PUSH1 0xF PUSH1 0x20 SWAP1 DUP2 MSTORE PUSH1 0x40 DUP1 DUP4 KECCAK256 DUP1 SLOAD PUSH1 0x1 PUSH1 0xFF NOT SWAP2 DUP3 AND DUP2 OR SWAP1 SWAP3 SSTORE ADDRESS DUP1 DUP7 MSTORE DUP4 DUP7 KECCAK256 DUP1 SLOAD DUP4 AND DUP5 OR SWAP1 SSTORE PUSH1 0x80 MLOAD DUP8 AND DUP1 DUP8 MSTORE DUP5 DUP8 KECCAK256 DUP1 SLOAD DUP5 AND DUP6 OR SWAP1 SSTORE PUSH1 0xA0 MLOAD SWAP1 SWAP8 AND DUP1 DUP8 MSTORE DUP5 DUP8 KECCAK256 DUP1 SLOAD DUP5 AND DUP6 OR SWAP1 SSTORE SWAP1 DUP7 MSTORE PUSH1 0x10 SWAP1 SWAP5 MSTORE DUP3 DUP6 KECCAK256 DUP1 SLOAD DUP3 AND DUP4 OR SWAP1 SSTORE SWAP3 DUP5 MSTORE DUP2 DUP5 KECCAK256 DUP1 SLOAD DUP5 AND DUP3 OR SWAP1 SSTORE SWAP4 DUP4 MSTORE SWAP1 SWAP2 KECCAK256 DUP1 SLOAD SWAP1 SWAP2 AND SWAP1 SWAP2 OR SWAP1 SSTORE PUSH3 0x237 DUP4 PUSH12 0x19D971E4FE8401E74000000 PUSH3 0x292 JUMP JUMPDEST POP POP POP PUSH3 0xBF0 JUMP JUMPDEST PUSH1 0x5 DUP1 SLOAD PUSH1 0x1 PUSH1 0x1 PUSH1 0xA0 SHL SUB DUP4 DUP2 AND PUSH1 0x1 PUSH1 0x1 PUSH1 0xA0 SHL SUB NOT DUP4 AND DUP2 OR SWAP1 SWAP4 SSTORE PUSH1 0x40 MLOAD SWAP2 AND SWAP2 SWAP1 DUP3 SWAP1 PUSH32 0x8BE0079C531659141344CD1FD0A4F28419497F9722A3DAAFE3B4186F6B6457E0 SWAP1 PUSH1 0x0 SWAP1 LOG3 POP POP JUMP JUMPDEST PUSH1 0x1 PUSH1 0x1 PUSH1 0xA0 SHL SUB DUP3 AND PUSH3 0x2BE JUMPI PUSH1 0x40 MLOAD PUSH4 0xEC442F05 PUSH1 0xE0 SHL DUP2 MSTORE PUSH1 0x0 PUSH1 0x4 DUP3 ADD MSTORE PUSH1 0x24 ADD PUSH3 0xDE JUMP JUMPDEST PUSH3 0x2CC PUSH1 0x0 DUP4 DUP4 PUSH3 0x2D0 JUMP JUMPDEST POP POP JUMP JUMPDEST PUSH1 0x1 PUSH1 0x1 PUSH1 0xA0 SHL SUB DUP4 AND PUSH3 0x2F1 JUMPI PUSH3 0x2EC DUP4 DUP4 DUP4 PUSH3 0x53E JUMP JUMPDEST POP POP POP JUMP JUMPDEST PUSH1 0x1 PUSH1 0x1 PUSH1 0xA0 SHL SUB DUP4 AND PUSH1 0x0 SWAP1 DUP2 MSTORE PUSH1 0xF PUSH1 0x20 MSTORE PUSH1 0x40 DUP2 KECCAK256 SLOAD PUSH1 0xFF AND ISZERO DUP1 ISZERO PUSH3 0x334 JUMPI POP PUSH1 0x1 PUSH1 0x1 PUSH1 0xA0 SHL SUB DUP4 AND PUSH1 0x0 SWAP1 DUP2 MSTORE PUSH1 0xF PUSH1 0x20 MSTORE PUSH1 0x40 SWAP1 KECCAK256 SLOAD PUSH1 0xFF AND ISZERO JUMPDEST SWAP1 POP DUP1 DUP1 ISZERO PUSH3 0x351 JUMPI POP PUSH1 0x6 SLOAD PUSH1 0x1 PUSH1 0x1 PUSH1 0xA0 SHL SUB DUP6 DUP2 AND SWAP2 AND EQ JUMPDEST DUP1 ISZERO PUSH3 0x36F JUMPI POP PUSH1 0x11 SLOAD PUSH1 0x12 SLOAD PUSH3 0x36B SWAP2 SWAP1 PUSH3 0xBC4 JUMP JUMPDEST NUMBER GT ISZERO JUMPDEST ISZERO PUSH3 0x387 JUMPI PUSH3 0x381 DUP4 DUP4 PUSH3 0x671 JUMP JUMPDEST POP POP POP POP JUMP JUMPDEST DUP1 ISZERO PUSH3 0x415 JUMPI PUSH1 0x14 SLOAD PUSH1 0x1 PUSH1 0x1 PUSH1 0xA0 SHL SUB DUP6 AND PUSH1 0x0 SWAP1 DUP2 MSTORE PUSH1 0x13 PUSH1 0x20 MSTORE PUSH1 0x40 SWAP1 KECCAK256 SLOAD PUSH3 0x3B6 SWAP2 SWAP1 PUSH3 0xBC4 JUMP JUMPDEST TIMESTAMP LT ISZERO PUSH3 0x3F9 JUMPI PUSH1 0x40 MLOAD PUSH3 0x461BCD PUSH1 0xE5 SHL DUP2 MSTORE PUSH1 0x20 PUSH1 0x4 DUP3 ADD MSTORE PUSH1 0xF PUSH1 0x24 DUP3 ADD MSTORE PUSH15 0x436F6F6C646F776E20616374697665 PUSH1 0x88 SHL PUSH1 0x44 DUP3 ADD MSTORE PUSH1 0x64 ADD PUSH3 0xDE JUMP JUMPDEST PUSH1 0x1 PUSH1 0x1 PUSH1 0xA0 SHL SUB DUP5 AND PUSH1 0x0 SWAP1 DUP2 MSTORE PUSH1 0x13 PUSH1 0x20 MSTORE PUSH1 0x40 SWAP1 KECCAK256 TIMESTAMP SWAP1 SSTORE JUMPDEST DUP1 ISZERO PUSH3 0x42F JUMPI PUSH3 0x429 DUP5 DUP5 DUP5 PUSH3 0x6D5 JUMP JUMPDEST PUSH3 0x43C JUMP JUMPDEST PUSH3 0x43C DUP5 DUP5 DUP5 PUSH3 0x53E JUMP JUMPDEST PUSH1 0x1 PUSH1 0x1 PUSH1 0xA0 SHL SUB DUP4 AND PUSH1 0x0 SWAP1 DUP2 MSTORE PUSH1 0x10 PUSH1 0x20 MSTORE PUSH1 0x40 SWAP1 KECCAK256 SLOAD PUSH1 0xFF AND PUSH3 0x4C9 JUMPI PUSH1 0xD SLOAD PUSH1 0x1 PUSH1 0x1 PUSH1 0xA0 SHL SUB DUP5 AND PUSH1 0x0 SWAP1 DUP2 MSTORE PUSH1 0x20 DUP2 SWAP1 MSTORE PUSH1 0x40 SWAP1 KECCAK256 SLOAD GT ISZERO PUSH3 0x4C9 JUMPI PUSH1 0x40 MLOAD PUSH3 0x461BCD PUSH1 0xE5 SHL DUP2 MSTORE PUSH1 0x20 PUSH1 0x4 DUP3 ADD MSTORE PUSH1 0x18 PUSH1 0x24 DUP3 ADD MSTORE PUSH32 0x45786365656473206D61782077616C6C6574206C696D69740000000000000000 PUSH1 0x44 DUP3 ADD MSTORE PUSH1 0x64 ADD PUSH3 0xDE JUMP JUMPDEST PUSH1 0x6 SLOAD PUSH1 0x1 PUSH1 0x1 PUSH1 0xA0 SHL SUB DUP6 DUP2 AND SWAP2 AND EQ DUP1 ISZERO PUSH3 0x506 JUMPI POP DUP2 PUSH3 0x503 DUP5 PUSH1 0x1 PUSH1 0x1 PUSH1 0xA0 SHL SUB AND PUSH1 0x0 SWAP1 DUP2 MSTORE PUSH1 0x20 DUP2 SWAP1 MSTORE PUSH1 0x40 SWAP1 KECCAK256 SLOAD SWAP1 JUMP JUMPDEST LT ISZERO JUMPDEST DUP1 ISZERO PUSH3 0x52C JUMPI POP PUSH1 0x1 PUSH1 0x1 PUSH1 0xA0 SHL SUB DUP4 AND PUSH1 0x0 SWAP1 DUP2 MSTORE PUSH1 0x10 PUSH1 0x20 MSTORE PUSH1 0x40 SWAP1 KECCAK256 SLOAD PUSH1 0xFF AND ISZERO JUMPDEST ISZERO PUSH3 0x381 JUMPI PUSH3 0x381 DUP4 DUP4 PUSH3 0x843 JUMP JUMPDEST PUSH1 0x1 PUSH1 0x1 PUSH1 0xA0 SHL SUB DUP4 AND PUSH3 0x56D JUMPI DUP1 PUSH1 0x2 PUSH1 0x0 DUP3 DUP3 SLOAD PUSH3 0x561 SWAP2 SWAP1 PUSH3 0xBC4 JUMP JUMPDEST SWAP1 SWAP2 SSTORE POP PUSH3 0x5E1 SWAP1 POP JUMP JUMPDEST PUSH1 0x1 PUSH1 0x1 PUSH1 0xA0 SHL SUB DUP4 AND PUSH1 0x0 SWAP1 DUP2 MSTORE PUSH1 0x20 DUP2 SWAP1 MSTORE PUSH1 0x40 SWAP1 KECCAK256 SLOAD DUP2 DUP2 LT ISZERO PUSH3 0x5C2 JUMPI PUSH1 0x40 MLOAD PUSH4 0x391434E3 PUSH1 0xE2 SHL DUP2 MSTORE PUSH1 0x1 PUSH1 0x1 PUSH1 0xA0 SHL SUB DUP6 AND PUSH1 0x4 DUP3 ADD MSTORE PUSH1 0x24 DUP2 ADD DUP3 SWAP1 MSTORE PUSH1 0x44 DUP2 ADD DUP4 SWAP1 MSTORE PUSH1 0x64 ADD PUSH3 0xDE JUMP JUMPDEST PUSH1 0x1 PUSH1 0x1 PUSH1 0xA0 SHL SUB DUP5 AND PUSH1 0x0 SWAP1 DUP2 MSTORE PUSH1 0x20 DUP2 SWAP1 MSTORE PUSH1 0x40 SWAP1 KECCAK256 SWAP1 DUP3 SWAP1 SUB SWAP1 SSTORE JUMPDEST PUSH1 0x1 PUSH1 0x1 PUSH1 0xA0 SHL SUB DUP3 AND PUSH3 0x5FF JUMPI PUSH1 0x2 DUP1 SLOAD DUP3 SWAP1 SUB SWAP1 SSTORE PUSH3 0x61E JUMP JUMPDEST PUSH1 0x1 PUSH1 0x1 PUSH1 0xA0 SHL SUB DUP3 AND PUSH1 0x0 SWAP1 DUP2 MSTORE PUSH1 0x20 DUP2 SWAP1 MSTORE PUSH1 0x40 SWAP1 KECCAK256 DUP1 SLOAD DUP3 ADD SWAP1 SSTORE JUMPDEST DUP2 PUSH1 0x1 PUSH1 0x1 PUSH1 0xA0 SHL SUB AND DUP4 PUSH1 0x1 PUSH1 0x1 PUSH1 0xA0 SHL SUB AND PUSH32 0xDDF252AD1BE2C89B69C2B068FC378DAA952BA7F163C4A11628F55A4DF523B3EF DUP4 PUSH1 0x40 MLOAD PUSH3 0x664 SWAP2 DUP2 MSTORE PUSH1 0x20 ADD SWAP1 JUMP JUMPDEST PUSH1 0x40 MLOAD DUP1 SWAP2 SUB SWAP1 LOG3 POP POP POP JUMP JUMPDEST PUSH1 0x6 SLOAD PUSH1 0xA0 MLOAD PUSH3 0x68D SWAP2 PUSH1 0x1 PUSH1 0x1 PUSH1 0xA0 SHL SUB AND SWAP1 DUP4 PUSH3 0x53E JUMP JUMPDEST DUP2 PUSH1 0x1 PUSH1 0x1 PUSH1 0xA0 SHL SUB AND PUSH32 0xAB4A0400B4E49E5BE3FCFD84AFEA49E7D6E0352A244E32F3734E2791532D8876 DUP3 PUSH1 0x40 MLOAD PUSH3 0x6C9 SWAP2 DUP2 MSTORE PUSH1 0x20 ADD SWAP1 JUMP JUMPDEST PUSH1 0x40 MLOAD DUP1 SWAP2 SUB SWAP1 LOG2 POP POP JUMP JUMPDEST PUSH1 0x0 PUSH3 0x6E1 PUSH3 0x90A JUMP JUMPDEST SWAP1 POP PUSH1 0x0 PUSH2 0x2710 DUP3 PUSH1 0x0 ADD MLOAD DUP5 PUSH3 0x6FA SWAP2 SWAP1 PUSH3 0xB81 JUMP JUMPDEST PUSH3 0x706 SWAP2 SWAP1 PUSH3 0xBA1 JUMP JUMPDEST SWAP1 POP PUSH1 0x0 PUSH2 0x2710 DUP4 PUSH1 0x20 ADD MLOAD DUP6 PUSH3 0x71F SWAP2 SWAP1 PUSH3 0xB81 JUMP JUMPDEST PUSH3 0x72B SWAP2 SWAP1 PUSH3 0xBA1 JUMP JUMPDEST SWAP1 POP PUSH1 0x0 PUSH2 0x2710 DUP5 PUSH1 0x40 ADD MLOAD DUP7 PUSH3 0x744 SWAP2 SWAP1 PUSH3 0xB81 JUMP JUMPDEST PUSH3 0x750 SWAP2 SWAP1 PUSH3 0xBA1 JUMP JUMPDEST SWAP1 POP PUSH1 0x0 DUP2 DUP4 PUSH3 0x762 DUP7 DUP10 PUSH3 0xBDA JUMP JUMPDEST PUSH3 0x76E SWAP2 SWAP1 PUSH3 0xBDA JUMP JUMPDEST PUSH3 0x77A SWAP2 SWAP1 PUSH3 0xBDA JUMP JUMPDEST SWAP1 POP DUP1 ISZERO PUSH3 0x790 JUMPI PUSH3 0x790 DUP9 DUP9 DUP4 PUSH3 0x53E JUMP JUMPDEST PUSH2 0x100 MLOAD PUSH1 0x2 SLOAD GT DUP1 ISZERO PUSH3 0x7A5 JUMPI POP PUSH1 0x0 DUP5 GT JUMPDEST ISZERO PUSH3 0x7C0 JUMPI PUSH3 0x7C0 DUP9 PUSH1 0xE0 MLOAD DUP7 PUSH3 0x53E PUSH1 0x20 SHL PUSH1 0x20 SHR JUMP JUMPDEST DUP3 ISZERO PUSH3 0x7DC JUMPI PUSH3 0x7DC DUP9 PUSH1 0x80 MLOAD DUP6 PUSH3 0x53E PUSH1 0x20 SHL PUSH1 0x20 SHR JUMP JUMPDEST DUP2 ISZERO PUSH3 0x7F8 JUMPI PUSH3 0x7F8 DUP9 PUSH1 0xA0 MLOAD DUP5 PUSH3 0x53E PUSH1 0x20 SHL PUSH1 0x20 SHR JUMP JUMPDEST PUSH1 0x40 DUP1 MLOAD DUP6 DUP2 MSTORE PUSH1 0x20 DUP2 ADD DUP6 SWAP1 MSTORE SWAP1 DUP2 ADD DUP4 SWAP1 MSTORE PUSH32 0x312C5308F42848705A866C73DEC11FD0783C2D64AAC6A97E94467062AD3F4058 SWAP1 PUSH1 0x60 ADD PUSH1 0x40 MLOAD DUP1 SWAP2 SUB SWAP1 LOG1 POP POP POP POP POP POP POP POP JUMP JUMPDEST PUSH1 0xD SLOAD PUSH1 0x0 SWAP1 PUSH3 0x859 DUP4 PUSH4 0x1E13380 PUSH3 0xB81 JUMP JUMPDEST PUSH3 0x865 SWAP2 SWAP1 PUSH3 0xBA1 JUMP JUMPDEST SWAP1 POP PUSH3 0x278D00 DUP2 GT ISZERO PUSH3 0x2EC JUMPI PUSH1 0x40 MLOAD DUP1 PUSH1 0x40 ADD PUSH1 0x40 MSTORE DUP1 DUP3 TIMESTAMP PUSH3 0x88C SWAP2 SWAP1 PUSH3 0xBC4 JUMP JUMPDEST DUP2 MSTORE PUSH1 0x20 SWAP1 DUP2 ADD DUP5 SWAP1 MSTORE PUSH1 0x1 PUSH1 0x1 PUSH1 0xA0 SHL SUB DUP6 AND PUSH1 0x0 DUP2 DUP2 MSTORE PUSH1 0xE DUP4 MSTORE PUSH1 0x40 SWAP1 KECCAK256 DUP4 MLOAD DUP2 SSTORE SWAP3 SWAP1 SWAP2 ADD MLOAD PUSH1 0x1 SWAP1 SWAP3 ADD SWAP2 SWAP1 SWAP2 SSTORE PUSH32 0x5394EA92ACA3EA4A83AA22B55619DED8D5EC09B9BFC1C5802C41AE182DFC878E DUP4 PUSH3 0x8ED DUP5 TIMESTAMP PUSH3 0xBC4 JUMP JUMPDEST PUSH1 0x40 DUP1 MLOAD SWAP3 DUP4 MSTORE PUSH1 0x20 DUP4 ADD SWAP2 SWAP1 SWAP2 MSTORE ADD PUSH1 0x40 MLOAD DUP1 SWAP2 SUB SWAP1 LOG2 POP POP POP JUMP JUMPDEST PUSH3 0x92F PUSH1 0x40 MLOAD DUP1 PUSH1 0x60 ADD PUSH1 0x40 MSTORE DUP1 PUSH1 0x0 DUP2 MSTORE PUSH1 0x20 ADD PUSH1 0x0 DUP2 MSTORE PUSH1 0x20 ADD PUSH1 0x0 DUP2 MSTORE POP SWAP1 JUMP JUMPDEST PUSH1 0xC0 MLOAD PUSH3 0x942 SWAP1 PUSH4 0x3C26700 PUSH3 0xBC4 JUMP JUMPDEST TIMESTAMP LT ISZERO PUSH3 0x96F JUMPI POP PUSH1 0x40 DUP1 MLOAD PUSH1 0x60 DUP2 ADD DUP3 MSTORE PUSH1 0x7 SLOAD DUP2 MSTORE PUSH1 0x8 SLOAD PUSH1 0x20 DUP3 ADD MSTORE PUSH1 0x9 SLOAD SWAP2 DUP2 ADD SWAP2 SWAP1 SWAP2 MSTORE SWAP1 JUMP JUMPDEST POP PUSH1 0x40 DUP1 MLOAD PUSH1 0x60 DUP2 ADD DUP3 MSTORE PUSH1 0xA SLOAD DUP2 MSTORE PUSH1 0xB SLOAD PUSH1 0x20 DUP3 ADD MSTORE PUSH1 0xC SLOAD SWAP2 DUP2 ADD SWAP2 SWAP1 SWAP2 MSTORE SWAP1 JUMP JUMPDEST DUP1 MLOAD PUSH1 0x1 PUSH1 0x1 PUSH1 0xA0 SHL SUB DUP2 AND DUP2 EQ PUSH3 0x9AC JUMPI PUSH1 0x0 DUP1 REVERT JUMPDEST SWAP2 SWAP1 POP JUMP JUMPDEST PUSH1 0x0 DUP1 PUSH1 0x0 PUSH1 0x60 DUP5 DUP7 SUB SLT ISZERO PUSH3 0x9C7 JUMPI PUSH1 0x0 DUP1 REVERT JUMPDEST PUSH3 0x9D2 DUP5 PUSH3 0x994 JUMP JUMPDEST SWAP3 POP PUSH3 0x9E2 PUSH1 0x20 DUP6 ADD PUSH3 0x994 JUMP JUMPDEST SWAP2 POP PUSH3 0x9F2 PUSH1 0x40 DUP6 ADD PUSH3 0x994 JUMP JUMPDEST SWAP1 POP SWAP3 POP SWAP3 POP SWAP3 JUMP JUMPDEST PUSH4 0x4E487B71 PUSH1 0xE0 SHL PUSH1 0x0 MSTORE PUSH1 0x41 PUSH1 0x4 MSTORE PUSH1 0x24 PUSH1 0x0 REVERT JUMPDEST PUSH1 0x1 DUP2 DUP2 SHR SWAP1 DUP3 AND DUP1 PUSH3 0xA26 JUMPI PUSH1 0x7F DUP3 AND SWAP2 POP JUMPDEST PUSH1 0x20 DUP3 LT DUP2 SUB PUSH3 0xA47 JUMPI PUSH4 0x4E487B71 PUSH1 0xE0 SHL PUSH1 0x0 MSTORE PUSH1 0x22 PUSH1 0x4 MSTORE PUSH1 0x24 PUSH1 0x0 REVERT JUMPDEST POP SWAP2 SWAP1 POP JUMP JUMPDEST PUSH1 0x1F DUP3 GT ISZERO PUSH3 0x2EC JUMPI PUSH1 0x0 DUP2 DUP2 MSTORE PUSH1 0x20 DUP2 KECCAK256 PUSH1 0x1F DUP6 ADD PUSH1 0x5 SHR DUP2 ADD PUSH1 0x20 DUP7 LT ISZERO PUSH3 0xA76 JUMPI POP DUP1 JUMPDEST PUSH1 0x1F DUP6 ADD PUSH1 0x5 SHR DUP3 ADD SWAP2 POP JUMPDEST DUP2 DUP2 LT ISZERO PUSH3 0xA97 JUMPI DUP3 DUP2 SSTORE PUSH1 0x1 ADD PUSH3 0xA82 JUMP JUMPDEST POP POP POP POP POP POP JUMP JUMPDEST DUP2 MLOAD PUSH1 0x1 PUSH1 0x1 PUSH1 0x40 SHL SUB DUP2 GT ISZERO PUSH3 0xABB JUMPI PUSH3 0xABB PUSH3 0x9FB JUMP JUMPDEST PUSH3 0xAD3 DUP2 PUSH3 0xACC DUP5 SLOAD PUSH3 0xA11 JUMP JUMPDEST DUP5 PUSH3 0xA4D JUMP JUMPDEST PUSH1 0x20 DUP1 PUSH1 0x1F DUP4 GT PUSH1 0x1 DUP2 EQ PUSH3 0xB0B JUMPI PUSH1 0x0 DUP5 ISZERO PUSH3 0xAF2 JUMPI POP DUP6 DUP4 ADD MLOAD JUMPDEST PUSH1 0x0 NOT PUSH1 0x3 DUP7 SWAP1 SHL SHR NOT AND PUSH1 0x1 DUP6 SWAP1 SHL OR DUP6 SSTORE PUSH3 0xA97 JUMP JUMPDEST PUSH1 0x0 DUP6 DUP2 MSTORE PUSH1 0x20 DUP2 KECCAK256 PUSH1 0x1F NOT DUP7 AND SWAP2 JUMPDEST DUP3 DUP2 LT ISZERO PUSH3 0xB3C JUMPI DUP9 DUP7 ADD MLOAD DUP3 SSTORE SWAP5 DUP5 ADD SWAP5 PUSH1 0x1 SWAP1 SWAP2 ADD SWAP1 DUP5 ADD PUSH3 0xB1B JUMP JUMPDEST POP DUP6 DUP3 LT ISZERO PUSH3 0xB5B JUMPI DUP8 DUP6 ADD MLOAD PUSH1 0x0 NOT PUSH1 0x3 DUP9 SWAP1 SHL PUSH1 0xF8 AND SHR NOT AND DUP2 SSTORE JUMPDEST POP POP POP POP POP PUSH1 0x1 SWAP1 DUP2 SHL ADD SWAP1 SSTORE POP JUMP JUMPDEST PUSH4 0x4E487B71 PUSH1 0xE0 SHL PUSH1 0x0 MSTORE PUSH1 0x11 PUSH1 0x4 MSTORE PUSH1 0x24 PUSH1 0x0 REVERT JUMPDEST DUP1 DUP3 MUL DUP2 ISZERO DUP3 DUP3 DIV DUP5 EQ OR PUSH3 0xB9B JUMPI PUSH3 0xB9B PUSH3 0xB6B JUMP JUMPDEST SWAP3 SWAP2 POP POP JUMP JUMPDEST PUSH1 0x0 DUP3 PUSH3 0xBBF JUMPI PUSH4 0x4E487B71 PUSH1 0xE0 SHL PUSH1 0x0 MSTORE PUSH1 0x12 PUSH1 0x4 MSTORE PUSH1 0x24 PUSH1 0x0 REVERT JUMPDEST POP DIV SWAP1 JUMP JUMPDEST DUP1 DUP3 ADD DUP1 DUP3 GT ISZERO PUSH3 0xB9B JUMPI PUSH3 0xB9B PUSH3 0xB6B JUMP JUMPDEST DUP2 DUP2 SUB DUP2 DUP2 GT ISZERO PUSH3 0xB9B JUMPI PUSH3 0xB9B PUSH3 0xB6B JUMP JUMPDEST PUSH1 0x80 MLOAD PUSH1 0xA0 MLOAD PUSH1 0xC0 MLOAD PUSH1 0xE0 MLOAD PUSH2 0x100 MLOAD PUSH2 0x1323 PUSH3 0xC58 PUSH1 0x0 CODECOPY PUSH1 0x0 DUP2 DUP2 PUSH2 0x450 ADD MSTORE PUSH2 0xE51 ADD MSTORE PUSH1 0x0 PUSH2 0xE91 ADD MSTORE PUSH1 0x0 DUP2 DUP2 PUSH2 0x416 ADD MSTORE PUSH2 0x104A ADD MSTORE PUSH1 0x0 DUP2 DUP2 PUSH2 0x360 ADD MSTORE DUP2 DUP2 PUSH2 0xD4B ADD MSTORE PUSH2 0xEF3 ADD MSTORE PUSH1 0x0 DUP2 DUP2 PUSH2 0x3AD ADD MSTORE PUSH2 0xEC2 ADD MSTORE PUSH2 0x1323 PUSH1 0x0 RETURN INVALID PUSH1 0x80 PUSH1 0x40 MSTORE CALLVALUE DUP1 ISZERO PUSH2 0x10 JUMPI PUSH1 0x0 DUP1 REVERT JUMPDEST POP PUSH1 0x4 CALLDATASIZE LT PUSH2 0x1C4 JUMPI PUSH1 0x0 CALLDATALOAD PUSH1 0xE0 SHR DUP1 PUSH4 0x84E92C00 GT PUSH2 0xF9 JUMPI DUP1 PUSH4 0xA9059CBB GT PUSH2 0x97 JUMPI DUP1 PUSH4 0xE14E7519 GT PUSH2 0x71 JUMPI DUP1 PUSH4 0xE14E7519 EQ PUSH2 0x408 JUMPI DUP1 PUSH4 0xE954F41D EQ PUSH2 0x411 JUMPI DUP1 PUSH4 0xF2FDE38B EQ PUSH2 0x438 JUMPI DUP1 PUSH4 0xF5D7ABB3 EQ PUSH2 0x44B JUMPI PUSH1 0x0 DUP1 REVERT JUMPDEST DUP1 PUSH4 0xA9059CBB EQ PUSH2 0x395 JUMPI DUP1 PUSH4 0xDA19DDFB EQ PUSH2 0x3A8 JUMPI DUP1 PUSH4 0xDD62ED3E EQ PUSH2 0x3CF JUMPI PUSH1 0x0 DUP1 REVERT JUMPDEST DUP1 PUSH4 0x8EBFC796 GT PUSH2 0xD3 JUMPI DUP1 PUSH4 0x8EBFC796 EQ PUSH2 0x340 JUMPI DUP1 PUSH4 0x95D89B41 EQ PUSH2 0x353 JUMPI DUP1 PUSH4 0x9E9DF2B9 EQ PUSH2 0x35B JUMPI DUP1 PUSH4 0xA06655A6 EQ PUSH2 0x382 JUMPI PUSH1 0x0 DUP1 REVERT JUMPDEST DUP1 PUSH4 0x84E92C00 EQ PUSH2 0x314 JUMPI DUP1 PUSH4 0x876B33C8 EQ PUSH2 0x31D JUMPI DUP1 PUSH4 0x8DA5CB5B EQ PUSH2 0x32F JUMPI PUSH1 0x0 DUP1 REVERT JUMPDEST DUP1 PUSH4 0x40A24E6C GT PUSH2 0x166 JUMPI DUP1 PUSH4 0x4EE13E97 GT PUSH2 0x140 JUMPI DUP1 PUSH4 0x4EE13E97 EQ PUSH2 0x2C7 JUMPI DUP1 PUSH4 0x5D0F1ADA EQ PUSH2 0x2D0 JUMPI DUP1 PUSH4 0x70A08231 EQ PUSH2 0x2E3 JUMPI DUP1 PUSH4 0x715018A6 EQ PUSH2 0x30C JUMPI PUSH1 0x0 DUP1 REVERT JUMPDEST DUP1 PUSH4 0x40A24E6C EQ PUSH2 0x27E JUMPI DUP1 PUSH4 0x429494F2 EQ PUSH2 0x293 JUMPI DUP1 PUSH4 0x48D79155 EQ PUSH2 0x2BE JUMPI PUSH1 0x0 DUP1 REVERT JUMPDEST DUP1 PUSH4 0x18160DDD GT PUSH2 0x1A2 JUMPI DUP1 PUSH4 0x18160DDD EQ PUSH2 0x237 JUMPI DUP1 PUSH4 0x23B872DD EQ PUSH2 0x249 JUMPI DUP1 PUSH4 0x313CE567 EQ PUSH2 0x25C JUMPI DUP1 PUSH4 0x32CB6B0C EQ PUSH2 0x26B JUMPI PUSH1 0x0 DUP1 REVERT JUMPDEST DUP1 PUSH4 0x6FDDE03 EQ PUSH2 0x1C9 JUMPI DUP1 PUSH4 0x95EA7B3 EQ PUSH2 0x1E7 JUMPI DUP1 PUSH4 0x14B800B4 EQ PUSH2 0x20A JUMPI JUMPDEST PUSH1 0x0 DUP1 REVERT JUMPDEST PUSH2 0x1D1 PUSH2 0x472 JUMP JUMPDEST PUSH1 0x40 MLOAD PUSH2 0x1DE SWAP2 SWAP1 PUSH2 0x10C4 JUMP JUMPDEST PUSH1 0x40 MLOAD DUP1 SWAP2 SUB SWAP1 RETURN JUMPDEST PUSH2 0x1FA PUSH2 0x1F5 CALLDATASIZE PUSH1 0x4 PUSH2 0x112E JUMP JUMPDEST PUSH2 0x504 JUMP JUMPDEST PUSH1 0x40 MLOAD SWAP1 ISZERO ISZERO DUP2 MSTORE PUSH1 0x20 ADD PUSH2 0x1DE JUMP JUMPDEST PUSH1 0xA SLOAD PUSH1 0xB SLOAD PUSH1 0xC SLOAD PUSH2 0x21C SWAP3 SWAP2 SWAP1 DUP4 JUMP JUMPDEST PUSH1 0x40 DUP1 MLOAD SWAP4 DUP5 MSTORE PUSH1 0x20 DUP5 ADD SWAP3 SWAP1 SWAP3 MSTORE SWAP1 DUP3 ADD MSTORE PUSH1 0x60 ADD PUSH2 0x1DE JUMP JUMPDEST PUSH1 0x2 SLOAD JUMPDEST PUSH1 0x40 MLOAD SWAP1 DUP2 MSTORE PUSH1 0x20 ADD PUSH2 0x1DE JUMP JUMPDEST PUSH2 0x1FA PUSH2 0x257 CALLDATASIZE PUSH1 0x4 PUSH2 0x1158 JUMP JUMPDEST PUSH2 0x51E JUMP JUMPDEST PUSH1 0x40 MLOAD PUSH1 0x12 DUP2 MSTORE PUSH1 0x20 ADD PUSH2 0x1DE JUMP JUMPDEST PUSH2 0x23B PUSH12 0x19D971E4FE8401E74000000 DUP2 JUMP JUMPDEST PUSH2 0x291 PUSH2 0x28C CALLDATASIZE PUSH1 0x4 PUSH2 0x1194 JUMP JUMPDEST PUSH2 0x542 JUMP JUMPDEST STOP JUMPDEST PUSH1 0x6 SLOAD PUSH2 0x2A6 SWAP1 PUSH1 0x1 PUSH1 0x1 PUSH1 0xA0 SHL SUB AND DUP2 JUMP JUMPDEST PUSH1 0x40 MLOAD PUSH1 0x1 PUSH1 0x1 PUSH1 0xA0 SHL SUB SWAP1 SWAP2 AND DUP2 MSTORE PUSH1 0x20 ADD PUSH2 0x1DE JUMP JUMPDEST PUSH2 0x23B PUSH1 0xD SLOAD DUP2 JUMP JUMPDEST PUSH2 0x23B PUSH1 0x11 SLOAD DUP2 JUMP JUMPDEST PUSH2 0x291 PUSH2 0x2DE CALLDATASIZE PUSH1 0x4 PUSH2 0x11D0 JUMP JUMPDEST PUSH2 0x5AA JUMP JUMPDEST PUSH2 0x23B PUSH2 0x2F1 CALLDATASIZE PUSH1 0x4 PUSH2 0x11E9 JUMP JUMPDEST PUSH1 0x1 PUSH1 0x1 PUSH1 0xA0 SHL SUB AND PUSH1 0x0 SWAP1 DUP2 MSTORE PUSH1 0x20 DUP2 SWAP1 MSTORE PUSH1 0x40 SWAP1 KECCAK256 SLOAD SWAP1 JUMP JUMPDEST PUSH2 0x291 PUSH2 0x638 JUMP JUMPDEST PUSH2 0x23B PUSH1 0x12 SLOAD DUP2 JUMP JUMPDEST PUSH1 0x7 SLOAD PUSH1 0x8 SLOAD PUSH1 0x9 SLOAD PUSH2 0x21C SWAP3 SWAP2 SWAP1 DUP4 JUMP JUMPDEST PUSH1 0x5 SLOAD PUSH1 0x1 PUSH1 0x1 PUSH1 0xA0 SHL SUB AND PUSH2 0x2A6 JUMP JUMPDEST PUSH2 0x291 PUSH2 0x34E CALLDATASIZE PUSH1 0x4 PUSH2 0x1194 JUMP JUMPDEST PUSH2 0x64C JUMP JUMPDEST PUSH2 0x1D1 PUSH2 0x6AC JUMP JUMPDEST PUSH2 0x2A6 PUSH32 0x0 DUP2 JUMP JUMPDEST PUSH2 0x291 PUSH2 0x390 CALLDATASIZE PUSH1 0x4 PUSH2 0x11E9 JUMP JUMPDEST PUSH2 0x6BB JUMP JUMPDEST PUSH2 0x1FA PUSH2 0x3A3 CALLDATASIZE PUSH1 0x4 PUSH2 0x112E JUMP JUMPDEST PUSH2 0x73B JUMP JUMPDEST PUSH2 0x2A6 PUSH32 0x0 DUP2 JUMP JUMPDEST PUSH2 0x23B PUSH2 0x3DD CALLDATASIZE PUSH1 0x4 PUSH2 0x120B JUMP JUMPDEST PUSH1 0x1 PUSH1 0x1 PUSH1 0xA0 SHL SUB SWAP2 DUP3 AND PUSH1 0x0 SWAP1 DUP2 MSTORE PUSH1 0x1 PUSH1 0x20 SWAP1 DUP2 MSTORE PUSH1 0x40 DUP1 DUP4 KECCAK256 SWAP4 SWAP1 SWAP5 AND DUP3 MSTORE SWAP2 SWAP1 SWAP2 MSTORE KECCAK256 SLOAD SWAP1 JUMP JUMPDEST PUSH2 0x23B PUSH1 0x14 SLOAD DUP2 JUMP JUMPDEST PUSH2 0x23B PUSH32 0x0 DUP2 JUMP JUMPDEST PUSH2 0x291 PUSH2 0x446 CALLDATASIZE PUSH1 0x4 PUSH2 0x11E9 JUMP JUMPDEST PUSH2 0x749 JUMP JUMPDEST PUSH2 0x23B PUSH32 0x0 DUP2 JUMP JUMPDEST PUSH1 0x60 PUSH1 0x3 DUP1 SLOAD PUSH2 0x481 SWAP1 PUSH2 0x123E JUMP JUMPDEST DUP1 PUSH1 0x1F ADD PUSH1 0x20 DUP1 SWAP2 DIV MUL PUSH1 0x20 ADD PUSH1 0x40 MLOAD SWAP1 DUP2 ADD PUSH1 0x40 MSTORE DUP1 SWAP3 SWAP2 SWAP1 DUP2 DUP2 MSTORE PUSH1 0x20 ADD DUP3 DUP1 SLOAD PUSH2 0x4AD SWAP1 PUSH2 0x123E JUMP JUMPDEST DUP1 ISZERO PUSH2 0x4FA JUMPI DUP1 PUSH1 0x1F LT PUSH2 0x4CF JUMPI PUSH2 0x100 DUP1 DUP4 SLOAD DIV MUL DUP4 MSTORE SWAP2 PUSH1 0x20 ADD SWAP2 PUSH2 0x4FA JUMP JUMPDEST DUP3 ADD SWAP2 SWAP1 PUSH1 0x0 MSTORE PUSH1 0x20 PUSH1 0x0 KECCAK256 SWAP1 JUMPDEST DUP2 SLOAD DUP2 MSTORE SWAP1 PUSH1 0x1 ADD SWAP1 PUSH1 0x20 ADD DUP1 DUP4 GT PUSH2 0x4DD JUMPI DUP3 SWAP1 SUB PUSH1 0x1F AND DUP3 ADD SWAP2 JUMPDEST POP POP POP POP POP SWAP1 POP SWAP1 JUMP JUMPDEST PUSH1 0x0 CALLER PUSH2 0x512 DUP2 DUP6 DUP6 PUSH2 0x787 JUMP JUMPDEST PUSH1 0x1 SWAP2 POP POP JUMPDEST SWAP3 SWAP2 POP POP JUMP JUMPDEST PUSH1 0x0 CALLER PUSH2 0x52C DUP6 DUP3 DUP6 PUSH2 0x799 JUMP JUMPDEST PUSH2 0x537 DUP6 DUP6 DUP6 PUSH2 0x818 JUMP JUMPDEST POP PUSH1 0x1 SWAP5 SWAP4 POP POP POP POP JUMP JUMPDEST PUSH2 0x54A PUSH2 0x877 JUMP JUMPDEST PUSH1 0x1 PUSH1 0x1 PUSH1 0xA0 SHL SUB DUP3 AND PUSH1 0x0 DUP2 DUP2 MSTORE PUSH1 0x10 PUSH1 0x20 SWAP1 DUP2 MSTORE PUSH1 0x40 SWAP2 DUP3 SWAP1 KECCAK256 DUP1 SLOAD PUSH1 0xFF NOT AND DUP6 ISZERO ISZERO SWAP1 DUP2 OR SWAP1 SWAP2 SSTORE SWAP2 MLOAD SWAP2 DUP3 MSTORE PUSH32 0xCB24E6B3B5C6D8781CB66CD454A8E78078DCCD370402B5C2C3F2F92553556F9B SWAP2 ADD JUMPDEST PUSH1 0x40 MLOAD DUP1 SWAP2 SUB SWAP1 LOG2 POP POP JUMP JUMPDEST PUSH2 0x5B2 PUSH2 0x877 JUMP JUMPDEST PUSH2 0x12C DUP2 GT ISZERO PUSH2 0x5FD JUMPI PUSH1 0x40 MLOAD PUSH3 0x461BCD PUSH1 0xE5 SHL DUP2 MSTORE PUSH1 0x20 PUSH1 0x4 DUP3 ADD MSTORE PUSH1 0x11 PUSH1 0x24 DUP3 ADD MSTORE PUSH17 0x436F6F6C646F776E20746F6F206C6F6E67 PUSH1 0x78 SHL PUSH1 0x44 DUP3 ADD MSTORE PUSH1 0x64 ADD JUMPDEST PUSH1 0x40 MLOAD DUP1 SWAP2 SUB SWAP1 REVERT JUMPDEST PUSH1 0x14 DUP2 SWAP1 SSTORE PUSH1 0x40 MLOAD DUP2 DUP2 MSTORE PUSH32 0xAA382E040A4D9EFEB5A813FB9D768CB574053B0DFD7CDF78936A29006E0A7A1C SWAP1 PUSH1 0x20 ADD PUSH1 0x40 MLOAD DUP1 SWAP2 SUB SWAP1 LOG1 POP JUMP JUMPDEST PUSH2 0x640 PUSH2 0x877 JUMP JUMPDEST PUSH2 0x64A PUSH1 0x0 PUSH2 0x8A4 JUMP JUMPDEST JUMP JUMPDEST PUSH2 0x654 PUSH2 0x877 JUMP JUMPDEST PUSH1 0x1 PUSH1 0x1 PUSH1 0xA0 SHL SUB DUP3 AND PUSH1 0x0 DUP2 DUP2 MSTORE PUSH1 0xF PUSH1 0x20 SWAP1 DUP2 MSTORE PUSH1 0x40 SWAP2 DUP3 SWAP1 KECCAK256 DUP1 SLOAD PUSH1 0xFF NOT AND DUP6 ISZERO ISZERO SWAP1 DUP2 OR SWAP1 SWAP2 SSTORE SWAP2 MLOAD SWAP2 DUP3 MSTORE PUSH32 0x9F1EAEE9AD9CB68284F0DC523AA42C465ED33B53F8DA7FC7294CCEA47358BBDF SWAP2 ADD PUSH2 0x59E JUMP JUMPDEST PUSH1 0x60 PUSH1 0x4 DUP1 SLOAD PUSH2 0x481 SWAP1 PUSH2 0x123E JUMP JUMPDEST PUSH2 0x6C3 PUSH2 0x877 JUMP JUMPDEST PUSH1 0x6 DUP1 SLOAD PUSH1 0x1 PUSH1 0x1 PUSH1 0xA0 SHL SUB NOT AND PUSH1 0x1 PUSH1 0x1 PUSH1 0xA0 SHL SUB DUP4 AND SWAP1 DUP2 OR SWAP1 SWAP2 SSTORE PUSH1 0x0 DUP2 DUP2 MSTORE PUSH1 0xF PUSH1 0x20 SWAP1 DUP2 MSTORE PUSH1 0x40 DUP1 DUP4 KECCAK256 DUP1 SLOAD PUSH1 0xFF NOT SWAP1 DUP2 AND PUSH1 0x1 SWAP1 DUP2 OR SWAP1 SWAP3 SSTORE PUSH1 0x10 SWAP1 SWAP4 MSTORE DUP2 DUP5 KECCAK256 DUP1 SLOAD SWAP1 SWAP4 AND OR SWAP1 SWAP2 SSTORE MLOAD PUSH32 0xE0D3FB541CE2B3C956D367EC89AD81E907E861539CDC01A6B81CD5652AE05F89 SWAP2 SWAP1 LOG2 POP JUMP JUMPDEST PUSH1 0x0 CALLER PUSH2 0x512 DUP2 DUP6 DUP6 PUSH2 0x818 JUMP JUMPDEST PUSH2 0x751 PUSH2 0x877 JUMP JUMPDEST PUSH1 0x1 PUSH1 0x1 PUSH1 0xA0 SHL SUB DUP2 AND PUSH2 0x77B JUMPI PUSH1 0x40 MLOAD PUSH4 0x1E4FBDF7 PUSH1 0xE0 SHL DUP2 MSTORE PUSH1 0x0 PUSH1 0x4 DUP3 ADD MSTORE PUSH1 0x24 ADD PUSH2 0x5F4 JUMP JUMPDEST PUSH2 0x784 DUP2 PUSH2 0x8A4 JUMP JUMPDEST POP JUMP JUMPDEST PUSH2 0x794 DUP4 DUP4 DUP4 PUSH1 0x1 PUSH2 0x8F6 JUMP JUMPDEST POP POP POP JUMP JUMPDEST PUSH1 0x1 PUSH1 0x1 PUSH1 0xA0 SHL SUB DUP4 DUP2 AND PUSH1 0x0 SWAP1 DUP2 MSTORE PUSH1 0x1 PUSH1 0x20 SWAP1 DUP2 MSTORE PUSH1 0x40 DUP1 DUP4 KECCAK256 SWAP4 DUP7 AND DUP4 MSTORE SWAP3 SWAP1 MSTORE KECCAK256 SLOAD PUSH1 0x0 NOT DUP2 LT ISZERO PUSH2 0x812 JUMPI DUP2 DUP2 LT ISZERO PUSH2 0x803 JUMPI PUSH1 0x40 MLOAD PUSH4 0x7DC7A0D9 PUSH1 0xE1 SHL DUP2 MSTORE PUSH1 0x1 PUSH1 0x1 PUSH1 0xA0 SHL SUB DUP5 AND PUSH1 0x4 DUP3 ADD MSTORE PUSH1 0x24 DUP2 ADD DUP3 SWAP1 MSTORE PUSH1 0x44 DUP2 ADD DUP4 SWAP1 MSTORE PUSH1 0x64 ADD PUSH2 0x5F4 JUMP JUMPDEST PUSH2 0x812 DUP5 DUP5 DUP5 DUP5 SUB PUSH1 0x0 PUSH2 0x8F6 JUMP JUMPDEST POP POP POP POP JUMP JUMPDEST PUSH1 0x1 PUSH1 0x1 PUSH1 0xA0 SHL SUB DUP4 AND PUSH2 0x842 JUMPI PUSH1 0x40 MLOAD PUSH4 0x4B637E8F PUSH1 0xE1 SHL DUP2 MSTORE PUSH1 0x0 PUSH1 0x4 DUP3 ADD MSTORE PUSH1 0x24 ADD PUSH2 0x5F4 JUMP JUMPDEST PUSH1 0x1 PUSH1 0x1 PUSH1 0xA0 SHL SUB DUP3 AND PUSH2 0x86C JUMPI PUSH1 0x40 MLOAD PUSH4 0xEC442F05 PUSH1 0xE0 SHL DUP2 MSTORE PUSH1 0x0 PUSH1 0x4 DUP3 ADD MSTORE PUSH1 0x24 ADD PUSH2 0x5F4 JUMP JUMPDEST PUSH2 0x794 DUP4 DUP4 DUP4 PUSH2 0x9CB JUMP JUMPDEST PUSH1 0x5 SLOAD PUSH1 0x1 PUSH1 0x1 PUSH1 0xA0 SHL SUB AND CALLER EQ PUSH2 0x64A JUMPI PUSH1 0x40 MLOAD PUSH4 0x118CDAA7 PUSH1 0xE0 SHL DUP2 MSTORE CALLER PUSH1 0x4 DUP3 ADD MSTORE PUSH1 0x24 ADD PUSH2 0x5F4 JUMP JUMPDEST PUSH1 0x5 DUP1 SLOAD PUSH1 0x1 PUSH1 0x1 PUSH1 0xA0 SHL SUB DUP4 DUP2 AND PUSH1 0x1 PUSH1 0x1 PUSH1 0xA0 SHL SUB NOT DUP4 AND DUP2 OR SWAP1 SWAP4 SSTORE PUSH1 0x40 MLOAD SWAP2 AND SWAP2 SWAP1 DUP3 SWAP1 PUSH32 0x8BE0079C531659141344CD1FD0A4F28419497F9722A3DAAFE3B4186F6B6457E0 SWAP1 PUSH1 0x0 SWAP1 LOG3 POP POP JUMP JUMPDEST PUSH1 0x1 PUSH1 0x1 PUSH1 0xA0 SHL SUB DUP5 AND PUSH2 0x920 JUMPI PUSH1 0x40 MLOAD PUSH4 0xE602DF05 PUSH1 0xE0 SHL DUP2 MSTORE PUSH1 0x0 PUSH1 0x4 DUP3 ADD MSTORE PUSH1 0x24 ADD PUSH2 0x5F4 JUMP JUMPDEST PUSH1 0x1 PUSH1 0x1 PUSH1 0xA0 SHL SUB DUP4 AND PUSH2 0x94A JUMPI PUSH1 0x40 MLOAD PUSH4 0x4A1406B1 PUSH1 0xE1 SHL DUP2 MSTORE PUSH1 0x0 PUSH1 0x4 DUP3 ADD MSTORE PUSH1 0x24 ADD PUSH2 0x5F4 JUMP JUMPDEST PUSH1 0x1 PUSH1 0x1 PUSH1 0xA0 SHL SUB DUP1 DUP6 AND PUSH1 0x0 SWAP1 DUP2 MSTORE PUSH1 0x1 PUSH1 0x20 SWAP1 DUP2 MSTORE PUSH1 0x40 DUP1 DUP4 KECCAK256 SWAP4 DUP8 AND DUP4 MSTORE SWAP3 SWAP1 MSTORE KECCAK256 DUP3 SWAP1 SSTORE DUP1 ISZERO PUSH2 0x812 JUMPI DUP3 PUSH1 0x1 PUSH1 0x1 PUSH1 0xA0 SHL SUB AND DUP5 PUSH1 0x1 PUSH1 0x1 PUSH1 0xA0 SHL SUB AND PUSH32 0x8C5BE1E5EBEC7D5BD14F71427D1E84F3DD0314C0F7B2291E5B200AC8C7C3B925 DUP5 PUSH1 0x40 MLOAD PUSH2 0x9BD SWAP2 DUP2 MSTORE PUSH1 0x20 ADD SWAP1 JUMP JUMPDEST PUSH1 0x40 MLOAD DUP1 SWAP2 SUB SWAP1 LOG3 POP POP POP POP JUMP JUMPDEST PUSH1 0x1 PUSH1 0x1 PUSH1 0xA0 SHL SUB DUP4 AND PUSH2 0x9E4 JUMPI PUSH2 0x794 DUP4 DUP4 DUP4 PUSH2 0xC0F JUMP JUMPDEST PUSH1 0x1 PUSH1 0x1 PUSH1 0xA0 SHL SUB DUP4 AND PUSH1 0x0 SWAP1 DUP2 MSTORE PUSH1 0xF PUSH1 0x20 MSTORE PUSH1 0x40 DUP2 KECCAK256 SLOAD PUSH1 0xFF AND ISZERO DUP1 ISZERO PUSH2 0xA26 JUMPI POP PUSH1 0x1 PUSH1 0x1 PUSH1 0xA0 SHL SUB DUP4 AND PUSH1 0x0 SWAP1 DUP2 MSTORE PUSH1 0xF PUSH1 0x20 MSTORE PUSH1 0x40 SWAP1 KECCAK256 SLOAD PUSH1 0xFF AND ISZERO JUMPDEST SWAP1 POP DUP1 DUP1 ISZERO PUSH2 0xA42 JUMPI POP PUSH1 0x6 SLOAD PUSH1 0x1 PUSH1 0x1 PUSH1 0xA0 SHL SUB DUP6 DUP2 AND SWAP2 AND EQ JUMPDEST DUP1 ISZERO PUSH2 0xA5D JUMPI POP PUSH1 0x11 SLOAD PUSH1 0x12 SLOAD PUSH2 0xA59 SWAP2 SWAP1 PUSH2 0x128E JUMP JUMPDEST NUMBER GT ISZERO JUMPDEST ISZERO PUSH2 0xA6C JUMPI PUSH2 0x812 DUP4 DUP4 PUSH2 0xD39 JUMP JUMPDEST DUP1 ISZERO PUSH2 0xAF5 JUMPI PUSH1 0x14 SLOAD PUSH1 0x1 PUSH1 0x1 PUSH1 0xA0 SHL SUB DUP6 AND PUSH1 0x0 SWAP1 DUP2 MSTORE PUSH1 0x13 PUSH1 0x20 MSTORE PUSH1 0x40 SWAP1 KECCAK256 SLOAD PUSH2 0xA98 SWAP2 SWAP1 PUSH2 0x128E JUMP JUMPDEST TIMESTAMP LT ISZERO PUSH2 0xAD9 JUMPI PUSH1 0x40 MLOAD PUSH3 0x461BCD PUSH1 0xE5 SHL DUP2 MSTORE PUSH1 0x20 PUSH1 0x4 DUP3 ADD MSTORE PUSH1 0xF PUSH1 0x24 DUP3 ADD MSTORE PUSH15 0x436F6F6C646F776E20616374697665 PUSH1 0x88 SHL PUSH1 0x44 DUP3 ADD MSTORE PUSH1 0x64 ADD PUSH2 0x5F4 JUMP JUMPDEST PUSH1 0x1 PUSH1 0x1 PUSH1 0xA0 SHL SUB DUP5 AND PUSH1 0x0 SWAP1 DUP2 MSTORE PUSH1 0x13 PUSH1 0x20 MSTORE PUSH1 0x40 SWAP1 KECCAK256 TIMESTAMP SWAP1 SSTORE JUMPDEST DUP1 ISZERO PUSH2 0xB0B JUMPI PUSH2 0xB06 DUP5 DUP5 DUP5 PUSH2 0xDAB JUMP JUMPDEST PUSH2 0xB16 JUMP JUMPDEST PUSH2 0xB16 DUP5 DUP5 DUP5 PUSH2 0xC0F JUMP JUMPDEST PUSH1 0x1 PUSH1 0x1 PUSH1 0xA0 SHL SUB DUP4 AND PUSH1 0x0 SWAP1 DUP2 MSTORE PUSH1 0x10 PUSH1 0x20 MSTORE PUSH1 0x40 SWAP1 KECCAK256 SLOAD PUSH1 0xFF AND PUSH2 0xBA0 JUMPI PUSH1 0xD SLOAD PUSH1 0x1 PUSH1 0x1 PUSH1 0xA0 SHL SUB DUP5 AND PUSH1 0x0 SWAP1 DUP2 MSTORE PUSH1 0x20 DUP2 SWAP1 MSTORE PUSH1 0x40 SWAP1 KECCAK256 SLOAD GT ISZERO PUSH2 0xBA0 JUMPI PUSH1 0x40 MLOAD PUSH3 0x461BCD PUSH1 0xE5 SHL DUP2 MSTORE PUSH1 0x20 PUSH1 0x4 DUP3 ADD MSTORE PUSH1 0x18 PUSH1 0x24 DUP3 ADD MSTORE PUSH32 0x45786365656473206D61782077616C6C6574206C696D69740000000000000000 PUSH1 0x44 DUP3 ADD MSTORE PUSH1 0x64 ADD PUSH2 0x5F4 JUMP JUMPDEST PUSH1 0x6 SLOAD PUSH1 0x1 PUSH1 0x1 PUSH1 0xA0 SHL SUB DUP6 DUP2 AND SWAP2 AND EQ DUP1 ISZERO PUSH2 0xBDB JUMPI POP DUP2 PUSH2 0xBD8 DUP5 PUSH1 0x1 PUSH1 0x1 PUSH1 0xA0 SHL SUB AND PUSH1 0x0 SWAP1 DUP2 MSTORE PUSH1 0x20 DUP2 SWAP1 MSTORE PUSH1 0x40 SWAP1 KECCAK256 SLOAD SWAP1 JUMP JUMPDEST LT ISZERO JUMPDEST DUP1 ISZERO PUSH2 0xC00 JUMPI POP PUSH1 0x1 PUSH1 0x1 PUSH1 0xA0 SHL SUB DUP4 AND PUSH1 0x0 SWAP1 DUP2 MSTORE PUSH1 0x10 PUSH1 0x20 MSTORE PUSH1 0x40 SWAP1 KECCAK256 SLOAD PUSH1 0xFF AND ISZERO JUMPDEST ISZERO PUSH2 0x812 JUMPI PUSH2 0x812 DUP4 DUP4 PUSH2 0xF63 JUMP JUMPDEST PUSH1 0x1 PUSH1 0x1 PUSH1 0xA0 SHL SUB DUP4 AND PUSH2 0xC3A JUMPI DUP1 PUSH1 0x2 PUSH1 0x0 DUP3 DUP3 SLOAD PUSH2 0xC2F SWAP2 SWAP1 PUSH2 0x128E JUMP JUMPDEST SWAP1 SWAP2 SSTORE POP PUSH2 0xCAC SWAP1 POP JUMP JUMPDEST PUSH1 0x1 PUSH1 0x1 PUSH1 0xA0 SHL SUB DUP4 AND PUSH1 0x0 SWAP1 DUP2 MSTORE PUSH1 0x20 DUP2 SWAP1 MSTORE PUSH1 0x40 SWAP1 KECCAK256 SLOAD DUP2 DUP2 LT ISZERO PUSH2 0xC8D JUMPI PUSH1 0x40 MLOAD PUSH4 0x391434E3 PUSH1 0xE2 SHL DUP2 MSTORE PUSH1 0x1 PUSH1 0x1 PUSH1 0xA0 SHL SUB DUP6 AND PUSH1 0x4 DUP3 ADD MSTORE PUSH1 0x24 DUP2 ADD DUP3 SWAP1 MSTORE PUSH1 0x44 DUP2 ADD DUP4 SWAP1 MSTORE PUSH1 0x64 ADD PUSH2 0x5F4 JUMP JUMPDEST PUSH1 0x1 PUSH1 0x1 PUSH1 0xA0 SHL SUB DUP5 AND PUSH1 0x0 SWAP1 DUP2 MSTORE PUSH1 0x20 DUP2 SWAP1 MSTORE PUSH1 0x40 SWAP1 KECCAK256 SWAP1 DUP3 SWAP1 SUB SWAP1 SSTORE JUMPDEST PUSH1 0x1 PUSH1 0x1 PUSH1 0xA0 SHL SUB DUP3 AND PUSH2 0xCC8 JUMPI PUSH1 0x2 DUP1 SLOAD DUP3 SWAP1 SUB SWAP1 SSTORE PUSH2 0xCE7 JUMP JUMPDEST PUSH1 0x1 PUSH1 0x1 PUSH1 0xA0 SHL SUB DUP3 AND PUSH1 0x0 SWAP1 DUP2 MSTORE PUSH1 0x20 DUP2 SWAP1 MSTORE PUSH1 0x40 SWAP1 KECCAK256 DUP1 SLOAD DUP3 ADD SWAP1 SSTORE JUMPDEST DUP2 PUSH1 0x1 PUSH1 0x1 PUSH1 0xA0 SHL SUB AND DUP4 PUSH1 0x1 PUSH1 0x1 PUSH1 0xA0 SHL SUB AND PUSH32 0xDDF252AD1BE2C89B69C2B068FC378DAA952BA7F163C4A11628F55A4DF523B3EF DUP4 PUSH1 0x40 MLOAD PUSH2 0xD2C SWAP2 DUP2 MSTORE PUSH1 0x20 ADD SWAP1 JUMP JUMPDEST PUSH1 0x40 MLOAD DUP1 SWAP2 SUB SWAP1 LOG3 POP POP POP JUMP JUMPDEST PUSH1 0x6 SLOAD PUSH2 0xD70 SWAP1 PUSH1 0x1 PUSH1 0x1 PUSH1 0xA0 SHL SUB AND PUSH32 0x0 DUP4 PUSH2 0xC0F JUMP JUMPDEST DUP2 PUSH1 0x1 PUSH1 0x1 PUSH1 0xA0 SHL SUB AND PUSH32 0xAB4A0400B4E49E5BE3FCFD84AFEA49E7D6E0352A244E32F3734E2791532D8876 DUP3 PUSH1 0x40 MLOAD PUSH2 0x59E SWAP2 DUP2 MSTORE PUSH1 0x20 ADD SWAP1 JUMP JUMPDEST PUSH1 0x0 PUSH2 0xDB5 PUSH2 0x1021 JUMP JUMPDEST SWAP1 POP PUSH1 0x0 PUSH2 0x2710 DUP3 PUSH1 0x0 ADD MLOAD DUP5 PUSH2 0xDCC SWAP2 SWAP1 PUSH2 0x12A1 JUMP JUMPDEST PUSH2 0xDD6 SWAP2 SWAP1 PUSH2 0x12B8 JUMP JUMPDEST SWAP1 POP PUSH1 0x0 PUSH2 0x2710 DUP4 PUSH1 0x20 ADD MLOAD DUP6 PUSH2 0xDED SWAP2 SWAP1 PUSH2 0x12A1 JUMP JUMPDEST PUSH2 0xDF7 SWAP2 SWAP1 PUSH2 0x12B8 JUMP JUMPDEST SWAP1 POP PUSH1 0x0 PUSH2 0x2710 DUP5 PUSH1 0x40 ADD MLOAD DUP7 PUSH2 0xE0E SWAP2 SWAP1 PUSH2 0x12A1 JUMP JUMPDEST PUSH2 0xE18 SWAP2 SWAP1 PUSH2 0x12B8 JUMP JUMPDEST SWAP1 POP PUSH1 0x0 DUP2 DUP4 PUSH2 0xE28 DUP7 DUP10 PUSH2 0x12DA JUMP JUMPDEST PUSH2 0xE32 SWAP2 SWAP1 PUSH2 0x12DA JUMP JUMPDEST PUSH2 0xE3C SWAP2 SWAP1 PUSH2 0x12DA JUMP JUMPDEST SWAP1 POP DUP1 ISZERO PUSH2 0xE4F JUMPI PUSH2 0xE4F DUP9 DUP9 DUP4 PUSH2 0xC0F JUMP JUMPDEST PUSH32 0x0 PUSH2 0xE79 PUSH1 0x2 SLOAD SWAP1 JUMP JUMPDEST GT DUP1 ISZERO PUSH2 0xE86 JUMPI POP PUSH1 0x0 DUP5 GT JUMPDEST ISZERO PUSH2 0xEB6 JUMPI PUSH2 0xEB6 DUP9 PUSH32 0x0 DUP7 PUSH2 0xC0F JUMP JUMPDEST DUP3 ISZERO PUSH2 0xEE7 JUMPI PUSH2 0xEE7 DUP9 PUSH32 0x0 DUP6 PUSH2 0xC0F JUMP JUMPDEST DUP2 ISZERO PUSH2 0xF18 JUMPI PUSH2 0xF18 DUP9 PUSH32 0x0 DUP5 PUSH2 0xC0F JUMP JUMPDEST PUSH1 0x40 DUP1 MLOAD DUP6 DUP2 MSTORE PUSH1 0x20 DUP2 ADD DUP6 SWAP1 MSTORE SWAP1 DUP2 ADD DUP4 SWAP1 MSTORE PUSH32 0x312C5308F42848705A866C73DEC11FD0783C2D64AAC6A97E94467062AD3F4058 SWAP1 PUSH1 0x60 ADD PUSH1 0x40 MLOAD DUP1 SWAP2 SUB SWAP1 LOG1 POP POP POP POP POP POP POP POP JUMP JUMPDEST PUSH1 0xD SLOAD PUSH1 0x0 SWAP1 PUSH2 0xF77 DUP4 PUSH4 0x1E13380 PUSH2 0x12A1 JUMP JUMPDEST PUSH2 0xF81 SWAP2 SWAP1 PUSH2 0x12B8 JUMP JUMPDEST SWAP1 POP PUSH3 0x278D00 DUP2 GT ISZERO PUSH2 0x794 JUMPI PUSH1 0x40 MLOAD DUP1 PUSH1 0x40 ADD PUSH1 0x40 MSTORE DUP1 DUP3 TIMESTAMP PUSH2 0xFA5 SWAP2 SWAP1 PUSH2 0x128E JUMP JUMPDEST DUP2 MSTORE PUSH1 0x20 SWAP1 DUP2 ADD DUP5 SWAP1 MSTORE PUSH1 0x1 PUSH1 0x1 PUSH1 0xA0 SHL SUB DUP6 AND PUSH1 0x0 DUP2 DUP2 MSTORE PUSH1 0xE DUP4 MSTORE PUSH1 0x40 SWAP1 KECCAK256 DUP4 MLOAD DUP2 SSTORE SWAP3 SWAP1 SWAP2 ADD MLOAD PUSH1 0x1 SWAP1 SWAP3 ADD SWAP2 SWAP1 SWAP2 SSTORE PUSH32 0x5394EA92ACA3EA4A83AA22B55619DED8D5EC09B9BFC1C5802C41AE182DFC878E DUP4 PUSH2 0x1004 DUP5 TIMESTAMP PUSH2 0x128E JUMP JUMPDEST PUSH1 0x40 DUP1 MLOAD SWAP3 DUP4 MSTORE PUSH1 0x20 DUP4 ADD SWAP2 SWAP1 SWAP2 MSTORE ADD PUSH1 0x40 MLOAD DUP1 SWAP2 SUB SWAP1 LOG2 POP POP POP JUMP JUMPDEST PUSH2 0x1045 PUSH1 0x40 MLOAD DUP1 PUSH1 0x60 ADD PUSH1 0x40 MSTORE DUP1 PUSH1 0x0 DUP2 MSTORE PUSH1 0x20 ADD PUSH1 0x0 DUP2 MSTORE PUSH1 0x20 ADD PUSH1 0x0 DUP2 MSTORE POP SWAP1 JUMP JUMPDEST PUSH2 0x1073 PUSH32 0x0 PUSH4 0x3C26700 PUSH2 0x128E JUMP JUMPDEST TIMESTAMP LT ISZERO PUSH2 0x109F JUMPI POP PUSH1 0x40 DUP1 MLOAD PUSH1 0x60 DUP2 ADD DUP3 MSTORE PUSH1 0x7 SLOAD DUP2 MSTORE PUSH1 0x8 SLOAD PUSH1 0x20 DUP3 ADD MSTORE PUSH1 0x9 SLOAD SWAP2 DUP2 ADD SWAP2 SWAP1 SWAP2 MSTORE SWAP1 JUMP JUMPDEST POP PUSH1 0x40 DUP1 MLOAD PUSH1 0x60 DUP2 ADD DUP3 MSTORE PUSH1 0xA SLOAD DUP2 MSTORE PUSH1 0xB SLOAD PUSH1 0x20 DUP3 ADD MSTORE PUSH1 0xC SLOAD SWAP2 DUP2 ADD SWAP2 SWAP1 SWAP2 MSTORE SWAP1 JUMP JUMPDEST PUSH1 0x0 PUSH1 0x20 DUP1 DUP4 MSTORE DUP4 MLOAD DUP1 DUP3 DUP6 ADD MSTORE PUSH1 0x0 JUMPDEST DUP2 DUP2 LT ISZERO PUSH2 0x10F1 JUMPI DUP6 DUP2 ADD DUP4 ADD MLOAD DUP6 DUP3 ADD PUSH1 0x40 ADD MSTORE DUP3 ADD PUSH2 0x10D5 JUMP JUMPDEST POP PUSH1 0x0 PUSH1 0x40 DUP3 DUP7 ADD ADD MSTORE PUSH1 0x40 PUSH1 0x1F NOT PUSH1 0x1F DUP4 ADD AND DUP6 ADD ADD SWAP3 POP POP POP SWAP3 SWAP2 POP POP JUMP JUMPDEST DUP1 CALLDATALOAD PUSH1 0x1 PUSH1 0x1 PUSH1 0xA0 SHL SUB DUP2 AND DUP2 EQ PUSH2 0x1129 JUMPI PUSH1 0x0 DUP1 REVERT JUMPDEST SWAP2 SWAP1 POP JUMP JUMPDEST PUSH1 0x0 DUP1 PUSH1 0x40 DUP4 DUP6 SUB SLT ISZERO PUSH2 0x1141 JUMPI PUSH1 0x0 DUP1 REVERT JUMPDEST PUSH2 0x114A DUP4 PUSH2 0x1112 JUMP JUMPDEST SWAP5 PUSH1 0x20 SWAP4 SWAP1 SWAP4 ADD CALLDATALOAD SWAP4 POP POP POP JUMP JUMPDEST PUSH1 0x0 DUP1 PUSH1 0x0 PUSH1 0x60 DUP5 DUP7 SUB SLT ISZERO PUSH2 0x116D JUMPI PUSH1 0x0 DUP1 REVERT JUMPDEST PUSH2 0x1176 DUP5 PUSH2 0x1112 JUMP JUMPDEST SWAP3 POP PUSH2 0x1184 PUSH1 0x20 DUP6 ADD PUSH2 0x1112 JUMP JUMPDEST SWAP2 POP PUSH1 0x40 DUP5 ADD CALLDATALOAD SWAP1 POP SWAP3 POP SWAP3 POP SWAP3 JUMP JUMPDEST PUSH1 0x0 DUP1 PUSH1 0x40 DUP4 DUP6 SUB SLT ISZERO PUSH2 0x11A7 JUMPI PUSH1 0x0 DUP1 REVERT JUMPDEST PUSH2 0x11B0 DUP4 PUSH2 0x1112 JUMP JUMPDEST SWAP2 POP PUSH1 0x20 DUP4 ADD CALLDATALOAD DUP1 ISZERO ISZERO DUP2 EQ PUSH2 0x11C5 JUMPI PUSH1 0x0 DUP1 REVERT JUMPDEST DUP1 SWAP2 POP POP SWAP3 POP SWAP3 SWAP1 POP JUMP JUMPDEST PUSH1 0x0 PUSH1 0x20 DUP3 DUP5 SUB SLT ISZERO PUSH2 0x11E2 JUMPI PUSH1 0x0 DUP1 REVERT JUMPDEST POP CALLDATALOAD SWAP2 SWAP1 POP JUMP JUMPDEST PUSH1 0x0 PUSH1 0x20 DUP3 DUP5 SUB SLT ISZERO PUSH2 0x11FB JUMPI PUSH1 0x0 DUP1 REVERT JUMPDEST PUSH2 0x1204 DUP3 PUSH2 0x1112 JUMP JUMPDEST SWAP4 SWAP3 POP POP POP JUMP JUMPDEST PUSH1 0x0 DUP1 PUSH1 0x40 DUP4 DUP6 SUB SLT ISZERO PUSH2 0x121E JUMPI PUSH1 0x0 DUP1 REVERT JUMPDEST PUSH2 0x1227 DUP4 PUSH2 0x1112 JUMP JUMPDEST SWAP2 POP PUSH2 0x1235 PUSH1 0x20 DUP5 ADD PUSH2 0x1112 JUMP JUMPDEST SWAP1 POP SWAP3 POP SWAP3 SWAP1 POP JUMP JUMPDEST PUSH1 0x1 DUP2 DUP2 SHR SWAP1 DUP3 AND DUP1 PUSH2 0x1252 JUMPI PUSH1 0x7F DUP3 AND SWAP2 POP JUMPDEST PUSH1 0x20 DUP3 LT DUP2 SUB PUSH2 0x1272 JUMPI PUSH4 0x4E487B71 PUSH1 0xE0 SHL PUSH1 0x0 MSTORE PUSH1 0x22 PUSH1 0x4 MSTORE PUSH1 0x24 PUSH1 0x0 REVERT JUMPDEST POP SWAP2 SWAP1 POP JUMP JUMPDEST PUSH4 0x4E487B71 PUSH1 0xE0 SHL PUSH1 0x0 MSTORE PUSH1 0x11 PUSH1 0x4 MSTORE PUSH1 0x24 PUSH1 0x0 REVERT JUMPDEST DUP1 DUP3 ADD DUP1 DUP3 GT ISZERO PUSH2 0x518 JUMPI PUSH2 0x518 PUSH2 0x1278 JUMP JUMPDEST DUP1 DUP3 MUL DUP2 ISZERO DUP3 DUP3 DIV DUP5 EQ OR PUSH2 0x518 JUMPI PUSH2 0x518 PUSH2 0x1278 JUMP JUMPDEST PUSH1 0x0 DUP3 PUSH2 0x12D5 JUMPI PUSH4 0x4E487B71 PUSH1 0xE0 SHL PUSH1 0x0 MSTORE PUSH1 0x12 PUSH1 0x4 MSTORE PUSH1 0x24 PUSH1 0x0 REVERT JUMPDEST POP DIV SWAP1 JUMP JUMPDEST DUP2 DUP2 SUB DUP2 DUP2 GT ISZERO PUSH2 0x518 JUMPI PUSH2 0x518 PUSH2 0x1278 JUMP INVALID LOG2 PUSH5 0x6970667358 0x22 SLT KECCAK256 SLT MSTORE SWAP6 SWAP15 GT 0x2F 0x2B GASLIMIT 0xE9 0xD2 0xB9 0xCD 0xAE SWAP16 0xAB 0xC5 RETURN 0xD4 0xC0 0xD0 JUMPDEST 0xB9 SWAP16 0x23 RETURNDATACOPY 0x5D 0xAF PC 0x49 0x4D EXTCODESIZE PUSH25 0x64736F6C634300081400330000000000000000000000000000 "},"methodIdentifiers":{"BURN_STOP_THRESHOLD()":"f5d7abb3","LAUNCH_TIMESTAMP()":"e954f41d","MAX_SUPPLY()":"32cb6b0c","STAKING_CONTRACT()":"da19ddfb","TREASURY_CONTRACT()":"9e9df2b9","allowance(address,address)":"dd62ed3e","approve(address,uint256)":"095ea7b3","balanceOf(address)":"70a08231","deadblockCount()":"4ee13e97","decimals()":"313ce567","dynamicCooldownSeconds()":"e14e7519","feeConfigPhase1()":"876b33c8","feeConfigPhase2()":"14b800b4","launchBlockNumber()":"84e92c00","maxWalletHolding()":"48d79155","name()":"06fdde03","owner()":"8da5cb5b","pancakeSwapPair()":"429494f2","renounceOwnership()":"715018a6","setDynamicCooldown(uint256)":"5d0f1ada","setFeeExempt(address,bool)":"8ebfc796","setLimitExempt(address,bool)":"40a24e6c","setPancakeSwapPair(address)":"a06655a6","symbol()":"95d89b41","totalSupply()":"18160ddd","transfer(address,uint256)":"a9059cbb","transferFrom(address,address,uint256)":"23b872dd","transferOwnership(address)":"f2fde38b"}}}}}