{"contracts/TokenVesting.sol":{"TokenVesting":{"abi":[{"inputs":[{"internalType":"address","name":"_tokenAddress","type":"address"},{"internalType":"address","name":"_beneficiaryAddress","type":"address"},{"internalType":"address","name":"_initialOwner","type":"address"}],"stateMutability":"nonpayable","type":"constructor"},{"inputs":[{"internalType":"address","name":"owner","type":"address"}],"name":"OwnableInvalidOwner","type":"error"},{"inputs":[{"internalType":"address","name":"account","type":"address"}],"name":"OwnableUnauthorizedAccount","type":"error"},{"inputs":[{"internalType":"address","name":"token","type":"address"}],"name":"SafeERC20FailedOperation","type":"error"},{"anonymous":false,"inputs":[{"indexed":true,"internalType":"address","name":"previousOwner","type":"address"},{"indexed":true,"internalType":"address","name":"newOwner","type":"address"}],"name":"OwnershipTransferred","type":"event"},{"anonymous":false,"inputs":[{"indexed":false,"internalType":"uint256","name":"amount","type":"uint256"}],"name":"TokensDeposited","type":"event"},{"anonymous":false,"inputs":[{"indexed":true,"internalType":"address","name":"beneficiary","type":"address"},{"indexed":false,"internalType":"uint256","name":"amount","type":"uint256"}],"name":"TokensReleased","type":"event"},{"inputs":[],"name":"BENEFICIARY","outputs":[{"internalType":"address","name":"","type":"address"}],"stateMutability":"view","type":"function"},{"inputs":[],"name":"CLIFF_DURATION","outputs":[{"internalType":"uint256","name":"","type":"uint256"}],"stateMutability":"view","type":"function"},{"inputs":[],"name":"TOKEN","outputs":[{"internalType":"contract IERC20","name":"","type":"address"}],"stateMutability":"view","type":"function"},{"inputs":[],"name":"TOTAL_VESTING_DURATION","outputs":[{"internalType":"uint256","name":"","type":"uint256"}],"stateMutability":"view","type":"function"},{"inputs":[],"name":"VESTING_START_TIMESTAMP","outputs":[{"internalType":"uint256","name":"","type":"uint256"}],"stateMutability":"view","type":"function"},{"inputs":[{"internalType":"uint256","name":"_totalAmount","type":"uint256"}],"name":"depositVestingTokens","outputs":[],"stateMutability":"nonpayable","type":"function"},{"inputs":[],"name":"getReleasableAmount","outputs":[{"internalType":"uint256","name":"","type":"uint256"}],"stateMutability":"view","type":"function"},{"inputs":[],"name":"owner","outputs":[{"internalType":"address","name":"","type":"address"}],"stateMutability":"view","type":"function"},{"inputs":[],"name":"release","outputs":[],"stateMutability":"nonpayable","type":"function"},{"inputs":[],"name":"releasedAmount","outputs":[{"internalType":"uint256","name":"","type":"uint256"}],"stateMutability":"view","type":"function"},{"inputs":[],"name":"renounceOwnership","outputs":[],"stateMutability":"nonpayable","type":"function"},{"inputs":[],"name":"totalLockedAmount","outputs":[{"internalType":"uint256","name":"","type":"uint256"}],"stateMutability":"view","type":"function"},{"inputs":[{"internalType":"address","name":"newOwner","type":"address"}],"name":"transferOwnership","outputs":[],"stateMutability":"nonpayable","type":"function"}],"evm":{"bytecode":{"linkReferences":{},"object":"61012060405234801561001157600080fd5b50604051610b6d380380610b6d8339810160408190526100309161019f565b806001600160a01b03811661006057604051631e4fbdf760e01b8152600060048201526024015b60405180910390fd5b61006981610133565b506001600160a01b0382166100c05760405162461bcd60e51b815260206004820152601360248201527f42656e6566696369617279206973207a65726f000000000000000000000000006044820152606401610057565b6001600160a01b0383166101065760405162461bcd60e51b815260206004820152600d60248201526c546f6b656e206973207a65726f60981b6044820152606401610057565b506001600160a01b039182166080521660a05242610100526303c2670060c052630d28688060e0526101e2565b600080546001600160a01b038381166001600160a01b0319831681178455604051919092169283917f8be0079c531659141344cd1fd0a4f28419497f9722a3daafe3b4186f6b6457e09190a35050565b80516001600160a01b038116811461019a57600080fd5b919050565b6000806000606084860312156101b457600080fd5b6101bd84610183565b92506101cb60208501610183565b91506101d960408501610183565b90509250925092565b60805160a05160c05160e051610100516108ed610280600039600081816101b601528181610575015281816105cc015261062e0152600081816101f0015281816105ab015261068601526000818161018f015281816105540152818161060d015261066501526000818160f5015281816102530152818161034b015261037201526000818161014701528181610329015261043401526108ed6000f3fe608060405234801561001057600080fd5b50600436106100cf5760003560e01c806386d1a69f1161008c578063ba175dfa11610066578063ba175dfa146101b1578063cc279e80146101d8578063d4ce2b75146101eb578063f2fde38b1461021257600080fd5b806386d1a69f146101715780638da5cb5b14610179578063b3daa6521461018a57600080fd5b806305a9f274146100d45780632f99c6cc146100f057806345d30a171461012f578063715018a61461013857806382bfefc8146101425780638401b96814610169575b600080fd5b6100dd60015481565b6040519081526020015b60405180910390f35b6101177f000000000000000000000000000000000000000000000000000000000000000081565b6040516001600160a01b0390911681526020016100e7565b6100dd60025481565b610140610225565b005b6101177f000000000000000000000000000000000000000000000000000000000000000081565b6100dd610239565b610140610248565b6000546001600160a01b0316610117565b6100dd7f000000000000000000000000000000000000000000000000000000000000000081565b6100dd7f000000000000000000000000000000000000000000000000000000000000000081565b6101406101e63660046107f3565b6103d6565b6100dd7f000000000000000000000000000000000000000000000000000000000000000081565b61014061022036600461080c565b610492565b61022d6104d0565b61023760006104fd565b565b600061024361054d565b905090565b336001600160a01b037f000000000000000000000000000000000000000000000000000000000000000016146102b85760405162461bcd60e51b815260206004820152601060248201526f4f6e6c792062656e656669636961727960801b60448201526064015b60405180910390fd5b60006102c261054d565b9050600081116103045760405162461bcd60e51b815260206004820152600d60248201526c4e6f20746f6b656e732064756560981b60448201526064016102af565b80600260008282546103169190610852565b9091555061037090506001600160a01b037f0000000000000000000000000000000000000000000000000000000000000000167f0000000000000000000000000000000000000000000000000000000000000000836106df565b7f00000000000000000000000000000000000000000000000000000000000000006001600160a01b03167fc7798891864187665ac6dd119286e44ec13f014527aeeb2b8eb3fd413df93179826040516103cb91815260200190565b60405180910390a250565b6103de6104d0565b600154156104225760405162461bcd60e51b81526020600482015260116024820152704465706f736974656420616c726561647960781b60448201526064016102af565b600181905561045c6001600160a01b037f000000000000000000000000000000000000000000000000000000000000000016333084610743565b6040518181527f77acf75e237f9aae98f997395832d522bdb695e4a9bd07704936aa889a3667d19060200160405180910390a150565b61049a6104d0565b6001600160a01b0381166104c457604051631e4fbdf760e01b8152600060048201526024016102af565b6104cd816104fd565b50565b6000546001600160a01b031633146102375760405163118cdaa760e01b81523360048201526024016102af565b600080546001600160a01b038381166001600160a01b0319831681178455604051919092169283917f8be0079c531659141344cd1fd0a4f28419497f9722a3daafe3b4186f6b6457e09190a35050565b60006105997f00000000000000000000000000000000000000000000000000000000000000007f0000000000000000000000000000000000000000000000000000000000000000610852565b4210156105a65750600090565b6105f07f00000000000000000000000000000000000000000000000000000000000000007f0000000000000000000000000000000000000000000000000000000000000000610852565b421061060657600254600154610243919061086b565b60006106527f00000000000000000000000000000000000000000000000000000000000000007f0000000000000000000000000000000000000000000000000000000000000000610852565b61065c904261086b565b905060006106aa7f00000000000000000000000000000000000000000000000000000000000000007f000000000000000000000000000000000000000000000000000000000000000061086b565b9050600081836001546106bd919061087e565b6106c79190610895565b9050600254816106d7919061086b565b935050505090565b6040516001600160a01b0383811660248301526044820183905261073e91859182169063a9059cbb906064015b604051602081830303815290604052915060e01b6020820180516001600160e01b038381831617835250505050610782565b505050565b6040516001600160a01b03848116602483015283811660448301526064820183905261077c9186918216906323b872dd9060840161070c565b50505050565b600080602060008451602086016000885af1806107a5576040513d6000823e3d81fd5b50506000513d915081156107bd5780600114156107ca565b6001600160a01b0384163b155b1561077c57604051635274afe760e01b81526001600160a01b03851660048201526024016102af565b60006020828403121561080557600080fd5b5035919050565b60006020828403121561081e57600080fd5b81356001600160a01b038116811461083557600080fd5b9392505050565b634e487b7160e01b600052601160045260246000fd5b808201808211156108655761086561083c565b92915050565b818103818111156108655761086561083c565b80820281158282048414176108655761086561083c565b6000826108b257634e487b7160e01b600052601260045260246000fd5b50049056fea26469706673582212209cddb6b064cbd3a061fb7c1693a60ca8a8866a5cdc7a35a78b4159eadd28fbf864736f6c63430008140033","opcodes":"PUSH2 0x120 PUSH1 0x40 MSTORE CALLVALUE DUP1 ISZERO PUSH2 0x11 JUMPI PUSH1 0x0 DUP1 REVERT JUMPDEST POP PUSH1 0x40 MLOAD PUSH2 0xB6D CODESIZE SUB DUP1 PUSH2 0xB6D DUP4 CODECOPY DUP2 ADD PUSH1 0x40 DUP2 SWAP1 MSTORE PUSH2 0x30 SWAP2 PUSH2 0x19F JUMP JUMPDEST DUP1 PUSH1 0x1 PUSH1 0x1 PUSH1 0xA0 SHL SUB DUP2 AND PUSH2 0x60 JUMPI PUSH1 0x40 MLOAD PUSH4 0x1E4FBDF7 PUSH1 0xE0 SHL DUP2 MSTORE PUSH1 0x0 PUSH1 0x4 DUP3 ADD MSTORE PUSH1 0x24 ADD JUMPDEST PUSH1 0x40 MLOAD DUP1 SWAP2 SUB SWAP1 REVERT JUMPDEST PUSH2 0x69 DUP2 PUSH2 0x133 JUMP JUMPDEST POP PUSH1 0x1 PUSH1 0x1 PUSH1 0xA0 SHL SUB DUP3 AND PUSH2 0xC0 JUMPI PUSH1 0x40 MLOAD PUSH3 0x461BCD PUSH1 0xE5 SHL DUP2 MSTORE PUSH1 0x20 PUSH1 0x4 DUP3 ADD MSTORE PUSH1 0x13 PUSH1 0x24 DUP3 ADD MSTORE PUSH32 0x42656E6566696369617279206973207A65726F00000000000000000000000000 PUSH1 0x44 DUP3 ADD MSTORE PUSH1 0x64 ADD PUSH2 0x57 JUMP JUMPDEST PUSH1 0x1 PUSH1 0x1 PUSH1 0xA0 SHL SUB DUP4 AND PUSH2 0x106 JUMPI PUSH1 0x40 MLOAD PUSH3 0x461BCD PUSH1 0xE5 SHL DUP2 MSTORE PUSH1 0x20 PUSH1 0x4 DUP3 ADD MSTORE PUSH1 0xD PUSH1 0x24 DUP3 ADD MSTORE PUSH13 0x546F6B656E206973207A65726F PUSH1 0x98 SHL PUSH1 0x44 DUP3 ADD MSTORE PUSH1 0x64 ADD PUSH2 0x57 JUMP JUMPDEST POP PUSH1 0x1 PUSH1 0x1 PUSH1 0xA0 SHL SUB SWAP2 DUP3 AND PUSH1 0x80 MSTORE AND PUSH1 0xA0 MSTORE TIMESTAMP PUSH2 0x100 MSTORE PUSH4 0x3C26700 PUSH1 0xC0 MSTORE PUSH4 0xD286880 PUSH1 0xE0 MSTORE PUSH2 0x1E2 JUMP JUMPDEST PUSH1 0x0 DUP1 SLOAD PUSH1 0x1 PUSH1 0x1 PUSH1 0xA0 SHL SUB DUP4 DUP2 AND PUSH1 0x1 PUSH1 0x1 PUSH1 0xA0 SHL SUB NOT DUP4 AND DUP2 OR DUP5 SSTORE PUSH1 0x40 MLOAD SWAP2 SWAP1 SWAP3 AND SWAP3 DUP4 SWAP2 PUSH32 0x8BE0079C531659141344CD1FD0A4F28419497F9722A3DAAFE3B4186F6B6457E0 SWAP2 SWAP1 LOG3 POP POP JUMP JUMPDEST DUP1 MLOAD PUSH1 0x1 PUSH1 0x1 PUSH1 0xA0 SHL SUB DUP2 AND DUP2 EQ PUSH2 0x19A JUMPI PUSH1 0x0 DUP1 REVERT JUMPDEST SWAP2 SWAP1 POP JUMP JUMPDEST PUSH1 0x0 DUP1 PUSH1 0x0 PUSH1 0x60 DUP5 DUP7 SUB SLT ISZERO PUSH2 0x1B4 JUMPI PUSH1 0x0 DUP1 REVERT JUMPDEST PUSH2 0x1BD DUP5 PUSH2 0x183 JUMP JUMPDEST SWAP3 POP PUSH2 0x1CB PUSH1 0x20 DUP6 ADD PUSH2 0x183 JUMP JUMPDEST SWAP2 POP PUSH2 0x1D9 PUSH1 0x40 DUP6 ADD PUSH2 0x183 JUMP JUMPDEST SWAP1 POP SWAP3 POP SWAP3 POP SWAP3 JUMP JUMPDEST PUSH1 0x80 MLOAD PUSH1 0xA0 MLOAD PUSH1 0xC0 MLOAD PUSH1 0xE0 MLOAD PUSH2 0x100 MLOAD PUSH2 0x8ED PUSH2 0x280 PUSH1 0x0 CODECOPY PUSH1 0x0 DUP2 DUP2 PUSH2 0x1B6 ADD MSTORE DUP2 DUP2 PUSH2 0x575 ADD MSTORE DUP2 DUP2 PUSH2 0x5CC ADD MSTORE PUSH2 0x62E ADD MSTORE PUSH1 0x0 DUP2 DUP2 PUSH2 0x1F0 ADD MSTORE DUP2 DUP2 PUSH2 0x5AB ADD MSTORE PUSH2 0x686 ADD MSTORE PUSH1 0x0 DUP2 DUP2 PUSH2 0x18F ADD MSTORE DUP2 DUP2 PUSH2 0x554 ADD MSTORE DUP2 DUP2 PUSH2 0x60D ADD MSTORE PUSH2 0x665 ADD MSTORE PUSH1 0x0 DUP2 DUP2 PUSH1 0xF5 ADD MSTORE DUP2 DUP2 PUSH2 0x253 ADD MSTORE DUP2 DUP2 PUSH2 0x34B ADD MSTORE PUSH2 0x372 ADD MSTORE PUSH1 0x0 DUP2 DUP2 PUSH2 0x147 ADD MSTORE DUP2 DUP2 PUSH2 0x329 ADD MSTORE PUSH2 0x434 ADD MSTORE PUSH2 0x8ED PUSH1 0x0 RETURN INVALID PUSH1 0x80 PUSH1 0x40 MSTORE CALLVALUE DUP1 ISZERO PUSH2 0x10 JUMPI PUSH1 0x0 DUP1 REVERT JUMPDEST POP PUSH1 0x4 CALLDATASIZE LT PUSH2 0xCF JUMPI PUSH1 0x0 CALLDATALOAD PUSH1 0xE0 SHR DUP1 PUSH4 0x86D1A69F GT PUSH2 0x8C JUMPI DUP1 PUSH4 0xBA175DFA GT PUSH2 0x66 JUMPI DUP1 PUSH4 0xBA175DFA EQ PUSH2 0x1B1 JUMPI DUP1 PUSH4 0xCC279E80 EQ PUSH2 0x1D8 JUMPI DUP1 PUSH4 0xD4CE2B75 EQ PUSH2 0x1EB JUMPI DUP1 PUSH4 0xF2FDE38B EQ PUSH2 0x212 JUMPI PUSH1 0x0 DUP1 REVERT JUMPDEST DUP1 PUSH4 0x86D1A69F EQ PUSH2 0x171 JUMPI DUP1 PUSH4 0x8DA5CB5B EQ PUSH2 0x179 JUMPI DUP1 PUSH4 0xB3DAA652 EQ PUSH2 0x18A JUMPI PUSH1 0x0 DUP1 REVERT JUMPDEST DUP1 PUSH4 0x5A9F274 EQ PUSH2 0xD4 JUMPI DUP1 PUSH4 0x2F99C6CC EQ PUSH2 0xF0 JUMPI DUP1 PUSH4 0x45D30A17 EQ PUSH2 0x12F JUMPI DUP1 PUSH4 0x715018A6 EQ PUSH2 0x138 JUMPI DUP1 PUSH4 0x82BFEFC8 EQ PUSH2 0x142 JUMPI DUP1 PUSH4 0x8401B968 EQ PUSH2 0x169 JUMPI JUMPDEST PUSH1 0x0 DUP1 REVERT JUMPDEST PUSH2 0xDD PUSH1 0x1 SLOAD DUP2 JUMP JUMPDEST PUSH1 0x40 MLOAD SWAP1 DUP2 MSTORE PUSH1 0x20 ADD JUMPDEST PUSH1 0x40 MLOAD DUP1 SWAP2 SUB SWAP1 RETURN JUMPDEST PUSH2 0x117 PUSH32 0x0 DUP2 JUMP JUMPDEST PUSH1 0x40 MLOAD PUSH1 0x1 PUSH1 0x1 PUSH1 0xA0 SHL SUB SWAP1 SWAP2 AND DUP2 MSTORE PUSH1 0x20 ADD PUSH2 0xE7 JUMP JUMPDEST PUSH2 0xDD PUSH1 0x2 SLOAD DUP2 JUMP JUMPDEST PUSH2 0x140 PUSH2 0x225 JUMP JUMPDEST STOP JUMPDEST PUSH2 0x117 PUSH32 0x0 DUP2 JUMP JUMPDEST PUSH2 0xDD PUSH2 0x239 JUMP JUMPDEST PUSH2 0x140 PUSH2 0x248 JUMP JUMPDEST PUSH1 0x0 SLOAD PUSH1 0x1 PUSH1 0x1 PUSH1 0xA0 SHL SUB AND PUSH2 0x117 JUMP JUMPDEST PUSH2 0xDD PUSH32 0x0 DUP2 JUMP JUMPDEST PUSH2 0xDD PUSH32 0x0 DUP2 JUMP JUMPDEST PUSH2 0x140 PUSH2 0x1E6 CALLDATASIZE PUSH1 0x4 PUSH2 0x7F3 JUMP JUMPDEST PUSH2 0x3D6 JUMP JUMPDEST PUSH2 0xDD PUSH32 0x0 DUP2 JUMP JUMPDEST PUSH2 0x140 PUSH2 0x220 CALLDATASIZE PUSH1 0x4 PUSH2 0x80C JUMP JUMPDEST PUSH2 0x492 JUMP JUMPDEST PUSH2 0x22D PUSH2 0x4D0 JUMP JUMPDEST PUSH2 0x237 PUSH1 0x0 PUSH2 0x4FD JUMP JUMPDEST JUMP JUMPDEST PUSH1 0x0 PUSH2 0x243 PUSH2 0x54D JUMP JUMPDEST SWAP1 POP SWAP1 JUMP JUMPDEST CALLER PUSH1 0x1 PUSH1 0x1 PUSH1 0xA0 SHL SUB PUSH32 0x0 AND EQ PUSH2 0x2B8 JUMPI PUSH1 0x40 MLOAD PUSH3 0x461BCD PUSH1 0xE5 SHL DUP2 MSTORE PUSH1 0x20 PUSH1 0x4 DUP3 ADD MSTORE PUSH1 0x10 PUSH1 0x24 DUP3 ADD MSTORE PUSH16 0x4F6E6C792062656E6566696369617279 PUSH1 0x80 SHL PUSH1 0x44 DUP3 ADD MSTORE PUSH1 0x64 ADD JUMPDEST PUSH1 0x40 MLOAD DUP1 SWAP2 SUB SWAP1 REVERT JUMPDEST PUSH1 0x0 PUSH2 0x2C2 PUSH2 0x54D JUMP JUMPDEST SWAP1 POP PUSH1 0x0 DUP2 GT PUSH2 0x304 JUMPI PUSH1 0x40 MLOAD PUSH3 0x461BCD PUSH1 0xE5 SHL DUP2 MSTORE PUSH1 0x20 PUSH1 0x4 DUP3 ADD MSTORE PUSH1 0xD PUSH1 0x24 DUP3 ADD MSTORE PUSH13 0x4E6F20746F6B656E7320647565 PUSH1 0x98 SHL PUSH1 0x44 DUP3 ADD MSTORE PUSH1 0x64 ADD PUSH2 0x2AF JUMP JUMPDEST DUP1 PUSH1 0x2 PUSH1 0x0 DUP3 DUP3 SLOAD PUSH2 0x316 SWAP2 SWAP1 PUSH2 0x852 JUMP JUMPDEST SWAP1 SWAP2 SSTORE POP PUSH2 0x370 SWAP1 POP PUSH1 0x1 PUSH1 0x1 PUSH1 0xA0 SHL SUB PUSH32 0x0 AND PUSH32 0x0 DUP4 PUSH2 0x6DF JUMP JUMPDEST PUSH32 0x0 PUSH1 0x1 PUSH1 0x1 PUSH1 0xA0 SHL SUB AND PUSH32 0xC7798891864187665AC6DD119286E44EC13F014527AEEB2B8EB3FD413DF93179 DUP3 PUSH1 0x40 MLOAD PUSH2 0x3CB SWAP2 DUP2 MSTORE PUSH1 0x20 ADD SWAP1 JUMP JUMPDEST PUSH1 0x40 MLOAD DUP1 SWAP2 SUB SWAP1 LOG2 POP JUMP JUMPDEST PUSH2 0x3DE PUSH2 0x4D0 JUMP JUMPDEST PUSH1 0x1 SLOAD ISZERO PUSH2 0x422 JUMPI PUSH1 0x40 MLOAD PUSH3 0x461BCD PUSH1 0xE5 SHL DUP2 MSTORE PUSH1 0x20 PUSH1 0x4 DUP3 ADD MSTORE PUSH1 0x11 PUSH1 0x24 DUP3 ADD MSTORE PUSH17 0x4465706F736974656420616C7265616479 PUSH1 0x78 SHL PUSH1 0x44 DUP3 ADD MSTORE PUSH1 0x64 ADD PUSH2 0x2AF JUMP JUMPDEST PUSH1 0x1 DUP2 SWAP1 SSTORE PUSH2 0x45C PUSH1 0x1 PUSH1 0x1 PUSH1 0xA0 SHL SUB PUSH32 0x0 AND CALLER ADDRESS DUP5 PUSH2 0x743 JUMP JUMPDEST PUSH1 0x40 MLOAD DUP2 DUP2 MSTORE PUSH32 0x77ACF75E237F9AAE98F997395832D522BDB695E4A9BD07704936AA889A3667D1 SWAP1 PUSH1 0x20 ADD PUSH1 0x40 MLOAD DUP1 SWAP2 SUB SWAP1 LOG1 POP JUMP JUMPDEST PUSH2 0x49A PUSH2 0x4D0 JUMP JUMPDEST PUSH1 0x1 PUSH1 0x1 PUSH1 0xA0 SHL SUB DUP2 AND PUSH2 0x4C4 JUMPI PUSH1 0x40 MLOAD PUSH4 0x1E4FBDF7 PUSH1 0xE0 SHL DUP2 MSTORE PUSH1 0x0 PUSH1 0x4 DUP3 ADD MSTORE PUSH1 0x24 ADD PUSH2 0x2AF JUMP JUMPDEST PUSH2 0x4CD DUP2 PUSH2 0x4FD JUMP JUMPDEST POP JUMP JUMPDEST PUSH1 0x0 SLOAD PUSH1 0x1 PUSH1 0x1 PUSH1 0xA0 SHL SUB AND CALLER EQ PUSH2 0x237 JUMPI PUSH1 0x40 MLOAD PUSH4 0x118CDAA7 PUSH1 0xE0 SHL DUP2 MSTORE CALLER PUSH1 0x4 DUP3 ADD MSTORE PUSH1 0x24 ADD PUSH2 0x2AF JUMP JUMPDEST PUSH1 0x0 DUP1 SLOAD PUSH1 0x1 PUSH1 0x1 PUSH1 0xA0 SHL SUB DUP4 DUP2 AND PUSH1 0x1 PUSH1 0x1 PUSH1 0xA0 SHL SUB NOT DUP4 AND DUP2 OR DUP5 SSTORE PUSH1 0x40 MLOAD SWAP2 SWAP1 SWAP3 AND SWAP3 DUP4 SWAP2 PUSH32 0x8BE0079C531659141344CD1FD0A4F28419497F9722A3DAAFE3B4186F6B6457E0 SWAP2 SWAP1 LOG3 POP POP JUMP JUMPDEST PUSH1 0x0 PUSH2 0x599 PUSH32 0x0 PUSH32 0x0 PUSH2 0x852 JUMP JUMPDEST TIMESTAMP LT ISZERO PUSH2 0x5A6 JUMPI POP PUSH1 0x0 SWAP1 JUMP JUMPDEST PUSH2 0x5F0 PUSH32 0x0 PUSH32 0x0 PUSH2 0x852 JUMP JUMPDEST TIMESTAMP LT PUSH2 0x606 JUMPI PUSH1 0x2 SLOAD PUSH1 0x1 SLOAD PUSH2 0x243 SWAP2 SWAP1 PUSH2 0x86B JUMP JUMPDEST PUSH1 0x0 PUSH2 0x652 PUSH32 0x0 PUSH32 0x0 PUSH2 0x852 JUMP JUMPDEST PUSH2 0x65C SWAP1 TIMESTAMP PUSH2 0x86B JUMP JUMPDEST SWAP1 POP PUSH1 0x0 PUSH2 0x6AA PUSH32 0x0 PUSH32 0x0 PUSH2 0x86B JUMP JUMPDEST SWAP1 POP PUSH1 0x0 DUP2 DUP4 PUSH1 0x1 SLOAD PUSH2 0x6BD SWAP2 SWAP1 PUSH2 0x87E JUMP JUMPDEST PUSH2 0x6C7 SWAP2 SWAP1 PUSH2 0x895 JUMP JUMPDEST SWAP1 POP PUSH1 0x2 SLOAD DUP2 PUSH2 0x6D7 SWAP2 SWAP1 PUSH2 0x86B JUMP JUMPDEST SWAP4 POP POP POP POP SWAP1 JUMP JUMPDEST PUSH1 0x40 MLOAD PUSH1 0x1 PUSH1 0x1 PUSH1 0xA0 SHL SUB DUP4 DUP2 AND PUSH1 0x24 DUP4 ADD MSTORE PUSH1 0x44 DUP3 ADD DUP4 SWAP1 MSTORE PUSH2 0x73E SWAP2 DUP6 SWAP2 DUP3 AND SWAP1 PUSH4 0xA9059CBB SWAP1 PUSH1 0x64 ADD JUMPDEST PUSH1 0x40 MLOAD PUSH1 0x20 DUP2 DUP4 SUB SUB DUP2 MSTORE SWAP1 PUSH1 0x40 MSTORE SWAP2 POP PUSH1 0xE0 SHL PUSH1 0x20 DUP3 ADD DUP1 MLOAD PUSH1 0x1 PUSH1 0x1 PUSH1 0xE0 SHL SUB DUP4 DUP2 DUP4 AND OR DUP4 MSTORE POP POP POP POP PUSH2 0x782 JUMP JUMPDEST POP POP POP JUMP JUMPDEST PUSH1 0x40 MLOAD PUSH1 0x1 PUSH1 0x1 PUSH1 0xA0 SHL SUB DUP5 DUP2 AND PUSH1 0x24 DUP4 ADD MSTORE DUP4 DUP2 AND PUSH1 0x44 DUP4 ADD MSTORE PUSH1 0x64 DUP3 ADD DUP4 SWAP1 MSTORE PUSH2 0x77C SWAP2 DUP7 SWAP2 DUP3 AND SWAP1 PUSH4 0x23B872DD SWAP1 PUSH1 0x84 ADD PUSH2 0x70C JUMP JUMPDEST POP POP POP POP JUMP JUMPDEST PUSH1 0x0 DUP1 PUSH1 0x20 PUSH1 0x0 DUP5 MLOAD PUSH1 0x20 DUP7 ADD PUSH1 0x0 DUP9 GAS CALL DUP1 PUSH2 0x7A5 JUMPI PUSH1 0x40 MLOAD RETURNDATASIZE PUSH1 0x0 DUP3 RETURNDATACOPY RETURNDATASIZE DUP2 REVERT JUMPDEST POP POP PUSH1 0x0 MLOAD RETURNDATASIZE SWAP2 POP DUP2 ISZERO PUSH2 0x7BD JUMPI DUP1 PUSH1 0x1 EQ ISZERO PUSH2 0x7CA JUMP JUMPDEST PUSH1 0x1 PUSH1 0x1 PUSH1 0xA0 SHL SUB DUP5 AND EXTCODESIZE ISZERO JUMPDEST ISZERO PUSH2 0x77C JUMPI PUSH1 0x40 MLOAD PUSH4 0x5274AFE7 PUSH1 0xE0 SHL DUP2 MSTORE PUSH1 0x1 PUSH1 0x1 PUSH1 0xA0 SHL SUB DUP6 AND PUSH1 0x4 DUP3 ADD MSTORE PUSH1 0x24 ADD PUSH2 0x2AF JUMP JUMPDEST PUSH1 0x0 PUSH1 0x20 DUP3 DUP5 SUB SLT ISZERO PUSH2 0x805 JUMPI PUSH1 0x0 DUP1 REVERT JUMPDEST POP CALLDATALOAD SWAP2 SWAP1 POP JUMP JUMPDEST PUSH1 0x0 PUSH1 0x20 DUP3 DUP5 SUB SLT ISZERO PUSH2 0x81E JUMPI PUSH1 0x0 DUP1 REVERT JUMPDEST DUP2 CALLDATALOAD PUSH1 0x1 PUSH1 0x1 PUSH1 0xA0 SHL SUB DUP2 AND DUP2 EQ PUSH2 0x835 JUMPI PUSH1 0x0 DUP1 REVERT JUMPDEST SWAP4 SWAP3 POP POP POP JUMP JUMPDEST PUSH4 0x4E487B71 PUSH1 0xE0 SHL PUSH1 0x0 MSTORE PUSH1 0x11 PUSH1 0x4 MSTORE PUSH1 0x24 PUSH1 0x0 REVERT JUMPDEST DUP1 DUP3 ADD DUP1 DUP3 GT ISZERO PUSH2 0x865 JUMPI PUSH2 0x865 PUSH2 0x83C JUMP JUMPDEST SWAP3 SWAP2 POP POP JUMP JUMPDEST DUP2 DUP2 SUB DUP2 DUP2 GT ISZERO PUSH2 0x865 JUMPI PUSH2 0x865 PUSH2 0x83C JUMP JUMPDEST DUP1 DUP3 MUL DUP2 ISZERO DUP3 DUP3 DIV DUP5 EQ OR PUSH2 0x865 JUMPI PUSH2 0x865 PUSH2 0x83C JUMP JUMPDEST PUSH1 0x0 DUP3 PUSH2 0x8B2 JUMPI PUSH4 0x4E487B71 PUSH1 0xE0 SHL PUSH1 0x0 MSTORE PUSH1 0x12 PUSH1 0x4 MSTORE PUSH1 0x24 PUSH1 0x0 REVERT JUMPDEST POP DIV SWAP1 JUMP INVALID LOG2 PUSH5 0x6970667358 0x22 SLT KECCAK256 SWAP13 0xDD 0xB6 0xB0 PUSH5 0xCBD3A061FB PUSH29 0x1693A60CA8A8866A5CDC7A35A78B4159EADD28FBF864736F6C63430008 EQ STOP CALLER "},"methodIdentifiers":{"BENEFICIARY()":"2f99c6cc","CLIFF_DURATION()":"b3daa652","TOKEN()":"82bfefc8","TOTAL_VESTING_DURATION()":"d4ce2b75","VESTING_START_TIMESTAMP()":"ba175dfa","depositVestingTokens(uint256)":"cc279e80","getReleasableAmount()":"8401b968","owner()":"8da5cb5b","release()":"86d1a69f","releasedAmount()":"45d30a17","renounceOwnership()":"715018a6","totalLockedAmount()":"05a9f274","transferOwnership(address)":"f2fde38b"}}}}}