{"contracts/Treasury.sol":{"Treasury":{"abi":[{"inputs":[{"internalType":"address","name":"_fTokenAddress","type":"address"},{"internalType":"address","name":"_stablecoinAddress","type":"address"},{"internalType":"address","name":"_routerAddress","type":"address"},{"internalType":"address","name":"_chainlinkFeedAddress","type":"address"},{"internalType":"address","name":"_stakingContract","type":"address"},{"internalType":"address","name":"_initialOwner","type":"address"}],"stateMutability":"nonpayable","type":"constructor"},{"inputs":[{"internalType":"address","name":"owner","type":"address"}],"name":"OwnableInvalidOwner","type":"error"},{"inputs":[{"internalType":"address","name":"account","type":"address"}],"name":"OwnableUnauthorizedAccount","type":"error"},{"inputs":[],"name":"ReentrancyGuardReentrantCall","type":"error"},{"anonymous":false,"inputs":[{"indexed":true,"internalType":"address","name":"from","type":"address"},{"indexed":false,"internalType":"uint256","name":"amount","type":"uint256"}],"name":"FundsReceived","type":"event"},{"anonymous":false,"inputs":[{"indexed":true,"internalType":"address","name":"previousOwner","type":"address"},{"indexed":true,"internalType":"address","name":"newOwner","type":"address"}],"name":"OwnershipTransferred","type":"event"},{"anonymous":false,"inputs":[{"indexed":false,"internalType":"uint256","name":"amountBought","type":"uint256"},{"indexed":false,"internalType":"uint256","name":"amountBurned","type":"uint256"}],"name":"ReburnExecuted","type":"event"},{"anonymous":false,"inputs":[{"indexed":false,"internalType":"uint256","name":"newPrice","type":"uint256"}],"name":"SoftFloorPriceUpdated","type":"event"},{"anonymous":false,"inputs":[{"indexed":false,"internalType":"uint256","name":"amountBought","type":"uint256"},{"indexed":false,"internalType":"int256","name":"currentPrice","type":"int256"}],"name":"SoftFloorProtected","type":"event"},{"inputs":[],"name":"FINAL_SUPPLY_TARGET","outputs":[{"internalType":"uint256","name":"","type":"uint256"}],"stateMutability":"view","type":"function"},{"inputs":[],"name":"F_TOKEN","outputs":[{"internalType":"contract IERC20","name":"","type":"address"}],"stateMutability":"view","type":"function"},{"inputs":[],"name":"F_TOKEN_CONTRACT_ADDRESS","outputs":[{"internalType":"address","name":"","type":"address"}],"stateMutability":"view","type":"function"},{"inputs":[],"name":"PANCAKE_ROUTER","outputs":[{"internalType":"contract IPancakeRouter","name":"","type":"address"}],"stateMutability":"view","type":"function"},{"inputs":[],"name":"PRICE_FEED","outputs":[{"internalType":"contract IAggregatorV3","name":"","type":"address"}],"stateMutability":"view","type":"function"},{"inputs":[],"name":"REBURN_ACTIVATION_TIMESTAMP","outputs":[{"internalType":"uint256","name":"","type":"uint256"}],"stateMutability":"view","type":"function"},{"inputs":[],"name":"STABLECOIN","outputs":[{"internalType":"contract IERC20","name":"","type":"address"}],"stateMutability":"view","type":"function"},{"inputs":[],"name":"STAKING_CONTRACT","outputs":[{"internalType":"address","name":"","type":"address"}],"stateMutability":"view","type":"function"},{"inputs":[{"internalType":"uint256","name":"","type":"uint256"}],"name":"depositFees","outputs":[],"stateMutability":"nonpayable","type":"function"},{"inputs":[],"name":"executeReburn","outputs":[],"stateMutability":"nonpayable","type":"function"},{"inputs":[],"name":"getFTokenPrice","outputs":[{"internalType":"int256","name":"","type":"int256"}],"stateMutability":"view","type":"function"},{"inputs":[],"name":"lastBuybackTimestamp","outputs":[{"internalType":"uint256","name":"","type":"uint256"}],"stateMutability":"view","type":"function"},{"inputs":[],"name":"owner","outputs":[{"internalType":"address","name":"","type":"address"}],"stateMutability":"view","type":"function"},{"inputs":[],"name":"protectSoftFloor","outputs":[],"stateMutability":"nonpayable","type":"function"},{"inputs":[],"name":"renounceOwnership","outputs":[],"stateMutability":"nonpayable","type":"function"},{"inputs":[{"internalType":"uint256","name":"_newPrice","type":"uint256"}],"name":"setSoftFloorPrice","outputs":[],"stateMutability":"nonpayable","type":"function"},{"inputs":[],"name":"softFloorPrice","outputs":[{"internalType":"uint256","name":"","type":"uint256"}],"stateMutability":"view","type":"function"},{"inputs":[{"internalType":"address","name":"newOwner","type":"address"}],"name":"transferOwnership","outputs":[],"stateMutability":"nonpayable","type":"function"}],"evm":{"bytecode":{"linkReferences":{},"object":"61018060405261dead610140523480156200001957600080fd5b506040516200115c3803806200115c8339810160408190526200003c916200013a565b806001600160a01b0381166200006c57604051631e4fbdf760e01b81526000600482015260240160405180910390fd5b6200007781620000cd565b50600180556001600160a01b03808716608081905286821660a05285821660c05284821660e05261010052821661012052620000b842630f099c00620001bb565b6101605250504260035550620001e392505050565b600080546001600160a01b038381166001600160a01b0319831681178455604051919092169283917f8be0079c531659141344cd1fd0a4f28419497f9722a3daafe3b4186f6b6457e09190a35050565b80516001600160a01b03811681146200013557600080fd5b919050565b60008060008060008060c087890312156200015457600080fd5b6200015f876200011d565b95506200016f602088016200011d565b94506200017f604088016200011d565b93506200018f606088016200011d565b92506200019f608088016200011d565b9150620001af60a088016200011d565b90509295509295509295565b80820180821115620001dd57634e487b7160e01b600052601160045260246000fd5b92915050565b60805160a05160c05160e05161010051610120516101405161016051610ebf6200029d60003960008181610196015261059301526000610909015260008181610270015261085c015260008181610237015261051c015260008181610146015261041f01526000818161029701528181610a440152610afd0152600081816102100152818161032a0152818161073b015281816109990152610a730152600081816101bd0152818161060401526109ed0152610ebf6000f3fe608060405234801561001057600080fd5b50600436106101165760003560e01c80638da5cb5b116100a2578063da19ddfb11610071578063da19ddfb1461026b578063e08836dd14610292578063ebdac090146102b9578063efaee8a3146102cc578063f2fde38b146102d457600080fd5b80638da5cb5b146101fa57806393a397761461020b578063c3b6453e14610232578063c62016741461025957600080fd5b80635d7bdbea116100e95780635d7bdbea1461018857806362cd20181461019157806370af9b14146101b8578063715018a6146101df57806372a6bf8e146101e757600080fd5b80631a647fb71461011b578063218656e41461012557806331eb318a146101415780633238549114610180575b600080fd5b6101236102e7565b005b61012e60035481565b6040519081526020015b60405180910390f35b6101687f000000000000000000000000000000000000000000000000000000000000000081565b6040516001600160a01b039091168152602001610138565b61012e61041a565b61012e60025481565b61012e7f000000000000000000000000000000000000000000000000000000000000000081565b6101687f000000000000000000000000000000000000000000000000000000000000000081565b6101236104bc565b6101236101f5366004610ba9565b6104ce565b6000546001600160a01b0316610168565b6101687f000000000000000000000000000000000000000000000000000000000000000081565b6101687f000000000000000000000000000000000000000000000000000000000000000081565b61012e6a295be96e6406697200000081565b6101687f000000000000000000000000000000000000000000000000000000000000000081565b6101687f000000000000000000000000000000000000000000000000000000000000000081565b6101236102c7366004610ba9565b610511565b610123610589565b6101236102e2366004610bc2565b6107f1565b6102ef61082c565b6002541561040f57600061030161041a565b90506002548112610312575061040f565b6040516370a0823160e01b81523060048201526000907f00000000000000000000000000000000000000000000000000000000000000006001600160a01b0316906370a0823190602401602060405180830381865afa158015610379573d6000803e3d6000fd5b505050506040513d601f19601f8201168201806040525081019061039d9190610bf2565b9050806000036103ae57505061040f565b600060646103bd836005610c21565b6103c79190610c38565b90506103d281610856565b60408051828152602081018590527f58c0c80496c71ceee0ba72810063be557bd3d50134028f18238d16ee9189a671910160405180910390a15050505b61041860018055565b565b6000807f00000000000000000000000000000000000000000000000000000000000000006001600160a01b031663feaf968c6040518163ffffffff1660e01b815260040160a060405180830381865afa15801561047b573d6000803e3d6000fd5b505050506040513d601f19601f8201168201806040525081019061049f9190610c79565b505050915050806402540be4006104b69190610cc9565b91505090565b6104c4610884565b61041860006108b1565b6104d6610884565b60028190556040518181527fa8bb388cf429c59dff818d603dba53ef8a6683d6daf61985bb28d136719ddced9060200160405180910390a150565b336001600160a01b037f000000000000000000000000000000000000000000000000000000000000000016146105865760405162461bcd60e51b815260206004820152601560248201527413db9b1e481188151bdad95b8818dbdb9d1c9858dd605a1b60448201526064015b60405180910390fd5b50565b61059161082c565b7f00000000000000000000000000000000000000000000000000000000000000004210156105f65760405162461bcd60e51b815260206004820152601260248201527152652d6275726e206e6f742061637469766560701b604482015260640161057d565b6a295be96e640669720000007f00000000000000000000000000000000000000000000000000000000000000006001600160a01b03166318160ddd6040518163ffffffff1660e01b8152600401602060405180830381865afa158015610660573d6000803e3d6000fd5b505050506040513d601f19601f820116820180604052508101906106849190610bf2565b116106d15760405162461bcd60e51b815260206004820152601b60248201527f46696e616c20737570706c792074617267657420726561636865640000000000604482015260640161057d565b6003546106e19062278d00610cf9565b4210156107235760405162461bcd60e51b815260206004820152601060248201526f293296b13ab9371031b7b7b63237bbb760811b604482015260640161057d565b6040516370a0823160e01b81523060048201526000907f00000000000000000000000000000000000000000000000000000000000000006001600160a01b0316906370a0823190602401602060405180830381865afa15801561078a573d6000803e3d6000fd5b505050506040513d601f19601f820116820180604052508101906107ae9190610bf2565b9050806000036107be575061040f565b600060646107cd836001610c21565b6107d79190610c38565b90506107e281610901565b50504260035561041860018055565b6107f9610884565b6001600160a01b03811661082357604051631e4fbdf760e01b81526000600482015260240161057d565b610586816108b1565b60026001540361084f57604051633ee5aeb560e01b815260040160405180910390fd5b6002600155565b610880817f0000000000000000000000000000000000000000000000000000000000000000610972565b5050565b6000546001600160a01b031633146104185760405163118cdaa760e01b815233600482015260240161057d565b600080546001600160a01b038381166001600160a01b0319831681178455604051919092169283917f8be0079c531659141344cd1fd0a4f28419497f9722a3daafe3b4186f6b6457e09190a35050565b600061092d827f0000000000000000000000000000000000000000000000000000000000000000610972565b905080156108805760408051838152602081018390527fbca429eac1a1f219916f1d45dd2ebfaca65503f5c0ca15922cd1ca7679f90fb4910160405180910390a15050565b604080516002808252606082018352600092839291906020830190803683370190505090507f0000000000000000000000000000000000000000000000000000000000000000816000815181106109cb576109cb610d22565b60200260200101906001600160a01b031690816001600160a01b0316815250507f000000000000000000000000000000000000000000000000000000000000000081600181518110610a1f57610a1f610d22565b6001600160a01b03928316602091820292909201015260405163095ea7b360e01b81527f000000000000000000000000000000000000000000000000000000000000000082166004820152602481018690527f00000000000000000000000000000000000000000000000000000000000000009091169063095ea7b3906044016020604051808303816000875af1158015610abe573d6000803e3d6000fd5b505050506040513d601f19601f82011682018060405250810190610ae29190610d38565b506040516338ed173960e01b81526000906001600160a01b037f000000000000000000000000000000000000000000000000000000000000000016906338ed173990610b3a908890859087908a904290600401610d5a565b6000604051808303816000875af1158015610b59573d6000803e3d6000fd5b505050506040513d6000823e601f3d908101601f19168201604052610b819190810190610dcb565b905080600181518110610b9657610b96610d22565b6020026020010151925050505b92915050565b600060208284031215610bbb57600080fd5b5035919050565b600060208284031215610bd457600080fd5b81356001600160a01b0381168114610beb57600080fd5b9392505050565b600060208284031215610c0457600080fd5b5051919050565b634e487b7160e01b600052601160045260246000fd5b8082028115828204841417610ba357610ba3610c0b565b600082610c5557634e487b7160e01b600052601260045260246000fd5b500490565b805169ffffffffffffffffffff81168114610c7457600080fd5b919050565b600080600080600060a08688031215610c9157600080fd5b610c9a86610c5a565b9450602086015193506040860151925060608601519150610cbd60808701610c5a565b90509295509295909350565b80820260008212600160ff1b84141615610ce557610ce5610c0b565b8181058314821517610ba357610ba3610c0b565b80820180821115610ba357610ba3610c0b565b634e487b7160e01b600052604160045260246000fd5b634e487b7160e01b600052603260045260246000fd5b600060208284031215610d4a57600080fd5b81518015158114610beb57600080fd5b600060a082018783526020878185015260a0604085015281875180845260c086019150828901935060005b81811015610daa5784516001600160a01b031683529383019391830191600101610d85565b50506001600160a01b03969096166060850152505050608001529392505050565b60006020808385031215610dde57600080fd5b825167ffffffffffffffff80821115610df657600080fd5b818501915085601f830112610e0a57600080fd5b815181811115610e1c57610e1c610d0c565b8060051b604051601f19603f83011681018181108582111715610e4157610e41610d0c565b604052918252848201925083810185019188831115610e5f57600080fd5b938501935b82851015610e7d57845184529385019392850192610e64565b9897505050505050505056fea26469706673582212209d932397c9bc8545ccf137c0a1cc9a518748dde369b1b5165f9f703fd7dbedab64736f6c63430008140033","opcodes":"PUSH2 0x180 PUSH1 0x40 MSTORE PUSH2 0xDEAD PUSH2 0x140 MSTORE CALLVALUE DUP1 ISZERO PUSH3 0x19 JUMPI PUSH1 0x0 DUP1 REVERT JUMPDEST POP PUSH1 0x40 MLOAD PUSH3 0x115C CODESIZE SUB DUP1 PUSH3 0x115C DUP4 CODECOPY DUP2 ADD PUSH1 0x40 DUP2 SWAP1 MSTORE PUSH3 0x3C SWAP2 PUSH3 0x13A JUMP JUMPDEST DUP1 PUSH1 0x1 PUSH1 0x1 PUSH1 0xA0 SHL SUB DUP2 AND PUSH3 0x6C JUMPI PUSH1 0x40 MLOAD PUSH4 0x1E4FBDF7 PUSH1 0xE0 SHL DUP2 MSTORE PUSH1 0x0 PUSH1 0x4 DUP3 ADD MSTORE PUSH1 0x24 ADD PUSH1 0x40 MLOAD DUP1 SWAP2 SUB SWAP1 REVERT JUMPDEST PUSH3 0x77 DUP2 PUSH3 0xCD JUMP JUMPDEST POP PUSH1 0x1 DUP1 SSTORE PUSH1 0x1 PUSH1 0x1 PUSH1 0xA0 SHL SUB DUP1 DUP8 AND PUSH1 0x80 DUP2 SWAP1 MSTORE DUP7 DUP3 AND PUSH1 0xA0 MSTORE DUP6 DUP3 AND PUSH1 0xC0 MSTORE DUP5 DUP3 AND PUSH1 0xE0 MSTORE PUSH2 0x100 MSTORE DUP3 AND PUSH2 0x120 MSTORE PUSH3 0xB8 TIMESTAMP PUSH4 0xF099C00 PUSH3 0x1BB JUMP JUMPDEST PUSH2 0x160 MSTORE POP POP TIMESTAMP PUSH1 0x3 SSTORE POP PUSH3 0x1E3 SWAP3 POP POP POP JUMP JUMPDEST PUSH1 0x0 DUP1 SLOAD PUSH1 0x1 PUSH1 0x1 PUSH1 0xA0 SHL SUB DUP4 DUP2 AND PUSH1 0x1 PUSH1 0x1 PUSH1 0xA0 SHL SUB NOT DUP4 AND DUP2 OR DUP5 SSTORE PUSH1 0x40 MLOAD SWAP2 SWAP1 SWAP3 AND SWAP3 DUP4 SWAP2 PUSH32 0x8BE0079C531659141344CD1FD0A4F28419497F9722A3DAAFE3B4186F6B6457E0 SWAP2 SWAP1 LOG3 POP POP JUMP JUMPDEST DUP1 MLOAD PUSH1 0x1 PUSH1 0x1 PUSH1 0xA0 SHL SUB DUP2 AND DUP2 EQ PUSH3 0x135 JUMPI PUSH1 0x0 DUP1 REVERT JUMPDEST SWAP2 SWAP1 POP JUMP JUMPDEST PUSH1 0x0 DUP1 PUSH1 0x0 DUP1 PUSH1 0x0 DUP1 PUSH1 0xC0 DUP8 DUP10 SUB SLT ISZERO PUSH3 0x154 JUMPI PUSH1 0x0 DUP1 REVERT JUMPDEST PUSH3 0x15F DUP8 PUSH3 0x11D JUMP JUMPDEST SWAP6 POP PUSH3 0x16F PUSH1 0x20 DUP9 ADD PUSH3 0x11D JUMP JUMPDEST SWAP5 POP PUSH3 0x17F PUSH1 0x40 DUP9 ADD PUSH3 0x11D JUMP JUMPDEST SWAP4 POP PUSH3 0x18F PUSH1 0x60 DUP9 ADD PUSH3 0x11D JUMP JUMPDEST SWAP3 POP PUSH3 0x19F PUSH1 0x80 DUP9 ADD PUSH3 0x11D JUMP JUMPDEST SWAP2 POP PUSH3 0x1AF PUSH1 0xA0 DUP9 ADD PUSH3 0x11D JUMP JUMPDEST SWAP1 POP SWAP3 SWAP6 POP SWAP3 SWAP6 POP SWAP3 SWAP6 JUMP JUMPDEST DUP1 DUP3 ADD DUP1 DUP3 GT ISZERO PUSH3 0x1DD JUMPI PUSH4 0x4E487B71 PUSH1 0xE0 SHL PUSH1 0x0 MSTORE PUSH1 0x11 PUSH1 0x4 MSTORE PUSH1 0x24 PUSH1 0x0 REVERT JUMPDEST SWAP3 SWAP2 POP POP JUMP JUMPDEST PUSH1 0x80 MLOAD PUSH1 0xA0 MLOAD PUSH1 0xC0 MLOAD PUSH1 0xE0 MLOAD PUSH2 0x100 MLOAD PUSH2 0x120 MLOAD PUSH2 0x140 MLOAD PUSH2 0x160 MLOAD PUSH2 0xEBF PUSH3 0x29D PUSH1 0x0 CODECOPY PUSH1 0x0 DUP2 DUP2 PUSH2 0x196 ADD MSTORE PUSH2 0x593 ADD MSTORE PUSH1 0x0 PUSH2 0x909 ADD MSTORE PUSH1 0x0 DUP2 DUP2 PUSH2 0x270 ADD MSTORE PUSH2 0x85C ADD MSTORE PUSH1 0x0 DUP2 DUP2 PUSH2 0x237 ADD MSTORE PUSH2 0x51C ADD MSTORE PUSH1 0x0 DUP2 DUP2 PUSH2 0x146 ADD MSTORE PUSH2 0x41F ADD MSTORE PUSH1 0x0 DUP2 DUP2 PUSH2 0x297 ADD MSTORE DUP2 DUP2 PUSH2 0xA44 ADD MSTORE PUSH2 0xAFD ADD MSTORE PUSH1 0x0 DUP2 DUP2 PUSH2 0x210 ADD MSTORE DUP2 DUP2 PUSH2 0x32A ADD MSTORE DUP2 DUP2 PUSH2 0x73B ADD MSTORE DUP2 DUP2 PUSH2 0x999 ADD MSTORE PUSH2 0xA73 ADD MSTORE PUSH1 0x0 DUP2 DUP2 PUSH2 0x1BD ADD MSTORE DUP2 DUP2 PUSH2 0x604 ADD MSTORE PUSH2 0x9ED ADD MSTORE PUSH2 0xEBF PUSH1 0x0 RETURN INVALID PUSH1 0x80 PUSH1 0x40 MSTORE CALLVALUE DUP1 ISZERO PUSH2 0x10 JUMPI PUSH1 0x0 DUP1 REVERT JUMPDEST POP PUSH1 0x4 CALLDATASIZE LT PUSH2 0x116 JUMPI PUSH1 0x0 CALLDATALOAD PUSH1 0xE0 SHR DUP1 PUSH4 0x8DA5CB5B GT PUSH2 0xA2 JUMPI DUP1 PUSH4 0xDA19DDFB GT PUSH2 0x71 JUMPI DUP1 PUSH4 0xDA19DDFB EQ PUSH2 0x26B JUMPI DUP1 PUSH4 0xE08836DD EQ PUSH2 0x292 JUMPI DUP1 PUSH4 0xEBDAC090 EQ PUSH2 0x2B9 JUMPI DUP1 PUSH4 0xEFAEE8A3 EQ PUSH2 0x2CC JUMPI DUP1 PUSH4 0xF2FDE38B EQ PUSH2 0x2D4 JUMPI PUSH1 0x0 DUP1 REVERT JUMPDEST DUP1 PUSH4 0x8DA5CB5B EQ PUSH2 0x1FA JUMPI DUP1 PUSH4 0x93A39776 EQ PUSH2 0x20B JUMPI DUP1 PUSH4 0xC3B6453E EQ PUSH2 0x232 JUMPI DUP1 PUSH4 0xC6201674 EQ PUSH2 0x259 JUMPI PUSH1 0x0 DUP1 REVERT JUMPDEST DUP1 PUSH4 0x5D7BDBEA GT PUSH2 0xE9 JUMPI DUP1 PUSH4 0x5D7BDBEA EQ PUSH2 0x188 JUMPI DUP1 PUSH4 0x62CD2018 EQ PUSH2 0x191 JUMPI DUP1 PUSH4 0x70AF9B14 EQ PUSH2 0x1B8 JUMPI DUP1 PUSH4 0x715018A6 EQ PUSH2 0x1DF JUMPI DUP1 PUSH4 0x72A6BF8E EQ PUSH2 0x1E7 JUMPI PUSH1 0x0 DUP1 REVERT JUMPDEST DUP1 PUSH4 0x1A647FB7 EQ PUSH2 0x11B JUMPI DUP1 PUSH4 0x218656E4 EQ PUSH2 0x125 JUMPI DUP1 PUSH4 0x31EB318A EQ PUSH2 0x141 JUMPI DUP1 PUSH4 0x32385491 EQ PUSH2 0x180 JUMPI JUMPDEST PUSH1 0x0 DUP1 REVERT JUMPDEST PUSH2 0x123 PUSH2 0x2E7 JUMP JUMPDEST STOP JUMPDEST PUSH2 0x12E PUSH1 0x3 SLOAD DUP2 JUMP JUMPDEST PUSH1 0x40 MLOAD SWAP1 DUP2 MSTORE PUSH1 0x20 ADD JUMPDEST PUSH1 0x40 MLOAD DUP1 SWAP2 SUB SWAP1 RETURN JUMPDEST PUSH2 0x168 PUSH32 0x0 DUP2 JUMP JUMPDEST PUSH1 0x40 MLOAD PUSH1 0x1 PUSH1 0x1 PUSH1 0xA0 SHL SUB SWAP1 SWAP2 AND DUP2 MSTORE PUSH1 0x20 ADD PUSH2 0x138 JUMP JUMPDEST PUSH2 0x12E PUSH2 0x41A JUMP JUMPDEST PUSH2 0x12E PUSH1 0x2 SLOAD DUP2 JUMP JUMPDEST PUSH2 0x12E PUSH32 0x0 DUP2 JUMP JUMPDEST PUSH2 0x168 PUSH32 0x0 DUP2 JUMP JUMPDEST PUSH2 0x123 PUSH2 0x4BC JUMP JUMPDEST PUSH2 0x123 PUSH2 0x1F5 CALLDATASIZE PUSH1 0x4 PUSH2 0xBA9 JUMP JUMPDEST PUSH2 0x4CE JUMP JUMPDEST PUSH1 0x0 SLOAD PUSH1 0x1 PUSH1 0x1 PUSH1 0xA0 SHL SUB AND PUSH2 0x168 JUMP JUMPDEST PUSH2 0x168 PUSH32 0x0 DUP2 JUMP JUMPDEST PUSH2 0x168 PUSH32 0x0 DUP2 JUMP JUMPDEST PUSH2 0x12E PUSH11 0x295BE96E64066972000000 DUP2 JUMP JUMPDEST PUSH2 0x168 PUSH32 0x0 DUP2 JUMP JUMPDEST PUSH2 0x168 PUSH32 0x0 DUP2 JUMP JUMPDEST PUSH2 0x123 PUSH2 0x2C7 CALLDATASIZE PUSH1 0x4 PUSH2 0xBA9 JUMP JUMPDEST PUSH2 0x511 JUMP JUMPDEST PUSH2 0x123 PUSH2 0x589 JUMP JUMPDEST PUSH2 0x123 PUSH2 0x2E2 CALLDATASIZE PUSH1 0x4 PUSH2 0xBC2 JUMP JUMPDEST PUSH2 0x7F1 JUMP JUMPDEST PUSH2 0x2EF PUSH2 0x82C JUMP JUMPDEST PUSH1 0x2 SLOAD ISZERO PUSH2 0x40F JUMPI PUSH1 0x0 PUSH2 0x301 PUSH2 0x41A JUMP JUMPDEST SWAP1 POP PUSH1 0x2 SLOAD DUP2 SLT PUSH2 0x312 JUMPI POP PUSH2 0x40F JUMP JUMPDEST PUSH1 0x40 MLOAD PUSH4 0x70A08231 PUSH1 0xE0 SHL DUP2 MSTORE ADDRESS PUSH1 0x4 DUP3 ADD MSTORE PUSH1 0x0 SWAP1 PUSH32 0x0 PUSH1 0x1 PUSH1 0x1 PUSH1 0xA0 SHL SUB AND SWAP1 PUSH4 0x70A08231 SWAP1 PUSH1 0x24 ADD PUSH1 0x20 PUSH1 0x40 MLOAD DUP1 DUP4 SUB DUP2 DUP7 GAS STATICCALL ISZERO DUP1 ISZERO PUSH2 0x379 JUMPI RETURNDATASIZE PUSH1 0x0 DUP1 RETURNDATACOPY RETURNDATASIZE PUSH1 0x0 REVERT JUMPDEST POP POP POP POP PUSH1 0x40 MLOAD RETURNDATASIZE PUSH1 0x1F NOT PUSH1 0x1F DUP3 ADD AND DUP3 ADD DUP1 PUSH1 0x40 MSTORE POP DUP2 ADD SWAP1 PUSH2 0x39D SWAP2 SWAP1 PUSH2 0xBF2 JUMP JUMPDEST SWAP1 POP DUP1 PUSH1 0x0 SUB PUSH2 0x3AE JUMPI POP POP PUSH2 0x40F JUMP JUMPDEST PUSH1 0x0 PUSH1 0x64 PUSH2 0x3BD DUP4 PUSH1 0x5 PUSH2 0xC21 JUMP JUMPDEST PUSH2 0x3C7 SWAP2 SWAP1 PUSH2 0xC38 JUMP JUMPDEST SWAP1 POP PUSH2 0x3D2 DUP2 PUSH2 0x856 JUMP JUMPDEST PUSH1 0x40 DUP1 MLOAD DUP3 DUP2 MSTORE PUSH1 0x20 DUP2 ADD DUP6 SWAP1 MSTORE PUSH32 0x58C0C80496C71CEEE0BA72810063BE557BD3D50134028F18238D16EE9189A671 SWAP2 ADD PUSH1 0x40 MLOAD DUP1 SWAP2 SUB SWAP1 LOG1 POP POP POP JUMPDEST PUSH2 0x418 PUSH1 0x1 DUP1 SSTORE JUMP JUMPDEST JUMP JUMPDEST PUSH1 0x0 DUP1 PUSH32 0x0 PUSH1 0x1 PUSH1 0x1 PUSH1 0xA0 SHL SUB AND PUSH4 0xFEAF968C PUSH1 0x40 MLOAD DUP2 PUSH4 0xFFFFFFFF AND PUSH1 0xE0 SHL DUP2 MSTORE PUSH1 0x4 ADD PUSH1 0xA0 PUSH1 0x40 MLOAD DUP1 DUP4 SUB DUP2 DUP7 GAS STATICCALL ISZERO DUP1 ISZERO PUSH2 0x47B JUMPI RETURNDATASIZE PUSH1 0x0 DUP1 RETURNDATACOPY RETURNDATASIZE PUSH1 0x0 REVERT JUMPDEST POP POP POP POP PUSH1 0x40 MLOAD RETURNDATASIZE PUSH1 0x1F NOT PUSH1 0x1F DUP3 ADD AND DUP3 ADD DUP1 PUSH1 0x40 MSTORE POP DUP2 ADD SWAP1 PUSH2 0x49F SWAP2 SWAP1 PUSH2 0xC79 JUMP JUMPDEST POP POP POP SWAP2 POP POP DUP1 PUSH5 0x2540BE400 PUSH2 0x4B6 SWAP2 SWAP1 PUSH2 0xCC9 JUMP JUMPDEST SWAP2 POP POP SWAP1 JUMP JUMPDEST PUSH2 0x4C4 PUSH2 0x884 JUMP JUMPDEST PUSH2 0x418 PUSH1 0x0 PUSH2 0x8B1 JUMP JUMPDEST PUSH2 0x4D6 PUSH2 0x884 JUMP JUMPDEST PUSH1 0x2 DUP2 SWAP1 SSTORE PUSH1 0x40 MLOAD DUP2 DUP2 MSTORE PUSH32 0xA8BB388CF429C59DFF818D603DBA53EF8A6683D6DAF61985BB28D136719DDCED SWAP1 PUSH1 0x20 ADD PUSH1 0x40 MLOAD DUP1 SWAP2 SUB SWAP1 LOG1 POP JUMP JUMPDEST CALLER PUSH1 0x1 PUSH1 0x1 PUSH1 0xA0 SHL SUB PUSH32 0x0 AND EQ PUSH2 0x586 JUMPI PUSH1 0x40 MLOAD PUSH3 0x461BCD PUSH1 0xE5 SHL DUP2 MSTORE PUSH1 0x20 PUSH1 0x4 DUP3 ADD MSTORE PUSH1 0x15 PUSH1 0x24 DUP3 ADD MSTORE PUSH21 0x13DB9B1E481188151BDAD95B8818DBDB9D1C9858DD PUSH1 0x5A SHL PUSH1 0x44 DUP3 ADD MSTORE PUSH1 0x64 ADD JUMPDEST PUSH1 0x40 MLOAD DUP1 SWAP2 SUB SWAP1 REVERT JUMPDEST POP JUMP JUMPDEST PUSH2 0x591 PUSH2 0x82C JUMP JUMPDEST PUSH32 0x0 TIMESTAMP LT ISZERO PUSH2 0x5F6 JUMPI PUSH1 0x40 MLOAD PUSH3 0x461BCD PUSH1 0xE5 SHL DUP2 MSTORE PUSH1 0x20 PUSH1 0x4 DUP3 ADD MSTORE PUSH1 0x12 PUSH1 0x24 DUP3 ADD MSTORE PUSH18 0x52652D6275726E206E6F7420616374697665 PUSH1 0x70 SHL PUSH1 0x44 DUP3 ADD MSTORE PUSH1 0x64 ADD PUSH2 0x57D JUMP JUMPDEST PUSH11 0x295BE96E64066972000000 PUSH32 0x0 PUSH1 0x1 PUSH1 0x1 PUSH1 0xA0 SHL SUB AND PUSH4 0x18160DDD PUSH1 0x40 MLOAD DUP2 PUSH4 0xFFFFFFFF AND PUSH1 0xE0 SHL DUP2 MSTORE PUSH1 0x4 ADD PUSH1 0x20 PUSH1 0x40 MLOAD DUP1 DUP4 SUB DUP2 DUP7 GAS STATICCALL ISZERO DUP1 ISZERO PUSH2 0x660 JUMPI RETURNDATASIZE PUSH1 0x0 DUP1 RETURNDATACOPY RETURNDATASIZE PUSH1 0x0 REVERT JUMPDEST POP POP POP POP PUSH1 0x40 MLOAD RETURNDATASIZE PUSH1 0x1F NOT PUSH1 0x1F DUP3 ADD AND DUP3 ADD DUP1 PUSH1 0x40 MSTORE POP DUP2 ADD SWAP1 PUSH2 0x684 SWAP2 SWAP1 PUSH2 0xBF2 JUMP JUMPDEST GT PUSH2 0x6D1 JUMPI PUSH1 0x40 MLOAD PUSH3 0x461BCD PUSH1 0xE5 SHL DUP2 MSTORE PUSH1 0x20 PUSH1 0x4 DUP3 ADD MSTORE PUSH1 0x1B PUSH1 0x24 DUP3 ADD MSTORE PUSH32 0x46696E616C20737570706C792074617267657420726561636865640000000000 PUSH1 0x44 DUP3 ADD MSTORE PUSH1 0x64 ADD PUSH2 0x57D JUMP JUMPDEST PUSH1 0x3 SLOAD PUSH2 0x6E1 SWAP1 PUSH3 0x278D00 PUSH2 0xCF9 JUMP JUMPDEST TIMESTAMP LT ISZERO PUSH2 0x723 JUMPI PUSH1 0x40 MLOAD PUSH3 0x461BCD PUSH1 0xE5 SHL DUP2 MSTORE PUSH1 0x20 PUSH1 0x4 DUP3 ADD MSTORE PUSH1 0x10 PUSH1 0x24 DUP3 ADD MSTORE PUSH16 0x293296B13AB9371031B7B7B63237BBB7 PUSH1 0x81 SHL PUSH1 0x44 DUP3 ADD MSTORE PUSH1 0x64 ADD PUSH2 0x57D JUMP JUMPDEST PUSH1 0x40 MLOAD PUSH4 0x70A08231 PUSH1 0xE0 SHL DUP2 MSTORE ADDRESS PUSH1 0x4 DUP3 ADD MSTORE PUSH1 0x0 SWAP1 PUSH32 0x0 PUSH1 0x1 PUSH1 0x1 PUSH1 0xA0 SHL SUB AND SWAP1 PUSH4 0x70A08231 SWAP1 PUSH1 0x24 ADD PUSH1 0x20 PUSH1 0x40 MLOAD DUP1 DUP4 SUB DUP2 DUP7 GAS STATICCALL ISZERO DUP1 ISZERO PUSH2 0x78A JUMPI RETURNDATASIZE PUSH1 0x0 DUP1 RETURNDATACOPY RETURNDATASIZE PUSH1 0x0 REVERT JUMPDEST POP POP POP POP PUSH1 0x40 MLOAD RETURNDATASIZE PUSH1 0x1F NOT PUSH1 0x1F DUP3 ADD AND DUP3 ADD DUP1 PUSH1 0x40 MSTORE POP DUP2 ADD SWAP1 PUSH2 0x7AE SWAP2 SWAP1 PUSH2 0xBF2 JUMP JUMPDEST SWAP1 POP DUP1 PUSH1 0x0 SUB PUSH2 0x7BE JUMPI POP PUSH2 0x40F JUMP JUMPDEST PUSH1 0x0 PUSH1 0x64 PUSH2 0x7CD DUP4 PUSH1 0x1 PUSH2 0xC21 JUMP JUMPDEST PUSH2 0x7D7 SWAP2 SWAP1 PUSH2 0xC38 JUMP JUMPDEST SWAP1 POP PUSH2 0x7E2 DUP2 PUSH2 0x901 JUMP JUMPDEST POP POP TIMESTAMP PUSH1 0x3 SSTORE PUSH2 0x418 PUSH1 0x1 DUP1 SSTORE JUMP JUMPDEST PUSH2 0x7F9 PUSH2 0x884 JUMP JUMPDEST PUSH1 0x1 PUSH1 0x1 PUSH1 0xA0 SHL SUB DUP2 AND PUSH2 0x823 JUMPI PUSH1 0x40 MLOAD PUSH4 0x1E4FBDF7 PUSH1 0xE0 SHL DUP2 MSTORE PUSH1 0x0 PUSH1 0x4 DUP3 ADD MSTORE PUSH1 0x24 ADD PUSH2 0x57D JUMP JUMPDEST PUSH2 0x586 DUP2 PUSH2 0x8B1 JUMP JUMPDEST PUSH1 0x2 PUSH1 0x1 SLOAD SUB PUSH2 0x84F JUMPI PUSH1 0x40 MLOAD PUSH4 0x3EE5AEB5 PUSH1 0xE0 SHL DUP2 MSTORE PUSH1 0x4 ADD PUSH1 0x40 MLOAD DUP1 SWAP2 SUB SWAP1 REVERT JUMPDEST PUSH1 0x2 PUSH1 0x1 SSTORE JUMP JUMPDEST PUSH2 0x880 DUP2 PUSH32 0x0 PUSH2 0x972 JUMP JUMPDEST POP POP JUMP JUMPDEST PUSH1 0x0 SLOAD PUSH1 0x1 PUSH1 0x1 PUSH1 0xA0 SHL SUB AND CALLER EQ PUSH2 0x418 JUMPI PUSH1 0x40 MLOAD PUSH4 0x118CDAA7 PUSH1 0xE0 SHL DUP2 MSTORE CALLER PUSH1 0x4 DUP3 ADD MSTORE PUSH1 0x24 ADD PUSH2 0x57D JUMP JUMPDEST PUSH1 0x0 DUP1 SLOAD PUSH1 0x1 PUSH1 0x1 PUSH1 0xA0 SHL SUB DUP4 DUP2 AND PUSH1 0x1 PUSH1 0x1 PUSH1 0xA0 SHL SUB NOT DUP4 AND DUP2 OR DUP5 SSTORE PUSH1 0x40 MLOAD SWAP2 SWAP1 SWAP3 AND SWAP3 DUP4 SWAP2 PUSH32 0x8BE0079C531659141344CD1FD0A4F28419497F9722A3DAAFE3B4186F6B6457E0 SWAP2 SWAP1 LOG3 POP POP JUMP JUMPDEST PUSH1 0x0 PUSH2 0x92D DUP3 PUSH32 0x0 PUSH2 0x972 JUMP JUMPDEST SWAP1 POP DUP1 ISZERO PUSH2 0x880 JUMPI PUSH1 0x40 DUP1 MLOAD DUP4 DUP2 MSTORE PUSH1 0x20 DUP2 ADD DUP4 SWAP1 MSTORE PUSH32 0xBCA429EAC1A1F219916F1D45DD2EBFACA65503F5C0CA15922CD1CA7679F90FB4 SWAP2 ADD PUSH1 0x40 MLOAD DUP1 SWAP2 SUB SWAP1 LOG1 POP POP JUMP JUMPDEST PUSH1 0x40 DUP1 MLOAD PUSH1 0x2 DUP1 DUP3 MSTORE PUSH1 0x60 DUP3 ADD DUP4 MSTORE PUSH1 0x0 SWAP3 DUP4 SWAP3 SWAP2 SWAP1 PUSH1 0x20 DUP4 ADD SWAP1 DUP1 CALLDATASIZE DUP4 CALLDATACOPY ADD SWAP1 POP POP SWAP1 POP PUSH32 0x0 DUP2 PUSH1 0x0 DUP2 MLOAD DUP2 LT PUSH2 0x9CB JUMPI PUSH2 0x9CB PUSH2 0xD22 JUMP JUMPDEST PUSH1 0x20 MUL PUSH1 0x20 ADD ADD SWAP1 PUSH1 0x1 PUSH1 0x1 PUSH1 0xA0 SHL SUB AND SWAP1 DUP2 PUSH1 0x1 PUSH1 0x1 PUSH1 0xA0 SHL SUB AND DUP2 MSTORE POP POP PUSH32 0x0 DUP2 PUSH1 0x1 DUP2 MLOAD DUP2 LT PUSH2 0xA1F JUMPI PUSH2 0xA1F PUSH2 0xD22 JUMP JUMPDEST PUSH1 0x1 PUSH1 0x1 PUSH1 0xA0 SHL SUB SWAP3 DUP4 AND PUSH1 0x20 SWAP2 DUP3 MUL SWAP3 SWAP1 SWAP3 ADD ADD MSTORE PUSH1 0x40 MLOAD PUSH4 0x95EA7B3 PUSH1 0xE0 SHL DUP2 MSTORE PUSH32 0x0 DUP3 AND PUSH1 0x4 DUP3 ADD MSTORE PUSH1 0x24 DUP2 ADD DUP7 SWAP1 MSTORE PUSH32 0x0 SWAP1 SWAP2 AND SWAP1 PUSH4 0x95EA7B3 SWAP1 PUSH1 0x44 ADD PUSH1 0x20 PUSH1 0x40 MLOAD DUP1 DUP4 SUB DUP2 PUSH1 0x0 DUP8 GAS CALL ISZERO DUP1 ISZERO PUSH2 0xABE JUMPI RETURNDATASIZE PUSH1 0x0 DUP1 RETURNDATACOPY RETURNDATASIZE PUSH1 0x0 REVERT JUMPDEST POP POP POP POP PUSH1 0x40 MLOAD RETURNDATASIZE PUSH1 0x1F NOT PUSH1 0x1F DUP3 ADD AND DUP3 ADD DUP1 PUSH1 0x40 MSTORE POP DUP2 ADD SWAP1 PUSH2 0xAE2 SWAP2 SWAP1 PUSH2 0xD38 JUMP JUMPDEST POP PUSH1 0x40 MLOAD PUSH4 0x38ED1739 PUSH1 0xE0 SHL DUP2 MSTORE PUSH1 0x0 SWAP1 PUSH1 0x1 PUSH1 0x1 PUSH1 0xA0 SHL SUB PUSH32 0x0 AND SWAP1 PUSH4 0x38ED1739 SWAP1 PUSH2 0xB3A SWAP1 DUP9 SWAP1 DUP6 SWAP1 DUP8 SWAP1 DUP11 SWAP1 TIMESTAMP SWAP1 PUSH1 0x4 ADD PUSH2 0xD5A JUMP JUMPDEST PUSH1 0x0 PUSH1 0x40 MLOAD DUP1 DUP4 SUB DUP2 PUSH1 0x0 DUP8 GAS CALL ISZERO DUP1 ISZERO PUSH2 0xB59 JUMPI RETURNDATASIZE PUSH1 0x0 DUP1 RETURNDATACOPY RETURNDATASIZE PUSH1 0x0 REVERT JUMPDEST POP POP POP POP PUSH1 0x40 MLOAD RETURNDATASIZE PUSH1 0x0 DUP3 RETURNDATACOPY PUSH1 0x1F RETURNDATASIZE SWAP1 DUP2 ADD PUSH1 0x1F NOT AND DUP3 ADD PUSH1 0x40 MSTORE PUSH2 0xB81 SWAP2 SWAP1 DUP2 ADD SWAP1 PUSH2 0xDCB JUMP JUMPDEST SWAP1 POP DUP1 PUSH1 0x1 DUP2 MLOAD DUP2 LT PUSH2 0xB96 JUMPI PUSH2 0xB96 PUSH2 0xD22 JUMP JUMPDEST PUSH1 0x20 MUL PUSH1 0x20 ADD ADD MLOAD SWAP3 POP POP POP JUMPDEST SWAP3 SWAP2 POP POP JUMP JUMPDEST PUSH1 0x0 PUSH1 0x20 DUP3 DUP5 SUB SLT ISZERO PUSH2 0xBBB JUMPI PUSH1 0x0 DUP1 REVERT JUMPDEST POP CALLDATALOAD SWAP2 SWAP1 POP JUMP JUMPDEST PUSH1 0x0 PUSH1 0x20 DUP3 DUP5 SUB SLT ISZERO PUSH2 0xBD4 JUMPI PUSH1 0x0 DUP1 REVERT JUMPDEST DUP2 CALLDATALOAD PUSH1 0x1 PUSH1 0x1 PUSH1 0xA0 SHL SUB DUP2 AND DUP2 EQ PUSH2 0xBEB JUMPI PUSH1 0x0 DUP1 REVERT JUMPDEST SWAP4 SWAP3 POP POP POP JUMP JUMPDEST PUSH1 0x0 PUSH1 0x20 DUP3 DUP5 SUB SLT ISZERO PUSH2 0xC04 JUMPI PUSH1 0x0 DUP1 REVERT JUMPDEST POP MLOAD SWAP2 SWAP1 POP JUMP JUMPDEST PUSH4 0x4E487B71 PUSH1 0xE0 SHL PUSH1 0x0 MSTORE PUSH1 0x11 PUSH1 0x4 MSTORE PUSH1 0x24 PUSH1 0x0 REVERT JUMPDEST DUP1 DUP3 MUL DUP2 ISZERO DUP3 DUP3 DIV DUP5 EQ OR PUSH2 0xBA3 JUMPI PUSH2 0xBA3 PUSH2 0xC0B JUMP JUMPDEST PUSH1 0x0 DUP3 PUSH2 0xC55 JUMPI PUSH4 0x4E487B71 PUSH1 0xE0 SHL PUSH1 0x0 MSTORE PUSH1 0x12 PUSH1 0x4 MSTORE PUSH1 0x24 PUSH1 0x0 REVERT JUMPDEST POP DIV SWAP1 JUMP JUMPDEST DUP1 MLOAD PUSH10 0xFFFFFFFFFFFFFFFFFFFF DUP2 AND DUP2 EQ PUSH2 0xC74 JUMPI PUSH1 0x0 DUP1 REVERT JUMPDEST SWAP2 SWAP1 POP JUMP JUMPDEST PUSH1 0x0 DUP1 PUSH1 0x0 DUP1 PUSH1 0x0 PUSH1 0xA0 DUP7 DUP9 SUB SLT ISZERO PUSH2 0xC91 JUMPI PUSH1 0x0 DUP1 REVERT JUMPDEST PUSH2 0xC9A DUP7 PUSH2 0xC5A JUMP JUMPDEST SWAP5 POP PUSH1 0x20 DUP7 ADD MLOAD SWAP4 POP PUSH1 0x40 DUP7 ADD MLOAD SWAP3 POP PUSH1 0x60 DUP7 ADD MLOAD SWAP2 POP PUSH2 0xCBD PUSH1 0x80 DUP8 ADD PUSH2 0xC5A JUMP JUMPDEST SWAP1 POP SWAP3 SWAP6 POP SWAP3 SWAP6 SWAP1 SWAP4 POP JUMP JUMPDEST DUP1 DUP3 MUL PUSH1 0x0 DUP3 SLT PUSH1 0x1 PUSH1 0xFF SHL DUP5 EQ AND ISZERO PUSH2 0xCE5 JUMPI PUSH2 0xCE5 PUSH2 0xC0B JUMP JUMPDEST DUP2 DUP2 SDIV DUP4 EQ DUP3 ISZERO OR PUSH2 0xBA3 JUMPI PUSH2 0xBA3 PUSH2 0xC0B JUMP JUMPDEST DUP1 DUP3 ADD DUP1 DUP3 GT ISZERO PUSH2 0xBA3 JUMPI PUSH2 0xBA3 PUSH2 0xC0B JUMP JUMPDEST PUSH4 0x4E487B71 PUSH1 0xE0 SHL PUSH1 0x0 MSTORE PUSH1 0x41 PUSH1 0x4 MSTORE PUSH1 0x24 PUSH1 0x0 REVERT JUMPDEST PUSH4 0x4E487B71 PUSH1 0xE0 SHL PUSH1 0x0 MSTORE PUSH1 0x32 PUSH1 0x4 MSTORE PUSH1 0x24 PUSH1 0x0 REVERT JUMPDEST PUSH1 0x0 PUSH1 0x20 DUP3 DUP5 SUB SLT ISZERO PUSH2 0xD4A JUMPI PUSH1 0x0 DUP1 REVERT JUMPDEST DUP2 MLOAD DUP1 ISZERO ISZERO DUP2 EQ PUSH2 0xBEB JUMPI PUSH1 0x0 DUP1 REVERT JUMPDEST PUSH1 0x0 PUSH1 0xA0 DUP3 ADD DUP8 DUP4 MSTORE PUSH1 0x20 DUP8 DUP2 DUP6 ADD MSTORE PUSH1 0xA0 PUSH1 0x40 DUP6 ADD MSTORE DUP2 DUP8 MLOAD DUP1 DUP5 MSTORE PUSH1 0xC0 DUP7 ADD SWAP2 POP DUP3 DUP10 ADD SWAP4 POP PUSH1 0x0 JUMPDEST DUP2 DUP2 LT ISZERO PUSH2 0xDAA JUMPI DUP5 MLOAD PUSH1 0x1 PUSH1 0x1 PUSH1 0xA0 SHL SUB AND DUP4 MSTORE SWAP4 DUP4 ADD SWAP4 SWAP2 DUP4 ADD SWAP2 PUSH1 0x1 ADD PUSH2 0xD85 JUMP JUMPDEST POP POP PUSH1 0x1 PUSH1 0x1 PUSH1 0xA0 SHL SUB SWAP7 SWAP1 SWAP7 AND PUSH1 0x60 DUP6 ADD MSTORE POP POP POP PUSH1 0x80 ADD MSTORE SWAP4 SWAP3 POP POP POP JUMP JUMPDEST PUSH1 0x0 PUSH1 0x20 DUP1 DUP4 DUP6 SUB SLT ISZERO PUSH2 0xDDE JUMPI PUSH1 0x0 DUP1 REVERT JUMPDEST DUP3 MLOAD PUSH8 0xFFFFFFFFFFFFFFFF DUP1 DUP3 GT ISZERO PUSH2 0xDF6 JUMPI PUSH1 0x0 DUP1 REVERT JUMPDEST DUP2 DUP6 ADD SWAP2 POP DUP6 PUSH1 0x1F DUP4 ADD SLT PUSH2 0xE0A JUMPI PUSH1 0x0 DUP1 REVERT JUMPDEST DUP2 MLOAD DUP2 DUP2 GT ISZERO PUSH2 0xE1C JUMPI PUSH2 0xE1C PUSH2 0xD0C JUMP JUMPDEST DUP1 PUSH1 0x5 SHL PUSH1 0x40 MLOAD PUSH1 0x1F NOT PUSH1 0x3F DUP4 ADD AND DUP2 ADD DUP2 DUP2 LT DUP6 DUP3 GT OR ISZERO PUSH2 0xE41 JUMPI PUSH2 0xE41 PUSH2 0xD0C JUMP JUMPDEST PUSH1 0x40 MSTORE SWAP2 DUP3 MSTORE DUP5 DUP3 ADD SWAP3 POP DUP4 DUP2 ADD DUP6 ADD SWAP2 DUP9 DUP4 GT ISZERO PUSH2 0xE5F JUMPI PUSH1 0x0 DUP1 REVERT JUMPDEST SWAP4 DUP6 ADD SWAP4 JUMPDEST DUP3 DUP6 LT ISZERO PUSH2 0xE7D JUMPI DUP5 MLOAD DUP5 MSTORE SWAP4 DUP6 ADD SWAP4 SWAP3 DUP6 ADD SWAP3 PUSH2 0xE64 JUMP JUMPDEST SWAP9 SWAP8 POP POP POP POP POP POP POP POP JUMP INVALID LOG2 PUSH5 0x6970667358 0x22 SLT KECCAK256 SWAP14 SWAP4 0x23 SWAP8 0xC9 0xBC DUP6 GASLIMIT 0xCC CALL CALLDATACOPY 0xC0 LOG1 0xCC SWAP11 MLOAD DUP8 BASEFEE 0xDD 0xE3 PUSH10 0xB1B5165F9F703FD7DBED 0xAB PUSH5 0x736F6C6343 STOP ADDMOD EQ STOP CALLER "},"methodIdentifiers":{"FINAL_SUPPLY_TARGET()":"c6201674","F_TOKEN()":"70af9b14","F_TOKEN_CONTRACT_ADDRESS()":"c3b6453e","PANCAKE_ROUTER()":"e08836dd","PRICE_FEED()":"31eb318a","REBURN_ACTIVATION_TIMESTAMP()":"62cd2018","STABLECOIN()":"93a39776","STAKING_CONTRACT()":"da19ddfb","depositFees(uint256)":"ebdac090","executeReburn()":"efaee8a3","getFTokenPrice()":"32385491","lastBuybackTimestamp()":"218656e4","owner()":"8da5cb5b","protectSoftFloor()":"1a647fb7","renounceOwnership()":"715018a6","setSoftFloorPrice(uint256)":"72a6bf8e","softFloorPrice()":"5d7bdbea","transferOwnership(address)":"f2fde38b"}}}}}