{"contracts/Staking.sol":{"Staking":{"abi":[{"inputs":[{"internalType":"address","name":"_fTokenAddress","type":"address"},{"internalType":"address","name":"_initialOwner","type":"address"}],"stateMutability":"nonpayable","type":"constructor"},{"inputs":[{"internalType":"address","name":"owner","type":"address"}],"name":"OwnableInvalidOwner","type":"error"},{"inputs":[{"internalType":"address","name":"account","type":"address"}],"name":"OwnableUnauthorizedAccount","type":"error"},{"inputs":[],"name":"ReentrancyGuardReentrantCall","type":"error"},{"inputs":[{"internalType":"address","name":"token","type":"address"}],"name":"SafeERC20FailedOperation","type":"error"},{"anonymous":false,"inputs":[{"indexed":true,"internalType":"address","name":"user","type":"address"},{"indexed":false,"internalType":"bool","name":"isLp","type":"bool"}],"name":"LpStatusChanged","type":"event"},{"anonymous":false,"inputs":[{"indexed":true,"internalType":"address","name":"previousOwner","type":"address"},{"indexed":true,"internalType":"address","name":"newOwner","type":"address"}],"name":"OwnershipTransferred","type":"event"},{"anonymous":false,"inputs":[{"indexed":true,"internalType":"address","name":"user","type":"address"},{"indexed":false,"internalType":"uint256","name":"amount","type":"uint256"},{"indexed":false,"internalType":"uint256","name":"unlocksOn","type":"uint256"}],"name":"Staked","type":"event"},{"anonymous":false,"inputs":[{"indexed":true,"internalType":"address","name":"user","type":"address"},{"indexed":false,"internalType":"uint256","name":"amount","type":"uint256"},{"indexed":false,"internalType":"uint256","name":"reward","type":"uint256"}],"name":"Unstaked","type":"event"},{"inputs":[],"name":"F_TOKEN","outputs":[{"internalType":"contract IERC20","name":"","type":"address"}],"stateMutability":"view","type":"function"},{"inputs":[],"name":"STAKING_HARD_CAP","outputs":[{"internalType":"uint256","name":"","type":"uint256"}],"stateMutability":"view","type":"function"},{"inputs":[{"internalType":"address","name":"stakerAddress","type":"address"}],"name":"calculateReward","outputs":[{"internalType":"uint256","name":"","type":"uint256"}],"stateMutability":"view","type":"function"},{"inputs":[{"internalType":"address","name":"","type":"address"}],"name":"isLpStaker","outputs":[{"internalType":"bool","name":"","type":"bool"}],"stateMutability":"view","type":"function"},{"inputs":[{"internalType":"uint256","name":"","type":"uint256"}],"name":"lpRates","outputs":[{"internalType":"uint256","name":"","type":"uint256"}],"stateMutability":"view","type":"function"},{"inputs":[{"internalType":"uint256","name":"","type":"uint256"}],"name":"normalRates","outputs":[{"internalType":"uint256","name":"","type":"uint256"}],"stateMutability":"view","type":"function"},{"inputs":[],"name":"owner","outputs":[{"internalType":"address","name":"","type":"address"}],"stateMutability":"view","type":"function"},{"inputs":[],"name":"renounceOwnership","outputs":[],"stateMutability":"nonpayable","type":"function"},{"inputs":[{"internalType":"address","name":"user","type":"address"},{"internalType":"bool","name":"isLp","type":"bool"}],"name":"setLpStaker","outputs":[],"stateMutability":"nonpayable","type":"function"},{"inputs":[{"internalType":"uint256","name":"amount","type":"uint256"},{"internalType":"uint256","name":"durationInDays","type":"uint256"}],"name":"stake","outputs":[],"stateMutability":"nonpayable","type":"function"},{"inputs":[{"internalType":"address","name":"","type":"address"}],"name":"stakers","outputs":[{"internalType":"uint256","name":"amount","type":"uint256"},{"internalType":"uint256","name":"since","type":"uint256"},{"internalType":"uint256","name":"unlocksOn","type":"uint256"},{"internalType":"bool","name":"isLpStaker","type":"bool"}],"stateMutability":"view","type":"function"},{"inputs":[],"name":"totalStaked","outputs":[{"internalType":"uint256","name":"","type":"uint256"}],"stateMutability":"view","type":"function"},{"inputs":[{"internalType":"address","name":"newOwner","type":"address"}],"name":"transferOwnership","outputs":[],"stateMutability":"nonpayable","type":"function"},{"inputs":[],"name":"unstake","outputs":[],"stateMutability":"nonpayable","type":"function"}],"evm":{"bytecode":{"linkReferences":{},"object":"610120604052603260a0908152606460c05260c860e05261012c610100526200002d90600590600462000139565b50604080516080810182526064815260c860208201526101909181019190915261025860608201526200006590600690600462000139565b503480156200007357600080fd5b5060405162000ede38038062000ede8339810160408190526200009691620001c3565b806001600160a01b038116620000c657604051631e4fbdf760e01b81526000600482015260240160405180910390fd5b620000d181620000e9565b5050600180556001600160a01b0316608052620001fb565b600080546001600160a01b038381166001600160a01b0319831681178455604051919092169283917f8be0079c531659141344cd1fd0a4f28419497f9722a3daafe3b4186f6b6457e09190a35050565b8280548282559060005260206000209081019282156200017d579160200282015b828111156200017d578251829061ffff169055916020019190600101906200015a565b506200018b9291506200018f565b5090565b5b808211156200018b576000815560010162000190565b80516001600160a01b0381168114620001be57600080fd5b919050565b60008060408385031215620001d757600080fd5b620001e283620001a6565b9150620001f260208401620001a6565b90509250929050565b608051610cba620002246000396000818160fe015281816103a501526106470152610cba6000f3fe608060405234801561001057600080fd5b50600436106100ea5760003560e01c8063ba85c2591161008c578063d82e396211610066578063d82e396214610235578063f2fde38b14610248578063f3aab1041461025b578063f6c4dd8d1461026e57600080fd5b8063ba85c259146101dc578063c2277742146101ef578063d7e751ba1461022257600080fd5b80637b0472f0116100c85780637b0472f014610145578063817b1cd2146101585780638da5cb5b1461016f5780639168ae721461018057600080fd5b80632def6620146100ef57806370af9b14146100f9578063715018a61461013d575b600080fd5b6100f7610280565b005b6101207f000000000000000000000000000000000000000000000000000000000000000081565b6040516001600160a01b0390911681526020015b60405180910390f35b6100f761041f565b6100f7610153366004610b3e565b610431565b61016160025481565b604051908152602001610134565b6000546001600160a01b0316610120565b6101ba61018e366004610b7c565b600360208190526000918252604090912080546001820154600283015492909301549092919060ff1684565b6040805194855260208501939093529183015215156060820152608001610134565b6101616101ea366004610b9e565b6106c8565b6102126101fd366004610b7c565b60046020526000908152604090205460ff1681565b6040519015158152602001610134565b6100f7610230366004610bb7565b6106e9565b610161610243366004610b7c565b610750565b6100f7610256366004610b7c565b6108e1565b610161610269366004610b9e565b61091f565b6101616a52b7d2dcc80cd2e400000081565b61028861092f565b33600090815260036020526040902080546102e35760405162461bcd60e51b8152602060048201526016602482015275556e7374616b696e673a206e6f74207374616b696e6760501b60448201526064015b60405180910390fd5b80600201544210156103375760405162461bcd60e51b815260206004820152601f60248201527f556e7374616b696e673a206c6f636b20706572696f64206e6f74206f7665720060448201526064016102da565b600061034233610750565b905060008183600001546103569190610c09565b905082600001546002600082825461036e9190610c22565b9091555050336000818152600360208190526040822082815560018101839055600281019290925501805460ff191690556103d4907f00000000000000000000000000000000000000000000000000000000000000006001600160a01b03169083610959565b8254604080519182526020820184905233917f7fc4727e062e336010f2c282598ef5f14facb3de68cf8195c2f23e1454b2b74e910160405180910390a250505061041d60018055565b565b6104276109bd565b61041d60006109ea565b61043961092f565b6000821161047f5760405162461bcd60e51b815260206004820152601360248201527205374616b696e673a20616d6f756e74203e203606c1b60448201526064016102da565b33600090815260036020526040902054156104dc5760405162461bcd60e51b815260206004820152601860248201527f5374616b696e673a20616c7265616479207374616b696e67000000000000000060448201526064016102da565b6a52b7d2dcc80cd2e4000000826002546104f69190610c09565b11156105445760405162461bcd60e51b815260206004820152601960248201527f5374616b696e673a20686172642063617020726561636865640000000000000060448201526064016102da565b600061054f82610a3a565b9050600081116105a15760405162461bcd60e51b815260206004820152601960248201527f5374616b696e673a20696e76616c6964206475726174696f6e0000000000000060448201526064016102da565b82600260008282546105b39190610c09565b92505081905550604051806080016040528084815260200142815260200182426105dd9190610c09565b81523360008181526004602090815260408083205460ff161515948201949094528282526003808252918490208551815590850151600182015592840151600284015560609093015191909201805460ff191691151591909117905561066f906001600160a01b037f000000000000000000000000000000000000000000000000000000000000000016903086610a8e565b33600081815260036020908152604091829020600201548251878152918201527f1449c6dd7851abc30abf37f57715f492010519147cc2652fbc38202c18a6ee90910160405180910390a2506106c460018055565b5050565b600581815481106106d857600080fd5b600091825260209091200154905081565b6106f16109bd565b6001600160a01b038216600081815260046020908152604091829020805460ff191685151590811790915591519182527f479b155fd9ee4e038b5bb63a809c961882d5d8c138a03b33c7dc81c35b77975d910160405180910390a25050565b6001600160a01b0381166000908152600360208181526040808420815160808101835281548082526001830154948201949094526002820154928101929092529092015460ff161515606083015282036107ad5750600092915050565b6000816020015182604001516107c39190610c22565b9050600082606001516107d75760056107da565b60065b80548060200260200160405190810160405280929190818152602001828054801561082457602002820191906000526020600020905b815481526020019060010190808311610810575b5050505050905060006301e13380831061085a578160038151811061084b5761084b610c35565b602002602001015190506108bc565b62ed4e008310610877578160028151811061084b5761084b610c35565b6276a7008310610894578160018151811061084b5761084b610c35565b62278d0083106108bc57816000815181106108b1576108b1610c35565b602002602001015190505b8351612710906108cd908390610c4b565b6108d79190610c62565b9695505050505050565b6108e96109bd565b6001600160a01b03811661091357604051631e4fbdf760e01b8152600060048201526024016102da565b61091c816109ea565b50565b600681815481106106d857600080fd5b60026001540361095257604051633ee5aeb560e01b815260040160405180910390fd5b6002600155565b6040516001600160a01b038381166024830152604482018390526109b891859182169063a9059cbb906064015b604051602081830303815290604052915060e01b6020820180516001600160e01b038381831617835250505050610acd565b505050565b6000546001600160a01b0316331461041d5760405163118cdaa760e01b81523360048201526024016102da565b600080546001600160a01b038381166001600160a01b0319831681178455604051919092169283917f8be0079c531659141344cd1fd0a4f28419497f9722a3daafe3b4186f6b6457e09190a35050565b600081601e03610a4e575062278d00919050565b81605a03610a6057506276a700919050565b8160b403610a72575062ed4e00919050565b8161016d03610a8657506301e13380919050565b506000919050565b6040516001600160a01b038481166024830152838116604483015260648201839052610ac79186918216906323b872dd90608401610986565b50505050565b600080602060008451602086016000885af180610af0576040513d6000823e3d81fd5b50506000513d91508115610b08578060011415610b15565b6001600160a01b0384163b155b15610ac757604051635274afe760e01b81526001600160a01b03851660048201526024016102da565b60008060408385031215610b5157600080fd5b50508035926020909101359150565b80356001600160a01b0381168114610b7757600080fd5b919050565b600060208284031215610b8e57600080fd5b610b9782610b60565b9392505050565b600060208284031215610bb057600080fd5b5035919050565b60008060408385031215610bca57600080fd5b610bd383610b60565b915060208301358015158114610be857600080fd5b809150509250929050565b634e487b7160e01b600052601160045260246000fd5b80820180821115610c1c57610c1c610bf3565b92915050565b81810381811115610c1c57610c1c610bf3565b634e487b7160e01b600052603260045260246000fd5b8082028115828204841417610c1c57610c1c610bf3565b600082610c7f57634e487b7160e01b600052601260045260246000fd5b50049056fea2646970667358221220f1d2ad828b4af4c6079e075b8be3e3873544cde9e9dd0af94aa49f93c2a3c64164736f6c63430008140033","opcodes":"PUSH2 0x120 PUSH1 0x40 MSTORE PUSH1 0x32 PUSH1 0xA0 SWAP1 DUP2 MSTORE PUSH1 0x64 PUSH1 0xC0 MSTORE PUSH1 0xC8 PUSH1 0xE0 MSTORE PUSH2 0x12C PUSH2 0x100 MSTORE PUSH3 0x2D SWAP1 PUSH1 0x5 SWAP1 PUSH1 0x4 PUSH3 0x139 JUMP JUMPDEST POP PUSH1 0x40 DUP1 MLOAD PUSH1 0x80 DUP2 ADD DUP3 MSTORE PUSH1 0x64 DUP2 MSTORE PUSH1 0xC8 PUSH1 0x20 DUP3 ADD MSTORE PUSH2 0x190 SWAP2 DUP2 ADD SWAP2 SWAP1 SWAP2 MSTORE PUSH2 0x258 PUSH1 0x60 DUP3 ADD MSTORE PUSH3 0x65 SWAP1 PUSH1 0x6 SWAP1 PUSH1 0x4 PUSH3 0x139 JUMP JUMPDEST POP CALLVALUE DUP1 ISZERO PUSH3 0x73 JUMPI PUSH1 0x0 DUP1 REVERT JUMPDEST POP PUSH1 0x40 MLOAD PUSH3 0xEDE CODESIZE SUB DUP1 PUSH3 0xEDE DUP4 CODECOPY DUP2 ADD PUSH1 0x40 DUP2 SWAP1 MSTORE PUSH3 0x96 SWAP2 PUSH3 0x1C3 JUMP JUMPDEST DUP1 PUSH1 0x1 PUSH1 0x1 PUSH1 0xA0 SHL SUB DUP2 AND PUSH3 0xC6 JUMPI PUSH1 0x40 MLOAD PUSH4 0x1E4FBDF7 PUSH1 0xE0 SHL DUP2 MSTORE PUSH1 0x0 PUSH1 0x4 DUP3 ADD MSTORE PUSH1 0x24 ADD PUSH1 0x40 MLOAD DUP1 SWAP2 SUB SWAP1 REVERT JUMPDEST PUSH3 0xD1 DUP2 PUSH3 0xE9 JUMP JUMPDEST POP POP PUSH1 0x1 DUP1 SSTORE PUSH1 0x1 PUSH1 0x1 PUSH1 0xA0 SHL SUB AND PUSH1 0x80 MSTORE PUSH3 0x1FB JUMP JUMPDEST PUSH1 0x0 DUP1 SLOAD PUSH1 0x1 PUSH1 0x1 PUSH1 0xA0 SHL SUB DUP4 DUP2 AND PUSH1 0x1 PUSH1 0x1 PUSH1 0xA0 SHL SUB NOT DUP4 AND DUP2 OR DUP5 SSTORE PUSH1 0x40 MLOAD SWAP2 SWAP1 SWAP3 AND SWAP3 DUP4 SWAP2 PUSH32 0x8BE0079C531659141344CD1FD0A4F28419497F9722A3DAAFE3B4186F6B6457E0 SWAP2 SWAP1 LOG3 POP POP JUMP JUMPDEST DUP3 DUP1 SLOAD DUP3 DUP3 SSTORE SWAP1 PUSH1 0x0 MSTORE PUSH1 0x20 PUSH1 0x0 KECCAK256 SWAP1 DUP2 ADD SWAP3 DUP3 ISZERO PUSH3 0x17D JUMPI SWAP2 PUSH1 0x20 MUL DUP3 ADD JUMPDEST DUP3 DUP2 GT ISZERO PUSH3 0x17D JUMPI DUP3 MLOAD DUP3 SWAP1 PUSH2 0xFFFF AND SWAP1 SSTORE SWAP2 PUSH1 0x20 ADD SWAP2 SWAP1 PUSH1 0x1 ADD SWAP1 PUSH3 0x15A JUMP JUMPDEST POP PUSH3 0x18B SWAP3 SWAP2 POP PUSH3 0x18F JUMP JUMPDEST POP SWAP1 JUMP JUMPDEST JUMPDEST DUP1 DUP3 GT ISZERO PUSH3 0x18B JUMPI PUSH1 0x0 DUP2 SSTORE PUSH1 0x1 ADD PUSH3 0x190 JUMP JUMPDEST DUP1 MLOAD PUSH1 0x1 PUSH1 0x1 PUSH1 0xA0 SHL SUB DUP2 AND DUP2 EQ PUSH3 0x1BE JUMPI PUSH1 0x0 DUP1 REVERT JUMPDEST SWAP2 SWAP1 POP JUMP JUMPDEST PUSH1 0x0 DUP1 PUSH1 0x40 DUP4 DUP6 SUB SLT ISZERO PUSH3 0x1D7 JUMPI PUSH1 0x0 DUP1 REVERT JUMPDEST PUSH3 0x1E2 DUP4 PUSH3 0x1A6 JUMP JUMPDEST SWAP2 POP PUSH3 0x1F2 PUSH1 0x20 DUP5 ADD PUSH3 0x1A6 JUMP JUMPDEST SWAP1 POP SWAP3 POP SWAP3 SWAP1 POP JUMP JUMPDEST PUSH1 0x80 MLOAD PUSH2 0xCBA PUSH3 0x224 PUSH1 0x0 CODECOPY PUSH1 0x0 DUP2 DUP2 PUSH1 0xFE ADD MSTORE DUP2 DUP2 PUSH2 0x3A5 ADD MSTORE PUSH2 0x647 ADD MSTORE PUSH2 0xCBA PUSH1 0x0 RETURN INVALID PUSH1 0x80 PUSH1 0x40 MSTORE CALLVALUE DUP1 ISZERO PUSH2 0x10 JUMPI PUSH1 0x0 DUP1 REVERT JUMPDEST POP PUSH1 0x4 CALLDATASIZE LT PUSH2 0xEA JUMPI PUSH1 0x0 CALLDATALOAD PUSH1 0xE0 SHR DUP1 PUSH4 0xBA85C259 GT PUSH2 0x8C JUMPI DUP1 PUSH4 0xD82E3962 GT PUSH2 0x66 JUMPI DUP1 PUSH4 0xD82E3962 EQ PUSH2 0x235 JUMPI DUP1 PUSH4 0xF2FDE38B EQ PUSH2 0x248 JUMPI DUP1 PUSH4 0xF3AAB104 EQ PUSH2 0x25B JUMPI DUP1 PUSH4 0xF6C4DD8D EQ PUSH2 0x26E JUMPI PUSH1 0x0 DUP1 REVERT JUMPDEST DUP1 PUSH4 0xBA85C259 EQ PUSH2 0x1DC JUMPI DUP1 PUSH4 0xC2277742 EQ PUSH2 0x1EF JUMPI DUP1 PUSH4 0xD7E751BA EQ PUSH2 0x222 JUMPI PUSH1 0x0 DUP1 REVERT JUMPDEST DUP1 PUSH4 0x7B0472F0 GT PUSH2 0xC8 JUMPI DUP1 PUSH4 0x7B0472F0 EQ PUSH2 0x145 JUMPI DUP1 PUSH4 0x817B1CD2 EQ PUSH2 0x158 JUMPI DUP1 PUSH4 0x8DA5CB5B EQ PUSH2 0x16F JUMPI DUP1 PUSH4 0x9168AE72 EQ PUSH2 0x180 JUMPI PUSH1 0x0 DUP1 REVERT JUMPDEST DUP1 PUSH4 0x2DEF6620 EQ PUSH2 0xEF JUMPI DUP1 PUSH4 0x70AF9B14 EQ PUSH2 0xF9 JUMPI DUP1 PUSH4 0x715018A6 EQ PUSH2 0x13D JUMPI JUMPDEST PUSH1 0x0 DUP1 REVERT JUMPDEST PUSH2 0xF7 PUSH2 0x280 JUMP JUMPDEST STOP JUMPDEST PUSH2 0x120 PUSH32 0x0 DUP2 JUMP JUMPDEST PUSH1 0x40 MLOAD PUSH1 0x1 PUSH1 0x1 PUSH1 0xA0 SHL SUB SWAP1 SWAP2 AND DUP2 MSTORE PUSH1 0x20 ADD JUMPDEST PUSH1 0x40 MLOAD DUP1 SWAP2 SUB SWAP1 RETURN JUMPDEST PUSH2 0xF7 PUSH2 0x41F JUMP JUMPDEST PUSH2 0xF7 PUSH2 0x153 CALLDATASIZE PUSH1 0x4 PUSH2 0xB3E JUMP JUMPDEST PUSH2 0x431 JUMP JUMPDEST PUSH2 0x161 PUSH1 0x2 SLOAD DUP2 JUMP JUMPDEST PUSH1 0x40 MLOAD SWAP1 DUP2 MSTORE PUSH1 0x20 ADD PUSH2 0x134 JUMP JUMPDEST PUSH1 0x0 SLOAD PUSH1 0x1 PUSH1 0x1 PUSH1 0xA0 SHL SUB AND PUSH2 0x120 JUMP JUMPDEST PUSH2 0x1BA PUSH2 0x18E CALLDATASIZE PUSH1 0x4 PUSH2 0xB7C JUMP JUMPDEST PUSH1 0x3 PUSH1 0x20 DUP2 SWAP1 MSTORE PUSH1 0x0 SWAP2 DUP3 MSTORE PUSH1 0x40 SWAP1 SWAP2 KECCAK256 DUP1 SLOAD PUSH1 0x1 DUP3 ADD SLOAD PUSH1 0x2 DUP4 ADD SLOAD SWAP3 SWAP1 SWAP4 ADD SLOAD SWAP1 SWAP3 SWAP2 SWAP1 PUSH1 0xFF AND DUP5 JUMP JUMPDEST PUSH1 0x40 DUP1 MLOAD SWAP5 DUP6 MSTORE PUSH1 0x20 DUP6 ADD SWAP4 SWAP1 SWAP4 MSTORE SWAP2 DUP4 ADD MSTORE ISZERO ISZERO PUSH1 0x60 DUP3 ADD MSTORE PUSH1 0x80 ADD PUSH2 0x134 JUMP JUMPDEST PUSH2 0x161 PUSH2 0x1EA CALLDATASIZE PUSH1 0x4 PUSH2 0xB9E JUMP JUMPDEST PUSH2 0x6C8 JUMP JUMPDEST PUSH2 0x212 PUSH2 0x1FD CALLDATASIZE PUSH1 0x4 PUSH2 0xB7C JUMP JUMPDEST PUSH1 0x4 PUSH1 0x20 MSTORE PUSH1 0x0 SWAP1 DUP2 MSTORE PUSH1 0x40 SWAP1 KECCAK256 SLOAD PUSH1 0xFF AND DUP2 JUMP JUMPDEST PUSH1 0x40 MLOAD SWAP1 ISZERO ISZERO DUP2 MSTORE PUSH1 0x20 ADD PUSH2 0x134 JUMP JUMPDEST PUSH2 0xF7 PUSH2 0x230 CALLDATASIZE PUSH1 0x4 PUSH2 0xBB7 JUMP JUMPDEST PUSH2 0x6E9 JUMP JUMPDEST PUSH2 0x161 PUSH2 0x243 CALLDATASIZE PUSH1 0x4 PUSH2 0xB7C JUMP JUMPDEST PUSH2 0x750 JUMP JUMPDEST PUSH2 0xF7 PUSH2 0x256 CALLDATASIZE PUSH1 0x4 PUSH2 0xB7C JUMP JUMPDEST PUSH2 0x8E1 JUMP JUMPDEST PUSH2 0x161 PUSH2 0x269 CALLDATASIZE PUSH1 0x4 PUSH2 0xB9E JUMP JUMPDEST PUSH2 0x91F JUMP JUMPDEST PUSH2 0x161 PUSH11 0x52B7D2DCC80CD2E4000000 DUP2 JUMP JUMPDEST PUSH2 0x288 PUSH2 0x92F JUMP JUMPDEST CALLER PUSH1 0x0 SWAP1 DUP2 MSTORE PUSH1 0x3 PUSH1 0x20 MSTORE PUSH1 0x40 SWAP1 KECCAK256 DUP1 SLOAD PUSH2 0x2E3 JUMPI PUSH1 0x40 MLOAD PUSH3 0x461BCD PUSH1 0xE5 SHL DUP2 MSTORE PUSH1 0x20 PUSH1 0x4 DUP3 ADD MSTORE PUSH1 0x16 PUSH1 0x24 DUP3 ADD MSTORE PUSH22 0x556E7374616B696E673A206E6F74207374616B696E67 PUSH1 0x50 SHL PUSH1 0x44 DUP3 ADD MSTORE PUSH1 0x64 ADD JUMPDEST PUSH1 0x40 MLOAD DUP1 SWAP2 SUB SWAP1 REVERT JUMPDEST DUP1 PUSH1 0x2 ADD SLOAD TIMESTAMP LT ISZERO PUSH2 0x337 JUMPI PUSH1 0x40 MLOAD PUSH3 0x461BCD PUSH1 0xE5 SHL DUP2 MSTORE PUSH1 0x20 PUSH1 0x4 DUP3 ADD MSTORE PUSH1 0x1F PUSH1 0x24 DUP3 ADD MSTORE PUSH32 0x556E7374616B696E673A206C6F636B20706572696F64206E6F74206F76657200 PUSH1 0x44 DUP3 ADD MSTORE PUSH1 0x64 ADD PUSH2 0x2DA JUMP JUMPDEST PUSH1 0x0 PUSH2 0x342 CALLER PUSH2 0x750 JUMP JUMPDEST SWAP1 POP PUSH1 0x0 DUP2 DUP4 PUSH1 0x0 ADD SLOAD PUSH2 0x356 SWAP2 SWAP1 PUSH2 0xC09 JUMP JUMPDEST SWAP1 POP DUP3 PUSH1 0x0 ADD SLOAD PUSH1 0x2 PUSH1 0x0 DUP3 DUP3 SLOAD PUSH2 0x36E SWAP2 SWAP1 PUSH2 0xC22 JUMP JUMPDEST SWAP1 SWAP2 SSTORE POP POP CALLER PUSH1 0x0 DUP2 DUP2 MSTORE PUSH1 0x3 PUSH1 0x20 DUP2 SWAP1 MSTORE PUSH1 0x40 DUP3 KECCAK256 DUP3 DUP2 SSTORE PUSH1 0x1 DUP2 ADD DUP4 SWAP1 SSTORE PUSH1 0x2 DUP2 ADD SWAP3 SWAP1 SWAP3 SSTORE ADD DUP1 SLOAD PUSH1 0xFF NOT AND SWAP1 SSTORE PUSH2 0x3D4 SWAP1 PUSH32 0x0 PUSH1 0x1 PUSH1 0x1 PUSH1 0xA0 SHL SUB AND SWAP1 DUP4 PUSH2 0x959 JUMP JUMPDEST DUP3 SLOAD PUSH1 0x40 DUP1 MLOAD SWAP2 DUP3 MSTORE PUSH1 0x20 DUP3 ADD DUP5 SWAP1 MSTORE CALLER SWAP2 PUSH32 0x7FC4727E062E336010F2C282598EF5F14FACB3DE68CF8195C2F23E1454B2B74E SWAP2 ADD PUSH1 0x40 MLOAD DUP1 SWAP2 SUB SWAP1 LOG2 POP POP POP PUSH2 0x41D PUSH1 0x1 DUP1 SSTORE JUMP JUMPDEST JUMP JUMPDEST PUSH2 0x427 PUSH2 0x9BD JUMP JUMPDEST PUSH2 0x41D PUSH1 0x0 PUSH2 0x9EA JUMP JUMPDEST PUSH2 0x439 PUSH2 0x92F JUMP JUMPDEST PUSH1 0x0 DUP3 GT PUSH2 0x47F JUMPI PUSH1 0x40 MLOAD PUSH3 0x461BCD PUSH1 0xE5 SHL DUP2 MSTORE PUSH1 0x20 PUSH1 0x4 DUP3 ADD MSTORE PUSH1 0x13 PUSH1 0x24 DUP3 ADD MSTORE PUSH19 0x5374616B696E673A20616D6F756E74203E203 PUSH1 0x6C SHL PUSH1 0x44 DUP3 ADD MSTORE PUSH1 0x64 ADD PUSH2 0x2DA JUMP JUMPDEST CALLER PUSH1 0x0 SWAP1 DUP2 MSTORE PUSH1 0x3 PUSH1 0x20 MSTORE PUSH1 0x40 SWAP1 KECCAK256 SLOAD ISZERO PUSH2 0x4DC JUMPI PUSH1 0x40 MLOAD PUSH3 0x461BCD PUSH1 0xE5 SHL DUP2 MSTORE PUSH1 0x20 PUSH1 0x4 DUP3 ADD MSTORE PUSH1 0x18 PUSH1 0x24 DUP3 ADD MSTORE PUSH32 0x5374616B696E673A20616C7265616479207374616B696E670000000000000000 PUSH1 0x44 DUP3 ADD MSTORE PUSH1 0x64 ADD PUSH2 0x2DA JUMP JUMPDEST PUSH11 0x52B7D2DCC80CD2E4000000 DUP3 PUSH1 0x2 SLOAD PUSH2 0x4F6 SWAP2 SWAP1 PUSH2 0xC09 JUMP JUMPDEST GT ISZERO PUSH2 0x544 JUMPI PUSH1 0x40 MLOAD PUSH3 0x461BCD PUSH1 0xE5 SHL DUP2 MSTORE PUSH1 0x20 PUSH1 0x4 DUP3 ADD MSTORE PUSH1 0x19 PUSH1 0x24 DUP3 ADD MSTORE PUSH32 0x5374616B696E673A206861726420636170207265616368656400000000000000 PUSH1 0x44 DUP3 ADD MSTORE PUSH1 0x64 ADD PUSH2 0x2DA JUMP JUMPDEST PUSH1 0x0 PUSH2 0x54F DUP3 PUSH2 0xA3A JUMP JUMPDEST SWAP1 POP PUSH1 0x0 DUP2 GT PUSH2 0x5A1 JUMPI PUSH1 0x40 MLOAD PUSH3 0x461BCD PUSH1 0xE5 SHL DUP2 MSTORE PUSH1 0x20 PUSH1 0x4 DUP3 ADD MSTORE PUSH1 0x19 PUSH1 0x24 DUP3 ADD MSTORE PUSH32 0x5374616B696E673A20696E76616C6964206475726174696F6E00000000000000 PUSH1 0x44 DUP3 ADD MSTORE PUSH1 0x64 ADD PUSH2 0x2DA JUMP JUMPDEST DUP3 PUSH1 0x2 PUSH1 0x0 DUP3 DUP3 SLOAD PUSH2 0x5B3 SWAP2 SWAP1 PUSH2 0xC09 JUMP JUMPDEST SWAP3 POP POP DUP2 SWAP1 SSTORE POP PUSH1 0x40 MLOAD DUP1 PUSH1 0x80 ADD PUSH1 0x40 MSTORE DUP1 DUP5 DUP2 MSTORE PUSH1 0x20 ADD TIMESTAMP DUP2 MSTORE PUSH1 0x20 ADD DUP3 TIMESTAMP PUSH2 0x5DD SWAP2 SWAP1 PUSH2 0xC09 JUMP JUMPDEST DUP2 MSTORE CALLER PUSH1 0x0 DUP2 DUP2 MSTORE PUSH1 0x4 PUSH1 0x20 SWAP1 DUP2 MSTORE PUSH1 0x40 DUP1 DUP4 KECCAK256 SLOAD PUSH1 0xFF AND ISZERO ISZERO SWAP5 DUP3 ADD SWAP5 SWAP1 SWAP5 MSTORE DUP3 DUP3 MSTORE PUSH1 0x3 DUP1 DUP3 MSTORE SWAP2 DUP5 SWAP1 KECCAK256 DUP6 MLOAD DUP2 SSTORE SWAP1 DUP6 ADD MLOAD PUSH1 0x1 DUP3 ADD SSTORE SWAP3 DUP5 ADD MLOAD PUSH1 0x2 DUP5 ADD SSTORE PUSH1 0x60 SWAP1 SWAP4 ADD MLOAD SWAP2 SWAP1 SWAP3 ADD DUP1 SLOAD PUSH1 0xFF NOT AND SWAP2 ISZERO ISZERO SWAP2 SWAP1 SWAP2 OR SWAP1 SSTORE PUSH2 0x66F SWAP1 PUSH1 0x1 PUSH1 0x1 PUSH1 0xA0 SHL SUB PUSH32 0x0 AND SWAP1 ADDRESS DUP7 PUSH2 0xA8E JUMP JUMPDEST CALLER PUSH1 0x0 DUP2 DUP2 MSTORE PUSH1 0x3 PUSH1 0x20 SWAP1 DUP2 MSTORE PUSH1 0x40 SWAP2 DUP3 SWAP1 KECCAK256 PUSH1 0x2 ADD SLOAD DUP3 MLOAD DUP8 DUP2 MSTORE SWAP2 DUP3 ADD MSTORE PUSH32 0x1449C6DD7851ABC30ABF37F57715F492010519147CC2652FBC38202C18A6EE90 SWAP2 ADD PUSH1 0x40 MLOAD DUP1 SWAP2 SUB SWAP1 LOG2 POP PUSH2 0x6C4 PUSH1 0x1 DUP1 SSTORE JUMP JUMPDEST POP POP JUMP JUMPDEST PUSH1 0x5 DUP2 DUP2 SLOAD DUP2 LT PUSH2 0x6D8 JUMPI PUSH1 0x0 DUP1 REVERT JUMPDEST PUSH1 0x0 SWAP2 DUP3 MSTORE PUSH1 0x20 SWAP1 SWAP2 KECCAK256 ADD SLOAD SWAP1 POP DUP2 JUMP JUMPDEST PUSH2 0x6F1 PUSH2 0x9BD JUMP JUMPDEST PUSH1 0x1 PUSH1 0x1 PUSH1 0xA0 SHL SUB DUP3 AND PUSH1 0x0 DUP2 DUP2 MSTORE PUSH1 0x4 PUSH1 0x20 SWAP1 DUP2 MSTORE PUSH1 0x40 SWAP2 DUP3 SWAP1 KECCAK256 DUP1 SLOAD PUSH1 0xFF NOT AND DUP6 ISZERO ISZERO SWAP1 DUP2 OR SWAP1 SWAP2 SSTORE SWAP2 MLOAD SWAP2 DUP3 MSTORE PUSH32 0x479B155FD9EE4E038B5BB63A809C961882D5D8C138A03B33C7DC81C35B77975D SWAP2 ADD PUSH1 0x40 MLOAD DUP1 SWAP2 SUB SWAP1 LOG2 POP POP JUMP JUMPDEST PUSH1 0x1 PUSH1 0x1 PUSH1 0xA0 SHL SUB DUP2 AND PUSH1 0x0 SWAP1 DUP2 MSTORE PUSH1 0x3 PUSH1 0x20 DUP2 DUP2 MSTORE PUSH1 0x40 DUP1 DUP5 KECCAK256 DUP2 MLOAD PUSH1 0x80 DUP2 ADD DUP4 MSTORE DUP2 SLOAD DUP1 DUP3 MSTORE PUSH1 0x1 DUP4 ADD SLOAD SWAP5 DUP3 ADD SWAP5 SWAP1 SWAP5 MSTORE PUSH1 0x2 DUP3 ADD SLOAD SWAP3 DUP2 ADD SWAP3 SWAP1 SWAP3 MSTORE SWAP1 SWAP3 ADD SLOAD PUSH1 0xFF AND ISZERO ISZERO PUSH1 0x60 DUP4 ADD MSTORE DUP3 SUB PUSH2 0x7AD JUMPI POP PUSH1 0x0 SWAP3 SWAP2 POP POP JUMP JUMPDEST PUSH1 0x0 DUP2 PUSH1 0x20 ADD MLOAD DUP3 PUSH1 0x40 ADD MLOAD PUSH2 0x7C3 SWAP2 SWAP1 PUSH2 0xC22 JUMP JUMPDEST SWAP1 POP PUSH1 0x0 DUP3 PUSH1 0x60 ADD MLOAD PUSH2 0x7D7 JUMPI PUSH1 0x5 PUSH2 0x7DA JUMP JUMPDEST PUSH1 0x6 JUMPDEST DUP1 SLOAD DUP1 PUSH1 0x20 MUL PUSH1 0x20 ADD PUSH1 0x40 MLOAD SWAP1 DUP2 ADD PUSH1 0x40 MSTORE DUP1 SWAP3 SWAP2 SWAP1 DUP2 DUP2 MSTORE PUSH1 0x20 ADD DUP3 DUP1 SLOAD DUP1 ISZERO PUSH2 0x824 JUMPI PUSH1 0x20 MUL DUP3 ADD SWAP2 SWAP1 PUSH1 0x0 MSTORE PUSH1 0x20 PUSH1 0x0 KECCAK256 SWAP1 JUMPDEST DUP2 SLOAD DUP2 MSTORE PUSH1 0x20 ADD SWAP1 PUSH1 0x1 ADD SWAP1 DUP1 DUP4 GT PUSH2 0x810 JUMPI JUMPDEST POP POP POP POP POP SWAP1 POP PUSH1 0x0 PUSH4 0x1E13380 DUP4 LT PUSH2 0x85A JUMPI DUP2 PUSH1 0x3 DUP2 MLOAD DUP2 LT PUSH2 0x84B JUMPI PUSH2 0x84B PUSH2 0xC35 JUMP JUMPDEST PUSH1 0x20 MUL PUSH1 0x20 ADD ADD MLOAD SWAP1 POP PUSH2 0x8BC JUMP JUMPDEST PUSH3 0xED4E00 DUP4 LT PUSH2 0x877 JUMPI DUP2 PUSH1 0x2 DUP2 MLOAD DUP2 LT PUSH2 0x84B JUMPI PUSH2 0x84B PUSH2 0xC35 JUMP JUMPDEST PUSH3 0x76A700 DUP4 LT PUSH2 0x894 JUMPI DUP2 PUSH1 0x1 DUP2 MLOAD DUP2 LT PUSH2 0x84B JUMPI PUSH2 0x84B PUSH2 0xC35 JUMP JUMPDEST PUSH3 0x278D00 DUP4 LT PUSH2 0x8BC JUMPI DUP2 PUSH1 0x0 DUP2 MLOAD DUP2 LT PUSH2 0x8B1 JUMPI PUSH2 0x8B1 PUSH2 0xC35 JUMP JUMPDEST PUSH1 0x20 MUL PUSH1 0x20 ADD ADD MLOAD SWAP1 POP JUMPDEST DUP4 MLOAD PUSH2 0x2710 SWAP1 PUSH2 0x8CD SWAP1 DUP4 SWAP1 PUSH2 0xC4B JUMP JUMPDEST PUSH2 0x8D7 SWAP2 SWAP1 PUSH2 0xC62 JUMP JUMPDEST SWAP7 SWAP6 POP POP POP POP POP POP JUMP JUMPDEST PUSH2 0x8E9 PUSH2 0x9BD JUMP JUMPDEST PUSH1 0x1 PUSH1 0x1 PUSH1 0xA0 SHL SUB DUP2 AND PUSH2 0x913 JUMPI PUSH1 0x40 MLOAD PUSH4 0x1E4FBDF7 PUSH1 0xE0 SHL DUP2 MSTORE PUSH1 0x0 PUSH1 0x4 DUP3 ADD MSTORE PUSH1 0x24 ADD PUSH2 0x2DA JUMP JUMPDEST PUSH2 0x91C DUP2 PUSH2 0x9EA JUMP JUMPDEST POP JUMP JUMPDEST PUSH1 0x6 DUP2 DUP2 SLOAD DUP2 LT PUSH2 0x6D8 JUMPI PUSH1 0x0 DUP1 REVERT JUMPDEST PUSH1 0x2 PUSH1 0x1 SLOAD SUB PUSH2 0x952 JUMPI PUSH1 0x40 MLOAD PUSH4 0x3EE5AEB5 PUSH1 0xE0 SHL DUP2 MSTORE PUSH1 0x4 ADD PUSH1 0x40 MLOAD DUP1 SWAP2 SUB SWAP1 REVERT JUMPDEST PUSH1 0x2 PUSH1 0x1 SSTORE JUMP JUMPDEST PUSH1 0x40 MLOAD PUSH1 0x1 PUSH1 0x1 PUSH1 0xA0 SHL SUB DUP4 DUP2 AND PUSH1 0x24 DUP4 ADD MSTORE PUSH1 0x44 DUP3 ADD DUP4 SWAP1 MSTORE PUSH2 0x9B8 SWAP2 DUP6 SWAP2 DUP3 AND SWAP1 PUSH4 0xA9059CBB SWAP1 PUSH1 0x64 ADD JUMPDEST PUSH1 0x40 MLOAD PUSH1 0x20 DUP2 DUP4 SUB SUB DUP2 MSTORE SWAP1 PUSH1 0x40 MSTORE SWAP2 POP PUSH1 0xE0 SHL PUSH1 0x20 DUP3 ADD DUP1 MLOAD PUSH1 0x1 PUSH1 0x1 PUSH1 0xE0 SHL SUB DUP4 DUP2 DUP4 AND OR DUP4 MSTORE POP POP POP POP PUSH2 0xACD JUMP JUMPDEST POP POP POP JUMP JUMPDEST PUSH1 0x0 SLOAD PUSH1 0x1 PUSH1 0x1 PUSH1 0xA0 SHL SUB AND CALLER EQ PUSH2 0x41D JUMPI PUSH1 0x40 MLOAD PUSH4 0x118CDAA7 PUSH1 0xE0 SHL DUP2 MSTORE CALLER PUSH1 0x4 DUP3 ADD MSTORE PUSH1 0x24 ADD PUSH2 0x2DA JUMP JUMPDEST PUSH1 0x0 DUP1 SLOAD PUSH1 0x1 PUSH1 0x1 PUSH1 0xA0 SHL SUB DUP4 DUP2 AND PUSH1 0x1 PUSH1 0x1 PUSH1 0xA0 SHL SUB NOT DUP4 AND DUP2 OR DUP5 SSTORE PUSH1 0x40 MLOAD SWAP2 SWAP1 SWAP3 AND SWAP3 DUP4 SWAP2 PUSH32 0x8BE0079C531659141344CD1FD0A4F28419497F9722A3DAAFE3B4186F6B6457E0 SWAP2 SWAP1 LOG3 POP POP JUMP JUMPDEST PUSH1 0x0 DUP2 PUSH1 0x1E SUB PUSH2 0xA4E JUMPI POP PUSH3 0x278D00 SWAP2 SWAP1 POP JUMP JUMPDEST DUP2 PUSH1 0x5A SUB PUSH2 0xA60 JUMPI POP PUSH3 0x76A700 SWAP2 SWAP1 POP JUMP JUMPDEST DUP2 PUSH1 0xB4 SUB PUSH2 0xA72 JUMPI POP PUSH3 0xED4E00 SWAP2 SWAP1 POP JUMP JUMPDEST DUP2 PUSH2 0x16D SUB PUSH2 0xA86 JUMPI POP PUSH4 0x1E13380 SWAP2 SWAP1 POP JUMP JUMPDEST POP PUSH1 0x0 SWAP2 SWAP1 POP JUMP JUMPDEST PUSH1 0x40 MLOAD PUSH1 0x1 PUSH1 0x1 PUSH1 0xA0 SHL SUB DUP5 DUP2 AND PUSH1 0x24 DUP4 ADD MSTORE DUP4 DUP2 AND PUSH1 0x44 DUP4 ADD MSTORE PUSH1 0x64 DUP3 ADD DUP4 SWAP1 MSTORE PUSH2 0xAC7 SWAP2 DUP7 SWAP2 DUP3 AND SWAP1 PUSH4 0x23B872DD SWAP1 PUSH1 0x84 ADD PUSH2 0x986 JUMP JUMPDEST POP POP POP POP JUMP JUMPDEST PUSH1 0x0 DUP1 PUSH1 0x20 PUSH1 0x0 DUP5 MLOAD PUSH1 0x20 DUP7 ADD PUSH1 0x0 DUP9 GAS CALL DUP1 PUSH2 0xAF0 JUMPI PUSH1 0x40 MLOAD RETURNDATASIZE PUSH1 0x0 DUP3 RETURNDATACOPY RETURNDATASIZE DUP2 REVERT JUMPDEST POP POP PUSH1 0x0 MLOAD RETURNDATASIZE SWAP2 POP DUP2 ISZERO PUSH2 0xB08 JUMPI DUP1 PUSH1 0x1 EQ ISZERO PUSH2 0xB15 JUMP JUMPDEST PUSH1 0x1 PUSH1 0x1 PUSH1 0xA0 SHL SUB DUP5 AND EXTCODESIZE ISZERO JUMPDEST ISZERO PUSH2 0xAC7 JUMPI PUSH1 0x40 MLOAD PUSH4 0x5274AFE7 PUSH1 0xE0 SHL DUP2 MSTORE PUSH1 0x1 PUSH1 0x1 PUSH1 0xA0 SHL SUB DUP6 AND PUSH1 0x4 DUP3 ADD MSTORE PUSH1 0x24 ADD PUSH2 0x2DA JUMP JUMPDEST PUSH1 0x0 DUP1 PUSH1 0x40 DUP4 DUP6 SUB SLT ISZERO PUSH2 0xB51 JUMPI PUSH1 0x0 DUP1 REVERT JUMPDEST POP POP DUP1 CALLDATALOAD SWAP3 PUSH1 0x20 SWAP1 SWAP2 ADD CALLDATALOAD SWAP2 POP JUMP JUMPDEST DUP1 CALLDATALOAD PUSH1 0x1 PUSH1 0x1 PUSH1 0xA0 SHL SUB DUP2 AND DUP2 EQ PUSH2 0xB77 JUMPI PUSH1 0x0 DUP1 REVERT JUMPDEST SWAP2 SWAP1 POP JUMP JUMPDEST PUSH1 0x0 PUSH1 0x20 DUP3 DUP5 SUB SLT ISZERO PUSH2 0xB8E JUMPI PUSH1 0x0 DUP1 REVERT JUMPDEST PUSH2 0xB97 DUP3 PUSH2 0xB60 JUMP JUMPDEST SWAP4 SWAP3 POP POP POP JUMP JUMPDEST PUSH1 0x0 PUSH1 0x20 DUP3 DUP5 SUB SLT ISZERO PUSH2 0xBB0 JUMPI PUSH1 0x0 DUP1 REVERT JUMPDEST POP CALLDATALOAD SWAP2 SWAP1 POP JUMP JUMPDEST PUSH1 0x0 DUP1 PUSH1 0x40 DUP4 DUP6 SUB SLT ISZERO PUSH2 0xBCA JUMPI PUSH1 0x0 DUP1 REVERT JUMPDEST PUSH2 0xBD3 DUP4 PUSH2 0xB60 JUMP JUMPDEST SWAP2 POP PUSH1 0x20 DUP4 ADD CALLDATALOAD DUP1 ISZERO ISZERO DUP2 EQ PUSH2 0xBE8 JUMPI PUSH1 0x0 DUP1 REVERT JUMPDEST DUP1 SWAP2 POP POP SWAP3 POP SWAP3 SWAP1 POP JUMP JUMPDEST PUSH4 0x4E487B71 PUSH1 0xE0 SHL PUSH1 0x0 MSTORE PUSH1 0x11 PUSH1 0x4 MSTORE PUSH1 0x24 PUSH1 0x0 REVERT JUMPDEST DUP1 DUP3 ADD DUP1 DUP3 GT ISZERO PUSH2 0xC1C JUMPI PUSH2 0xC1C PUSH2 0xBF3 JUMP JUMPDEST SWAP3 SWAP2 POP POP JUMP JUMPDEST DUP2 DUP2 SUB DUP2 DUP2 GT ISZERO PUSH2 0xC1C JUMPI PUSH2 0xC1C PUSH2 0xBF3 JUMP JUMPDEST PUSH4 0x4E487B71 PUSH1 0xE0 SHL PUSH1 0x0 MSTORE PUSH1 0x32 PUSH1 0x4 MSTORE PUSH1 0x24 PUSH1 0x0 REVERT JUMPDEST DUP1 DUP3 MUL DUP2 ISZERO DUP3 DUP3 DIV DUP5 EQ OR PUSH2 0xC1C JUMPI PUSH2 0xC1C PUSH2 0xBF3 JUMP JUMPDEST PUSH1 0x0 DUP3 PUSH2 0xC7F JUMPI PUSH4 0x4E487B71 PUSH1 0xE0 SHL PUSH1 0x0 MSTORE PUSH1 0x12 PUSH1 0x4 MSTORE PUSH1 0x24 PUSH1 0x0 REVERT JUMPDEST POP DIV SWAP1 JUMP INVALID LOG2 PUSH5 0x6970667358 0x22 SLT KECCAK256 CALL 0xD2 0xAD DUP3 DUP12 0x4A DELEGATECALL 0xC6 SMOD SWAP15 SMOD JUMPDEST DUP12 0xE3 0xE3 DUP8 CALLDATALOAD PREVRANDAO 0xCD 0xE9 0xE9 0xDD EXP 0xF9 0x4A LOG4 SWAP16 SWAP4 0xC2 LOG3 0xC6 COINBASE PUSH5 0x736F6C6343 STOP ADDMOD EQ STOP CALLER "},"methodIdentifiers":{"F_TOKEN()":"70af9b14","STAKING_HARD_CAP()":"f6c4dd8d","calculateReward(address)":"d82e3962","isLpStaker(address)":"c2277742","lpRates(uint256)":"f3aab104","normalRates(uint256)":"ba85c259","owner()":"8da5cb5b","renounceOwnership()":"715018a6","setLpStaker(address,bool)":"d7e751ba","stake(uint256,uint256)":"7b0472f0","stakers(address)":"9168ae72","totalStaked()":"817b1cd2","transferOwnership(address)":"f2fde38b","unstake()":"2def6620"}}}}}