{
  "contractName": "F",
  "abi": [
    {
      "inputs": [
        {
          "internalType": "address",
          "name": "_initialOwner",
          "type": "address"
        },
        {
          "internalType": "address",
          "name": "_stakingContract",
          "type": "address"
        },
        {
          "internalType": "address",
          "name": "_treasuryContract",
          "type": "address"
        }
      ],
      "stateMutability": "nonpayable",
      "type": "constructor"
    },
    {
      "inputs": [
        {
          "internalType": "address",
          "name": "spender",
          "type": "address"
        },
        {
          "internalType": "uint256",
          "name": "allowance",
          "type": "uint256"
        },
        {
          "internalType": "uint256",
          "name": "needed",
          "type": "uint256"
        }
      ],
      "name": "ERC20InsufficientAllowance",
      "type": "error"
    },
    {
      "inputs": [
        {
          "internalType": "address",
          "name": "sender",
          "type": "address"
        },
        {
          "internalType": "uint256",
          "name": "balance",
          "type": "uint256"
        },
        {
          "internalType": "uint256",
          "name": "needed",
          "type": "uint256"
        }
      ],
      "name": "ERC20InsufficientBalance",
      "type": "error"
    },
    {
      "inputs": [
        {
          "internalType": "address",
          "name": "approver",
          "type": "address"
        }
      ],
      "name": "ERC20InvalidApprover",
      "type": "error"
    },
    {
      "inputs": [
        {
          "internalType": "address",
          "name": "receiver",
          "type": "address"
        }
      ],
      "name": "ERC20InvalidReceiver",
      "type": "error"
    },
    {
      "inputs": [
        {
          "internalType": "address",
          "name": "sender",
          "type": "address"
        }
      ],
      "name": "ERC20InvalidSender",
      "type": "error"
    },
    {
      "inputs": [
        {
          "internalType": "address",
          "name": "spender",
          "type": "address"
        }
      ],
      "name": "ERC20InvalidSpender",
      "type": "error"
    },
    {
      "inputs": [
        {
          "internalType": "address",
          "name": "owner",
          "type": "address"
        }
      ],
      "name": "OwnableInvalidOwner",
      "type": "error"
    },
    {
      "inputs": [
        {
          "internalType": "address",
          "name": "account",
          "type": "address"
        }
      ],
      "name": "OwnableUnauthorizedAccount",
      "type": "error"
    },
    {
      "anonymous": false,
      "inputs": [
        {
          "indexed": true,
          "internalType": "address",
          "name": "owner",
          "type": "address"
        },
        {
          "indexed": true,
          "internalType": "address",
          "name": "spender",
          "type": "address"
        },
        {
          "indexed": false,
          "internalType": "uint256",
          "name": "value",
          "type": "uint256"
        }
      ],
      "name": "Approval",
      "type": "event"
    },
    {
      "anonymous": false,
      "inputs": [
        {
          "indexed": true,
          "internalType": "address",
          "name": "botAddress",
          "type": "address"
        },
        {
          "indexed": false,
          "internalType": "uint256",
          "name": "amount",
          "type": "uint256"
        }
      ],
      "name": "BotTransactionRedirected",
      "type": "event"
    },
    {
      "anonymous": false,
      "inputs": [
        {
          "indexed": false,
          "internalType": "uint256",
          "name": "newCooldown",
          "type": "uint256"
        }
      ],
      "name": "CooldownChanged",
      "type": "event"
    },
    {
      "anonymous": false,
      "inputs": [
        {
          "indexed": true,
          "internalType": "address",
          "name": "account",
          "type": "address"
        },
        {
          "indexed": false,
          "internalType": "bool",
          "name": "isExempt",
          "type": "bool"
        }
      ],
      "name": "FeeExemptionChanged",
      "type": "event"
    },
    {
      "anonymous": false,
      "inputs": [
        {
          "indexed": false,
          "internalType": "uint256",
          "name": "burnAmount",
          "type": "uint256"
        },
        {
          "indexed": false,
          "internalType": "uint256",
          "name": "stakingAmount",
          "type": "uint256"
        },
        {
          "indexed": false,
          "internalType": "uint256",
          "name": "liquidityAmount",
          "type": "uint256"
        }
      ],
      "name": "FeesDistributed",
      "type": "event"
    },
    {
      "anonymous": false,
      "inputs": [
        {
          "indexed": true,
          "internalType": "address",
          "name": "account",
          "type": "address"
        },
        {
          "indexed": false,
          "internalType": "bool",
          "name": "isExempt",
          "type": "bool"
        }
      ],
      "name": "LimitExemptionChanged",
      "type": "event"
    },
    {
      "anonymous": false,
      "inputs": [
        {
          "indexed": true,
          "internalType": "address",
          "name": "previousOwner",
          "type": "address"
        },
        {
          "indexed": true,
          "internalType": "address",
          "name": "newOwner",
          "type": "address"
        }
      ],
      "name": "OwnershipTransferred",
      "type": "event"
    },
    {
      "anonymous": false,
      "inputs": [
        {
          "indexed": true,
          "internalType": "address",
          "name": "pair",
          "type": "address"
        }
      ],
      "name": "PancakeSwapPairSet",
      "type": "event"
    },
    {
      "anonymous": false,
      "inputs": [
        {
          "indexed": true,
          "internalType": "address",
          "name": "from",
          "type": "address"
        },
        {
          "indexed": true,
          "internalType": "address",
          "name": "to",
          "type": "address"
        },
        {
          "indexed": false,
          "internalType": "uint256",
          "name": "value",
          "type": "uint256"
        }
      ],
      "name": "Transfer",
      "type": "event"
    },
    {
      "anonymous": false,
      "inputs": [
        {
          "indexed": true,
          "internalType": "address",
          "name": "wallet",
          "type": "address"
        },
        {
          "indexed": false,
          "internalType": "uint256",
          "name": "amount",
          "type": "uint256"
        },
        {
          "indexed": false,
          "internalType": "uint256",
          "name": "lockUntil",
          "type": "uint256"
        }
      ],
      "name": "WalletLocked",
      "type": "event"
    },
    {
      "inputs": [],
      "name": "BURN_STOP_THRESHOLD",
      "outputs": [
        {
          "internalType": "uint256",
          "name": "",
          "type": "uint256"
        }
      ],
      "stateMutability": "view",
      "type": "function"
    },
    {
      "inputs": [],
      "name": "LAUNCH_TIMESTAMP",
      "outputs": [
        {
          "internalType": "uint256",
          "name": "",
          "type": "uint256"
        }
      ],
      "stateMutability": "view",
      "type": "function"
    },
    {
      "inputs": [],
      "name": "MAX_SUPPLY",
      "outputs": [
        {
          "internalType": "uint256",
          "name": "",
          "type": "uint256"
        }
      ],
      "stateMutability": "view",
      "type": "function"
    },
    {
      "inputs": [],
      "name": "STAKING_CONTRACT",
      "outputs": [
        {
          "internalType": "address",
          "name": "",
          "type": "address"
        }
      ],
      "stateMutability": "view",
      "type": "function"
    },
    {
      "inputs": [],
      "name": "TREASURY_CONTRACT",
      "outputs": [
        {
          "internalType": "address",
          "name": "",
          "type": "address"
        }
      ],
      "stateMutability": "view",
      "type": "function"
    },
    {
      "inputs": [
        {
          "internalType": "address",
          "name": "owner",
          "type": "address"
        },
        {
          "internalType": "address",
          "name": "spender",
          "type": "address"
        }
      ],
      "name": "allowance",
      "outputs": [
        {
          "internalType": "uint256",
          "name": "",
          "type": "uint256"
        }
      ],
      "stateMutability": "view",
      "type": "function"
    },
    {
      "inputs": [
        {
          "internalType": "address",
          "name": "spender",
          "type": "address"
        },
        {
          "internalType": "uint256",
          "name": "value",
          "type": "uint256"
        }
      ],
      "name": "approve",
      "outputs": [
        {
          "internalType": "bool",
          "name": "",
          "type": "bool"
        }
      ],
      "stateMutability": "nonpayable",
      "type": "function"
    },
    {
      "inputs": [
        {
          "internalType": "address",
          "name": "account",
          "type": "address"
        }
      ],
      "name": "balanceOf",
      "outputs": [
        {
          "internalType": "uint256",
          "name": "",
          "type": "uint256"
        }
      ],
      "stateMutability": "view",
      "type": "function"
    },
    {
      "inputs": [],
      "name": "deadblockCount",
      "outputs": [
        {
          "internalType": "uint256",
          "name": "",
          "type": "uint256"
        }
      ],
      "stateMutability": "view",
      "type": "function"
    },
    {
      "inputs": [],
      "name": "decimals",
      "outputs": [
        {
          "internalType": "uint8",
          "name": "",
          "type": "uint8"
        }
      ],
      "stateMutability": "view",
      "type": "function"
    },
    {
      "inputs": [],
      "name": "dynamicCooldownSeconds",
      "outputs": [
        {
          "internalType": "uint256",
          "name": "",
          "type": "uint256"
        }
      ],
      "stateMutability": "view",
      "type": "function"
    },
    {
      "inputs": [],
      "name": "feeConfigPhase1",
      "outputs": [
        {
          "internalType": "uint256",
          "name": "burnFee",
          "type": "uint256"
        },
        {
          "internalType": "uint256",
          "name": "stakingFee",
          "type": "uint256"
        },
        {
          "internalType": "uint256",
          "name": "liquidityFee",
          "type": "uint256"
        }
      ],
      "stateMutability": "view",
      "type": "function"
    },
    {
      "inputs": [],
      "name": "feeConfigPhase2",
      "outputs": [
        {
          "internalType": "uint256",
          "name": "burnFee",
          "type": "uint256"
        },
        {
          "internalType": "uint256",
          "name": "stakingFee",
          "type": "uint256"
        },
        {
          "internalType": "uint256",
          "name": "liquidityFee",
          "type": "uint256"
        }
      ],
      "stateMutability": "view",
      "type": "function"
    },
    {
      "inputs": [],
      "name": "launchBlockNumber",
      "outputs": [
        {
          "internalType": "uint256",
          "name": "",
          "type": "uint256"
        }
      ],
      "stateMutability": "view",
      "type": "function"
    },
    {
      "inputs": [],
      "name": "maxWalletHolding",
      "outputs": [
        {
          "internalType": "uint256",
          "name": "",
          "type": "uint256"
        }
      ],
      "stateMutability": "view",
      "type": "function"
    },
    {
      "inputs": [],
      "name": "name",
      "outputs": [
        {
          "internalType": "string",
          "name": "",
          "type": "string"
        }
      ],
      "stateMutability": "view",
      "type": "function"
    },
    {
      "inputs": [],
      "name": "owner",
      "outputs": [
        {
          "internalType": "address",
          "name": "",
          "type": "address"
        }
      ],
      "stateMutability": "view",
      "type": "function"
    },
    {
      "inputs": [],
      "name": "pancakeSwapPair",
      "outputs": [
        {
          "internalType": "address",
          "name": "",
          "type": "address"
        }
      ],
      "stateMutability": "view",
      "type": "function"
    },
    {
      "inputs": [],
      "name": "renounceOwnership",
      "outputs": [],
      "stateMutability": "nonpayable",
      "type": "function"
    },
    {
      "inputs": [],
      "name": "symbol",
      "outputs": [
        {
          "internalType": "string",
          "name": "",
          "type": "string"
        }
      ],
      "stateMutability": "view",
      "type": "function"
    },
    {
      "inputs": [],
      "name": "totalSupply",
      "outputs": [
        {
          "internalType": "uint256",
          "name": "",
          "type": "uint256"
        }
      ],
      "stateMutability": "view",
      "type": "function"
    },
    {
      "inputs": [
        {
          "internalType": "address",
          "name": "to",
          "type": "address"
        },
        {
          "internalType": "uint256",
          "name": "value",
          "type": "uint256"
        }
      ],
      "name": "transfer",
      "outputs": [
        {
          "internalType": "bool",
          "name": "",
          "type": "bool"
        }
      ],
      "stateMutability": "nonpayable",
      "type": "function"
    },
    {
      "inputs": [
        {
          "internalType": "address",
          "name": "from",
          "type": "address"
        },
        {
          "internalType": "address",
          "name": "to",
          "type": "address"
        },
        {
          "internalType": "uint256",
          "name": "value",
          "type": "uint256"
        }
      ],
      "name": "transferFrom",
      "outputs": [
        {
          "internalType": "bool",
          "name": "",
          "type": "bool"
        }
      ],
      "stateMutability": "nonpayable",
      "type": "function"
    },
    {
      "inputs": [
        {
          "internalType": "address",
          "name": "newOwner",
          "type": "address"
        }
      ],
      "name": "transferOwnership",
      "outputs": [],
      "stateMutability": "nonpayable",
      "type": "function"
    },
    {
      "inputs": [
        {
          "internalType": "address",
          "name": "_pair",
          "type": "address"
        }
      ],
      "name": "setPancakeSwapPair",
      "outputs": [],
      "stateMutability": "nonpayable",
      "type": "function"
    },
    {
      "inputs": [
        {
          "internalType": "address",
          "name": "account",
          "type": "address"
        },
        {
          "internalType": "bool",
          "name": "isExempt",
          "type": "bool"
        }
      ],
      "name": "setFeeExempt",
      "outputs": [],
      "stateMutability": "nonpayable",
      "type": "function"
    },
    {
      "inputs": [
        {
          "internalType": "address",
          "name": "account",
          "type": "address"
        },
        {
          "internalType": "bool",
          "name": "isExempt",
          "type": "bool"
        }
      ],
      "name": "setLimitExempt",
      "outputs": [],
      "stateMutability": "nonpayable",
      "type": "function"
    },
    {
      "inputs": [
        {
          "internalType": "uint256",
          "name": "newCooldownSeconds",
          "type": "uint256"
        }
      ],
      "name": "setDynamicCooldown",
      "outputs": [],
      "stateMutability": "nonpayable",
      "type": "function"
    }
  ],
  "bytecode": "0x61012060405261dead73ffffffffffffffffffffffffffffffffffffffff1660e09073ffffffffffffffffffffffffffffffffffffffff168152506a52b7d2dcc80cd2e4000000610100908152506002601155600f60145534801562000063575f80fd5b5060405162003adb38038062003adb83398181016040528101906200008991906200114b565b826040518060400160405280600b81526020017f46726565646f6d546573740000000000000000000000000000000000000000008152506040518060400160405280600181526020017f4600000000000000000000000000000000000000000000000000000000000000815250816003908162000107919062001408565b50806004908162000119919062001408565b5050505f73ffffffffffffffffffffffffffffffffffffffff168173ffffffffffffffffffffffffffffffffffffffff16036200018f575f6040517f1e4fbdf7000000000000000000000000000000000000000000000000000000008152600401620001869190620014fd565b60405180910390fd5b620001a0816200054760201b60201c565b504260c08181525050436012819055508173ffffffffffffffffffffffffffffffffffffffff1660808173ffffffffffffffffffffffffffffffffffffffff16815250508073ffffffffffffffffffffffffffffffffffffffff1660a08173ffffffffffffffffffffffffffffffffffffffff1681525050604051806060016040528060fa815260200160018152602001600181525060075f820151815f01556020820151816001015560408201518160020155905050604051806060016040528060648152602001600181526020016001815250600a5f820151815f01556020820151816001015560408201518160020155905050606460036b019d971e4fe8401e74000000620002b3919062001545565b620002bf9190620015bc565b600d819055506001600f5f8573ffffffffffffffffffffffffffffffffffffffff1673ffffffffffffffffffffffffffffffffffffffff1681526020019081526020015f205f6101000a81548160ff0219169083151502179055506001600f5f3073ffffffffffffffffffffffffffffffffffffffff1673ffffffffffffffffffffffffffffffffffffffff1681526020019081526020015f205f6101000a81548160ff0219169083151502179055506001600f5f60805173ffffffffffffffffffffffffffffffffffffffff1673ffffffffffffffffffffffffffffffffffffffff1681526020019081526020015f205f6101000a81548160ff0219169083151502179055506001600f5f60a05173ffffffffffffffffffffffffffffffffffffffff1673ffffffffffffffffffffffffffffffffffffffff1681526020019081526020015f205f6101000a81548160ff021916908315150217905550600160105f3073ffffffffffffffffffffffffffffffffffffffff1673ffffffffffffffffffffffffffffffffffffffff1681526020019081526020015f205f6101000a81548160ff021916908315150217905550600160105f60a05173ffffffffffffffffffffffffffffffffffffffff1673ffffffffffffffffffffffffffffffffffffffff1681526020019081526020015f205f6101000a81548160ff021916908315150217905550600160105f60805173ffffffffffffffffffffffffffffffffffffffff1673ffffffffffffffffffffffffffffffffffffffff1681526020019081526020015f205f6101000a81548160ff0219169083151502179055506200053e836b019d971e4fe8401e740000006200060a60201b60201c565b50505062001820565b5f60055f9054906101000a900473ffffffffffffffffffffffffffffffffffffffff1690508160055f6101000a81548173ffffffffffffffffffffffffffffffffffffffff021916908373ffffffffffffffffffffffffffffffffffffffff1602179055508173ffffffffffffffffffffffffffffffffffffffff168173ffffffffffffffffffffffffffffffffffffffff167f8be0079c531659141344cd1fd0a4f28419497f9722a3daafe3b4186f6b6457e060405160405180910390a35050565b5f73ffffffffffffffffffffffffffffffffffffffff168273ffffffffffffffffffffffffffffffffffffffff16036200067d575f6040517fec442f05000000000000000000000000000000000000000000000000000000008152600401620006749190620014fd565b60405180910390fd5b620006905f83836200069460201b60201c565b5050565b5f73ffffffffffffffffffffffffffffffffffffffff168373ffffffffffffffffffffffffffffffffffffffff1603620006e157620006db83838362000ab360201b60201c565b62000aae565b5f600f5f8573ffffffffffffffffffffffffffffffffffffffff1673ffffffffffffffffffffffffffffffffffffffff1681526020019081526020015f205f9054906101000a900460ff16158015620007815750600f5f8473ffffffffffffffffffffffffffffffffffffffff1673ffffffffffffffffffffffffffffffffffffffff1681526020019081526020015f205f9054906101000a900460ff16155b9050808015620007dd575060065f9054906101000a900473ffffffffffffffffffffffffffffffffffffffff1673ffffffffffffffffffffffffffffffffffffffff168473ffffffffffffffffffffffffffffffffffffffff16145b8015620007fb5750601154601254620007f79190620015f3565b4311155b156200081a5762000813838362000cd760201b60201c565b5062000aae565b8015620008f65760145460135f8673ffffffffffffffffffffffffffffffffffffffff1673ffffffffffffffffffffffffffffffffffffffff1681526020019081526020015f20546200086e9190620015f3565b421015620008b3576040517f08c379a0000000000000000000000000000000000000000000000000000000008152600401620008aa906200168b565b60405180910390fd5b4260135f8673ffffffffffffffffffffffffffffffffffffffff1673ffffffffffffffffffffffffffffffffffffffff1681526020019081526020015f20819055505b801562000916576200091084848462000d6160201b60201c565b6200092a565b6200092984848462000ab360201b60201c565b5b60105f8473ffffffffffffffffffffffffffffffffffffffff1673ffffffffffffffffffffffffffffffffffffffff1681526020019081526020015f205f9054906101000a900460ff16620009d257600d546200098d8462000ee960201b60201c565b1115620009d1576040517f08c379a0000000000000000000000000000000000000000000000000000000008152600401620009c890620016f9565b60405180910390fd5b5b60065f9054906101000a900473ffffffffffffffffffffffffffffffffffffffff1673ffffffffffffffffffffffffffffffffffffffff168473ffffffffffffffffffffffffffffffffffffffff1614801562000a3f57508162000a3c8462000ee960201b60201c565b10155b801562000a93575060105f8473ffffffffffffffffffffffffffffffffffffffff1673ffffffffffffffffffffffffffffffffffffffff1681526020019081526020015f205f9054906101000a900460ff16155b1562000aac5762000aab838362000f2e60201b60201c565b5b505b505050565b5f73ffffffffffffffffffffffffffffffffffffffff168373ffffffffffffffffffffffffffffffffffffffff160362000b07578060025f82825462000afa9190620015f3565b9250508190555062000bd8565b5f805f8573ffffffffffffffffffffffffffffffffffffffff1673ffffffffffffffffffffffffffffffffffffffff1681526020019081526020015f205490508181101562000b93578381836040517fe450d38c00000000000000000000000000000000000000000000000000000000815260040162000b8a939291906200172a565b60405180910390fd5b8181035f808673ffffffffffffffffffffffffffffffffffffffff1673ffffffffffffffffffffffffffffffffffffffff1681526020019081526020015f2081905550505b5f73ffffffffffffffffffffffffffffffffffffffff168273ffffffffffffffffffffffffffffffffffffffff160362000c21578060025f828254039250508190555062000c6b565b805f808473ffffffffffffffffffffffffffffffffffffffff1673ffffffffffffffffffffffffffffffffffffffff1681526020019081526020015f205f82825401925050819055505b8173ffffffffffffffffffffffffffffffffffffffff168373ffffffffffffffffffffffffffffffffffffffff167fddf252ad1be2c89b69c2b068fc378daa952ba7f163c4a11628f55a4df523b3ef8360405162000cca919062001765565b60405180910390a3505050565b62000d0d60065f9054906101000a900473ffffffffffffffffffffffffffffffffffffffff1660a0518362000ab360201b60201c565b8173ffffffffffffffffffffffffffffffffffffffff167fab4a0400b4e49e5be3fcfd84afea49e7d6e0352a244e32f3734e2791532d88768260405162000d55919062001765565b60405180910390a25050565b5f62000d726200103760201b60201c565b90505f612710825f01518462000d89919062001545565b62000d959190620015bc565b90505f61271083602001518562000dad919062001545565b62000db99190620015bc565b90505f61271084604001518662000dd1919062001545565b62000ddd9190620015bc565b90505f8183858862000df0919062001780565b62000dfc919062001780565b62000e08919062001780565b90505f81111562000e275762000e2688888362000ab360201b60201c565b5b6101005162000e3b620010bf60201b60201c565b11801562000e4857505f84115b1562000e645762000e638860e0518662000ab360201b60201c565b5b5f83111562000e835762000e82886080518562000ab360201b60201c565b5b5f82111562000ea25762000ea18860a0518462000ab360201b60201c565b5b7f312c5308f42848705a866c73dec11fd0783c2d64aac6a97e94467062ad3f405884848460405162000ed793929190620017ba565b60405180910390a15050505050505050565b5f805f8373ffffffffffffffffffffffffffffffffffffffff1673ffffffffffffffffffffffffffffffffffffffff1681526020019081526020015f20549050919050565b5f600d546301e133808362000f44919062001545565b62000f509190620015bc565b905062278d0081111562001032576040518060400160405280824262000f779190620015f3565b815260200183815250600e5f8573ffffffffffffffffffffffffffffffffffffffff1673ffffffffffffffffffffffffffffffffffffffff1681526020019081526020015f205f820151815f0155602082015181600101559050508273ffffffffffffffffffffffffffffffffffffffff167f5394ea92aca3ea4a83aa22b55619ded8d5ec09b9bfc1c5802c41ae182dfc878e838342620010199190620015f3565b60405162001029929190620017f5565b60405180910390a25b505050565b62001041620010c8565b6303c2670060c051620010559190620015f3565b4210156200108f5760076040518060600160405290815f8201548152602001600182015481526020016002820154815250509050620010bc565b600a6040518060600160405290815f82015481526020016001820154815260200160028201548152505090505b90565b5f600254905090565b60405180606001604052805f81526020015f81526020015f81525090565b5f80fd5b5f73ffffffffffffffffffffffffffffffffffffffff82169050919050565b5f6200111582620010ea565b9050919050565b620011278162001109565b811462001132575f80fd5b50565b5f8151905062001145816200111c565b92915050565b5f805f60608486031215620011655762001164620010e6565b5b5f620011748682870162001135565b9350506020620011878682870162001135565b92505060406200119a8682870162001135565b9150509250925092565b5f81519050919050565b7f4e487b71000000000000000000000000000000000000000000000000000000005f52604160045260245ffd5b7f4e487b71000000000000000000000000000000000000000000000000000000005f52602260045260245ffd5b5f60028204905060018216806200122057607f821691505b602082108103620012365762001235620011db565b5b50919050565b5f819050815f5260205f209050919050565b5f6020601f8301049050919050565b5f82821b905092915050565b5f600883026200129a7fffffffffffffffffffffffffffffffffffffffffffffffffffffffffffffffff826200125d565b620012a686836200125d565b95508019841693508086168417925050509392505050565b5f819050919050565b5f819050919050565b5f620012f0620012ea620012e484620012be565b620012c7565b620012be565b9050919050565b5f819050919050565b6200130b83620012d0565b620013236200131a82620012f7565b84845462001269565b825550505050565b5f90565b620013396200132b565b6200134681848462001300565b505050565b5b818110156200136d57620013615f826200132f565b6001810190506200134c565b5050565b601f821115620013bc5762001386816200123c565b62001391846200124e565b81016020851015620013a1578190505b620013b9620013b0856200124e565b8301826200134b565b50505b505050565b5f82821c905092915050565b5f620013de5f1984600802620013c1565b1980831691505092915050565b5f620013f88383620013cd565b9150826002028217905092915050565b6200141382620011a4565b67ffffffffffffffff8111156200142f576200142e620011ae565b5b6200143b825462001208565b6200144882828562001371565b5f60209050601f8311600181146200147e575f841562001469578287015190505b620014758582620013eb565b865550620014e4565b601f1984166200148e866200123c565b5f5b82811015620014b75784890151825560018201915060208501945060208101905062001490565b86831015620014d75784890151620014d3601f891682620013cd565b8355505b6001600288020188555050505b505050505050565b620014f78162001109565b82525050565b5f602082019050620015125f830184620014ec565b92915050565b7f4e487b71000000000000000000000000000000000000000000000000000000005f52601160045260245ffd5b5f6200155182620012be565b91506200155e83620012be565b92508282026200156e81620012be565b9150828204841483151762001588576200158762001518565b5b5092915050565b7f4e487b71000000000000000000000000000000000000000000000000000000005f52601260045260245ffd5b5f620015c882620012be565b9150620015d583620012be565b925082620015e857620015e76200158f565b5b828204905092915050565b5f620015ff82620012be565b91506200160c83620012be565b925082820190508082111562001627576200162662001518565b5b92915050565b5f82825260208201905092915050565b7f436f6f6c646f776e2061637469766500000000000000000000000000000000005f82015250565b5f62001673600f836200162d565b915062001680826200163d565b602082019050919050565b5f6020820190508181035f830152620016a48162001665565b9050919050565b7f45786365656473206d61782077616c6c6574206c696d697400000000000000005f82015250565b5f620016e16018836200162d565b9150620016ee82620016ab565b602082019050919050565b5f6020820190508181035f8301526200171281620016d3565b9050919050565b6200172481620012be565b82525050565b5f6060820190506200173f5f830186620014ec565b6200174e602083018562001719565b6200175d604083018462001719565b949350505050565b5f6020820190506200177a5f83018462001719565b92915050565b5f6200178c82620012be565b91506200179983620012be565b9250828203905081811115620017b457620017b362001518565b5b92915050565b5f606082019050620017cf5f83018662001719565b620017de602083018562001719565b620017ed604083018462001719565b949350505050565b5f6040820190506200180a5f83018562001719565b62001819602083018462001719565b9392505050565b60805160a05160c05160e0516101005161225a620018815f395f8181610c82015261188401525f6118c201525f8181610bda0152611aa201525f81816109b001528181611768015261192a01525f8181610b2e01526118f6015261225a5ff3fe608060405234801561000f575f80fd5b50600436106101c2575f3560e01c806384e92c00116100f7578063a9059cbb11610095578063e14e75191161006f578063e14e7519146104d8578063e954f41d146104f6578063f2fde38b14610514578063f5d7abb314610530576101c2565b8063a9059cbb1461045a578063da19ddfb1461048a578063dd62ed3e146104a8576101c2565b80638ebfc796116100d15780638ebfc796146103e657806395d89b41146104025780639e9df2b914610420578063a06655a61461043e576101c2565b806384e92c001461038a578063876b33c8146103a85780638da5cb5b146103c8576101c2565b806340a24e6c116101645780634ee13e971161013e5780634ee13e97146103165780635d0f1ada1461033457806370a0823114610350578063715018a614610380576101c2565b806340a24e6c146102be578063429494f2146102da57806348d79155146102f8576101c2565b806318160ddd116101a057806318160ddd1461023457806323b872dd14610252578063313ce5671461028257806332cb6b0c146102a0576101c2565b806306fdde03146101c6578063095ea7b3146101e457806314b800b414610214575b5f80fd5b6101ce61054e565b6040516101db9190611bdb565b60405180910390f35b6101fe60048036038101906101f99190611c8c565b6105de565b60405161020b9190611ce4565b60405180910390f35b61021c610600565b60405161022b93929190611d0c565b60405180910390f35b61023c610617565b6040516102499190611d41565b60405180910390f35b61026c60048036038101906102679190611d5a565b610620565b6040516102799190611ce4565b60405180910390f35b61028a61064e565b6040516102979190611dc5565b60405180910390f35b6102a8610656565b6040516102b59190611d41565b60405180910390f35b6102d860048036038101906102d39190611e08565b610666565b005b6102e2610714565b6040516102ef9190611e55565b60405180910390f35b610300610739565b60405161030d9190611d41565b60405180910390f35b61031e61073f565b60405161032b9190611d41565b60405180910390f35b61034e60048036038101906103499190611e6e565b610745565b005b61036a60048036038101906103659190611e99565b6107d3565b6040516103779190611d41565b60405180910390f35b610388610818565b005b61039261082b565b60405161039f9190611d41565b60405180910390f35b6103b0610831565b6040516103bf93929190611d0c565b60405180910390f35b6103d0610848565b6040516103dd9190611e55565b60405180910390f35b61040060048036038101906103fb9190611e08565b610870565b005b61040a61091e565b6040516104179190611bdb565b60405180910390f35b6104286109ae565b6040516104359190611e55565b60405180910390f35b61045860048036038101906104539190611e99565b6109d2565b005b610474600480360381019061046f9190611c8c565b610b0a565b6040516104819190611ce4565b60405180910390f35b610492610b2c565b60405161049f9190611e55565b60405180910390f35b6104c260048036038101906104bd9190611ec4565b610b50565b6040516104cf9190611d41565b60405180910390f35b6104e0610bd2565b6040516104ed9190611d41565b60405180910390f35b6104fe610bd8565b60405161050b9190611d41565b60405180910390f35b61052e60048036038101906105299190611e99565b610bfc565b005b610538610c80565b6040516105459190611d41565b60405180910390f35b60606003805461055d90611f2f565b80601f016020809104026020016040519081016040528092919081815260200182805461058990611f2f565b80156105d45780601f106105ab576101008083540402835291602001916105d4565b820191905f5260205f20905b8154815290600101906020018083116105b757829003601f168201915b5050505050905090565b5f806105e8610ca4565b90506105f5818585610cab565b600191505092915050565b600a805f0154908060010154908060020154905083565b5f600254905090565b5f8061062a610ca4565b9050610637858285610cbd565b610642858585610d50565b60019150509392505050565b5f6012905090565b6b019d971e4fe8401e7400000081565b61066e610e40565b8060105f8473ffffffffffffffffffffffffffffffffffffffff1673ffffffffffffffffffffffffffffffffffffffff1681526020019081526020015f205f6101000a81548160ff0219169083151502179055508173ffffffffffffffffffffffffffffffffffffffff167fcb24e6b3b5c6d8781cb66cd454a8e78078dccd370402b5c2c3f2f92553556f9b826040516107089190611ce4565b60405180910390a25050565b60065f9054906101000a900473ffffffffffffffffffffffffffffffffffffffff1681565b600d5481565b60115481565b61074d610e40565b61012c811115610792576040517f08c379a000000000000000000000000000000000000000000000000000000000815260040161078990611fa9565b60405180910390fd5b806014819055507faa382e040a4d9efeb5a813fb9d768cb574053b0dfd7cdf78936a29006e0a7a1c816040516107c89190611d41565b60405180910390a150565b5f805f8373ffffffffffffffffffffffffffffffffffffffff1673ffffffffffffffffffffffffffffffffffffffff1681526020019081526020015f20549050919050565b610820610e40565b6108295f610ec7565b565b60125481565b6007805f0154908060010154908060020154905083565b5f60055f9054906101000a900473ffffffffffffffffffffffffffffffffffffffff16905090565b610878610e40565b80600f5f8473ffffffffffffffffffffffffffffffffffffffff1673ffffffffffffffffffffffffffffffffffffffff1681526020019081526020015f205f6101000a81548160ff0219169083151502179055508173ffffffffffffffffffffffffffffffffffffffff167f9f1eaee9ad9cb68284f0dc523aa42c465ed33b53f8da7fc7294ccea47358bbdf826040516109129190611ce4565b60405180910390a25050565b60606004805461092d90611f2f565b80601f016020809104026020016040519081016040528092919081815260200182805461095990611f2f565b80156109a45780601f1061097b576101008083540402835291602001916109a4565b820191905f5260205f20905b81548152906001019060200180831161098757829003601f168201915b5050505050905090565b7f000000000000000000000000000000000000000000000000000000000000000081565b6109da610e40565b8060065f6101000a81548173ffffffffffffffffffffffffffffffffffffffff021916908373ffffffffffffffffffffffffffffffffffffffff1602179055506001600f5f8373ffffffffffffffffffffffffffffffffffffffff1673ffffffffffffffffffffffffffffffffffffffff1681526020019081526020015f205f6101000a81548160ff021916908315150217905550600160105f8373ffffffffffffffffffffffffffffffffffffffff1673ffffffffffffffffffffffffffffffffffffffff1681526020019081526020015f205f6101000a81548160ff0219169083151502179055508073ffffffffffffffffffffffffffffffffffffffff167fe0d3fb541ce2b3c956d367ec89ad81e907e861539cdc01a6b81cd5652ae05f8960405160405180910390a250565b5f80610b14610ca4565b9050610b21818585610d50565b600191505092915050565b7f000000000000000000000000000000000000000000000000000000000000000081565b5f60015f8473ffffffffffffffffffffffffffffffffffffffff1673ffffffffffffffffffffffffffffffffffffffff1681526020019081526020015f205f8373ffffffffffffffffffffffffffffffffffffffff1673ffffffffffffffffffffffffffffffffffffffff1681526020019081526020015f2054905092915050565b60145481565b7f000000000000000000000000000000000000000000000000000000000000000081565b610c04610e40565b5f73ffffffffffffffffffffffffffffffffffffffff168173ffffffffffffffffffffffffffffffffffffffff1603610c74575f6040517f1e4fbdf7000000000000000000000000000000000000000000000000000000008152600401610c6b9190611e55565b60405180910390fd5b610c7d81610ec7565b50565b7f000000000000000000000000000000000000000000000000000000000000000081565b5f33905090565b610cb88383836001610f8a565b505050565b5f610cc88484610b50565b90507fffffffffffffffffffffffffffffffffffffffffffffffffffffffffffffffff811015610d4a5781811015610d3b578281836040517ffb8f41b2000000000000000000000000000000000000000000000000000000008152600401610d3293929190611fc7565b60405180910390fd5b610d4984848484035f610f8a565b5b50505050565b5f73ffffffffffffffffffffffffffffffffffffffff168373ffffffffffffffffffffffffffffffffffffffff1603610dc0575f6040517f96c6fd1e000000000000000000000000000000000000000000000000000000008152600401610db79190611e55565b60405180910390fd5b5f73ffffffffffffffffffffffffffffffffffffffff168273ffffffffffffffffffffffffffffffffffffffff1603610e30575f6040517fec442f05000000000000000000000000000000000000000000000000000000008152600401610e279190611e55565b60405180910390fd5b610e3b838383611159565b505050565b610e48610ca4565b73ffffffffffffffffffffffffffffffffffffffff16610e66610848565b73ffffffffffffffffffffffffffffffffffffffff1614610ec557610e89610ca4565b6040517f118cdaa7000000000000000000000000000000000000000000000000000000008152600401610ebc9190611e55565b60405180910390fd5b565b5f60055f9054906101000a900473ffffffffffffffffffffffffffffffffffffffff1690508160055f6101000a81548173ffffffffffffffffffffffffffffffffffffffff021916908373ffffffffffffffffffffffffffffffffffffffff1602179055508173ffffffffffffffffffffffffffffffffffffffff168173ffffffffffffffffffffffffffffffffffffffff167f8be0079c531659141344cd1fd0a4f28419497f9722a3daafe3b4186f6b6457e060405160405180910390a35050565b5f73ffffffffffffffffffffffffffffffffffffffff168473ffffffffffffffffffffffffffffffffffffffff1603610ffa575f6040517fe602df05000000000000000000000000000000000000000000000000000000008152600401610ff19190611e55565b60405180910390fd5b5f73ffffffffffffffffffffffffffffffffffffffff168373ffffffffffffffffffffffffffffffffffffffff160361106a575f6040517f94280d620000000000000000000000000000000000000000000000000000000081526004016110619190611e55565b60405180910390fd5b8160015f8673ffffffffffffffffffffffffffffffffffffffff1673ffffffffffffffffffffffffffffffffffffffff1681526020019081526020015f205f8573ffffffffffffffffffffffffffffffffffffffff1673ffffffffffffffffffffffffffffffffffffffff1681526020019081526020015f20819055508015611153578273ffffffffffffffffffffffffffffffffffffffff168473ffffffffffffffffffffffffffffffffffffffff167f8c5be1e5ebec7d5bd14f71427d1e84f3dd0314c0f7b2291e5b200ac8c7c3b9258460405161114a9190611d41565b60405180910390a35b50505050565b5f73ffffffffffffffffffffffffffffffffffffffff168373ffffffffffffffffffffffffffffffffffffffff160361119c57611197838383611528565b611523565b5f600f5f8573ffffffffffffffffffffffffffffffffffffffff1673ffffffffffffffffffffffffffffffffffffffff1681526020019081526020015f205f9054906101000a900460ff1615801561123b5750600f5f8473ffffffffffffffffffffffffffffffffffffffff1673ffffffffffffffffffffffffffffffffffffffff1681526020019081526020015f205f9054906101000a900460ff16155b9050808015611296575060065f9054906101000a900473ffffffffffffffffffffffffffffffffffffffff1673ffffffffffffffffffffffffffffffffffffffff168473ffffffffffffffffffffffffffffffffffffffff16145b80156112b157506011546012546112ad9190612029565b4311155b156112c6576112c08383611741565b50611523565b801561139c5760145460135f8673ffffffffffffffffffffffffffffffffffffffff1673ffffffffffffffffffffffffffffffffffffffff1681526020019081526020015f20546113179190612029565b421015611359576040517f08c379a0000000000000000000000000000000000000000000000000000000008152600401611350906120a6565b60405180910390fd5b4260135f8673ffffffffffffffffffffffffffffffffffffffff1673ffffffffffffffffffffffffffffffffffffffff1681526020019081526020015f20819055505b80156113b2576113ad8484846117df565b6113be565b6113bd848484611528565b5b60105f8473ffffffffffffffffffffffffffffffffffffffff1673ffffffffffffffffffffffffffffffffffffffff1681526020019081526020015f205f9054906101000a900460ff1661145a57600d54611418846107d3565b1115611459576040517f08c379a00000000000000000000000000000000000000000000000000000000081526004016114509061210e565b60405180910390fd5b5b60065f9054906101000a900473ffffffffffffffffffffffffffffffffffffffff1673ffffffffffffffffffffffffffffffffffffffff168473ffffffffffffffffffffffffffffffffffffffff161480156114be5750816114bb846107d3565b10155b8015611511575060105f8473ffffffffffffffffffffffffffffffffffffffff1673ffffffffffffffffffffffffffffffffffffffff1681526020019081526020015f205f9054906101000a900460ff16155b15611521576115208383611995565b5b505b505050565b5f73ffffffffffffffffffffffffffffffffffffffff168373ffffffffffffffffffffffffffffffffffffffff1603611578578060025f82825461156c9190612029565b92505081905550611646565b5f805f8573ffffffffffffffffffffffffffffffffffffffff1673ffffffffffffffffffffffffffffffffffffffff1681526020019081526020015f2054905081811015611601578381836040517fe450d38c0000000000000000000000000000000000000000000000000000000081526004016115f893929190611fc7565b60405180910390fd5b8181035f808673ffffffffffffffffffffffffffffffffffffffff1673ffffffffffffffffffffffffffffffffffffffff1681526020019081526020015f2081905550505b5f73ffffffffffffffffffffffffffffffffffffffff168273ffffffffffffffffffffffffffffffffffffffff160361168d578060025f82825403925050819055506116d7565b805f808473ffffffffffffffffffffffffffffffffffffffff1673ffffffffffffffffffffffffffffffffffffffff1681526020019081526020015f205f82825401925050819055505b8173ffffffffffffffffffffffffffffffffffffffff168373ffffffffffffffffffffffffffffffffffffffff167fddf252ad1be2c89b69c2b068fc378daa952ba7f163c4a11628f55a4df523b3ef836040516117349190611d41565b60405180910390a3505050565b61178d60065f9054906101000a900473ffffffffffffffffffffffffffffffffffffffff167f000000000000000000000000000000000000000000000000000000000000000083611528565b8173ffffffffffffffffffffffffffffffffffffffff167fab4a0400b4e49e5be3fcfd84afea49e7d6e0352a244e32f3734e2791532d8876826040516117d39190611d41565b60405180910390a25050565b5f6117e8611a93565b90505f612710825f0151846117fd919061212c565b611807919061219a565b90505f61271083602001518561181d919061212c565b611827919061219a565b90505f61271084604001518661183d919061212c565b611847919061219a565b90505f8183858861185891906121ca565b61186291906121ca565b61186c91906121ca565b90505f81111561188257611881888883611528565b5b7f00000000000000000000000000000000000000000000000000000000000000006118ab610617565b1180156118b757505f84115b156118e8576118e7887f000000000000000000000000000000000000000000000000000000000000000086611528565b5b5f83111561191c5761191b887f000000000000000000000000000000000000000000000000000000000000000085611528565b5b5f8211156119505761194f887f000000000000000000000000000000000000000000000000000000000000000084611528565b5b7f312c5308f42848705a866c73dec11fd0783c2d64aac6a97e94467062ad3f405884848460405161198393929190611d0c565b60405180910390a15050505050505050565b5f600d546301e13380836119a9919061212c565b6119b3919061219a565b905062278d00811115611a8e57604051806040016040528082426119d79190612029565b815260200183815250600e5f8573ffffffffffffffffffffffffffffffffffffffff1673ffffffffffffffffffffffffffffffffffffffff1681526020019081526020015f205f820151815f0155602082015181600101559050508273ffffffffffffffffffffffffffffffffffffffff167f5394ea92aca3ea4a83aa22b55619ded8d5ec09b9bfc1c5802c41ae182dfc878e838342611a779190612029565b604051611a859291906121fd565b60405180910390a25b505050565b611a9b611b33565b6303c267007f0000000000000000000000000000000000000000000000000000000000000000611acb9190612029565b421015611b035760076040518060600160405290815f8201548152602001600182015481526020016002820154815250509050611b30565b600a6040518060600160405290815f82015481526020016001820154815260200160028201548152505090505b90565b60405180606001604052805f81526020015f81526020015f81525090565b5f81519050919050565b5f82825260208201905092915050565b5f5b83811015611b88578082015181840152602081019050611b6d565b5f8484015250505050565b5f601f19601f8301169050919050565b5f611bad82611b51565b611bb78185611b5b565b9350611bc7818560208601611b6b565b611bd081611b93565b840191505092915050565b5f6020820190508181035f830152611bf38184611ba3565b905092915050565b5f80fd5b5f73ffffffffffffffffffffffffffffffffffffffff82169050919050565b5f611c2882611bff565b9050919050565b611c3881611c1e565b8114611c42575f80fd5b50565b5f81359050611c5381611c2f565b92915050565b5f819050919050565b611c6b81611c59565b8114611c75575f80fd5b50565b5f81359050611c8681611c62565b92915050565b5f8060408385031215611ca257611ca1611bfb565b5b5f611caf85828601611c45565b9250506020611cc085828601611c78565b9150509250929050565b5f8115159050919050565b611cde81611cca565b82525050565b5f602082019050611cf75f830184611cd5565b92915050565b611d0681611c59565b82525050565b5f606082019050611d1f5f830186611cfd565b611d2c6020830185611cfd565b611d396040830184611cfd565b949350505050565b5f602082019050611d545f830184611cfd565b92915050565b5f805f60608486031215611d7157611d70611bfb565b5b5f611d7e86828701611c45565b9350506020611d8f86828701611c45565b9250506040611da086828701611c78565b9150509250925092565b5f60ff82169050919050565b611dbf81611daa565b82525050565b5f602082019050611dd85f830184611db6565b92915050565b611de781611cca565b8114611df1575f80fd5b50565b5f81359050611e0281611dde565b92915050565b5f8060408385031215611e1e57611e1d611bfb565b5b5f611e2b85828601611c45565b9250506020611e3c85828601611df4565b9150509250929050565b611e4f81611c1e565b82525050565b5f602082019050611e685f830184611e46565b92915050565b5f60208284031215611e8357611e82611bfb565b5b5f611e9084828501611c78565b91505092915050565b5f60208284031215611eae57611ead611bfb565b5b5f611ebb84828501611c45565b91505092915050565b5f8060408385031215611eda57611ed9611bfb565b5b5f611ee785828601611c45565b9250506020611ef885828601611c45565b9150509250929050565b7f4e487b71000000000000000000000000000000000000000000000000000000005f52602260045260245ffd5b5f6002820490506001821680611f4657607f821691505b602082108103611f5957611f58611f02565b5b50919050565b7f436f6f6c646f776e20746f6f206c6f6e670000000000000000000000000000005f82015250565b5f611f93601183611b5b565b9150611f9e82611f5f565b602082019050919050565b5f6020820190508181035f830152611fc081611f87565b9050919050565b5f606082019050611fda5f830186611e46565b611fe76020830185611cfd565b611ff46040830184611cfd565b949350505050565b7f4e487b71000000000000000000000000000000000000000000000000000000005f52601160045260245ffd5b5f61203382611c59565b915061203e83611c59565b925082820190508082111561205657612055611ffc565b5b92915050565b7f436f6f6c646f776e2061637469766500000000000000000000000000000000005f82015250565b5f612090600f83611b5b565b915061209b8261205c565b602082019050919050565b5f6020820190508181035f8301526120bd81612084565b9050919050565b7f45786365656473206d61782077616c6c6574206c696d697400000000000000005f82015250565b5f6120f8601883611b5b565b9150612103826120c4565b602082019050919050565b5f6020820190508181035f830152612125816120ec565b9050919050565b5f61213682611c59565b915061214183611c59565b925082820261214f81611c59565b9150828204841483151761216657612165611ffc565b5b5092915050565b7f4e487b71000000000000000000000000000000000000000000000000000000005f52601260045260245ffd5b5f6121a482611c59565b91506121af83611c59565b9250826121bf576121be61216d565b5b828204905092915050565b5f6121d482611c59565b91506121df83611c59565b92508282039050818111156121f7576121f6611ffc565b5b92915050565b5f6040820190506122105f830185611cfd565b61221d6020830184611cfd565b939250505056fea264697066735822122051155bf309ed4e2144d1673b1f0304744530c2e28e9c24c56fafb19884217cc764736f6c63430008140033",
  "immutableReferences": {
    "8687": [
      {
        "length": 32,
        "start": 2862
      },
      {
        "length": 32,
        "start": 6390
      }
    ],
    "8689": [
      {
        "length": 32,
        "start": 2480
      },
      {
        "length": 32,
        "start": 5992
      },
      {
        "length": 32,
        "start": 6442
      }
    ],
    "8691": [
      {
        "length": 32,
        "start": 3034
      },
      {
        "length": 32,
        "start": 6818
      }
    ],
    "8696": [
      {
        "length": 32,
        "start": 6338
      }
    ],
    "8710": [
      {
        "length": 32,
        "start": 3202
      },
      {
        "length": 32,
        "start": 6276
      }
    ]
  },
  "source": "// SPDX-License-Identifier: MIT\npragma solidity ^0.8.20;\nimport \"@openzeppelin/contracts/token/ERC20/ERC20.sol\";\nimport \"@openzeppelin/contracts/access/Ownable.sol\";\ninterface ITreasury { function depositFees(uint256 liquidityFeeAmount) external; }\n\ncontract F is ERC20, Ownable {\n    struct FeeConfig { uint256 burnFee; uint256 stakingFee; uint256 liquidityFee; }\n    struct WalletLocks { uint256 lockUntil; uint256 lockedAmount; }\n    address public immutable STAKING_CONTRACT;\n    address public immutable TREASURY_CONTRACT;\n    uint256 public immutable LAUNCH_TIMESTAMP;\n    address public pancakeSwapPair;\n    address private immutable BURN_ADDRESS = 0x000000000000000000000000000000000000dEaD;\n    uint256 public constant MAX_SUPPLY = 500000000 * 10**18;\n    uint256 public immutable BURN_STOP_THRESHOLD = 100000000 * 10**18;\n    FeeConfig public feeConfigPhase1;\n    FeeConfig public feeConfigPhase2;\n    uint256 public maxWalletHolding;\n    mapping(address => WalletLocks) private _walletLocks;\n    mapping(address => bool) private _isFeeExempt;\n    mapping(address => bool) private _isLimitExempt;\n    uint256 public deadblockCount = 2;\n    uint256 public launchBlockNumber;\n    mapping(address => uint256) private _lastTxTimestamp;\n    uint256 public dynamicCooldownSeconds = 15;\n    event FeesDistributed(uint256 burnAmount, uint256 stakingAmount, uint256 liquidityAmount);\n    event WalletLocked(address indexed wallet, uint256 amount, uint256 lockUntil);\n    event BotTransactionRedirected(address indexed botAddress, uint256 amount);\n    event FeeExemptionChanged(address indexed account, bool isExempt);\n    event LimitExemptionChanged(address indexed account, bool isExempt);\n    event CooldownChanged(uint256 newCooldown);\n    event PancakeSwapPairSet(address indexed pair);\n\n    constructor(address _initialOwner, address _stakingContract, address _treasuryContract) ERC20(\"FreedomTest\", \"F\") Ownable(_initialOwner) {\n        LAUNCH_TIMESTAMP = block.timestamp;\n        launchBlockNumber = block.number;\n        STAKING_CONTRACT = _stakingContract;\n        TREASURY_CONTRACT = _treasuryContract;\n        feeConfigPhase1 = FeeConfig(250, 1, 1);\n        feeConfigPhase2 = FeeConfig(100, 1, 1);\n        maxWalletHolding = (MAX_SUPPLY * 3) / 100;\n        _isFeeExempt[_initialOwner] = true;\n        _isFeeExempt[address(this)] = true;\n        _isFeeExempt[STAKING_CONTRACT] = true;\n        _isFeeExempt[TREASURY_CONTRACT] = true;\n        _isLimitExempt[address(this)] = true;\n        _isLimitExempt[TREASURY_CONTRACT] = true;\n        _isLimitExempt[STAKING_CONTRACT] = true;\n        _mint(_initialOwner, MAX_SUPPLY);\n    }\n    \n    function setPancakeSwapPair(address _pair) public onlyOwner { pancakeSwapPair = _pair; _isFeeExempt[_pair] = true; _isLimitExempt[_pair] = true; emit PancakeSwapPairSet(_pair); }\n    \n    function _update(address from, address to, uint256 amount) internal override {\n        if (from == address(0)) { super._update(from, to, amount); return; }\n        \n        bool takeFee = !_isFeeExempt[from] && !_isFeeExempt[to];\n        \n        if (takeFee && from == pancakeSwapPair && block.number <= launchBlockNumber + deadblockCount) {\n            _handleBotTransaction(to, amount);\n            return;\n        }\n\n        if(takeFee) {\n             require(block.timestamp >= _lastTxTimestamp[from] + dynamicCooldownSeconds, \"Cooldown active\");\n             _lastTxTimestamp[from] = block.timestamp;\n        }\n        \n        if (takeFee) {\n            _transferWithFees(from, to, amount);\n        } else {\n            super._update(from, to, amount);\n        }\n\n        if (!_isLimitExempt[to]) {\n            require(balanceOf(to) <= maxWalletHolding, \"Exceeds max wallet limit\");\n        }\n        if (from == pancakeSwapPair && balanceOf(to) >= amount && !_isLimitExempt[to]) {\n             _applyFirstBuyLock(to, amount);\n        }\n    }\n\n    function _transferWithFees(address from, address to, uint256 amount) private {\n        FeeConfig memory currentFees = _getCurrentFeeConfig();\n        uint256 burnAmount = (amount * currentFees.burnFee) / 10000;\n        uint256 stakingAmount = (amount * currentFees.stakingFee) / 10000;\n        uint256 liquidityAmount = (amount * currentFees.liquidityFee) / 10000;\n        uint256 transferAmount = amount - burnAmount - stakingAmount - liquidityAmount;\n\n        if(transferAmount > 0) {\n            super._update(from, to, transferAmount);\n        }\n        \n        if (totalSupply() > BURN_STOP_THRESHOLD && burnAmount > 0) {\n            super._update(from, BURN_ADDRESS, burnAmount);\n        }\n        if (stakingAmount > 0) {\n            super._update(from, STAKING_CONTRACT, stakingAmount);\n        }\n        if (liquidityAmount > 0) {\n            super._update(from, TREASURY_CONTRACT, liquidityAmount);\n            // Fr Unit-Tests auskommentiert, in Produktion aktivieren\n            // ITreasury(TREASURY_CONTRACT).depositFees(liquidityAmount);\n        }\n        emit FeesDistributed(burnAmount, stakingAmount, liquidityAmount);\n    }\n    \n    function _getCurrentFeeConfig() private view returns (FeeConfig memory) {\n        if (block.timestamp < LAUNCH_TIMESTAMP + (2 * 365 days)) return feeConfigPhase1;\n        return feeConfigPhase2;\n    }\n\n    function _applyFirstBuyLock(address to, uint256 amount) private {\n        uint256 lockDuration = (amount * 365 days) / maxWalletHolding;\n        if (lockDuration > 30 days) {\n            _walletLocks[to] = WalletLocks(block.timestamp + lockDuration, amount);\n            emit WalletLocked(to, amount, block.timestamp + lockDuration);\n        }\n    }\n\n    function _handleBotTransaction(address recipient, uint256 amount) private {\n        super._update(pancakeSwapPair, TREASURY_CONTRACT, amount);\n        emit BotTransactionRedirected(recipient, amount);\n    }\n    \n    function setFeeExempt(address account, bool isExempt) public onlyOwner { _isFeeExempt[account] = isExempt; emit FeeExemptionChanged(account, isExempt); }\n    function setLimitExempt(address account, bool isExempt) public onlyOwner { _isLimitExempt[account] = isExempt; emit LimitExemptionChanged(account, isExempt); }\n    function setDynamicCooldown(uint256 newCooldownSeconds) public onlyOwner { require(newCooldownSeconds <= 300, \"Cooldown too long\"); dynamicCooldownSeconds = newCooldownSeconds; emit CooldownChanged(newCooldownSeconds); }\n}\n",
  "sourcePath": "C:\\Users\\HP\\Desktop\\FreedomProject\\contracts\\F.sol",
  "compiler": {
    "name": "solc",
    "version": "0.8.20+commit.a1b79de6.Emscripten.clang"
  },
  "schemaVersion": "3.4.16",
  "updatedAt": "2025-08-01T22:12:16.430Z",
  "devdoc": {
    "errors": {
      "ERC20InsufficientAllowance(address,uint256,uint256)": [
        {
          "details": "Indicates a failure with the `spender`s `allowance`. Used in transfers.",
          "params": {
            "allowance": "Amount of tokens a `spender` is allowed to operate with.",
            "needed": "Minimum amount required to perform a transfer.",
            "spender": "Address that may be allowed to operate on tokens without being their owner."
          }
        }
      ],
      "ERC20InsufficientBalance(address,uint256,uint256)": [
        {
          "details": "Indicates an error related to the current `balance` of a `sender`. Used in transfers.",
          "params": {
            "balance": "Current balance for the interacting account.",
            "needed": "Minimum amount required to perform a transfer.",
            "sender": "Address whose tokens are being transferred."
          }
        }
      ],
      "ERC20InvalidApprover(address)": [
        {
          "details": "Indicates a failure with the `approver` of a token to be approved. Used in approvals.",
          "params": {
            "approver": "Address initiating an approval operation."
          }
        }
      ],
      "ERC20InvalidReceiver(address)": [
        {
          "details": "Indicates a failure with the token `receiver`. Used in transfers.",
          "params": {
            "receiver": "Address to which tokens are being transferred."
          }
        }
      ],
      "ERC20InvalidSender(address)": [
        {
          "details": "Indicates a failure with the token `sender`. Used in transfers.",
          "params": {
            "sender": "Address whose tokens are being transferred."
          }
        }
      ],
      "ERC20InvalidSpender(address)": [
        {
          "details": "Indicates a failure with the `spender` to be approved. Used in approvals.",
          "params": {
            "spender": "Address that may be allowed to operate on tokens without being their owner."
          }
        }
      ],
      "OwnableInvalidOwner(address)": [
        {
          "details": "The owner is not a valid owner account. (eg. `address(0)`)"
        }
      ],
      "OwnableUnauthorizedAccount(address)": [
        {
          "details": "The caller account is not authorized to perform an operation."
        }
      ]
    },
    "events": {
      "Approval(address,address,uint256)": {
        "details": "Emitted when the allowance of a `spender` for an `owner` is set by a call to {approve}. `value` is the new allowance."
      },
      "Transfer(address,address,uint256)": {
        "details": "Emitted when `value` tokens are moved from one account (`from`) to another (`to`). Note that `value` may be zero."
      }
    },
    "kind": "dev",
    "methods": {
      "allowance(address,address)": {
        "details": "Returns the remaining number of tokens that `spender` will be allowed to spend on behalf of `owner` through {transferFrom}. This is zero by default. This value changes when {approve} or {transferFrom} are called."
      },
      "approve(address,uint256)": {
        "details": "See {IERC20-approve}. NOTE: If `value` is the maximum `uint256`, the allowance is not updated on `transferFrom`. This is semantically equivalent to an infinite approval. Requirements: - `spender` cannot be the zero address."
      },
      "balanceOf(address)": {
        "details": "Returns the value of tokens owned by `account`."
      },
      "decimals()": {
        "details": "Returns the number of decimals used to get its user representation. For example, if `decimals` equals `2`, a balance of `505` tokens should be displayed to a user as `5.05` (`505 / 10 ** 2`). Tokens usually opt for a value of 18, imitating the relationship between Ether and Wei. This is the default value returned by this function, unless it's overridden. NOTE: This information is only used for _display_ purposes: it in no way affects any of the arithmetic of the contract, including {IERC20-balanceOf} and {IERC20-transfer}."
      },
      "name()": {
        "details": "Returns the name of the token."
      },
      "owner()": {
        "details": "Returns the address of the current owner."
      },
      "renounceOwnership()": {
        "details": "Leaves the contract without owner. It will not be possible to call `onlyOwner` functions. Can only be called by the current owner. NOTE: Renouncing ownership will leave the contract without an owner, thereby disabling any functionality that is only available to the owner."
      },
      "symbol()": {
        "details": "Returns the symbol of the token, usually a shorter version of the name."
      },
      "totalSupply()": {
        "details": "Returns the value of tokens in existence."
      },
      "transfer(address,uint256)": {
        "details": "See {IERC20-transfer}. Requirements: - `to` cannot be the zero address. - the caller must have a balance of at least `value`."
      },
      "transferFrom(address,address,uint256)": {
        "details": "See {IERC20-transferFrom}. Skips emitting an {Approval} event indicating an allowance update. This is not required by the ERC. See {xref-ERC20-_approve-address-address-uint256-bool-}[_approve]. NOTE: Does not update the allowance if the current allowance is the maximum `uint256`. Requirements: - `from` and `to` cannot be the zero address. - `from` must have a balance of at least `value`. - the caller must have allowance for ``from``'s tokens of at least `value`."
      },
      "transferOwnership(address)": {
        "details": "Transfers ownership of the contract to a new account (`newOwner`). Can only be called by the current owner."
      }
    },
    "version": 1
  },
  "userdoc": {
    "kind": "user",
    "methods": {},
    "version": 1
  }
}