{
  "contractName": "RewardManager",
  "abi": [
    {
      "inputs": [
        {
          "internalType": "string",
          "name": "_initialBaseURI",
          "type": "string"
        },
        {
          "internalType": "address",
          "name": "_initialOwner",
          "type": "address"
        },
        {
          "internalType": "address",
          "name": "_royaltyReceiver",
          "type": "address"
        }
      ],
      "stateMutability": "nonpayable",
      "type": "constructor"
    },
    {
      "inputs": [
        {
          "internalType": "address",
          "name": "sender",
          "type": "address"
        },
        {
          "internalType": "uint256",
          "name": "balance",
          "type": "uint256"
        },
        {
          "internalType": "uint256",
          "name": "needed",
          "type": "uint256"
        },
        {
          "internalType": "uint256",
          "name": "tokenId",
          "type": "uint256"
        }
      ],
      "name": "ERC1155InsufficientBalance",
      "type": "error"
    },
    {
      "inputs": [
        {
          "internalType": "address",
          "name": "approver",
          "type": "address"
        }
      ],
      "name": "ERC1155InvalidApprover",
      "type": "error"
    },
    {
      "inputs": [
        {
          "internalType": "uint256",
          "name": "idsLength",
          "type": "uint256"
        },
        {
          "internalType": "uint256",
          "name": "valuesLength",
          "type": "uint256"
        }
      ],
      "name": "ERC1155InvalidArrayLength",
      "type": "error"
    },
    {
      "inputs": [
        {
          "internalType": "address",
          "name": "operator",
          "type": "address"
        }
      ],
      "name": "ERC1155InvalidOperator",
      "type": "error"
    },
    {
      "inputs": [
        {
          "internalType": "address",
          "name": "receiver",
          "type": "address"
        }
      ],
      "name": "ERC1155InvalidReceiver",
      "type": "error"
    },
    {
      "inputs": [
        {
          "internalType": "address",
          "name": "sender",
          "type": "address"
        }
      ],
      "name": "ERC1155InvalidSender",
      "type": "error"
    },
    {
      "inputs": [
        {
          "internalType": "address",
          "name": "operator",
          "type": "address"
        },
        {
          "internalType": "address",
          "name": "owner",
          "type": "address"
        }
      ],
      "name": "ERC1155MissingApprovalForAll",
      "type": "error"
    },
    {
      "inputs": [
        {
          "internalType": "address",
          "name": "owner",
          "type": "address"
        }
      ],
      "name": "OwnableInvalidOwner",
      "type": "error"
    },
    {
      "inputs": [
        {
          "internalType": "address",
          "name": "account",
          "type": "address"
        }
      ],
      "name": "OwnableUnauthorizedAccount",
      "type": "error"
    },
    {
      "anonymous": false,
      "inputs": [
        {
          "indexed": true,
          "internalType": "address",
          "name": "account",
          "type": "address"
        },
        {
          "indexed": true,
          "internalType": "address",
          "name": "operator",
          "type": "address"
        },
        {
          "indexed": false,
          "internalType": "bool",
          "name": "approved",
          "type": "bool"
        }
      ],
      "name": "ApprovalForAll",
      "type": "event"
    },
    {
      "anonymous": false,
      "inputs": [
        {
          "indexed": false,
          "internalType": "string",
          "name": "newURI",
          "type": "string"
        }
      ],
      "name": "BaseURIUpdated",
      "type": "event"
    },
    {
      "anonymous": false,
      "inputs": [
        {
          "indexed": true,
          "internalType": "uint256",
          "name": "tokenId",
          "type": "uint256"
        },
        {
          "indexed": false,
          "internalType": "bytes32",
          "name": "newRoot",
          "type": "bytes32"
        }
      ],
      "name": "MerkleRootUpdated",
      "type": "event"
    },
    {
      "anonymous": false,
      "inputs": [
        {
          "indexed": true,
          "internalType": "address",
          "name": "user",
          "type": "address"
        },
        {
          "indexed": true,
          "internalType": "uint256",
          "name": "tokenId",
          "type": "uint256"
        }
      ],
      "name": "NFTClaimed",
      "type": "event"
    },
    {
      "anonymous": false,
      "inputs": [
        {
          "indexed": true,
          "internalType": "address",
          "name": "previousOwner",
          "type": "address"
        },
        {
          "indexed": true,
          "internalType": "address",
          "name": "newOwner",
          "type": "address"
        }
      ],
      "name": "OwnershipTransferred",
      "type": "event"
    },
    {
      "anonymous": false,
      "inputs": [
        {
          "indexed": true,
          "internalType": "address",
          "name": "receiver",
          "type": "address"
        },
        {
          "indexed": false,
          "internalType": "uint96",
          "name": "fraction",
          "type": "uint96"
        }
      ],
      "name": "RoyaltyInfoUpdated",
      "type": "event"
    },
    {
      "anonymous": false,
      "inputs": [
        {
          "indexed": true,
          "internalType": "address",
          "name": "operator",
          "type": "address"
        },
        {
          "indexed": true,
          "internalType": "address",
          "name": "from",
          "type": "address"
        },
        {
          "indexed": true,
          "internalType": "address",
          "name": "to",
          "type": "address"
        },
        {
          "indexed": false,
          "internalType": "uint256[]",
          "name": "ids",
          "type": "uint256[]"
        },
        {
          "indexed": false,
          "internalType": "uint256[]",
          "name": "values",
          "type": "uint256[]"
        }
      ],
      "name": "TransferBatch",
      "type": "event"
    },
    {
      "anonymous": false,
      "inputs": [
        {
          "indexed": true,
          "internalType": "address",
          "name": "operator",
          "type": "address"
        },
        {
          "indexed": true,
          "internalType": "address",
          "name": "from",
          "type": "address"
        },
        {
          "indexed": true,
          "internalType": "address",
          "name": "to",
          "type": "address"
        },
        {
          "indexed": false,
          "internalType": "uint256",
          "name": "id",
          "type": "uint256"
        },
        {
          "indexed": false,
          "internalType": "uint256",
          "name": "value",
          "type": "uint256"
        }
      ],
      "name": "TransferSingle",
      "type": "event"
    },
    {
      "anonymous": false,
      "inputs": [
        {
          "indexed": false,
          "internalType": "string",
          "name": "value",
          "type": "string"
        },
        {
          "indexed": true,
          "internalType": "uint256",
          "name": "id",
          "type": "uint256"
        }
      ],
      "name": "URI",
      "type": "event"
    },
    {
      "inputs": [
        {
          "internalType": "address",
          "name": "account",
          "type": "address"
        },
        {
          "internalType": "uint256",
          "name": "id",
          "type": "uint256"
        }
      ],
      "name": "balanceOf",
      "outputs": [
        {
          "internalType": "uint256",
          "name": "",
          "type": "uint256"
        }
      ],
      "stateMutability": "view",
      "type": "function"
    },
    {
      "inputs": [
        {
          "internalType": "address[]",
          "name": "accounts",
          "type": "address[]"
        },
        {
          "internalType": "uint256[]",
          "name": "ids",
          "type": "uint256[]"
        }
      ],
      "name": "balanceOfBatch",
      "outputs": [
        {
          "internalType": "uint256[]",
          "name": "",
          "type": "uint256[]"
        }
      ],
      "stateMutability": "view",
      "type": "function"
    },
    {
      "inputs": [],
      "name": "baseURI",
      "outputs": [
        {
          "internalType": "string",
          "name": "",
          "type": "string"
        }
      ],
      "stateMutability": "view",
      "type": "function"
    },
    {
      "inputs": [
        {
          "internalType": "uint256",
          "name": "",
          "type": "uint256"
        },
        {
          "internalType": "address",
          "name": "",
          "type": "address"
        }
      ],
      "name": "hasClaimed",
      "outputs": [
        {
          "internalType": "bool",
          "name": "",
          "type": "bool"
        }
      ],
      "stateMutability": "view",
      "type": "function"
    },
    {
      "inputs": [
        {
          "internalType": "address",
          "name": "account",
          "type": "address"
        },
        {
          "internalType": "address",
          "name": "operator",
          "type": "address"
        }
      ],
      "name": "isApprovedForAll",
      "outputs": [
        {
          "internalType": "bool",
          "name": "",
          "type": "bool"
        }
      ],
      "stateMutability": "view",
      "type": "function"
    },
    {
      "inputs": [
        {
          "internalType": "uint256",
          "name": "",
          "type": "uint256"
        }
      ],
      "name": "merkleRoots",
      "outputs": [
        {
          "internalType": "bytes32",
          "name": "",
          "type": "bytes32"
        }
      ],
      "stateMutability": "view",
      "type": "function"
    },
    {
      "inputs": [
        {
          "internalType": "uint256",
          "name": "",
          "type": "uint256"
        }
      ],
      "name": "mintedCounts",
      "outputs": [
        {
          "internalType": "uint256",
          "name": "",
          "type": "uint256"
        }
      ],
      "stateMutability": "view",
      "type": "function"
    },
    {
      "inputs": [],
      "name": "owner",
      "outputs": [
        {
          "internalType": "address",
          "name": "",
          "type": "address"
        }
      ],
      "stateMutability": "view",
      "type": "function"
    },
    {
      "inputs": [],
      "name": "renounceOwnership",
      "outputs": [],
      "stateMutability": "nonpayable",
      "type": "function"
    },
    {
      "inputs": [],
      "name": "royaltyFraction",
      "outputs": [
        {
          "internalType": "uint96",
          "name": "",
          "type": "uint96"
        }
      ],
      "stateMutability": "view",
      "type": "function"
    },
    {
      "inputs": [],
      "name": "royaltyRecipient",
      "outputs": [
        {
          "internalType": "address",
          "name": "",
          "type": "address"
        }
      ],
      "stateMutability": "view",
      "type": "function"
    },
    {
      "inputs": [
        {
          "internalType": "address",
          "name": "from",
          "type": "address"
        },
        {
          "internalType": "address",
          "name": "to",
          "type": "address"
        },
        {
          "internalType": "uint256[]",
          "name": "ids",
          "type": "uint256[]"
        },
        {
          "internalType": "uint256[]",
          "name": "values",
          "type": "uint256[]"
        },
        {
          "internalType": "bytes",
          "name": "data",
          "type": "bytes"
        }
      ],
      "name": "safeBatchTransferFrom",
      "outputs": [],
      "stateMutability": "nonpayable",
      "type": "function"
    },
    {
      "inputs": [
        {
          "internalType": "address",
          "name": "from",
          "type": "address"
        },
        {
          "internalType": "address",
          "name": "to",
          "type": "address"
        },
        {
          "internalType": "uint256",
          "name": "id",
          "type": "uint256"
        },
        {
          "internalType": "uint256",
          "name": "value",
          "type": "uint256"
        },
        {
          "internalType": "bytes",
          "name": "data",
          "type": "bytes"
        }
      ],
      "name": "safeTransferFrom",
      "outputs": [],
      "stateMutability": "nonpayable",
      "type": "function"
    },
    {
      "inputs": [
        {
          "internalType": "address",
          "name": "operator",
          "type": "address"
        },
        {
          "internalType": "bool",
          "name": "approved",
          "type": "bool"
        }
      ],
      "name": "setApprovalForAll",
      "outputs": [],
      "stateMutability": "nonpayable",
      "type": "function"
    },
    {
      "inputs": [
        {
          "internalType": "uint256",
          "name": "",
          "type": "uint256"
        }
      ],
      "name": "supplyLimits",
      "outputs": [
        {
          "internalType": "uint256",
          "name": "",
          "type": "uint256"
        }
      ],
      "stateMutability": "view",
      "type": "function"
    },
    {
      "inputs": [
        {
          "internalType": "bytes4",
          "name": "interfaceId",
          "type": "bytes4"
        }
      ],
      "name": "supportsInterface",
      "outputs": [
        {
          "internalType": "bool",
          "name": "",
          "type": "bool"
        }
      ],
      "stateMutability": "view",
      "type": "function"
    },
    {
      "inputs": [
        {
          "internalType": "address",
          "name": "newOwner",
          "type": "address"
        }
      ],
      "name": "transferOwnership",
      "outputs": [],
      "stateMutability": "nonpayable",
      "type": "function"
    },
    {
      "inputs": [
        {
          "internalType": "uint256",
          "name": "tokenId",
          "type": "uint256"
        },
        {
          "internalType": "bytes32[]",
          "name": "merkleProof",
          "type": "bytes32[]"
        }
      ],
      "name": "claimNFT",
      "outputs": [],
      "stateMutability": "nonpayable",
      "type": "function"
    },
    {
      "inputs": [
        {
          "internalType": "uint256",
          "name": "tokenId",
          "type": "uint256"
        }
      ],
      "name": "uri",
      "outputs": [
        {
          "internalType": "string",
          "name": "",
          "type": "string"
        }
      ],
      "stateMutability": "view",
      "type": "function"
    },
    {
      "inputs": [
        {
          "internalType": "uint256",
          "name": "",
          "type": "uint256"
        },
        {
          "internalType": "uint256",
          "name": "_salePrice",
          "type": "uint256"
        }
      ],
      "name": "royaltyInfo",
      "outputs": [
        {
          "internalType": "address",
          "name": "receiver",
          "type": "address"
        },
        {
          "internalType": "uint256",
          "name": "royaltyAmount",
          "type": "uint256"
        }
      ],
      "stateMutability": "view",
      "type": "function"
    },
    {
      "inputs": [
        {
          "internalType": "uint256",
          "name": "tokenId",
          "type": "uint256"
        },
        {
          "internalType": "bytes32",
          "name": "_newRoot",
          "type": "bytes32"
        }
      ],
      "name": "setMerkleRoot",
      "outputs": [],
      "stateMutability": "nonpayable",
      "type": "function"
    },
    {
      "inputs": [
        {
          "internalType": "string",
          "name": "_newBaseURI",
          "type": "string"
        }
      ],
      "name": "setBaseURI",
      "outputs": [],
      "stateMutability": "nonpayable",
      "type": "function"
    },
    {
      "inputs": [
        {
          "internalType": "address",
          "name": "_receiver",
          "type": "address"
        },
        {
          "internalType": "uint96",
          "name": "_fraction",
          "type": "uint96"
        }
      ],
      "name": "setRoyaltyInfo",
      "outputs": [],
      "stateMutability": "nonpayable",
      "type": "function"
    }
  ],
  "bytecode": "0x608060405234801562000010575f80fd5b5060405162003eb438038062003eb4833981810160405281019062000036919062000481565b81836200004981620001c360201b60201c565b505f73ffffffffffffffffffffffffffffffffffffffff168173ffffffffffffffffffffffffffffffffffffffff1603620000bd575f6040517f1e4fbdf7000000000000000000000000000000000000000000000000000000008152600401620000b491906200050a565b60405180910390fd5b620000ce81620001d860201b60201c565b508260049081620000e091906200075c565b508060095f6101000a81548173ffffffffffffffffffffffffffffffffffffffff021916908373ffffffffffffffffffffffffffffffffffffffff16021790555060fa600960146101000a8154816bffffffffffffffffffffffff02191690836bffffffffffffffffffffffff16021790555062030d4060085f600281526020019081526020015f2081905550620186a060085f600381526020019081526020015f20819055506201388060085f600481526020019081526020015f208190555061c35060085f600581526020019081526020015f208190555050505062000840565b8060029081620001d491906200075c565b5050565b5f60035f9054906101000a900473ffffffffffffffffffffffffffffffffffffffff1690508160035f6101000a81548173ffffffffffffffffffffffffffffffffffffffff021916908373ffffffffffffffffffffffffffffffffffffffff1602179055508173ffffffffffffffffffffffffffffffffffffffff168173ffffffffffffffffffffffffffffffffffffffff167f8be0079c531659141344cd1fd0a4f28419497f9722a3daafe3b4186f6b6457e060405160405180910390a35050565b5f604051905090565b5f80fd5b5f80fd5b5f80fd5b5f80fd5b5f601f19601f8301169050919050565b7f4e487b71000000000000000000000000000000000000000000000000000000005f52604160045260245ffd5b620002fc82620002b4565b810181811067ffffffffffffffff821117156200031e576200031d620002c4565b5b80604052505050565b5f620003326200029b565b9050620003408282620002f1565b919050565b5f67ffffffffffffffff821115620003625762000361620002c4565b5b6200036d82620002b4565b9050602081019050919050565b5f5b83811015620003995780820151818401526020810190506200037c565b5f8484015250505050565b5f620003ba620003b48462000345565b62000327565b905082815260208101848484011115620003d957620003d8620002b0565b5b620003e68482856200037a565b509392505050565b5f82601f830112620004055762000404620002ac565b5b815162000417848260208601620003a4565b91505092915050565b5f73ffffffffffffffffffffffffffffffffffffffff82169050919050565b5f6200044b8262000420565b9050919050565b6200045d816200043f565b811462000468575f80fd5b50565b5f815190506200047b8162000452565b92915050565b5f805f606084860312156200049b576200049a620002a4565b5b5f84015167ffffffffffffffff811115620004bb57620004ba620002a8565b5b620004c986828701620003ee565b9350506020620004dc868287016200046b565b9250506040620004ef868287016200046b565b9150509250925092565b62000504816200043f565b82525050565b5f6020820190506200051f5f830184620004f9565b92915050565b5f81519050919050565b7f4e487b71000000000000000000000000000000000000000000000000000000005f52602260045260245ffd5b5f60028204905060018216806200057457607f821691505b6020821081036200058a57620005896200052f565b5b50919050565b5f819050815f5260205f209050919050565b5f6020601f8301049050919050565b5f82821b905092915050565b5f60088302620005ee7fffffffffffffffffffffffffffffffffffffffffffffffffffffffffffffffff82620005b1565b620005fa8683620005b1565b95508019841693508086168417925050509392505050565b5f819050919050565b5f819050919050565b5f620006446200063e620006388462000612565b6200061b565b62000612565b9050919050565b5f819050919050565b6200065f8362000624565b620006776200066e826200064b565b848454620005bd565b825550505050565b5f90565b6200068d6200067f565b6200069a81848462000654565b505050565b5b81811015620006c157620006b55f8262000683565b600181019050620006a0565b5050565b601f8211156200071057620006da8162000590565b620006e584620005a2565b81016020851015620006f5578190505b6200070d6200070485620005a2565b8301826200069f565b50505b505050565b5f82821c905092915050565b5f620007325f198460080262000715565b1980831691505092915050565b5f6200074c838362000721565b9150826002028217905092915050565b620007678262000525565b67ffffffffffffffff811115620007835762000782620002c4565b5b6200078f82546200055c565b6200079c828285620006c5565b5f60209050601f831160018114620007d2575f8415620007bd578287015190505b620007c985826200073f565b86555062000838565b601f198416620007e28662000590565b5f5b828110156200080b57848901518255600182019150602085019450602081019050620007e4565b868310156200082b578489015162000827601f89168262000721565b8355505b6001600288020188555050505b505050505050565b613666806200084e5f395ff3fe608060405234801561000f575f80fd5b506004361061014a575f3560e01c8063715018a6116100c1578063a22cb4651161007a578063a22cb465146103bf578063d8b2eb99146103db578063e7dee99f1461040b578063e985e9c514610429578063f242432a14610459578063f2fde38b146104755761014a565b8063715018a6146102eb57806371c5ecb1146102f5578063765b184514610325578063873f6f9e146103415780638da5cb5b146103715780639354f1751461038f5761014a565b80632a55205a116101135780632a55205a146102165780632eb2c2d6146102475780634c00de82146102635780634e1273f41461028157806355f804b3146102b15780636c0360eb146102cd5761014a565b8062fdd58e1461014e57806301ffc9a71461017e57806302fa7c47146101ae5780630e89341c146101ca57806318712c21146101fa575b5f80fd5b6101686004803603810190610163919061208c565b610491565b60405161017591906120d9565b60405180910390f35b61019860048036038101906101939190612147565b6104e6565b6040516101a5919061218c565b60405180910390f35b6101c860048036038101906101c391906121e6565b6105c7565b005b6101e460048036038101906101df9190612224565b610692565b6040516101f191906122d9565b60405180910390f35b610214600480360381019061020f919061232c565b6106c6565b005b610230600480360381019061022b919061236a565b610771565b60405161023e9291906123b7565b60405180910390f35b610261600480360381019061025c91906125ce565b6107e1565b005b61026b610888565b6040516102789190612699565b60405180910390f35b61029b60048036038101906102969190612772565b6108ad565b6040516102a8919061289f565b60405180910390f35b6102cb60048036038101906102c6919061295d565b6109ba565b005b6102d5610a0c565b6040516102e291906122d9565b60405180910390f35b6102f3610a98565b005b61030f600480360381019061030a9190612224565b610aab565b60405161031c91906129b3565b60405180910390f35b61033f600480360381019061033a9190612a25565b610ac0565b005b61035b60048036038101906103569190612a82565b610ddc565b604051610368919061218c565b60405180910390f35b610379610e06565b6040516103869190612699565b60405180910390f35b6103a960048036038101906103a49190612224565b610e2e565b6040516103b691906120d9565b60405180910390f35b6103d960048036038101906103d49190612aea565b610e43565b005b6103f560048036038101906103f09190612224565b610e59565b60405161040291906120d9565b60405180910390f35b610413610e6e565b6040516104209190612b37565b60405180910390f35b610443600480360381019061043e9190612b50565b610e8c565b604051610450919061218c565b60405180910390f35b610473600480360381019061046e9190612b8e565b610f1a565b005b61048f600480360381019061048a9190612c21565b610fc1565b005b5f805f8381526020019081526020015f205f8473ffffffffffffffffffffffffffffffffffffffff1673ffffffffffffffffffffffffffffffffffffffff1681526020019081526020015f2054905092915050565b5f7fd9b67a26000000000000000000000000000000000000000000000000000000007bffffffffffffffffffffffffffffffffffffffffffffffffffffffff1916827bffffffffffffffffffffffffffffffffffffffffffffffffffffffff191614806105b057507f0e89341c000000000000000000000000000000000000000000000000000000007bffffffffffffffffffffffffffffffffffffffffffffffffffffffff1916827bffffffffffffffffffffffffffffffffffffffffffffffffffffffff1916145b806105c057506105bf82611045565b5b9050919050565b6105cf6110ae565b8160095f6101000a81548173ffffffffffffffffffffffffffffffffffffffff021916908373ffffffffffffffffffffffffffffffffffffffff16021790555080600960146101000a8154816bffffffffffffffffffffffff02191690836bffffffffffffffffffffffff1602179055508173ffffffffffffffffffffffffffffffffffffffff167fae1d656a1268648b04ffa79c1416f05879338ae295aae3234d8db217356a1c62826040516106869190612b37565b60405180910390a25050565b6060600461069f83611135565b6040516020016106b0929190612dbf565b6040516020818303038152906040529050919050565b6106ce6110ae565b600182101580156106e0575060058211155b61071f576040517f08c379a000000000000000000000000000000000000000000000000000000000815260040161071690612e37565b60405180910390fd5b8060055f8481526020019081526020015f2081905550817f9ff79792a92b66fee090acb66e07837a2edb31ee6b9780fa551fd04b79dffcd28260405161076591906129b3565b60405180910390a25050565b5f8060095f9054906101000a900473ffffffffffffffffffffffffffffffffffffffff16612710600960149054906101000a90046bffffffffffffffffffffffff166bffffffffffffffffffffffff16856107cc9190612e82565b6107d69190612ef0565b915091509250929050565b5f6107ea61128e565b90508073ffffffffffffffffffffffffffffffffffffffff168673ffffffffffffffffffffffffffffffffffffffff161415801561082f575061082d8682610e8c565b155b156108735780866040517fe237d92200000000000000000000000000000000000000000000000000000000815260040161086a929190612f20565b60405180910390fd5b6108808686868686611295565b505050505050565b60095f9054906101000a900473ffffffffffffffffffffffffffffffffffffffff1681565b606081518351146108f957815183516040517f5b0599910000000000000000000000000000000000000000000000000000000081526004016108f0929190612f47565b60405180910390fd5b5f835167ffffffffffffffff811115610915576109146123e2565b5b6040519080825280602002602001820160405280156109435781602001602082028036833780820191505090505b5090505f5b84518110156109af5761097f610967828761138990919063ffffffff16565b61097a838761139c90919063ffffffff16565b610491565b82828151811061099257610991612f6e565b5b602002602001018181525050806109a890612f9b565b9050610948565b508091505092915050565b6109c26110ae565b80600490816109d1919061316d565b507f6741b2fc379fad678116fe3d4d4b9a1a184ab53ba36b86ad0fa66340b1ab41ad81604051610a0191906122d9565b60405180910390a150565b60048054610a1990612c79565b80601f0160208091040260200160405190810160405280929190818152602001828054610a4590612c79565b8015610a905780601f10610a6757610100808354040283529160200191610a90565b820191905f5260205f20905b815481529060010190602001808311610a7357829003601f168201915b505050505081565b610aa06110ae565b610aa95f6113af565b565b6005602052805f5260405f205f915090505481565b60018310158015610ad2575060058311155b610b11576040517f08c379a0000000000000000000000000000000000000000000000000000000008152600401610b0890612e37565b60405180910390fd5b60065f8481526020019081526020015f205f3373ffffffffffffffffffffffffffffffffffffffff1673ffffffffffffffffffffffffffffffffffffffff1681526020019081526020015f205f9054906101000a900460ff1615610baa576040517f08c379a0000000000000000000000000000000000000000000000000000000008152600401610ba190613286565b60405180910390fd5b5f60085f8581526020019081526020015f20541115610c285760085f8481526020019081526020015f205460075f8581526020019081526020015f205410610c27576040517f08c379a0000000000000000000000000000000000000000000000000000000008152600401610c1e906132ee565b60405180910390fd5b5b5f33604051602001610c3a9190613351565b604051602081830303815290604052805190602001209050610cae8383808060200260200160405190810160405280939291908181526020018383602002808284375f81840152601f19601f8201169050808301925050505050505060055f8781526020019081526020015f205483611472565b610ced576040517f08c379a0000000000000000000000000000000000000000000000000000000008152600401610ce4906133b5565b60405180910390fd5b600160065f8681526020019081526020015f205f3373ffffffffffffffffffffffffffffffffffffffff1673ffffffffffffffffffffffffffffffffffffffff1681526020019081526020015f205f6101000a81548160ff02191690831515021790555060075f8581526020019081526020015f205f815480929190610d7290612f9b565b9190505550610d923385600160405180602001604052805f815250611488565b833373ffffffffffffffffffffffffffffffffffffffff167fb792983f4be9cd6a6722f6cf3c136d8cf44f77c5cf7cb263f75f36b04806a01b60405160405180910390a350505050565b6006602052815f5260405f20602052805f5260405f205f915091509054906101000a900460ff1681565b5f60035f9054906101000a900473ffffffffffffffffffffffffffffffffffffffff16905090565b6008602052805f5260405f205f915090505481565b610e55610e4e61128e565b838361151d565b5050565b6007602052805f5260405f205f915090505481565b600960149054906101000a90046bffffffffffffffffffffffff1681565b5f60015f8473ffffffffffffffffffffffffffffffffffffffff1673ffffffffffffffffffffffffffffffffffffffff1681526020019081526020015f205f8373ffffffffffffffffffffffffffffffffffffffff1673ffffffffffffffffffffffffffffffffffffffff1681526020019081526020015f205f9054906101000a900460ff16905092915050565b5f610f2361128e565b90508073ffffffffffffffffffffffffffffffffffffffff168673ffffffffffffffffffffffffffffffffffffffff1614158015610f685750610f668682610e8c565b155b15610fac5780866040517fe237d922000000000000000000000000000000000000000000000000000000008152600401610fa3929190612f20565b60405180910390fd5b610fb98686868686611686565b505050505050565b610fc96110ae565b5f73ffffffffffffffffffffffffffffffffffffffff168173ffffffffffffffffffffffffffffffffffffffff1603611039575f6040517f1e4fbdf70000000000000000000000000000000000000000000000000000000081526004016110309190612699565b60405180910390fd5b611042816113af565b50565b5f7f01ffc9a7000000000000000000000000000000000000000000000000000000007bffffffffffffffffffffffffffffffffffffffffffffffffffffffff1916827bffffffffffffffffffffffffffffffffffffffffffffffffffffffff1916149050919050565b6110b661128e565b73ffffffffffffffffffffffffffffffffffffffff166110d4610e06565b73ffffffffffffffffffffffffffffffffffffffff1614611133576110f761128e565b6040517f118cdaa700000000000000000000000000000000000000000000000000000000815260040161112a9190612699565b60405180910390fd5b565b60605f820361117b576040518060400160405280600181526020017f30000000000000000000000000000000000000000000000000000000000000008152509050611289565b5f8290505f5b5f82146111aa57808061119390612f9b565b915050600a826111a39190612ef0565b9150611181565b5f8167ffffffffffffffff8111156111c5576111c46123e2565b5b6040519080825280601f01601f1916602001820160405280156111f75781602001600182028036833780820191505090505b5090505b5f85146112825760018261120f91906133d3565b9150600a8561121e9190613406565b603061122a9190613436565b60f81b8183815181106112405761123f612f6e565b5b60200101907effffffffffffffffffffffffffffffffffffffffffffffffffffffffffffff191690815f1a905350600a8561127b9190612ef0565b94506111fb565b8093505050505b919050565b5f33905090565b5f73ffffffffffffffffffffffffffffffffffffffff168473ffffffffffffffffffffffffffffffffffffffff1603611305575f6040517f57f447ce0000000000000000000000000000000000000000000000000000000081526004016112fc9190612699565b60405180910390fd5b5f73ffffffffffffffffffffffffffffffffffffffff168573ffffffffffffffffffffffffffffffffffffffff1603611375575f6040517f01a8351400000000000000000000000000000000000000000000000000000000815260040161136c9190612699565b60405180910390fd5b611382858585858561178c565b5050505050565b5f60208202602084010151905092915050565b5f60208202602084010151905092915050565b5f60035f9054906101000a900473ffffffffffffffffffffffffffffffffffffffff1690508160035f6101000a81548173ffffffffffffffffffffffffffffffffffffffff021916908373ffffffffffffffffffffffffffffffffffffffff1602179055508173ffffffffffffffffffffffffffffffffffffffff168173ffffffffffffffffffffffffffffffffffffffff167f8be0079c531659141344cd1fd0a4f28419497f9722a3daafe3b4186f6b6457e060405160405180910390a35050565b5f8261147e8584611838565b1490509392505050565b5f73ffffffffffffffffffffffffffffffffffffffff168473ffffffffffffffffffffffffffffffffffffffff16036114f8575f6040517f57f447ce0000000000000000000000000000000000000000000000000000000081526004016114ef9190612699565b60405180910390fd5b5f80611504858561188c565b915091506115155f8784848761178c565b505050505050565b5f73ffffffffffffffffffffffffffffffffffffffff168273ffffffffffffffffffffffffffffffffffffffff160361158d575f6040517fced3e1000000000000000000000000000000000000000000000000000000000081526004016115849190612699565b60405180910390fd5b8060015f8573ffffffffffffffffffffffffffffffffffffffff1673ffffffffffffffffffffffffffffffffffffffff1681526020019081526020015f205f8473ffffffffffffffffffffffffffffffffffffffff1673ffffffffffffffffffffffffffffffffffffffff1681526020019081526020015f205f6101000a81548160ff0219169083151502179055508173ffffffffffffffffffffffffffffffffffffffff168373ffffffffffffffffffffffffffffffffffffffff167f17307eab39ab6107e8899845ad3d59bd9653f200f220920489ca2b5937696c3183604051611679919061218c565b60405180910390a3505050565b5f73ffffffffffffffffffffffffffffffffffffffff168473ffffffffffffffffffffffffffffffffffffffff16036116f6575f6040517f57f447ce0000000000000000000000000000000000000000000000000000000081526004016116ed9190612699565b60405180910390fd5b5f73ffffffffffffffffffffffffffffffffffffffff168573ffffffffffffffffffffffffffffffffffffffff1603611766575f6040517f01a8351400000000000000000000000000000000000000000000000000000000815260040161175d9190612699565b60405180910390fd5b5f80611772858561188c565b91509150611783878784848761178c565b50505050505050565b611798858585856118bc565b5f73ffffffffffffffffffffffffffffffffffffffff168473ffffffffffffffffffffffffffffffffffffffff1614611831575f6117d461128e565b90506001845103611820575f6117f35f8661139c90919063ffffffff16565b90505f6118095f8661139c90919063ffffffff16565b9050611819838989858589611c52565b505061182f565b61182e818787878787611e01565b5b505b5050505050565b5f808290505f5b84518110156118815761186c8286838151811061185f5761185e612f6e565b5b6020026020010151611fb0565b9150808061187990612f9b565b91505061183f565b508091505092915050565b60608060405191506001825283602083015260408201905060018152826020820152604081016040529250929050565b805182511461190657815181516040517f5b0599910000000000000000000000000000000000000000000000000000000081526004016118fd929190612f47565b60405180910390fd5b5f61190f61128e565b90505f5b8351811015611b11575f611930828661139c90919063ffffffff16565b90505f611946838661139c90919063ffffffff16565b90505f73ffffffffffffffffffffffffffffffffffffffff168873ffffffffffffffffffffffffffffffffffffffff1614611a69575f805f8481526020019081526020015f205f8a73ffffffffffffffffffffffffffffffffffffffff1673ffffffffffffffffffffffffffffffffffffffff1681526020019081526020015f2054905081811015611a1557888183856040517f03dee4c5000000000000000000000000000000000000000000000000000000008152600401611a0c9493929190613469565b60405180910390fd5b8181035f808581526020019081526020015f205f8b73ffffffffffffffffffffffffffffffffffffffff1673ffffffffffffffffffffffffffffffffffffffff1681526020019081526020015f2081905550505b5f73ffffffffffffffffffffffffffffffffffffffff168773ffffffffffffffffffffffffffffffffffffffff1614611afe57805f808481526020019081526020015f205f8973ffffffffffffffffffffffffffffffffffffffff1673ffffffffffffffffffffffffffffffffffffffff1681526020019081526020015f205f828254611af69190613436565b925050819055505b505080611b0a90612f9b565b9050611913565b506001835103611bcc575f611b2f5f8561139c90919063ffffffff16565b90505f611b455f8561139c90919063ffffffff16565b90508573ffffffffffffffffffffffffffffffffffffffff168773ffffffffffffffffffffffffffffffffffffffff168473ffffffffffffffffffffffffffffffffffffffff167fc3d58168c5ae7397731d063d5bbf3d657854427343f4c083240f7aacaa2d0f628585604051611bbd929190612f47565b60405180910390a45050611c4b565b8373ffffffffffffffffffffffffffffffffffffffff168573ffffffffffffffffffffffffffffffffffffffff168273ffffffffffffffffffffffffffffffffffffffff167f4a39dc06d4c0dbc64b70af90fd698a233a518aa5d07e595d983b8c0526c8f7fb8686604051611c429291906134ac565b60405180910390a45b5050505050565b5f8473ffffffffffffffffffffffffffffffffffffffff163b1115611df9578373ffffffffffffffffffffffffffffffffffffffff1663f23a6e6187878686866040518663ffffffff1660e01b8152600401611cb2959493929190613533565b6020604051808303815f875af1925050508015611ced57506040513d601f19601f82011682018060405250810190611cea919061359f565b60015b611d6e573d805f8114611d1b576040519150601f19603f3d011682016040523d82523d5f602084013e611d20565b606091505b505f815103611d6657846040517f57f447ce000000000000000000000000000000000000000000000000000000008152600401611d5d9190612699565b60405180910390fd5b805160208201fd5b63f23a6e6160e01b7bffffffffffffffffffffffffffffffffffffffffffffffffffffffff1916817bffffffffffffffffffffffffffffffffffffffffffffffffffffffff191614611df757846040517f57f447ce000000000000000000000000000000000000000000000000000000008152600401611dee9190612699565b60405180910390fd5b505b505050505050565b5f8473ffffffffffffffffffffffffffffffffffffffff163b1115611fa8578373ffffffffffffffffffffffffffffffffffffffff1663bc197c8187878686866040518663ffffffff1660e01b8152600401611e619594939291906135ca565b6020604051808303815f875af1925050508015611e9c57506040513d601f19601f82011682018060405250810190611e99919061359f565b60015b611f1d573d805f8114611eca576040519150601f19603f3d011682016040523d82523d5f602084013e611ecf565b606091505b505f815103611f1557846040517f57f447ce000000000000000000000000000000000000000000000000000000008152600401611f0c9190612699565b60405180910390fd5b805160208201fd5b63bc197c8160e01b7bffffffffffffffffffffffffffffffffffffffffffffffffffffffff1916817bffffffffffffffffffffffffffffffffffffffffffffffffffffffff191614611fa657846040517f57f447ce000000000000000000000000000000000000000000000000000000008152600401611f9d9190612699565b60405180910390fd5b505b505050505050565b5f818310611fc757611fc28284611fda565b611fd2565b611fd18383611fda565b5b905092915050565b5f825f528160205260405f20905092915050565b5f604051905090565b5f80fd5b5f80fd5b5f73ffffffffffffffffffffffffffffffffffffffff82169050919050565b5f61202882611fff565b9050919050565b6120388161201e565b8114612042575f80fd5b50565b5f813590506120538161202f565b92915050565b5f819050919050565b61206b81612059565b8114612075575f80fd5b50565b5f8135905061208681612062565b92915050565b5f80604083850312156120a2576120a1611ff7565b5b5f6120af85828601612045565b92505060206120c085828601612078565b9150509250929050565b6120d381612059565b82525050565b5f6020820190506120ec5f8301846120ca565b92915050565b5f7fffffffff0000000000000000000000000000000000000000000000000000000082169050919050565b612126816120f2565b8114612130575f80fd5b50565b5f813590506121418161211d565b92915050565b5f6020828403121561215c5761215b611ff7565b5b5f61216984828501612133565b91505092915050565b5f8115159050919050565b61218681612172565b82525050565b5f60208201905061219f5f83018461217d565b92915050565b5f6bffffffffffffffffffffffff82169050919050565b6121c5816121a5565b81146121cf575f80fd5b50565b5f813590506121e0816121bc565b92915050565b5f80604083850312156121fc576121fb611ff7565b5b5f61220985828601612045565b925050602061221a858286016121d2565b9150509250929050565b5f6020828403121561223957612238611ff7565b5b5f61224684828501612078565b91505092915050565b5f81519050919050565b5f82825260208201905092915050565b5f5b8381101561228657808201518184015260208101905061226b565b5f8484015250505050565b5f601f19601f8301169050919050565b5f6122ab8261224f565b6122b58185612259565b93506122c5818560208601612269565b6122ce81612291565b840191505092915050565b5f6020820190508181035f8301526122f181846122a1565b905092915050565b5f819050919050565b61230b816122f9565b8114612315575f80fd5b50565b5f8135905061232681612302565b92915050565b5f806040838503121561234257612341611ff7565b5b5f61234f85828601612078565b925050602061236085828601612318565b9150509250929050565b5f80604083850312156123805761237f611ff7565b5b5f61238d85828601612078565b925050602061239e85828601612078565b9150509250929050565b6123b18161201e565b82525050565b5f6040820190506123ca5f8301856123a8565b6123d760208301846120ca565b9392505050565b5f80fd5b7f4e487b71000000000000000000000000000000000000000000000000000000005f52604160045260245ffd5b61241882612291565b810181811067ffffffffffffffff82111715612437576124366123e2565b5b80604052505050565b5f612449611fee565b9050612455828261240f565b919050565b5f67ffffffffffffffff821115612474576124736123e2565b5b602082029050602081019050919050565b5f80fd5b5f61249b6124968461245a565b612440565b905080838252602082019050602084028301858111156124be576124bd612485565b5b835b818110156124e757806124d38882612078565b8452602084019350506020810190506124c0565b5050509392505050565b5f82601f830112612505576125046123de565b5b8135612515848260208601612489565b91505092915050565b5f80fd5b5f67ffffffffffffffff82111561253c5761253b6123e2565b5b61254582612291565b9050602081019050919050565b828183375f83830152505050565b5f61257261256d84612522565b612440565b90508281526020810184848401111561258e5761258d61251e565b5b612599848285612552565b509392505050565b5f82601f8301126125b5576125b46123de565b5b81356125c5848260208601612560565b91505092915050565b5f805f805f60a086880312156125e7576125e6611ff7565b5b5f6125f488828901612045565b955050602061260588828901612045565b945050604086013567ffffffffffffffff81111561262657612625611ffb565b5b612632888289016124f1565b935050606086013567ffffffffffffffff81111561265357612652611ffb565b5b61265f888289016124f1565b925050608086013567ffffffffffffffff8111156126805761267f611ffb565b5b61268c888289016125a1565b9150509295509295909350565b5f6020820190506126ac5f8301846123a8565b92915050565b5f67ffffffffffffffff8211156126cc576126cb6123e2565b5b602082029050602081019050919050565b5f6126ef6126ea846126b2565b612440565b9050808382526020820190506020840283018581111561271257612711612485565b5b835b8181101561273b57806127278882612045565b845260208401935050602081019050612714565b5050509392505050565b5f82601f830112612759576127586123de565b5b81356127698482602086016126dd565b91505092915050565b5f806040838503121561278857612787611ff7565b5b5f83013567ffffffffffffffff8111156127a5576127a4611ffb565b5b6127b185828601612745565b925050602083013567ffffffffffffffff8111156127d2576127d1611ffb565b5b6127de858286016124f1565b9150509250929050565b5f81519050919050565b5f82825260208201905092915050565b5f819050602082019050919050565b61281a81612059565b82525050565b5f61282b8383612811565b60208301905092915050565b5f602082019050919050565b5f61284d826127e8565b61285781856127f2565b935061286283612802565b805f5b838110156128925781516128798882612820565b975061288483612837565b925050600181019050612865565b5085935050505092915050565b5f6020820190508181035f8301526128b78184612843565b905092915050565b5f67ffffffffffffffff8211156128d9576128d86123e2565b5b6128e282612291565b9050602081019050919050565b5f6129016128fc846128bf565b612440565b90508281526020810184848401111561291d5761291c61251e565b5b612928848285612552565b509392505050565b5f82601f830112612944576129436123de565b5b81356129548482602086016128ef565b91505092915050565b5f6020828403121561297257612971611ff7565b5b5f82013567ffffffffffffffff81111561298f5761298e611ffb565b5b61299b84828501612930565b91505092915050565b6129ad816122f9565b82525050565b5f6020820190506129c65f8301846129a4565b92915050565b5f80fd5b5f8083601f8401126129e5576129e46123de565b5b8235905067ffffffffffffffff811115612a0257612a016129cc565b5b602083019150836020820283011115612a1e57612a1d612485565b5b9250929050565b5f805f60408486031215612a3c57612a3b611ff7565b5b5f612a4986828701612078565b935050602084013567ffffffffffffffff811115612a6a57612a69611ffb565b5b612a76868287016129d0565b92509250509250925092565b5f8060408385031215612a9857612a97611ff7565b5b5f612aa585828601612078565b9250506020612ab685828601612045565b9150509250929050565b612ac981612172565b8114612ad3575f80fd5b50565b5f81359050612ae481612ac0565b92915050565b5f8060408385031215612b0057612aff611ff7565b5b5f612b0d85828601612045565b9250506020612b1e85828601612ad6565b9150509250929050565b612b31816121a5565b82525050565b5f602082019050612b4a5f830184612b28565b92915050565b5f8060408385031215612b6657612b65611ff7565b5b5f612b7385828601612045565b9250506020612b8485828601612045565b9150509250929050565b5f805f805f60a08688031215612ba757612ba6611ff7565b5b5f612bb488828901612045565b9550506020612bc588828901612045565b9450506040612bd688828901612078565b9350506060612be788828901612078565b925050608086013567ffffffffffffffff811115612c0857612c07611ffb565b5b612c14888289016125a1565b9150509295509295909350565b5f60208284031215612c3657612c35611ff7565b5b5f612c4384828501612045565b91505092915050565b7f4e487b71000000000000000000000000000000000000000000000000000000005f52602260045260245ffd5b5f6002820490506001821680612c9057607f821691505b602082108103612ca357612ca2612c4c565b5b50919050565b5f81905092915050565b5f819050815f5260205f209050919050565b5f8154612cd181612c79565b612cdb8186612ca9565b9450600182165f8114612cf55760018114612d0a57612d3c565b60ff1983168652811515820286019350612d3c565b612d1385612cb3565b5f5b83811015612d3457815481890152600182019150602081019050612d15565b838801955050505b50505092915050565b5f612d4f8261224f565b612d598185612ca9565b9350612d69818560208601612269565b80840191505092915050565b7f2e6a736f6e0000000000000000000000000000000000000000000000000000005f82015250565b5f612da9600583612ca9565b9150612db482612d75565b600582019050919050565b5f612dca8285612cc5565b9150612dd68284612d45565b9150612de182612d9d565b91508190509392505050565b7f496e76616c696420746f6b656e496400000000000000000000000000000000005f82015250565b5f612e21600f83612259565b9150612e2c82612ded565b602082019050919050565b5f6020820190508181035f830152612e4e81612e15565b9050919050565b7f4e487b71000000000000000000000000000000000000000000000000000000005f52601160045260245ffd5b5f612e8c82612059565b9150612e9783612059565b9250828202612ea581612059565b91508282048414831517612ebc57612ebb612e55565b5b5092915050565b7f4e487b71000000000000000000000000000000000000000000000000000000005f52601260045260245ffd5b5f612efa82612059565b9150612f0583612059565b925082612f1557612f14612ec3565b5b828204905092915050565b5f604082019050612f335f8301856123a8565b612f4060208301846123a8565b9392505050565b5f604082019050612f5a5f8301856120ca565b612f6760208301846120ca565b9392505050565b7f4e487b71000000000000000000000000000000000000000000000000000000005f52603260045260245ffd5b5f612fa582612059565b91507fffffffffffffffffffffffffffffffffffffffffffffffffffffffffffffffff8203612fd757612fd6612e55565b5b600182019050919050565b5f6020601f8301049050919050565b5f82821b905092915050565b5f6008830261302c7fffffffffffffffffffffffffffffffffffffffffffffffffffffffffffffffff82612ff1565b6130368683612ff1565b95508019841693508086168417925050509392505050565b5f819050919050565b5f61307161306c61306784612059565b61304e565b612059565b9050919050565b5f819050919050565b61308a83613057565b61309e61309682613078565b848454612ffd565b825550505050565b5f90565b6130b26130a6565b6130bd818484613081565b505050565b5b818110156130e0576130d55f826130aa565b6001810190506130c3565b5050565b601f821115613125576130f681612cb3565b6130ff84612fe2565b8101602085101561310e578190505b61312261311a85612fe2565b8301826130c2565b50505b505050565b5f82821c905092915050565b5f6131455f198460080261312a565b1980831691505092915050565b5f61315d8383613136565b9150826002028217905092915050565b6131768261224f565b67ffffffffffffffff81111561318f5761318e6123e2565b5b6131998254612c79565b6131a48282856130e4565b5f60209050601f8311600181146131d5575f84156131c3578287015190505b6131cd8582613152565b865550613234565b601f1984166131e386612cb3565b5f5b8281101561320a578489015182556001820191506020850194506020810190506131e5565b868310156132275784890151613223601f891682613136565b8355505b6001600288020188555050505b505050505050565b7f416c726561647920636c61696d656400000000000000000000000000000000005f82015250565b5f613270600f83612259565b915061327b8261323c565b602082019050919050565b5f6020820190508181035f83015261329d81613264565b9050919050565b7f537570706c79206c696d697420726561636865640000000000000000000000005f82015250565b5f6132d8601483612259565b91506132e3826132a4565b602082019050919050565b5f6020820190508181035f830152613305816132cc565b9050919050565b5f8160601b9050919050565b5f6133228261330c565b9050919050565b5f61333382613318565b9050919050565b61334b6133468261201e565b613329565b82525050565b5f61335c828461333a565b60148201915081905092915050565b7f496e76616c69642070726f6f66000000000000000000000000000000000000005f82015250565b5f61339f600d83612259565b91506133aa8261336b565b602082019050919050565b5f6020820190508181035f8301526133cc81613393565b9050919050565b5f6133dd82612059565b91506133e883612059565b9250828203905081811115613400576133ff612e55565b5b92915050565b5f61341082612059565b915061341b83612059565b92508261342b5761342a612ec3565b5b828206905092915050565b5f61344082612059565b915061344b83612059565b925082820190508082111561346357613462612e55565b5b92915050565b5f60808201905061347c5f8301876123a8565b61348960208301866120ca565b61349660408301856120ca565b6134a360608301846120ca565b95945050505050565b5f6040820190508181035f8301526134c48185612843565b905081810360208301526134d88184612843565b90509392505050565b5f81519050919050565b5f82825260208201905092915050565b5f613505826134e1565b61350f81856134eb565b935061351f818560208601612269565b61352881612291565b840191505092915050565b5f60a0820190506135465f8301886123a8565b61355360208301876123a8565b61356060408301866120ca565b61356d60608301856120ca565b818103608083015261357f81846134fb565b90509695505050505050565b5f815190506135998161211d565b92915050565b5f602082840312156135b4576135b3611ff7565b5b5f6135c18482850161358b565b91505092915050565b5f60a0820190506135dd5f8301886123a8565b6135ea60208301876123a8565b81810360408301526135fc8186612843565b905081810360608301526136108185612843565b9050818103608083015261362481846134fb565b9050969550505050505056fea2646970667358221220f135ff8e6a4d45a71c37b3a57cad652ef9b1b8fbcbe9271ff62b7a1eee82a83564736f6c63430008140033",
  "immutableReferences": {},
  "source": "// SPDX-License-Identifier: MIT\npragma solidity ^0.8.20;\nimport \"@openzeppelin/contracts/token/ERC1155/ERC1155.sol\";\nimport \"@openzeppelin/contracts/access/Ownable.sol\";\nimport \"@openzeppelin/contracts/utils/cryptography/MerkleProof.sol\";\ncontract RewardManager is ERC1155, Ownable {\n    string public baseURI;\n    mapping(uint256 => bytes32) public merkleRoots;\n    mapping(uint256 => mapping(address => bool)) public hasClaimed;\n    mapping(uint256 => uint256) public mintedCounts;\n    mapping(uint256 => uint256) public supplyLimits;\n    address public royaltyRecipient;\n    uint96 public royaltyFraction;\n    event NFTClaimed(address indexed user, uint256 indexed tokenId);\n    event MerkleRootUpdated(uint256 indexed tokenId, bytes32 newRoot);\n    event BaseURIUpdated(string newURI);\n    event RoyaltyInfoUpdated(address indexed receiver, uint96 fraction);\n    constructor(string memory _initialBaseURI, address _initialOwner, address _royaltyReceiver) ERC1155(_initialBaseURI) Ownable(_initialOwner) {\n        baseURI = _initialBaseURI;\n        royaltyRecipient = _royaltyReceiver;\n        royaltyFraction = 250;\n        supplyLimits[2] = 200000;\n        supplyLimits[3] = 100000;\n        supplyLimits[4] = 80000;\n        supplyLimits[5] = 50000;\n    }\n    function claimNFT(uint256 tokenId, bytes32[] calldata merkleProof) external {\n        require(tokenId >= 1 && tokenId <= 5, \"Invalid tokenId\");\n        require(!hasClaimed[tokenId][msg.sender], \"Already claimed\");\n        if (supplyLimits[tokenId] > 0) { require(mintedCounts[tokenId] < supplyLimits[tokenId], \"Supply limit reached\"); }\n        bytes32 leaf = keccak256(abi.encodePacked(msg.sender));\n        require(MerkleProof.verify(merkleProof, merkleRoots[tokenId], leaf), \"Invalid proof\");\n        hasClaimed[tokenId][msg.sender] = true;\n        mintedCounts[tokenId]++;\n        _mint(msg.sender, tokenId, 1, \"\");\n        emit NFTClaimed(msg.sender, tokenId);\n    }\n    function uri(uint256 tokenId) public view override returns (string memory) { return string(abi.encodePacked(baseURI, _toString(tokenId), \".json\")); }\n    function royaltyInfo(uint256, uint256 _salePrice) external view returns (address receiver, uint256 royaltyAmount) { return (royaltyRecipient, (_salePrice * royaltyFraction) / 10000); }\n    function setMerkleRoot(uint256 tokenId, bytes32 _newRoot) public onlyOwner { require(tokenId >= 1 && tokenId <= 5, \"Invalid tokenId\"); merkleRoots[tokenId] = _newRoot; emit MerkleRootUpdated(tokenId, _newRoot); }\n    function setBaseURI(string memory _newBaseURI) public onlyOwner { baseURI = _newBaseURI; emit BaseURIUpdated(_newBaseURI); }\n    function setRoyaltyInfo(address _receiver, uint96 _fraction) public onlyOwner { royaltyRecipient = _receiver; royaltyFraction = _fraction; emit RoyaltyInfoUpdated(_receiver, _fraction); }\n    function _toString(uint256 value) private pure returns (string memory) {\n        if (value == 0) return \"0\";\n        uint256 temp = value; uint256 digits;\n        while (temp != 0) { digits++; temp /= 10; }\n        bytes memory buffer = new bytes(digits);\n        while (value != 0) { digits -= 1; buffer[digits] = bytes1(uint8(48 + uint256(value % 10))); value /= 10; }\n        return string(buffer);\n    }\n}\n",
  "sourcePath": "C:\\Users\\HP\\Desktop\\FreedomProject\\contracts\\RewardManager.sol",
  "compiler": {
    "name": "solc",
    "version": "0.8.20+commit.a1b79de6.Emscripten.clang"
  },
  "schemaVersion": "3.4.16",
  "updatedAt": "2025-08-01T22:12:16.511Z",
  "devdoc": {
    "errors": {
      "ERC1155InsufficientBalance(address,uint256,uint256,uint256)": [
        {
          "details": "Indicates an error related to the current `balance` of a `sender`. Used in transfers.",
          "params": {
            "balance": "Current balance for the interacting account.",
            "needed": "Minimum amount required to perform a transfer.",
            "sender": "Address whose tokens are being transferred.",
            "tokenId": "Identifier number of a token."
          }
        }
      ],
      "ERC1155InvalidApprover(address)": [
        {
          "details": "Indicates a failure with the `approver` of a token to be approved. Used in approvals.",
          "params": {
            "approver": "Address initiating an approval operation."
          }
        }
      ],
      "ERC1155InvalidArrayLength(uint256,uint256)": [
        {
          "details": "Indicates an array length mismatch between ids and values in a safeBatchTransferFrom operation. Used in batch transfers.",
          "params": {
            "idsLength": "Length of the array of token identifiers",
            "valuesLength": "Length of the array of token amounts"
          }
        }
      ],
      "ERC1155InvalidOperator(address)": [
        {
          "details": "Indicates a failure with the `operator` to be approved. Used in approvals.",
          "params": {
            "operator": "Address that may be allowed to operate on tokens without being their owner."
          }
        }
      ],
      "ERC1155InvalidReceiver(address)": [
        {
          "details": "Indicates a failure with the token `receiver`. Used in transfers.",
          "params": {
            "receiver": "Address to which tokens are being transferred."
          }
        }
      ],
      "ERC1155InvalidSender(address)": [
        {
          "details": "Indicates a failure with the token `sender`. Used in transfers.",
          "params": {
            "sender": "Address whose tokens are being transferred."
          }
        }
      ],
      "ERC1155MissingApprovalForAll(address,address)": [
        {
          "details": "Indicates a failure with the `operator`s approval. Used in transfers.",
          "params": {
            "operator": "Address that may be allowed to operate on tokens without being their owner.",
            "owner": "Address of the current owner of a token."
          }
        }
      ],
      "OwnableInvalidOwner(address)": [
        {
          "details": "The owner is not a valid owner account. (eg. `address(0)`)"
        }
      ],
      "OwnableUnauthorizedAccount(address)": [
        {
          "details": "The caller account is not authorized to perform an operation."
        }
      ]
    },
    "events": {
      "ApprovalForAll(address,address,bool)": {
        "details": "Emitted when `account` grants or revokes permission to `operator` to transfer their tokens, according to `approved`."
      },
      "TransferBatch(address,address,address,uint256[],uint256[])": {
        "details": "Equivalent to multiple {TransferSingle} events, where `operator`, `from` and `to` are the same for all transfers."
      },
      "TransferSingle(address,address,address,uint256,uint256)": {
        "details": "Emitted when `value` amount of tokens of type `id` are transferred from `from` to `to` by `operator`."
      },
      "URI(string,uint256)": {
        "details": "Emitted when the URI for token type `id` changes to `value`, if it is a non-programmatic URI. If an {URI} event was emitted for `id`, the standard https://eips.ethereum.org/EIPS/eip-1155#metadata-extensions[guarantees] that `value` will equal the value returned by {IERC1155MetadataURI-uri}."
      }
    },
    "kind": "dev",
    "methods": {
      "balanceOf(address,uint256)": {
        "details": "Returns the value of tokens of token type `id` owned by `account`."
      },
      "balanceOfBatch(address[],uint256[])": {
        "details": "See {IERC1155-balanceOfBatch}. Requirements: - `accounts` and `ids` must have the same length."
      },
      "isApprovedForAll(address,address)": {
        "details": "Returns true if `operator` is approved to transfer ``account``'s tokens. See {setApprovalForAll}."
      },
      "owner()": {
        "details": "Returns the address of the current owner."
      },
      "renounceOwnership()": {
        "details": "Leaves the contract without owner. It will not be possible to call `onlyOwner` functions. Can only be called by the current owner. NOTE: Renouncing ownership will leave the contract without an owner, thereby disabling any functionality that is only available to the owner."
      },
      "safeBatchTransferFrom(address,address,uint256[],uint256[],bytes)": {
        "details": "xref:ROOT:erc1155.adoc#batch-operations[Batched] version of {safeTransferFrom}. WARNING: This function can potentially allow a reentrancy attack when transferring tokens to an untrusted contract, when invoking {IERC1155Receiver-onERC1155BatchReceived} on the receiver. Ensure to follow the checks-effects-interactions pattern and consider employing reentrancy guards when interacting with untrusted contracts. Emits either a {TransferSingle} or a {TransferBatch} event, depending on the length of the array arguments. Requirements: - `ids` and `values` must have the same length. - If `to` refers to a smart contract, it must implement {IERC1155Receiver-onERC1155BatchReceived} and return the acceptance magic value."
      },
      "safeTransferFrom(address,address,uint256,uint256,bytes)": {
        "details": "Transfers a `value` amount of tokens of type `id` from `from` to `to`. WARNING: This function can potentially allow a reentrancy attack when transferring tokens to an untrusted contract, when invoking {IERC1155Receiver-onERC1155Received} on the receiver. Ensure to follow the checks-effects-interactions pattern and consider employing reentrancy guards when interacting with untrusted contracts. Emits a {TransferSingle} event. Requirements: - `to` cannot be the zero address. - If the caller is not `from`, it must have been approved to spend ``from``'s tokens via {setApprovalForAll}. - `from` must have a balance of tokens of type `id` of at least `value` amount. - If `to` refers to a smart contract, it must implement {IERC1155Receiver-onERC1155Received} and return the acceptance magic value."
      },
      "setApprovalForAll(address,bool)": {
        "details": "Grants or revokes permission to `operator` to transfer the caller's tokens, according to `approved`, Emits an {ApprovalForAll} event. Requirements: - `operator` cannot be the zero address."
      },
      "supportsInterface(bytes4)": {
        "details": "Returns true if this contract implements the interface defined by `interfaceId`. See the corresponding https://eips.ethereum.org/EIPS/eip-165#how-interfaces-are-identified[ERC section] to learn more about how these ids are created. This function call must use less than 30 000 gas."
      },
      "transferOwnership(address)": {
        "details": "Transfers ownership of the contract to a new account (`newOwner`). Can only be called by the current owner."
      }
    },
    "version": 1
  },
  "userdoc": {
    "kind": "user",
    "methods": {},
    "version": 1
  }
}