{
  "_format": "hh-sol-artifact-1",
  "contractName": "Treasury",
  "sourceName": "contracts/Treasury.sol",
  "abi": [
    {
      "inputs": [
        {
          "internalType": "address",
          "name": "_fTokenAddress",
          "type": "address"
        },
        {
          "internalType": "address",
          "name": "_stablecoinAddress",
          "type": "address"
        },
        {
          "internalType": "address",
          "name": "_routerAddress",
          "type": "address"
        },
        {
          "internalType": "address",
          "name": "_chainlinkFeedAddress",
          "type": "address"
        },
        {
          "internalType": "address",
          "name": "_stakingContract",
          "type": "address"
        },
        {
          "internalType": "address",
          "name": "_initialOwner",
          "type": "address"
        }
      ],
      "stateMutability": "nonpayable",
      "type": "constructor"
    },
    {
      "inputs": [
        {
          "internalType": "address",
          "name": "owner",
          "type": "address"
        }
      ],
      "name": "OwnableInvalidOwner",
      "type": "error"
    },
    {
      "inputs": [
        {
          "internalType": "address",
          "name": "account",
          "type": "address"
        }
      ],
      "name": "OwnableUnauthorizedAccount",
      "type": "error"
    },
    {
      "inputs": [],
      "name": "ReentrancyGuardReentrantCall",
      "type": "error"
    },
    {
      "anonymous": false,
      "inputs": [
        {
          "indexed": true,
          "internalType": "address",
          "name": "from",
          "type": "address"
        },
        {
          "indexed": false,
          "internalType": "uint256",
          "name": "amount",
          "type": "uint256"
        }
      ],
      "name": "FundsReceived",
      "type": "event"
    },
    {
      "anonymous": false,
      "inputs": [
        {
          "indexed": true,
          "internalType": "address",
          "name": "previousOwner",
          "type": "address"
        },
        {
          "indexed": true,
          "internalType": "address",
          "name": "newOwner",
          "type": "address"
        }
      ],
      "name": "OwnershipTransferred",
      "type": "event"
    },
    {
      "anonymous": false,
      "inputs": [
        {
          "indexed": false,
          "internalType": "uint256",
          "name": "amountBought",
          "type": "uint256"
        },
        {
          "indexed": false,
          "internalType": "uint256",
          "name": "amountBurned",
          "type": "uint256"
        }
      ],
      "name": "ReburnExecuted",
      "type": "event"
    },
    {
      "anonymous": false,
      "inputs": [
        {
          "indexed": false,
          "internalType": "uint256",
          "name": "newPrice",
          "type": "uint256"
        }
      ],
      "name": "SoftFloorPriceUpdated",
      "type": "event"
    },
    {
      "anonymous": false,
      "inputs": [
        {
          "indexed": false,
          "internalType": "uint256",
          "name": "amountBought",
          "type": "uint256"
        },
        {
          "indexed": false,
          "internalType": "int256",
          "name": "currentPrice",
          "type": "int256"
        }
      ],
      "name": "SoftFloorProtected",
      "type": "event"
    },
    {
      "inputs": [],
      "name": "FINAL_SUPPLY_TARGET",
      "outputs": [
        {
          "internalType": "uint256",
          "name": "",
          "type": "uint256"
        }
      ],
      "stateMutability": "view",
      "type": "function"
    },
    {
      "inputs": [],
      "name": "F_TOKEN",
      "outputs": [
        {
          "internalType": "contract IERC20",
          "name": "",
          "type": "address"
        }
      ],
      "stateMutability": "view",
      "type": "function"
    },
    {
      "inputs": [],
      "name": "F_TOKEN_CONTRACT_ADDRESS",
      "outputs": [
        {
          "internalType": "address",
          "name": "",
          "type": "address"
        }
      ],
      "stateMutability": "view",
      "type": "function"
    },
    {
      "inputs": [],
      "name": "PANCAKE_ROUTER",
      "outputs": [
        {
          "internalType": "contract IPancakeRouter",
          "name": "",
          "type": "address"
        }
      ],
      "stateMutability": "view",
      "type": "function"
    },
    {
      "inputs": [],
      "name": "PRICE_FEED",
      "outputs": [
        {
          "internalType": "contract IAggregatorV3",
          "name": "",
          "type": "address"
        }
      ],
      "stateMutability": "view",
      "type": "function"
    },
    {
      "inputs": [],
      "name": "REBURN_ACTIVATION_TIMESTAMP",
      "outputs": [
        {
          "internalType": "uint256",
          "name": "",
          "type": "uint256"
        }
      ],
      "stateMutability": "view",
      "type": "function"
    },
    {
      "inputs": [],
      "name": "STABLECOIN",
      "outputs": [
        {
          "internalType": "contract IERC20",
          "name": "",
          "type": "address"
        }
      ],
      "stateMutability": "view",
      "type": "function"
    },
    {
      "inputs": [],
      "name": "STAKING_CONTRACT",
      "outputs": [
        {
          "internalType": "address",
          "name": "",
          "type": "address"
        }
      ],
      "stateMutability": "view",
      "type": "function"
    },
    {
      "inputs": [
        {
          "internalType": "uint256",
          "name": "",
          "type": "uint256"
        }
      ],
      "name": "depositFees",
      "outputs": [],
      "stateMutability": "nonpayable",
      "type": "function"
    },
    {
      "inputs": [],
      "name": "executeReburn",
      "outputs": [],
      "stateMutability": "nonpayable",
      "type": "function"
    },
    {
      "inputs": [],
      "name": "getFTokenPrice",
      "outputs": [
        {
          "internalType": "int256",
          "name": "",
          "type": "int256"
        }
      ],
      "stateMutability": "view",
      "type": "function"
    },
    {
      "inputs": [],
      "name": "lastBuybackTimestamp",
      "outputs": [
        {
          "internalType": "uint256",
          "name": "",
          "type": "uint256"
        }
      ],
      "stateMutability": "view",
      "type": "function"
    },
    {
      "inputs": [],
      "name": "owner",
      "outputs": [
        {
          "internalType": "address",
          "name": "",
          "type": "address"
        }
      ],
      "stateMutability": "view",
      "type": "function"
    },
    {
      "inputs": [],
      "name": "protectSoftFloor",
      "outputs": [],
      "stateMutability": "nonpayable",
      "type": "function"
    },
    {
      "inputs": [],
      "name": "renounceOwnership",
      "outputs": [],
      "stateMutability": "nonpayable",
      "type": "function"
    },
    {
      "inputs": [
        {
          "internalType": "uint256",
          "name": "_newPrice",
          "type": "uint256"
        }
      ],
      "name": "setSoftFloorPrice",
      "outputs": [],
      "stateMutability": "nonpayable",
      "type": "function"
    },
    {
      "inputs": [],
      "name": "softFloorPrice",
      "outputs": [
        {
          "internalType": "uint256",
          "name": "",
          "type": "uint256"
        }
      ],
      "stateMutability": "view",
      "type": "function"
    },
    {
      "inputs": [
        {
          "internalType": "address",
          "name": "newOwner",
          "type": "address"
        }
      ],
      "name": "transferOwnership",
      "outputs": [],
      "stateMutability": "nonpayable",
      "type": "function"
    }
  ],
  "bytecode": "0x61018060405261dead610140523480156200001957600080fd5b506040516200115c3803806200115c8339810160408190526200003c916200013a565b806001600160a01b0381166200006c57604051631e4fbdf760e01b81526000600482015260240160405180910390fd5b6200007781620000cd565b50600180556001600160a01b03808716608081905286821660a05285821660c05284821660e05261010052821661012052620000b842630f099c00620001bb565b6101605250504260035550620001e392505050565b600080546001600160a01b038381166001600160a01b0319831681178455604051919092169283917f8be0079c531659141344cd1fd0a4f28419497f9722a3daafe3b4186f6b6457e09190a35050565b80516001600160a01b03811681146200013557600080fd5b919050565b60008060008060008060c087890312156200015457600080fd5b6200015f876200011d565b95506200016f602088016200011d565b94506200017f604088016200011d565b93506200018f606088016200011d565b92506200019f608088016200011d565b9150620001af60a088016200011d565b90509295509295509295565b80820180821115620001dd57634e487b7160e01b600052601160045260246000fd5b92915050565b60805160a05160c05160e05161010051610120516101405161016051610ebf6200029d60003960008181610196015261059301526000610909015260008181610270015261085c015260008181610237015261051c015260008181610146015261041f01526000818161029701528181610a440152610afd0152600081816102100152818161032a0152818161073b015281816109990152610a730152600081816101bd0152818161060401526109ed0152610ebf6000f3fe608060405234801561001057600080fd5b50600436106101165760003560e01c80638da5cb5b116100a2578063da19ddfb11610071578063da19ddfb1461026b578063e08836dd14610292578063ebdac090146102b9578063efaee8a3146102cc578063f2fde38b146102d457600080fd5b80638da5cb5b146101fa57806393a397761461020b578063c3b6453e14610232578063c62016741461025957600080fd5b80635d7bdbea116100e95780635d7bdbea1461018857806362cd20181461019157806370af9b14146101b8578063715018a6146101df57806372a6bf8e146101e757600080fd5b80631a647fb71461011b578063218656e41461012557806331eb318a146101415780633238549114610180575b600080fd5b6101236102e7565b005b61012e60035481565b6040519081526020015b60405180910390f35b6101687f000000000000000000000000000000000000000000000000000000000000000081565b6040516001600160a01b039091168152602001610138565b61012e61041a565b61012e60025481565b61012e7f000000000000000000000000000000000000000000000000000000000000000081565b6101687f000000000000000000000000000000000000000000000000000000000000000081565b6101236104bc565b6101236101f5366004610ba9565b6104ce565b6000546001600160a01b0316610168565b6101687f000000000000000000000000000000000000000000000000000000000000000081565b6101687f000000000000000000000000000000000000000000000000000000000000000081565b61012e6a295be96e6406697200000081565b6101687f000000000000000000000000000000000000000000000000000000000000000081565b6101687f000000000000000000000000000000000000000000000000000000000000000081565b6101236102c7366004610ba9565b610511565b610123610589565b6101236102e2366004610bc2565b6107f1565b6102ef61082c565b6002541561040f57600061030161041a565b90506002548112610312575061040f565b6040516370a0823160e01b81523060048201526000907f00000000000000000000000000000000000000000000000000000000000000006001600160a01b0316906370a0823190602401602060405180830381865afa158015610379573d6000803e3d6000fd5b505050506040513d601f19601f8201168201806040525081019061039d9190610bf2565b9050806000036103ae57505061040f565b600060646103bd836005610c21565b6103c79190610c38565b90506103d281610856565b60408051828152602081018590527f58c0c80496c71ceee0ba72810063be557bd3d50134028f18238d16ee9189a671910160405180910390a15050505b61041860018055565b565b6000807f00000000000000000000000000000000000000000000000000000000000000006001600160a01b031663feaf968c6040518163ffffffff1660e01b815260040160a060405180830381865afa15801561047b573d6000803e3d6000fd5b505050506040513d601f19601f8201168201806040525081019061049f9190610c79565b505050915050806402540be4006104b69190610cc9565b91505090565b6104c4610884565b61041860006108b1565b6104d6610884565b60028190556040518181527fa8bb388cf429c59dff818d603dba53ef8a6683d6daf61985bb28d136719ddced9060200160405180910390a150565b336001600160a01b037f000000000000000000000000000000000000000000000000000000000000000016146105865760405162461bcd60e51b815260206004820152601560248201527413db9b1e481188151bdad95b8818dbdb9d1c9858dd605a1b60448201526064015b60405180910390fd5b50565b61059161082c565b7f00000000000000000000000000000000000000000000000000000000000000004210156105f65760405162461bcd60e51b815260206004820152601260248201527152652d6275726e206e6f742061637469766560701b604482015260640161057d565b6a295be96e640669720000007f00000000000000000000000000000000000000000000000000000000000000006001600160a01b03166318160ddd6040518163ffffffff1660e01b8152600401602060405180830381865afa158015610660573d6000803e3d6000fd5b505050506040513d601f19601f820116820180604052508101906106849190610bf2565b116106d15760405162461bcd60e51b815260206004820152601b60248201527f46696e616c20737570706c792074617267657420726561636865640000000000604482015260640161057d565b6003546106e19062278d00610cf9565b4210156107235760405162461bcd60e51b815260206004820152601060248201526f293296b13ab9371031b7b7b63237bbb760811b604482015260640161057d565b6040516370a0823160e01b81523060048201526000907f00000000000000000000000000000000000000000000000000000000000000006001600160a01b0316906370a0823190602401602060405180830381865afa15801561078a573d6000803e3d6000fd5b505050506040513d601f19601f820116820180604052508101906107ae9190610bf2565b9050806000036107be575061040f565b600060646107cd836001610c21565b6107d79190610c38565b90506107e281610901565b50504260035561041860018055565b6107f9610884565b6001600160a01b03811661082357604051631e4fbdf760e01b81526000600482015260240161057d565b610586816108b1565b60026001540361084f57604051633ee5aeb560e01b815260040160405180910390fd5b6002600155565b610880817f0000000000000000000000000000000000000000000000000000000000000000610972565b5050565b6000546001600160a01b031633146104185760405163118cdaa760e01b815233600482015260240161057d565b600080546001600160a01b038381166001600160a01b0319831681178455604051919092169283917f8be0079c531659141344cd1fd0a4f28419497f9722a3daafe3b4186f6b6457e09190a35050565b600061092d827f0000000000000000000000000000000000000000000000000000000000000000610972565b905080156108805760408051838152602081018390527fbca429eac1a1f219916f1d45dd2ebfaca65503f5c0ca15922cd1ca7679f90fb4910160405180910390a15050565b604080516002808252606082018352600092839291906020830190803683370190505090507f0000000000000000000000000000000000000000000000000000000000000000816000815181106109cb576109cb610d22565b60200260200101906001600160a01b031690816001600160a01b0316815250507f000000000000000000000000000000000000000000000000000000000000000081600181518110610a1f57610a1f610d22565b6001600160a01b03928316602091820292909201015260405163095ea7b360e01b81527f000000000000000000000000000000000000000000000000000000000000000082166004820152602481018690527f00000000000000000000000000000000000000000000000000000000000000009091169063095ea7b3906044016020604051808303816000875af1158015610abe573d6000803e3d6000fd5b505050506040513d601f19601f82011682018060405250810190610ae29190610d38565b506040516338ed173960e01b81526000906001600160a01b037f000000000000000000000000000000000000000000000000000000000000000016906338ed173990610b3a908890859087908a904290600401610d5a565b6000604051808303816000875af1158015610b59573d6000803e3d6000fd5b505050506040513d6000823e601f3d908101601f19168201604052610b819190810190610dcb565b905080600181518110610b9657610b96610d22565b6020026020010151925050505b92915050565b600060208284031215610bbb57600080fd5b5035919050565b600060208284031215610bd457600080fd5b81356001600160a01b0381168114610beb57600080fd5b9392505050565b600060208284031215610c0457600080fd5b5051919050565b634e487b7160e01b600052601160045260246000fd5b8082028115828204841417610ba357610ba3610c0b565b600082610c5557634e487b7160e01b600052601260045260246000fd5b500490565b805169ffffffffffffffffffff81168114610c7457600080fd5b919050565b600080600080600060a08688031215610c9157600080fd5b610c9a86610c5a565b9450602086015193506040860151925060608601519150610cbd60808701610c5a565b90509295509295909350565b80820260008212600160ff1b84141615610ce557610ce5610c0b565b8181058314821517610ba357610ba3610c0b565b80820180821115610ba357610ba3610c0b565b634e487b7160e01b600052604160045260246000fd5b634e487b7160e01b600052603260045260246000fd5b600060208284031215610d4a57600080fd5b81518015158114610beb57600080fd5b600060a082018783526020878185015260a0604085015281875180845260c086019150828901935060005b81811015610daa5784516001600160a01b031683529383019391830191600101610d85565b50506001600160a01b03969096166060850152505050608001529392505050565b60006020808385031215610dde57600080fd5b825167ffffffffffffffff80821115610df657600080fd5b818501915085601f830112610e0a57600080fd5b815181811115610e1c57610e1c610d0c565b8060051b604051601f19603f83011681018181108582111715610e4157610e41610d0c565b604052918252848201925083810185019188831115610e5f57600080fd5b938501935b82851015610e7d57845184529385019392850192610e64565b9897505050505050505056fea26469706673582212209d932397c9bc8545ccf137c0a1cc9a518748dde369b1b5165f9f703fd7dbedab64736f6c63430008140033",
  "linkReferences": {},
  "deployedLinkReferences": {}
}