{
  "contractName": "TokenVesting",
  "abi": [
    {
      "inputs": [
        {
          "internalType": "address",
          "name": "_tokenAddress",
          "type": "address"
        },
        {
          "internalType": "address",
          "name": "_beneficiaryAddress",
          "type": "address"
        },
        {
          "internalType": "address",
          "name": "_initialOwner",
          "type": "address"
        }
      ],
      "stateMutability": "nonpayable",
      "type": "constructor"
    },
    {
      "inputs": [
        {
          "internalType": "address",
          "name": "owner",
          "type": "address"
        }
      ],
      "name": "OwnableInvalidOwner",
      "type": "error"
    },
    {
      "inputs": [
        {
          "internalType": "address",
          "name": "account",
          "type": "address"
        }
      ],
      "name": "OwnableUnauthorizedAccount",
      "type": "error"
    },
    {
      "inputs": [
        {
          "internalType": "address",
          "name": "token",
          "type": "address"
        }
      ],
      "name": "SafeERC20FailedOperation",
      "type": "error"
    },
    {
      "anonymous": false,
      "inputs": [
        {
          "indexed": true,
          "internalType": "address",
          "name": "previousOwner",
          "type": "address"
        },
        {
          "indexed": true,
          "internalType": "address",
          "name": "newOwner",
          "type": "address"
        }
      ],
      "name": "OwnershipTransferred",
      "type": "event"
    },
    {
      "anonymous": false,
      "inputs": [
        {
          "indexed": false,
          "internalType": "uint256",
          "name": "amount",
          "type": "uint256"
        }
      ],
      "name": "TokensDeposited",
      "type": "event"
    },
    {
      "anonymous": false,
      "inputs": [
        {
          "indexed": true,
          "internalType": "address",
          "name": "beneficiary",
          "type": "address"
        },
        {
          "indexed": false,
          "internalType": "uint256",
          "name": "amount",
          "type": "uint256"
        }
      ],
      "name": "TokensReleased",
      "type": "event"
    },
    {
      "inputs": [],
      "name": "BENEFICIARY",
      "outputs": [
        {
          "internalType": "address",
          "name": "",
          "type": "address"
        }
      ],
      "stateMutability": "view",
      "type": "function"
    },
    {
      "inputs": [],
      "name": "CLIFF_DURATION",
      "outputs": [
        {
          "internalType": "uint256",
          "name": "",
          "type": "uint256"
        }
      ],
      "stateMutability": "view",
      "type": "function"
    },
    {
      "inputs": [],
      "name": "TOKEN",
      "outputs": [
        {
          "internalType": "contract IERC20",
          "name": "",
          "type": "address"
        }
      ],
      "stateMutability": "view",
      "type": "function"
    },
    {
      "inputs": [],
      "name": "TOTAL_VESTING_DURATION",
      "outputs": [
        {
          "internalType": "uint256",
          "name": "",
          "type": "uint256"
        }
      ],
      "stateMutability": "view",
      "type": "function"
    },
    {
      "inputs": [],
      "name": "VESTING_START_TIMESTAMP",
      "outputs": [
        {
          "internalType": "uint256",
          "name": "",
          "type": "uint256"
        }
      ],
      "stateMutability": "view",
      "type": "function"
    },
    {
      "inputs": [],
      "name": "owner",
      "outputs": [
        {
          "internalType": "address",
          "name": "",
          "type": "address"
        }
      ],
      "stateMutability": "view",
      "type": "function"
    },
    {
      "inputs": [],
      "name": "releasedAmount",
      "outputs": [
        {
          "internalType": "uint256",
          "name": "",
          "type": "uint256"
        }
      ],
      "stateMutability": "view",
      "type": "function"
    },
    {
      "inputs": [],
      "name": "renounceOwnership",
      "outputs": [],
      "stateMutability": "nonpayable",
      "type": "function"
    },
    {
      "inputs": [],
      "name": "totalLockedAmount",
      "outputs": [
        {
          "internalType": "uint256",
          "name": "",
          "type": "uint256"
        }
      ],
      "stateMutability": "view",
      "type": "function"
    },
    {
      "inputs": [
        {
          "internalType": "address",
          "name": "newOwner",
          "type": "address"
        }
      ],
      "name": "transferOwnership",
      "outputs": [],
      "stateMutability": "nonpayable",
      "type": "function"
    },
    {
      "inputs": [],
      "name": "release",
      "outputs": [],
      "stateMutability": "nonpayable",
      "type": "function"
    },
    {
      "inputs": [],
      "name": "getReleasableAmount",
      "outputs": [
        {
          "internalType": "uint256",
          "name": "",
          "type": "uint256"
        }
      ],
      "stateMutability": "view",
      "type": "function"
    },
    {
      "inputs": [
        {
          "internalType": "uint256",
          "name": "_totalAmount",
          "type": "uint256"
        }
      ],
      "name": "depositVestingTokens",
      "outputs": [],
      "stateMutability": "nonpayable",
      "type": "function"
    }
  ],
  "bytecode": "0x61012060405234801562000011575f80fd5b506040516200150338038062001503833981810160405281019062000037919062000357565b805f73ffffffffffffffffffffffffffffffffffffffff168173ffffffffffffffffffffffffffffffffffffffff1603620000ab575f6040517f1e4fbdf7000000000000000000000000000000000000000000000000000000008152600401620000a29190620003c1565b60405180910390fd5b620000bc816200023160201b60201c565b505f73ffffffffffffffffffffffffffffffffffffffff168273ffffffffffffffffffffffffffffffffffffffff16036200012e576040517f08c379a000000000000000000000000000000000000000000000000000000000815260040162000125906200043a565b60405180910390fd5b5f73ffffffffffffffffffffffffffffffffffffffff168373ffffffffffffffffffffffffffffffffffffffff16036200019f576040517f08c379a00000000000000000000000000000000000000000000000000000000081526004016200019690620004a8565b60405180910390fd5b8273ffffffffffffffffffffffffffffffffffffffff1660808173ffffffffffffffffffffffffffffffffffffffff16815250508173ffffffffffffffffffffffffffffffffffffffff1660a08173ffffffffffffffffffffffffffffffffffffffff16815250504261010081815250506303c2670060c08181525050630d28688060e08181525050505050620004c8565b5f805f9054906101000a900473ffffffffffffffffffffffffffffffffffffffff169050815f806101000a81548173ffffffffffffffffffffffffffffffffffffffff021916908373ffffffffffffffffffffffffffffffffffffffff1602179055508173ffffffffffffffffffffffffffffffffffffffff168173ffffffffffffffffffffffffffffffffffffffff167f8be0079c531659141344cd1fd0a4f28419497f9722a3daafe3b4186f6b6457e060405160405180910390a35050565b5f80fd5b5f73ffffffffffffffffffffffffffffffffffffffff82169050919050565b5f6200032182620002f6565b9050919050565b620003338162000315565b81146200033e575f80fd5b50565b5f81519050620003518162000328565b92915050565b5f805f60608486031215620003715762000370620002f2565b5b5f620003808682870162000341565b9350506020620003938682870162000341565b9250506040620003a68682870162000341565b9150509250925092565b620003bb8162000315565b82525050565b5f602082019050620003d65f830184620003b0565b92915050565b5f82825260208201905092915050565b7f42656e6566696369617279206973207a65726f000000000000000000000000005f82015250565b5f62000422601383620003dc565b91506200042f82620003ec565b602082019050919050565b5f6020820190508181035f830152620004538162000414565b9050919050565b7f546f6b656e206973207a65726f000000000000000000000000000000000000005f82015250565b5f62000490600d83620003dc565b91506200049d826200045a565b602082019050919050565b5f6020820190508181035f830152620004c18162000482565b9050919050565b60805160a05160c05160e05161010051610fa2620005615f395f81816104bc015281816107cc01528181610827015261089101525f81816105ba0152818161080601526108eb01525f8181610498015281816107ab0152818161087001526108ca01525f8181610233015281816102a201528181610398015261040001525f8181610270015281816103ba01526105390152610fa25ff3fe608060405234801561000f575f80fd5b50600436106100cd575f3560e01c806386d1a69f1161008a578063ba175dfa11610064578063ba175dfa146101b7578063cc279e80146101d5578063d4ce2b75146101f1578063f2fde38b1461020f576100cd565b806386d1a69f146101715780638da5cb5b1461017b578063b3daa65214610199576100cd565b806305a9f274146100d15780632f99c6cc146100ef57806345d30a171461010d578063715018a61461012b57806382bfefc8146101355780638401b96814610153575b5f80fd5b6100d961022b565b6040516100e69190610b04565b60405180910390f35b6100f7610231565b6040516101049190610b5c565b60405180910390f35b610115610255565b6040516101229190610b04565b60405180910390f35b61013361025b565b005b61013d61026e565b60405161014a9190610bd0565b60405180910390f35b61015b610292565b6040516101689190610b04565b60405180910390f35b6101796102a0565b005b61018361046f565b6040516101909190610b5c565b60405180910390f35b6101a1610496565b6040516101ae9190610b04565b60405180910390f35b6101bf6104ba565b6040516101cc9190610b04565b60405180910390f35b6101ef60048036038101906101ea9190610c17565b6104de565b005b6101f96105b8565b6040516102069190610b04565b60405180910390f35b61022960048036038101906102249190610c6c565b6105dc565b005b60015481565b7f000000000000000000000000000000000000000000000000000000000000000081565b60025481565b610263610660565b61026c5f6106e7565b565b7f000000000000000000000000000000000000000000000000000000000000000081565b5f61029b6107a8565b905090565b7f000000000000000000000000000000000000000000000000000000000000000073ffffffffffffffffffffffffffffffffffffffff163373ffffffffffffffffffffffffffffffffffffffff161461032e576040517f08c379a000000000000000000000000000000000000000000000000000000000815260040161032590610cf1565b60405180910390fd5b5f6103376107a8565b90505f811161037b576040517f08c379a000000000000000000000000000000000000000000000000000000000815260040161037290610d59565b60405180910390fd5b8060025f82825461038c9190610da4565b925050819055506103fe7f0000000000000000000000000000000000000000000000000000000000000000827f000000000000000000000000000000000000000000000000000000000000000073ffffffffffffffffffffffffffffffffffffffff166109499092919063ffffffff16565b7f000000000000000000000000000000000000000000000000000000000000000073ffffffffffffffffffffffffffffffffffffffff167fc7798891864187665ac6dd119286e44ec13f014527aeeb2b8eb3fd413df93179826040516104649190610b04565b60405180910390a250565b5f805f9054906101000a900473ffffffffffffffffffffffffffffffffffffffff16905090565b7f000000000000000000000000000000000000000000000000000000000000000081565b7f000000000000000000000000000000000000000000000000000000000000000081565b6104e6610660565b5f6001541461052a576040517f08c379a000000000000000000000000000000000000000000000000000000000815260040161052190610e21565b60405180910390fd5b8060018190555061057e3330837f000000000000000000000000000000000000000000000000000000000000000073ffffffffffffffffffffffffffffffffffffffff166109c8909392919063ffffffff16565b7f77acf75e237f9aae98f997395832d522bdb695e4a9bd07704936aa889a3667d1816040516105ad9190610b04565b60405180910390a150565b7f000000000000000000000000000000000000000000000000000000000000000081565b6105e4610660565b5f73ffffffffffffffffffffffffffffffffffffffff168173ffffffffffffffffffffffffffffffffffffffff1603610654575f6040517f1e4fbdf700000000000000000000000000000000000000000000000000000000815260040161064b9190610b5c565b60405180910390fd5b61065d816106e7565b50565b610668610a4a565b73ffffffffffffffffffffffffffffffffffffffff1661068661046f565b73ffffffffffffffffffffffffffffffffffffffff16146106e5576106a9610a4a565b6040517f118cdaa70000000000000000000000000000000000000000000000000000000081526004016106dc9190610b5c565b60405180910390fd5b565b5f805f9054906101000a900473ffffffffffffffffffffffffffffffffffffffff169050815f806101000a81548173ffffffffffffffffffffffffffffffffffffffff021916908373ffffffffffffffffffffffffffffffffffffffff1602179055508173ffffffffffffffffffffffffffffffffffffffff168173ffffffffffffffffffffffffffffffffffffffff167f8be0079c531659141344cd1fd0a4f28419497f9722a3daafe3b4186f6b6457e060405160405180910390a35050565b5f7f00000000000000000000000000000000000000000000000000000000000000007f00000000000000000000000000000000000000000000000000000000000000006107f59190610da4565b421015610804575f9050610946565b7f00000000000000000000000000000000000000000000000000000000000000007f00000000000000000000000000000000000000000000000000000000000000006108509190610da4565b421061086d576002546001546108669190610e3f565b9050610946565b5f7f00000000000000000000000000000000000000000000000000000000000000007f00000000000000000000000000000000000000000000000000000000000000006108ba9190610da4565b426108c59190610e3f565b90505f7f00000000000000000000000000000000000000000000000000000000000000007f00000000000000000000000000000000000000000000000000000000000000006109149190610e3f565b90505f81836001546109269190610e72565b6109309190610ee0565b9050600254816109409190610e3f565b93505050505b90565b6109c3838473ffffffffffffffffffffffffffffffffffffffff1663a9059cbb858560405160240161097c929190610f10565b604051602081830303815290604052915060e01b6020820180517bffffffffffffffffffffffffffffffffffffffffffffffffffffffff8381831617835250505050610a51565b505050565b610a44848573ffffffffffffffffffffffffffffffffffffffff166323b872dd8686866040516024016109fd93929190610f37565b604051602081830303815290604052915060e01b6020820180517bffffffffffffffffffffffffffffffffffffffffffffffffffffffff8381831617835250505050610a51565b50505050565b5f33905090565b5f8060205f8451602086015f885af180610a70576040513d5f823e3d81fd5b3d92505f519150505f8214610a89576001811415610aa4565b5f8473ffffffffffffffffffffffffffffffffffffffff163b145b15610ae657836040517f5274afe7000000000000000000000000000000000000000000000000000000008152600401610add9190610b5c565b60405180910390fd5b50505050565b5f819050919050565b610afe81610aec565b82525050565b5f602082019050610b175f830184610af5565b92915050565b5f73ffffffffffffffffffffffffffffffffffffffff82169050919050565b5f610b4682610b1d565b9050919050565b610b5681610b3c565b82525050565b5f602082019050610b6f5f830184610b4d565b92915050565b5f819050919050565b5f610b98610b93610b8e84610b1d565b610b75565b610b1d565b9050919050565b5f610ba982610b7e565b9050919050565b5f610bba82610b9f565b9050919050565b610bca81610bb0565b82525050565b5f602082019050610be35f830184610bc1565b92915050565b5f80fd5b610bf681610aec565b8114610c00575f80fd5b50565b5f81359050610c1181610bed565b92915050565b5f60208284031215610c2c57610c2b610be9565b5b5f610c3984828501610c03565b91505092915050565b610c4b81610b3c565b8114610c55575f80fd5b50565b5f81359050610c6681610c42565b92915050565b5f60208284031215610c8157610c80610be9565b5b5f610c8e84828501610c58565b91505092915050565b5f82825260208201905092915050565b7f4f6e6c792062656e6566696369617279000000000000000000000000000000005f82015250565b5f610cdb601083610c97565b9150610ce682610ca7565b602082019050919050565b5f6020820190508181035f830152610d0881610ccf565b9050919050565b7f4e6f20746f6b656e7320647565000000000000000000000000000000000000005f82015250565b5f610d43600d83610c97565b9150610d4e82610d0f565b602082019050919050565b5f6020820190508181035f830152610d7081610d37565b9050919050565b7f4e487b71000000000000000000000000000000000000000000000000000000005f52601160045260245ffd5b5f610dae82610aec565b9150610db983610aec565b9250828201905080821115610dd157610dd0610d77565b5b92915050565b7f4465706f736974656420616c72656164790000000000000000000000000000005f82015250565b5f610e0b601183610c97565b9150610e1682610dd7565b602082019050919050565b5f6020820190508181035f830152610e3881610dff565b9050919050565b5f610e4982610aec565b9150610e5483610aec565b9250828203905081811115610e6c57610e6b610d77565b5b92915050565b5f610e7c82610aec565b9150610e8783610aec565b9250828202610e9581610aec565b91508282048414831517610eac57610eab610d77565b5b5092915050565b7f4e487b71000000000000000000000000000000000000000000000000000000005f52601260045260245ffd5b5f610eea82610aec565b9150610ef583610aec565b925082610f0557610f04610eb3565b5b828204905092915050565b5f604082019050610f235f830185610b4d565b610f306020830184610af5565b9392505050565b5f606082019050610f4a5f830186610b4d565b610f576020830185610b4d565b610f646040830184610af5565b94935050505056fea264697066735822122015d8faaf377252f425bf13f1d9c7e331ab1d501a40574caf081e2f3e95cfeea864736f6c63430008140033",
  "immutableReferences": {
    "10163": [
      {
        "length": 32,
        "start": 624
      },
      {
        "length": 32,
        "start": 954
      },
      {
        "length": 32,
        "start": 1337
      }
    ],
    "10165": [
      {
        "length": 32,
        "start": 563
      },
      {
        "length": 32,
        "start": 674
      },
      {
        "length": 32,
        "start": 920
      },
      {
        "length": 32,
        "start": 1024
      }
    ],
    "10167": [
      {
        "length": 32,
        "start": 1176
      },
      {
        "length": 32,
        "start": 1963
      },
      {
        "length": 32,
        "start": 2160
      },
      {
        "length": 32,
        "start": 2250
      }
    ],
    "10169": [
      {
        "length": 32,
        "start": 1466
      },
      {
        "length": 32,
        "start": 2054
      },
      {
        "length": 32,
        "start": 2283
      }
    ],
    "10171": [
      {
        "length": 32,
        "start": 1212
      },
      {
        "length": 32,
        "start": 1996
      },
      {
        "length": 32,
        "start": 2087
      },
      {
        "length": 32,
        "start": 2193
      }
    ]
  },
  "source": "// SPDX-License-Identifier: MIT\npragma solidity ^0.8.20;\nimport \"@openzeppelin/contracts/token/ERC20/utils/SafeERC20.sol\";\nimport \"@openzeppelin/contracts/access/Ownable.sol\";\nimport \"@openzeppelin/contracts/token/ERC20/IERC20.sol\";\ncontract TokenVesting is Ownable {\n    using SafeERC20 for IERC20;\n    IERC20 public immutable TOKEN;\n    address public immutable BENEFICIARY;\n    uint256 public immutable CLIFF_DURATION;\n    uint256 public immutable TOTAL_VESTING_DURATION;\n    uint256 public immutable VESTING_START_TIMESTAMP;\n    uint256 public totalLockedAmount;\n    uint256 public releasedAmount;\n    event TokensReleased(address indexed beneficiary, uint256 amount);\n    event TokensDeposited(uint256 amount);\n    constructor(address _tokenAddress, address _beneficiaryAddress, address _initialOwner) Ownable(_initialOwner) {\n        require(_beneficiaryAddress != address(0), \"Beneficiary is zero\");\n        require(_tokenAddress != address(0), \"Token is zero\");\n        TOKEN = IERC20(_tokenAddress);\n        BENEFICIARY = _beneficiaryAddress;\n        VESTING_START_TIMESTAMP = block.timestamp;\n        CLIFF_DURATION = 2 * 365 days;\n        TOTAL_VESTING_DURATION = 7 * 365 days;\n    }\n    function release() public {\n        require(msg.sender == BENEFICIARY, \"Only beneficiary\");\n        uint256 releasableAmount = _calculateReleasableAmount();\n        require(releasableAmount > 0, \"No tokens due\");\n        releasedAmount += releasableAmount;\n        TOKEN.safeTransfer(BENEFICIARY, releasableAmount);\n        emit TokensReleased(BENEFICIARY, releasableAmount);\n    }\n    function _calculateReleasableAmount() private view returns (uint256) {\n        if (block.timestamp < VESTING_START_TIMESTAMP + CLIFF_DURATION) return 0;\n        if (block.timestamp >= VESTING_START_TIMESTAMP + TOTAL_VESTING_DURATION) return totalLockedAmount - releasedAmount;\n        uint256 timeElapsed = block.timestamp - (VESTING_START_TIMESTAMP + CLIFF_DURATION);\n        uint256 vestingPeriod = TOTAL_VESTING_DURATION - CLIFF_DURATION;\n        uint256 vestedAmount = (totalLockedAmount * timeElapsed) / vestingPeriod;\n        return vestedAmount - releasedAmount;\n    }\n    function getReleasableAmount() public view returns (uint256) { return _calculateReleasableAmount(); }\n    function depositVestingTokens(uint256 _totalAmount) public onlyOwner {\n        require(totalLockedAmount == 0, \"Deposited already\");\n        totalLockedAmount = _totalAmount;\n        TOKEN.safeTransferFrom(msg.sender, address(this), _totalAmount);\n        emit TokensDeposited(_totalAmount);\n    }\n}\n",
  "sourcePath": "C:\\Users\\HP\\Desktop\\FreedomProject\\contracts\\TokenVesting.sol",
  "compiler": {
    "name": "solc",
    "version": "0.8.20+commit.a1b79de6.Emscripten.clang"
  },
  "schemaVersion": "3.4.16",
  "updatedAt": "2025-08-01T22:12:16.669Z",
  "devdoc": {
    "errors": {
      "OwnableInvalidOwner(address)": [
        {
          "details": "The owner is not a valid owner account. (eg. `address(0)`)"
        }
      ],
      "OwnableUnauthorizedAccount(address)": [
        {
          "details": "The caller account is not authorized to perform an operation."
        }
      ],
      "SafeERC20FailedOperation(address)": [
        {
          "details": "An operation with an ERC-20 token failed."
        }
      ]
    },
    "kind": "dev",
    "methods": {
      "owner()": {
        "details": "Returns the address of the current owner."
      },
      "renounceOwnership()": {
        "details": "Leaves the contract without owner. It will not be possible to call `onlyOwner` functions. Can only be called by the current owner. NOTE: Renouncing ownership will leave the contract without an owner, thereby disabling any functionality that is only available to the owner."
      },
      "transferOwnership(address)": {
        "details": "Transfers ownership of the contract to a new account (`newOwner`). Can only be called by the current owner."
      }
    },
    "version": 1
  },
  "userdoc": {
    "kind": "user",
    "methods": {},
    "version": 1
  }
}