{
  "contractName": "Treasury",
  "abi": [
    {
      "inputs": [
        {
          "internalType": "address",
          "name": "_fTokenAddress",
          "type": "address"
        },
        {
          "internalType": "address",
          "name": "_stablecoinAddress",
          "type": "address"
        },
        {
          "internalType": "address",
          "name": "_routerAddress",
          "type": "address"
        },
        {
          "internalType": "address",
          "name": "_chainlinkFeedAddress",
          "type": "address"
        },
        {
          "internalType": "address",
          "name": "_stakingContract",
          "type": "address"
        },
        {
          "internalType": "address",
          "name": "_initialOwner",
          "type": "address"
        }
      ],
      "stateMutability": "nonpayable",
      "type": "constructor"
    },
    {
      "inputs": [
        {
          "internalType": "address",
          "name": "owner",
          "type": "address"
        }
      ],
      "name": "OwnableInvalidOwner",
      "type": "error"
    },
    {
      "inputs": [
        {
          "internalType": "address",
          "name": "account",
          "type": "address"
        }
      ],
      "name": "OwnableUnauthorizedAccount",
      "type": "error"
    },
    {
      "inputs": [],
      "name": "ReentrancyGuardReentrantCall",
      "type": "error"
    },
    {
      "anonymous": false,
      "inputs": [
        {
          "indexed": true,
          "internalType": "address",
          "name": "from",
          "type": "address"
        },
        {
          "indexed": false,
          "internalType": "uint256",
          "name": "amount",
          "type": "uint256"
        }
      ],
      "name": "FundsReceived",
      "type": "event"
    },
    {
      "anonymous": false,
      "inputs": [
        {
          "indexed": true,
          "internalType": "address",
          "name": "previousOwner",
          "type": "address"
        },
        {
          "indexed": true,
          "internalType": "address",
          "name": "newOwner",
          "type": "address"
        }
      ],
      "name": "OwnershipTransferred",
      "type": "event"
    },
    {
      "anonymous": false,
      "inputs": [
        {
          "indexed": false,
          "internalType": "uint256",
          "name": "amountBought",
          "type": "uint256"
        },
        {
          "indexed": false,
          "internalType": "uint256",
          "name": "amountBurned",
          "type": "uint256"
        }
      ],
      "name": "ReburnExecuted",
      "type": "event"
    },
    {
      "anonymous": false,
      "inputs": [
        {
          "indexed": false,
          "internalType": "uint256",
          "name": "newPrice",
          "type": "uint256"
        }
      ],
      "name": "SoftFloorPriceUpdated",
      "type": "event"
    },
    {
      "anonymous": false,
      "inputs": [
        {
          "indexed": false,
          "internalType": "uint256",
          "name": "amountBought",
          "type": "uint256"
        },
        {
          "indexed": false,
          "internalType": "int256",
          "name": "currentPrice",
          "type": "int256"
        }
      ],
      "name": "SoftFloorProtected",
      "type": "event"
    },
    {
      "inputs": [],
      "name": "FINAL_SUPPLY_TARGET",
      "outputs": [
        {
          "internalType": "uint256",
          "name": "",
          "type": "uint256"
        }
      ],
      "stateMutability": "view",
      "type": "function"
    },
    {
      "inputs": [],
      "name": "F_TOKEN",
      "outputs": [
        {
          "internalType": "contract IERC20",
          "name": "",
          "type": "address"
        }
      ],
      "stateMutability": "view",
      "type": "function"
    },
    {
      "inputs": [],
      "name": "F_TOKEN_CONTRACT_ADDRESS",
      "outputs": [
        {
          "internalType": "address",
          "name": "",
          "type": "address"
        }
      ],
      "stateMutability": "view",
      "type": "function"
    },
    {
      "inputs": [],
      "name": "PANCAKE_ROUTER",
      "outputs": [
        {
          "internalType": "contract IPancakeRouter",
          "name": "",
          "type": "address"
        }
      ],
      "stateMutability": "view",
      "type": "function"
    },
    {
      "inputs": [],
      "name": "PRICE_FEED",
      "outputs": [
        {
          "internalType": "contract IAggregatorV3",
          "name": "",
          "type": "address"
        }
      ],
      "stateMutability": "view",
      "type": "function"
    },
    {
      "inputs": [],
      "name": "REBURN_ACTIVATION_TIMESTAMP",
      "outputs": [
        {
          "internalType": "uint256",
          "name": "",
          "type": "uint256"
        }
      ],
      "stateMutability": "view",
      "type": "function"
    },
    {
      "inputs": [],
      "name": "STABLECOIN",
      "outputs": [
        {
          "internalType": "contract IERC20",
          "name": "",
          "type": "address"
        }
      ],
      "stateMutability": "view",
      "type": "function"
    },
    {
      "inputs": [],
      "name": "STAKING_CONTRACT",
      "outputs": [
        {
          "internalType": "address",
          "name": "",
          "type": "address"
        }
      ],
      "stateMutability": "view",
      "type": "function"
    },
    {
      "inputs": [],
      "name": "lastBuybackTimestamp",
      "outputs": [
        {
          "internalType": "uint256",
          "name": "",
          "type": "uint256"
        }
      ],
      "stateMutability": "view",
      "type": "function"
    },
    {
      "inputs": [],
      "name": "owner",
      "outputs": [
        {
          "internalType": "address",
          "name": "",
          "type": "address"
        }
      ],
      "stateMutability": "view",
      "type": "function"
    },
    {
      "inputs": [],
      "name": "renounceOwnership",
      "outputs": [],
      "stateMutability": "nonpayable",
      "type": "function"
    },
    {
      "inputs": [],
      "name": "softFloorPrice",
      "outputs": [
        {
          "internalType": "uint256",
          "name": "",
          "type": "uint256"
        }
      ],
      "stateMutability": "view",
      "type": "function"
    },
    {
      "inputs": [
        {
          "internalType": "address",
          "name": "newOwner",
          "type": "address"
        }
      ],
      "name": "transferOwnership",
      "outputs": [],
      "stateMutability": "nonpayable",
      "type": "function"
    },
    {
      "inputs": [],
      "name": "executeReburn",
      "outputs": [],
      "stateMutability": "nonpayable",
      "type": "function"
    },
    {
      "inputs": [],
      "name": "protectSoftFloor",
      "outputs": [],
      "stateMutability": "nonpayable",
      "type": "function"
    },
    {
      "inputs": [
        {
          "internalType": "uint256",
          "name": "",
          "type": "uint256"
        }
      ],
      "name": "depositFees",
      "outputs": [],
      "stateMutability": "nonpayable",
      "type": "function"
    },
    {
      "inputs": [
        {
          "internalType": "uint256",
          "name": "_newPrice",
          "type": "uint256"
        }
      ],
      "name": "setSoftFloorPrice",
      "outputs": [],
      "stateMutability": "nonpayable",
      "type": "function"
    },
    {
      "inputs": [],
      "name": "getFTokenPrice",
      "outputs": [
        {
          "internalType": "int256",
          "name": "",
          "type": "int256"
        }
      ],
      "stateMutability": "view",
      "type": "function"
    }
  ],
  "bytecode": "0x61018060405261dead73ffffffffffffffffffffffffffffffffffffffff166101409073ffffffffffffffffffffffffffffffffffffffff1681525034801562000047575f80fd5b5060405162001f1938038062001f1983398181016040528101906200006d919062000387565b805f73ffffffffffffffffffffffffffffffffffffffff168173ffffffffffffffffffffffffffffffffffffffff1603620000e1575f6040517f1e4fbdf7000000000000000000000000000000000000000000000000000000008152600401620000d8919062000430565b60405180910390fd5b620000f2816200026160201b60201c565b50600180819055508573ffffffffffffffffffffffffffffffffffffffff1660808173ffffffffffffffffffffffffffffffffffffffff16815250508473ffffffffffffffffffffffffffffffffffffffff1660a08173ffffffffffffffffffffffffffffffffffffffff16815250508373ffffffffffffffffffffffffffffffffffffffff1660c08173ffffffffffffffffffffffffffffffffffffffff16815250508273ffffffffffffffffffffffffffffffffffffffff1660e08173ffffffffffffffffffffffffffffffffffffffff16815250508573ffffffffffffffffffffffffffffffffffffffff166101008173ffffffffffffffffffffffffffffffffffffffff16815250508173ffffffffffffffffffffffffffffffffffffffff166101208173ffffffffffffffffffffffffffffffffffffffff1681525050630f099c004262000246919062000481565b610160818152505042600381905550505050505050620004bb565b5f805f9054906101000a900473ffffffffffffffffffffffffffffffffffffffff169050815f806101000a81548173ffffffffffffffffffffffffffffffffffffffff021916908373ffffffffffffffffffffffffffffffffffffffff1602179055508173ffffffffffffffffffffffffffffffffffffffff168173ffffffffffffffffffffffffffffffffffffffff167f8be0079c531659141344cd1fd0a4f28419497f9722a3daafe3b4186f6b6457e060405160405180910390a35050565b5f80fd5b5f73ffffffffffffffffffffffffffffffffffffffff82169050919050565b5f620003518262000326565b9050919050565b620003638162000345565b81146200036e575f80fd5b50565b5f81519050620003818162000358565b92915050565b5f805f805f8060c08789031215620003a457620003a362000322565b5b5f620003b389828a0162000371565b9650506020620003c689828a0162000371565b9550506040620003d989828a0162000371565b9450506060620003ec89828a0162000371565b9350506080620003ff89828a0162000371565b92505060a06200041289828a0162000371565b9150509295509295509295565b6200042a8162000345565b82525050565b5f602082019050620004455f8301846200041f565b92915050565b5f819050919050565b7f4e487b71000000000000000000000000000000000000000000000000000000005f52601160045260245ffd5b5f6200048d826200044b565b91506200049a836200044b565b9250828201905080821115620004b557620004b462000454565b5b92915050565b60805160a05160c05160e051610100516101205161014051610160516119ae6200056b5f395f8181610511015261071401525f610bd201525f81816106330152610a5201525f8181610600015261067b01525f818161043b015261046101525f818161065701528181610da70152610e2801525f8181610321015281816105dc015281816108a401528181610c8e0152610d6b01525f8181610535015281816107830152610cfc01526119ae5ff3fe608060405234801561000f575f80fd5b5060043610610114575f3560e01c80638da5cb5b116100a0578063da19ddfb1161006f578063da19ddfb14610274578063e08836dd14610292578063ebdac090146102b0578063efaee8a3146102cc578063f2fde38b146102d657610114565b80638da5cb5b146101fc57806393a397761461021a578063c3b6453e14610238578063c62016741461025657610114565b80635d7bdbea116100e75780635d7bdbea1461017c57806362cd20181461019a57806370af9b14146101b8578063715018a6146101d657806372a6bf8e146101e057610114565b80631a647fb714610118578063218656e41461012257806331eb318a14610140578063323854911461015e575b5f80fd5b6101206102f2565b005b61012a610433565b6040516101379190610f11565b60405180910390f35b610148610439565b6040516101559190610fa4565b60405180910390f35b61016661045d565b6040516101739190610fd5565b60405180910390f35b610184610509565b6040516101919190610f11565b60405180910390f35b6101a261050f565b6040516101af9190610f11565b60405180910390f35b6101c0610533565b6040516101cd919061100e565b60405180910390f35b6101de610557565b005b6101fa60048036038101906101f59190611062565b61056a565b005b6102046105b3565b60405161021191906110ad565b60405180910390f35b6102226105da565b60405161022f919061100e565b60405180910390f35b6102406105fe565b60405161024d91906110ad565b60405180910390f35b61025e610622565b60405161026b9190610f11565b60405180910390f35b61027c610631565b60405161028991906110ad565b60405180910390f35b61029a610655565b6040516102a791906110e6565b60405180910390f35b6102ca60048036038101906102c59190611062565b610679565b005b6102d461070a565b005b6102f060048036038101906102eb9190611129565b610982565b005b6102fa610a06565b5f6002540315610429575f61030d61045d565b9050600254811261031e5750610429565b5f7f000000000000000000000000000000000000000000000000000000000000000073ffffffffffffffffffffffffffffffffffffffff166370a08231306040518263ffffffff1660e01b815260040161037891906110ad565b602060405180830381865afa158015610393573d5f803e3d5ffd5b505050506040513d601f19601f820116820180604052508101906103b79190611168565b90505f81036103c7575050610429565b5f60646005836103d791906111c0565b6103e1919061122e565b90506103ec81610a4c565b7f58c0c80496c71ceee0ba72810063be557bd3d50134028f18238d16ee9189a671818460405161041d92919061125e565b60405180910390a15050505b610431610a7a565b565b60035481565b7f000000000000000000000000000000000000000000000000000000000000000081565b5f807f000000000000000000000000000000000000000000000000000000000000000073ffffffffffffffffffffffffffffffffffffffff1663feaf968c6040518163ffffffff1660e01b815260040160a060405180830381865afa1580156104c8573d5f803e3d5ffd5b505050506040513d601f19601f820116820180604052508101906104ec91906112ee565b5050509150506402540be400816105039190611365565b91505090565b60025481565b7f000000000000000000000000000000000000000000000000000000000000000081565b7f000000000000000000000000000000000000000000000000000000000000000081565b61055f610a83565b6105685f610b0a565b565b610572610a83565b806002819055507fa8bb388cf429c59dff818d603dba53ef8a6683d6daf61985bb28d136719ddced816040516105a89190610f11565b60405180910390a150565b5f805f9054906101000a900473ffffffffffffffffffffffffffffffffffffffff16905090565b7f000000000000000000000000000000000000000000000000000000000000000081565b7f000000000000000000000000000000000000000000000000000000000000000081565b6a295be96e6406697200000081565b7f000000000000000000000000000000000000000000000000000000000000000081565b7f000000000000000000000000000000000000000000000000000000000000000081565b7f000000000000000000000000000000000000000000000000000000000000000073ffffffffffffffffffffffffffffffffffffffff163373ffffffffffffffffffffffffffffffffffffffff1614610707576040517f08c379a00000000000000000000000000000000000000000000000000000000081526004016106fe90611435565b60405180910390fd5b50565b610712610a06565b7f0000000000000000000000000000000000000000000000000000000000000000421015610775576040517f08c379a000000000000000000000000000000000000000000000000000000000815260040161076c9061149d565b60405180910390fd5b6a295be96e640669720000007f000000000000000000000000000000000000000000000000000000000000000073ffffffffffffffffffffffffffffffffffffffff166318160ddd6040518163ffffffff1660e01b8152600401602060405180830381865afa1580156107ea573d5f803e3d5ffd5b505050506040513d601f19601f8201168201806040525081019061080e9190611168565b1161084e576040517f08c379a000000000000000000000000000000000000000000000000000000000815260040161084590611505565b60405180910390fd5b62278d0060035461085f9190611523565b4210156108a1576040517f08c379a0000000000000000000000000000000000000000000000000000000008152600401610898906115a0565b60405180910390fd5b5f7f000000000000000000000000000000000000000000000000000000000000000073ffffffffffffffffffffffffffffffffffffffff166370a08231306040518263ffffffff1660e01b81526004016108fb91906110ad565b602060405180830381865afa158015610916573d5f803e3d5ffd5b505050506040513d601f19601f8201168201806040525081019061093a9190611168565b90505f81036109495750610978565b5f606460018361095991906111c0565b610963919061122e565b905061096e81610bcb565b4260038190555050505b610980610a7a565b565b61098a610a83565b5f73ffffffffffffffffffffffffffffffffffffffff168173ffffffffffffffffffffffffffffffffffffffff16036109fa575f6040517f1e4fbdf70000000000000000000000000000000000000000000000000000000081526004016109f191906110ad565b60405180910390fd5b610a0381610b0a565b50565b600260015403610a42576040517f3ee5aeb500000000000000000000000000000000000000000000000000000000815260040160405180910390fd5b6002600181905550565b610a76817f0000000000000000000000000000000000000000000000000000000000000000610c3e565b5050565b60018081905550565b610a8b610ef2565b73ffffffffffffffffffffffffffffffffffffffff16610aa96105b3565b73ffffffffffffffffffffffffffffffffffffffff1614610b0857610acc610ef2565b6040517f118cdaa7000000000000000000000000000000000000000000000000000000008152600401610aff91906110ad565b60405180910390fd5b565b5f805f9054906101000a900473ffffffffffffffffffffffffffffffffffffffff169050815f806101000a81548173ffffffffffffffffffffffffffffffffffffffff021916908373ffffffffffffffffffffffffffffffffffffffff1602179055508173ffffffffffffffffffffffffffffffffffffffff168173ffffffffffffffffffffffffffffffffffffffff167f8be0079c531659141344cd1fd0a4f28419497f9722a3daafe3b4186f6b6457e060405160405180910390a35050565b5f610bf6827f0000000000000000000000000000000000000000000000000000000000000000610c3e565b90505f811115610c3a577fbca429eac1a1f219916f1d45dd2ebfaca65503f5c0ca15922cd1ca7679f90fb48282604051610c319291906115be565b60405180910390a15b5050565b5f80600267ffffffffffffffff811115610c5b57610c5a6115e5565b5b604051908082528060200260200182016040528015610c895781602001602082028036833780820191505090505b5090507f0000000000000000000000000000000000000000000000000000000000000000815f81518110610cc057610cbf611612565b5b602002602001019073ffffffffffffffffffffffffffffffffffffffff16908173ffffffffffffffffffffffffffffffffffffffff16815250507f000000000000000000000000000000000000000000000000000000000000000081600181518110610d2f57610d2e611612565b5b602002602001019073ffffffffffffffffffffffffffffffffffffffff16908173ffffffffffffffffffffffffffffffffffffffff16815250507f000000000000000000000000000000000000000000000000000000000000000073ffffffffffffffffffffffffffffffffffffffff1663095ea7b37f0000000000000000000000000000000000000000000000000000000000000000866040518363ffffffff1660e01b8152600401610de492919061163f565b6020604051808303815f875af1158015610e00573d5f803e3d5ffd5b505050506040513d601f19601f82011682018060405250810190610e24919061169b565b505f7f000000000000000000000000000000000000000000000000000000000000000073ffffffffffffffffffffffffffffffffffffffff166338ed1739865f8588426040518663ffffffff1660e01b8152600401610e879594939291906117b6565b5f604051808303815f875af1158015610ea2573d5f803e3d5ffd5b505050506040513d5f823e3d601f19601f82011682018060405250810190610eca9190611931565b905080600181518110610ee057610edf611612565b5b60200260200101519250505092915050565b5f33905090565b5f819050919050565b610f0b81610ef9565b82525050565b5f602082019050610f245f830184610f02565b92915050565b5f73ffffffffffffffffffffffffffffffffffffffff82169050919050565b5f819050919050565b5f610f6c610f67610f6284610f2a565b610f49565b610f2a565b9050919050565b5f610f7d82610f52565b9050919050565b5f610f8e82610f73565b9050919050565b610f9e81610f84565b82525050565b5f602082019050610fb75f830184610f95565b92915050565b5f819050919050565b610fcf81610fbd565b82525050565b5f602082019050610fe85f830184610fc6565b92915050565b5f610ff882610f73565b9050919050565b61100881610fee565b82525050565b5f6020820190506110215f830184610fff565b92915050565b5f604051905090565b5f80fd5b5f80fd5b61104181610ef9565b811461104b575f80fd5b50565b5f8135905061105c81611038565b92915050565b5f6020828403121561107757611076611030565b5b5f6110848482850161104e565b91505092915050565b5f61109782610f2a565b9050919050565b6110a78161108d565b82525050565b5f6020820190506110c05f83018461109e565b92915050565b5f6110d082610f73565b9050919050565b6110e0816110c6565b82525050565b5f6020820190506110f95f8301846110d7565b92915050565b6111088161108d565b8114611112575f80fd5b50565b5f81359050611123816110ff565b92915050565b5f6020828403121561113e5761113d611030565b5b5f61114b84828501611115565b91505092915050565b5f8151905061116281611038565b92915050565b5f6020828403121561117d5761117c611030565b5b5f61118a84828501611154565b91505092915050565b7f4e487b71000000000000000000000000000000000000000000000000000000005f52601160045260245ffd5b5f6111ca82610ef9565b91506111d583610ef9565b92508282026111e381610ef9565b915082820484148315176111fa576111f9611193565b5b5092915050565b7f4e487b71000000000000000000000000000000000000000000000000000000005f52601260045260245ffd5b5f61123882610ef9565b915061124383610ef9565b92508261125357611252611201565b5b828204905092915050565b5f6040820190506112715f830185610f02565b61127e6020830184610fc6565b9392505050565b5f69ffffffffffffffffffff82169050919050565b6112a381611285565b81146112ad575f80fd5b50565b5f815190506112be8161129a565b92915050565b6112cd81610fbd565b81146112d7575f80fd5b50565b5f815190506112e8816112c4565b92915050565b5f805f805f60a0868803121561130757611306611030565b5b5f611314888289016112b0565b9550506020611325888289016112da565b945050604061133688828901611154565b935050606061134788828901611154565b9250506080611358888289016112b0565b9150509295509295909350565b5f61136f82610fbd565b915061137a83610fbd565b925082820261138881610fbd565b91507f800000000000000000000000000000000000000000000000000000000000000084145f841216156113bf576113be611193565b5b82820584148315176113d4576113d3611193565b5b5092915050565b5f82825260208201905092915050565b7f4f6e6c79204620546f6b656e20636f6e747261637400000000000000000000005f82015250565b5f61141f6015836113db565b915061142a826113eb565b602082019050919050565b5f6020820190508181035f83015261144c81611413565b9050919050565b7f52652d6275726e206e6f742061637469766500000000000000000000000000005f82015250565b5f6114876012836113db565b915061149282611453565b602082019050919050565b5f6020820190508181035f8301526114b48161147b565b9050919050565b7f46696e616c20737570706c7920746172676574207265616368656400000000005f82015250565b5f6114ef601b836113db565b91506114fa826114bb565b602082019050919050565b5f6020820190508181035f83015261151c816114e3565b9050919050565b5f61152d82610ef9565b915061153883610ef9565b92508282019050808211156115505761154f611193565b5b92915050565b7f52652d6275726e20636f6f6c646f776e000000000000000000000000000000005f82015250565b5f61158a6010836113db565b915061159582611556565b602082019050919050565b5f6020820190508181035f8301526115b78161157e565b9050919050565b5f6040820190506115d15f830185610f02565b6115de6020830184610f02565b9392505050565b7f4e487b71000000000000000000000000000000000000000000000000000000005f52604160045260245ffd5b7f4e487b71000000000000000000000000000000000000000000000000000000005f52603260045260245ffd5b5f6040820190506116525f83018561109e565b61165f6020830184610f02565b9392505050565b5f8115159050919050565b61167a81611666565b8114611684575f80fd5b50565b5f8151905061169581611671565b92915050565b5f602082840312156116b0576116af611030565b5b5f6116bd84828501611687565b91505092915050565b5f819050919050565b5f6116e96116e46116df846116c6565b610f49565b610ef9565b9050919050565b6116f9816116cf565b82525050565b5f81519050919050565b5f82825260208201905092915050565b5f819050602082019050919050565b6117318161108d565b82525050565b5f6117428383611728565b60208301905092915050565b5f602082019050919050565b5f611764826116ff565b61176e8185611709565b935061177983611719565b805f5b838110156117a95781516117908882611737565b975061179b8361174e565b92505060018101905061177c565b5085935050505092915050565b5f60a0820190506117c95f830188610f02565b6117d660208301876116f0565b81810360408301526117e8818661175a565b90506117f7606083018561109e565b6118046080830184610f02565b9695505050505050565b5f80fd5b5f601f19601f8301169050919050565b61182b82611812565b810181811067ffffffffffffffff8211171561184a576118496115e5565b5b80604052505050565b5f61185c611027565b90506118688282611822565b919050565b5f67ffffffffffffffff821115611887576118866115e5565b5b602082029050602081019050919050565b5f80fd5b5f6118ae6118a98461186d565b611853565b905080838252602082019050602084028301858111156118d1576118d0611898565b5b835b818110156118fa57806118e68882611154565b8452602084019350506020810190506118d3565b5050509392505050565b5f82601f8301126119185761191761180e565b5b815161192884826020860161189c565b91505092915050565b5f6020828403121561194657611945611030565b5b5f82015167ffffffffffffffff81111561196357611962611034565b5b61196f84828501611904565b9150509291505056fea2646970667358221220111f4c6ce30fff7e51dc837cd46fda2399b82b3a260c70bb9bdb642443ac9a5a64736f6c63430008140033",
  "immutableReferences": {
    "10434": [
      {
        "length": 32,
        "start": 1333
      },
      {
        "length": 32,
        "start": 1923
      },
      {
        "length": 32,
        "start": 3324
      }
    ],
    "10437": [
      {
        "length": 32,
        "start": 801
      },
      {
        "length": 32,
        "start": 1500
      },
      {
        "length": 32,
        "start": 2212
      },
      {
        "length": 32,
        "start": 3214
      },
      {
        "length": 32,
        "start": 3435
      }
    ],
    "10440": [
      {
        "length": 32,
        "start": 1623
      },
      {
        "length": 32,
        "start": 3495
      },
      {
        "length": 32,
        "start": 3624
      }
    ],
    "10443": [
      {
        "length": 32,
        "start": 1083
      },
      {
        "length": 32,
        "start": 1121
      }
    ],
    "10445": [
      {
        "length": 32,
        "start": 1536
      },
      {
        "length": 32,
        "start": 1659
      }
    ],
    "10447": [
      {
        "length": 32,
        "start": 1587
      },
      {
        "length": 32,
        "start": 2642
      }
    ],
    "10450": [
      {
        "length": 32,
        "start": 3026
      }
    ],
    "10452": [
      {
        "length": 32,
        "start": 1297
      },
      {
        "length": 32,
        "start": 1812
      }
    ]
  },
  "source": "// SPDX-License-Identifier: MIT\npragma solidity ^0.8.20;\nimport \"@openzeppelin/contracts/access/Ownable.sol\";\nimport \"@openzeppelin/contracts/utils/ReentrancyGuard.sol\";\nimport \"@openzeppelin/contracts/token/ERC20/IERC20.sol\";\nimport \"@openzeppelin/contracts/token/ERC20/utils/SafeERC20.sol\";\ninterface IAggregatorV3 { function latestRoundData() external view returns (uint80, int256, uint256, uint256, uint80); }\ninterface IPancakeRouter { function swapExactTokensForTokens(uint, uint, address[] calldata, address, uint) external returns (uint[] memory); }\ncontract Treasury is Ownable, ReentrancyGuard {\n    using SafeERC20 for IERC20;\n    IERC20 public immutable F_TOKEN;\n    IERC20 public immutable STABLECOIN;\n    IPancakeRouter public immutable PANCAKE_ROUTER;\n    IAggregatorV3 public immutable PRICE_FEED;\n    address public immutable F_TOKEN_CONTRACT_ADDRESS;\n    address public immutable STAKING_CONTRACT;\n    address private immutable BURN_ADDRESS = 0x000000000000000000000000000000000000dEaD;\n    uint256 public immutable REBURN_ACTIVATION_TIMESTAMP;\n    uint256 public constant FINAL_SUPPLY_TARGET = 50000000 * 10**18;\n    uint256 public softFloorPrice;\n    uint256 public lastBuybackTimestamp;\n    event ReburnExecuted(uint256 amountBought, uint256 amountBurned);\n    event SoftFloorProtected(uint256 amountBought, int256 currentPrice);\n    event SoftFloorPriceUpdated(uint256 newPrice);\n    event FundsReceived(address indexed from, uint256 amount);\n    constructor(address _fTokenAddress, address _stablecoinAddress, address _routerAddress, address _chainlinkFeedAddress, address _stakingContract, address _initialOwner) Ownable(_initialOwner) {\n        F_TOKEN = IERC20(_fTokenAddress);\n        STABLECOIN = IERC20(_stablecoinAddress);\n        PANCAKE_ROUTER = IPancakeRouter(_routerAddress);\n        PRICE_FEED = IAggregatorV3(_chainlinkFeedAddress);\n        F_TOKEN_CONTRACT_ADDRESS = _fTokenAddress;\n        STAKING_CONTRACT = _stakingContract;\n        REBURN_ACTIVATION_TIMESTAMP = block.timestamp + (8 * 365 days);\n        lastBuybackTimestamp = block.timestamp;\n    }\n    function executeReburn() external nonReentrant {\n        require(block.timestamp >= REBURN_ACTIVATION_TIMESTAMP, \"Re-burn not active\");\n        require(F_TOKEN.totalSupply() > FINAL_SUPPLY_TARGET, \"Final supply target reached\");\n        require(block.timestamp >= lastBuybackTimestamp + 30 days, \"Re-burn cooldown\");\n        uint256 stablecoinBalance = STABLECOIN.balanceOf(address(this));\n        if (stablecoinBalance == 0) return;\n        uint256 amountToSpend = (stablecoinBalance * 1) / 100;\n        _buyAndBurn(amountToSpend);\n        lastBuybackTimestamp = block.timestamp;\n    }\n    function protectSoftFloor() external nonReentrant {\n        if (softFloorPrice == 0) return;\n        int256 currentPrice = getFTokenPrice();\n        if (currentPrice >= int256(softFloorPrice)) return;\n        uint256 stablecoinBalance = STABLECOIN.balanceOf(address(this));\n        if (stablecoinBalance == 0) return;\n        uint256 amountToSpend = (stablecoinBalance * 5) / 100;\n        _buyAndSupport(amountToSpend);\n        emit SoftFloorProtected(amountToSpend, currentPrice);\n    }\n    function _buyAndBurn(uint256 _amountToSpend) private { uint256 boughtAmount = _swapStableForFToken(_amountToSpend, BURN_ADDRESS); if (boughtAmount > 0) emit ReburnExecuted(_amountToSpend, boughtAmount); }\n    function _buyAndSupport(uint256 _amountToSpend) private { _swapStableForFToken(_amountToSpend, STAKING_CONTRACT); }\n    function _swapStableForFToken(uint256 _amountIn, address _to) private returns (uint256) {\n        address[] memory path = new address[](2);\n        path[0] = address(STABLECOIN);\n        path[1] = address(F_TOKEN);\n        STABLECOIN.approve(address(PANCAKE_ROUTER), _amountIn);\n        uint[] memory amounts = PANCAKE_ROUTER.swapExactTokensForTokens(_amountIn, 0, path, _to, block.timestamp);\n        return amounts[1];\n    }\n    function depositFees(uint256) external { require(msg.sender == F_TOKEN_CONTRACT_ADDRESS, \"Only F Token contract\"); }\n    function setSoftFloorPrice(uint256 _newPrice) public onlyOwner { softFloorPrice = _newPrice; emit SoftFloorPriceUpdated(_newPrice); }\n    function getFTokenPrice() public view returns (int256) { (, int256 price, , , ) = PRICE_FEED.latestRoundData(); return price * 10**10; }\n}\n",
  "sourcePath": "C:\\Users\\HP\\Desktop\\FreedomProject\\contracts\\Treasury.sol",
  "compiler": {
    "name": "solc",
    "version": "0.8.20+commit.a1b79de6.Emscripten.clang"
  },
  "schemaVersion": "3.4.16",
  "updatedAt": "2025-08-01T22:12:16.700Z",
  "devdoc": {
    "errors": {
      "OwnableInvalidOwner(address)": [
        {
          "details": "The owner is not a valid owner account. (eg. `address(0)`)"
        }
      ],
      "OwnableUnauthorizedAccount(address)": [
        {
          "details": "The caller account is not authorized to perform an operation."
        }
      ],
      "ReentrancyGuardReentrantCall()": [
        {
          "details": "Unauthorized reentrant call."
        }
      ]
    },
    "kind": "dev",
    "methods": {
      "owner()": {
        "details": "Returns the address of the current owner."
      },
      "renounceOwnership()": {
        "details": "Leaves the contract without owner. It will not be possible to call `onlyOwner` functions. Can only be called by the current owner. NOTE: Renouncing ownership will leave the contract without an owner, thereby disabling any functionality that is only available to the owner."
      },
      "transferOwnership(address)": {
        "details": "Transfers ownership of the contract to a new account (`newOwner`). Can only be called by the current owner."
      }
    },
    "version": 1
  },
  "userdoc": {
    "kind": "user",
    "methods": {},
    "version": 1
  }
}