{
  "_format": "hh-sol-artifact-1",
  "contractName": "Staking",
  "sourceName": "contracts/Staking.sol",
  "abi": [
    {
      "inputs": [
        {
          "internalType": "address",
          "name": "_fTokenAddress",
          "type": "address"
        },
        {
          "internalType": "address",
          "name": "_initialOwner",
          "type": "address"
        }
      ],
      "stateMutability": "nonpayable",
      "type": "constructor"
    },
    {
      "inputs": [
        {
          "internalType": "address",
          "name": "owner",
          "type": "address"
        }
      ],
      "name": "OwnableInvalidOwner",
      "type": "error"
    },
    {
      "inputs": [
        {
          "internalType": "address",
          "name": "account",
          "type": "address"
        }
      ],
      "name": "OwnableUnauthorizedAccount",
      "type": "error"
    },
    {
      "inputs": [],
      "name": "ReentrancyGuardReentrantCall",
      "type": "error"
    },
    {
      "inputs": [
        {
          "internalType": "address",
          "name": "token",
          "type": "address"
        }
      ],
      "name": "SafeERC20FailedOperation",
      "type": "error"
    },
    {
      "anonymous": false,
      "inputs": [
        {
          "indexed": true,
          "internalType": "address",
          "name": "user",
          "type": "address"
        },
        {
          "indexed": false,
          "internalType": "bool",
          "name": "isLp",
          "type": "bool"
        }
      ],
      "name": "LpStatusChanged",
      "type": "event"
    },
    {
      "anonymous": false,
      "inputs": [
        {
          "indexed": true,
          "internalType": "address",
          "name": "previousOwner",
          "type": "address"
        },
        {
          "indexed": true,
          "internalType": "address",
          "name": "newOwner",
          "type": "address"
        }
      ],
      "name": "OwnershipTransferred",
      "type": "event"
    },
    {
      "anonymous": false,
      "inputs": [
        {
          "indexed": true,
          "internalType": "address",
          "name": "user",
          "type": "address"
        },
        {
          "indexed": false,
          "internalType": "uint256",
          "name": "amount",
          "type": "uint256"
        },
        {
          "indexed": false,
          "internalType": "uint256",
          "name": "unlocksOn",
          "type": "uint256"
        }
      ],
      "name": "Staked",
      "type": "event"
    },
    {
      "anonymous": false,
      "inputs": [
        {
          "indexed": true,
          "internalType": "address",
          "name": "user",
          "type": "address"
        },
        {
          "indexed": false,
          "internalType": "uint256",
          "name": "amount",
          "type": "uint256"
        },
        {
          "indexed": false,
          "internalType": "uint256",
          "name": "reward",
          "type": "uint256"
        }
      ],
      "name": "Unstaked",
      "type": "event"
    },
    {
      "inputs": [],
      "name": "F_TOKEN",
      "outputs": [
        {
          "internalType": "contract IERC20",
          "name": "",
          "type": "address"
        }
      ],
      "stateMutability": "view",
      "type": "function"
    },
    {
      "inputs": [],
      "name": "STAKING_HARD_CAP",
      "outputs": [
        {
          "internalType": "uint256",
          "name": "",
          "type": "uint256"
        }
      ],
      "stateMutability": "view",
      "type": "function"
    },
    {
      "inputs": [
        {
          "internalType": "address",
          "name": "stakerAddress",
          "type": "address"
        }
      ],
      "name": "calculateReward",
      "outputs": [
        {
          "internalType": "uint256",
          "name": "",
          "type": "uint256"
        }
      ],
      "stateMutability": "view",
      "type": "function"
    },
    {
      "inputs": [
        {
          "internalType": "address",
          "name": "",
          "type": "address"
        }
      ],
      "name": "isLpStaker",
      "outputs": [
        {
          "internalType": "bool",
          "name": "",
          "type": "bool"
        }
      ],
      "stateMutability": "view",
      "type": "function"
    },
    {
      "inputs": [
        {
          "internalType": "uint256",
          "name": "",
          "type": "uint256"
        }
      ],
      "name": "lpRates",
      "outputs": [
        {
          "internalType": "uint256",
          "name": "",
          "type": "uint256"
        }
      ],
      "stateMutability": "view",
      "type": "function"
    },
    {
      "inputs": [
        {
          "internalType": "uint256",
          "name": "",
          "type": "uint256"
        }
      ],
      "name": "normalRates",
      "outputs": [
        {
          "internalType": "uint256",
          "name": "",
          "type": "uint256"
        }
      ],
      "stateMutability": "view",
      "type": "function"
    },
    {
      "inputs": [],
      "name": "owner",
      "outputs": [
        {
          "internalType": "address",
          "name": "",
          "type": "address"
        }
      ],
      "stateMutability": "view",
      "type": "function"
    },
    {
      "inputs": [],
      "name": "renounceOwnership",
      "outputs": [],
      "stateMutability": "nonpayable",
      "type": "function"
    },
    {
      "inputs": [
        {
          "internalType": "address",
          "name": "user",
          "type": "address"
        },
        {
          "internalType": "bool",
          "name": "isLp",
          "type": "bool"
        }
      ],
      "name": "setLpStaker",
      "outputs": [],
      "stateMutability": "nonpayable",
      "type": "function"
    },
    {
      "inputs": [
        {
          "internalType": "uint256",
          "name": "amount",
          "type": "uint256"
        },
        {
          "internalType": "uint256",
          "name": "durationInDays",
          "type": "uint256"
        }
      ],
      "name": "stake",
      "outputs": [],
      "stateMutability": "nonpayable",
      "type": "function"
    },
    {
      "inputs": [
        {
          "internalType": "address",
          "name": "",
          "type": "address"
        }
      ],
      "name": "stakers",
      "outputs": [
        {
          "internalType": "uint256",
          "name": "amount",
          "type": "uint256"
        },
        {
          "internalType": "uint256",
          "name": "since",
          "type": "uint256"
        },
        {
          "internalType": "uint256",
          "name": "unlocksOn",
          "type": "uint256"
        },
        {
          "internalType": "bool",
          "name": "isLpStaker",
          "type": "bool"
        }
      ],
      "stateMutability": "view",
      "type": "function"
    },
    {
      "inputs": [],
      "name": "totalStaked",
      "outputs": [
        {
          "internalType": "uint256",
          "name": "",
          "type": "uint256"
        }
      ],
      "stateMutability": "view",
      "type": "function"
    },
    {
      "inputs": [
        {
          "internalType": "address",
          "name": "newOwner",
          "type": "address"
        }
      ],
      "name": "transferOwnership",
      "outputs": [],
      "stateMutability": "nonpayable",
      "type": "function"
    },
    {
      "inputs": [],
      "name": "unstake",
      "outputs": [],
      "stateMutability": "nonpayable",
      "type": "function"
    }
  ],
  "bytecode": "0x60a06040526040518060800160405280603261ffff168152602001606461ffff16815260200160c861ffff16815260200161012c61ffff1681525060059060046200004c92919062000259565b506040518060800160405280606461ffff16815260200160c861ffff16815260200161019061ffff16815260200161025861ffff1681525060069060046200009692919062000259565b50348015620000a457600080fd5b5060405162001bda38038062001bda8339818101604052810190620000ca91906200033a565b80600073ffffffffffffffffffffffffffffffffffffffff168173ffffffffffffffffffffffffffffffffffffffff1603620001405760006040517f1e4fbdf700000000000000000000000000000000000000000000000000000000815260040162000137919062000392565b60405180910390fd5b62000151816200019560201b60201c565b50600180819055508173ffffffffffffffffffffffffffffffffffffffff1660808173ffffffffffffffffffffffffffffffffffffffff16815250505050620003af565b60008060009054906101000a900473ffffffffffffffffffffffffffffffffffffffff169050816000806101000a81548173ffffffffffffffffffffffffffffffffffffffff021916908373ffffffffffffffffffffffffffffffffffffffff1602179055508173ffffffffffffffffffffffffffffffffffffffff168173ffffffffffffffffffffffffffffffffffffffff167f8be0079c531659141344cd1fd0a4f28419497f9722a3daafe3b4186f6b6457e060405160405180910390a35050565b8280548282559060005260206000209081019282156200029e579160200282015b828111156200029d578251829061ffff169055916020019190600101906200027a565b5b509050620002ad9190620002b1565b5090565b5b80821115620002cc576000816000905550600101620002b2565b5090565b600080fd5b600073ffffffffffffffffffffffffffffffffffffffff82169050919050565b60006200030282620002d5565b9050919050565b6200031481620002f5565b81146200032057600080fd5b50565b600081519050620003348162000309565b92915050565b60008060408385031215620003545762000353620002d0565b5b6000620003648582860162000323565b9250506020620003778582860162000323565b9150509250929050565b6200038c81620002f5565b82525050565b6000602082019050620003a9600083018462000381565b92915050565b608051611801620003d96000396000818161044e015281816104f501526107c101526118016000f3fe608060405234801561001057600080fd5b50600436106100ea5760003560e01c8063ba85c2591161008c578063d82e396211610066578063d82e396214610228578063f2fde38b14610258578063f3aab10414610274578063f6c4dd8d146102a4576100ea565b8063ba85c259146101ac578063c2277742146101dc578063d7e751ba1461020c576100ea565b80637b0472f0116100c85780637b0472f014610121578063817b1cd21461013d5780638da5cb5b1461015b5780639168ae7214610179576100ea565b80632def6620146100ef57806370af9b14146100f9578063715018a614610117575b600080fd5b6100f76102c2565b005b6101016104f3565b60405161010e91906110d8565b60405180910390f35b61011f610517565b005b61013b6004803603810190610136919061112e565b61052b565b005b6101456108a5565b604051610152919061117d565b60405180910390f35b6101636108ab565b60405161017091906111b9565b60405180910390f35b610193600480360381019061018e9190611200565b6108d4565b6040516101a39493929190611248565b60405180910390f35b6101c660048036038101906101c1919061128d565b610911565b6040516101d3919061117d565b60405180910390f35b6101f660048036038101906101f19190611200565b610935565b60405161020391906112ba565b60405180910390f35b61022660048036038101906102219190611301565b610955565b005b610242600480360381019061023d9190611200565b610a06565b60405161024f919061117d565b60405180910390f35b610272600480360381019061026d9190611200565b610c01565b005b61028e6004803603810190610289919061128d565b610c87565b60405161029b919061117d565b60405180910390f35b6102ac610cab565b6040516102b9919061117d565b60405180910390f35b6102ca610cba565b6000600360003373ffffffffffffffffffffffffffffffffffffffff1673ffffffffffffffffffffffffffffffffffffffff16815260200190815260200160002090506000816000015411610354576040517f08c379a000000000000000000000000000000000000000000000000000000000815260040161034b9061139e565b60405180910390fd5b806002015442101561039b576040517f08c379a00000000000000000000000000000000000000000000000000000000081526004016103929061140a565b60405180910390fd5b60006103a633610a06565b905060008183600001546103ba9190611459565b90508260000154600260008282546103d2919061148d565b92505081905550600360003373ffffffffffffffffffffffffffffffffffffffff1673ffffffffffffffffffffffffffffffffffffffff168152602001908152602001600020600080820160009055600182016000905560028201600090556003820160006101000a81549060ff0219169055505061049233827f000000000000000000000000000000000000000000000000000000000000000073ffffffffffffffffffffffffffffffffffffffff16610d009092919063ffffffff16565b3373ffffffffffffffffffffffffffffffffffffffff167f7fc4727e062e336010f2c282598ef5f14facb3de68cf8195c2f23e1454b2b74e8460000154846040516104de9291906114c1565b60405180910390a25050506104f1610d7f565b565b7f000000000000000000000000000000000000000000000000000000000000000081565b61051f610d88565b6105296000610e0f565b565b610533610cba565b60008211610576576040517f08c379a000000000000000000000000000000000000000000000000000000000815260040161056d90611536565b60405180910390fd5b6000600360003373ffffffffffffffffffffffffffffffffffffffff1673ffffffffffffffffffffffffffffffffffffffff16815260200190815260200160002060000154146105fb576040517f08c379a00000000000000000000000000000000000000000000000000000000081526004016105f2906115a2565b60405180910390fd5b6a52b7d2dcc80cd2e4000000826002546106159190611459565b1115610656576040517f08c379a000000000000000000000000000000000000000000000000000000000815260040161064d9061160e565b60405180910390fd5b600061066182610ed3565b9050600081116106a6576040517f08c379a000000000000000000000000000000000000000000000000000000000815260040161069d9061167a565b60405180910390fd5b82600260008282546106b89190611459565b92505081905550604051806080016040528084815260200142815260200182426106e29190611459565b8152602001600460003373ffffffffffffffffffffffffffffffffffffffff1673ffffffffffffffffffffffffffffffffffffffff16815260200190815260200160002060009054906101000a900460ff161515815250600360003373ffffffffffffffffffffffffffffffffffffffff1673ffffffffffffffffffffffffffffffffffffffff16815260200190815260200160002060008201518160000155602082015181600101556040820151816002015560608201518160030160006101000a81548160ff0219169083151502179055509050506108063330857f000000000000000000000000000000000000000000000000000000000000000073ffffffffffffffffffffffffffffffffffffffff16610f2d909392919063ffffffff16565b3373ffffffffffffffffffffffffffffffffffffffff167f1449c6dd7851abc30abf37f57715f492010519147cc2652fbc38202c18a6ee9084600360003373ffffffffffffffffffffffffffffffffffffffff1673ffffffffffffffffffffffffffffffffffffffff168152602001908152602001600020600201546040516108909291906114c1565b60405180910390a2506108a1610d7f565b5050565b60025481565b60008060009054906101000a900473ffffffffffffffffffffffffffffffffffffffff16905090565b60036020528060005260406000206000915090508060000154908060010154908060020154908060030160009054906101000a900460ff16905084565b6005818154811061092157600080fd5b906000526020600020016000915090505481565b60046020528060005260406000206000915054906101000a900460ff1681565b61095d610d88565b80600460008473ffffffffffffffffffffffffffffffffffffffff1673ffffffffffffffffffffffffffffffffffffffff16815260200190815260200160002060006101000a81548160ff0219169083151502179055508173ffffffffffffffffffffffffffffffffffffffff167f479b155fd9ee4e038b5bb63a809c961882d5d8c138a03b33c7dc81c35b77975d826040516109fa91906112ba565b60405180910390a25050565b600080600360008473ffffffffffffffffffffffffffffffffffffffff1673ffffffffffffffffffffffffffffffffffffffff1681526020019081526020016000206040518060800160405290816000820154815260200160018201548152602001600282015481526020016003820160009054906101000a900460ff16151515158152505090506000816000015103610aa4576000915050610bfc565b600081602001518260400151610aba919061148d565b905060008260600151610ace576005610ad1565b60065b805480602002602001604051908101604052809291908181526020018280548015610b1b57602002820191906000526020600020905b815481526020019060010190808311610b07575b5050505050905060006301e133808310610b525781600381518110610b4357610b4261169a565b5b60200260200101519050610bd8565b62ed4e008310610b7f5781600281518110610b7057610b6f61169a565b5b60200260200101519050610bd7565b6276a7008310610bac5781600181518110610b9d57610b9c61169a565b5b60200260200101519050610bd6565b62278d008310610bd55781600081518110610bca57610bc961169a565b5b602002602001015190505b5b5b5b612710818560000151610beb91906116c9565b610bf5919061173a565b9450505050505b919050565b610c09610d88565b600073ffffffffffffffffffffffffffffffffffffffff168173ffffffffffffffffffffffffffffffffffffffff1603610c7b5760006040517f1e4fbdf7000000000000000000000000000000000000000000000000000000008152600401610c7291906111b9565b60405180910390fd5b610c8481610e0f565b50565b60068181548110610c9757600080fd5b906000526020600020016000915090505481565b6a52b7d2dcc80cd2e400000081565b600260015403610cf6576040517f3ee5aeb500000000000000000000000000000000000000000000000000000000815260040160405180910390fd5b6002600181905550565b610d7a838473ffffffffffffffffffffffffffffffffffffffff1663a9059cbb8585604051602401610d3392919061176b565b604051602081830303815290604052915060e01b6020820180517bffffffffffffffffffffffffffffffffffffffffffffffffffffffff8381831617835250505050610faf565b505050565b60018081905550565b610d90611051565b73ffffffffffffffffffffffffffffffffffffffff16610dae6108ab565b73ffffffffffffffffffffffffffffffffffffffff1614610e0d57610dd1611051565b6040517f118cdaa7000000000000000000000000000000000000000000000000000000008152600401610e0491906111b9565b60405180910390fd5b565b60008060009054906101000a900473ffffffffffffffffffffffffffffffffffffffff169050816000806101000a81548173ffffffffffffffffffffffffffffffffffffffff021916908373ffffffffffffffffffffffffffffffffffffffff1602179055508173ffffffffffffffffffffffffffffffffffffffff168173ffffffffffffffffffffffffffffffffffffffff167f8be0079c531659141344cd1fd0a4f28419497f9722a3daafe3b4186f6b6457e060405160405180910390a35050565b6000601e8203610ee85762278d009050610f28565b605a8203610efb576276a7009050610f28565b60b48203610f0e5762ed4e009050610f28565b61016d8203610f23576301e133809050610f28565b600090505b919050565b610fa9848573ffffffffffffffffffffffffffffffffffffffff166323b872dd868686604051602401610f6293929190611794565b604051602081830303815290604052915060e01b6020820180517bffffffffffffffffffffffffffffffffffffffffffffffffffffffff8381831617835250505050610faf565b50505050565b600080602060008451602086016000885af180610fd2576040513d6000823e3d81fd5b3d925060005191505060008214610fed576001811415611009565b60008473ffffffffffffffffffffffffffffffffffffffff163b145b1561104b57836040517f5274afe700000000000000000000000000000000000000000000000000000000815260040161104291906111b9565b60405180910390fd5b50505050565b600033905090565b600073ffffffffffffffffffffffffffffffffffffffff82169050919050565b6000819050919050565b600061109e61109961109484611059565b611079565b611059565b9050919050565b60006110b082611083565b9050919050565b60006110c2826110a5565b9050919050565b6110d2816110b7565b82525050565b60006020820190506110ed60008301846110c9565b92915050565b600080fd5b6000819050919050565b61110b816110f8565b811461111657600080fd5b50565b60008135905061112881611102565b92915050565b60008060408385031215611145576111446110f3565b5b600061115385828601611119565b925050602061116485828601611119565b9150509250929050565b611177816110f8565b82525050565b6000602082019050611192600083018461116e565b92915050565b60006111a382611059565b9050919050565b6111b381611198565b82525050565b60006020820190506111ce60008301846111aa565b92915050565b6111dd81611198565b81146111e857600080fd5b50565b6000813590506111fa816111d4565b92915050565b600060208284031215611216576112156110f3565b5b6000611224848285016111eb565b91505092915050565b60008115159050919050565b6112428161122d565b82525050565b600060808201905061125d600083018761116e565b61126a602083018661116e565b611277604083018561116e565b6112846060830184611239565b95945050505050565b6000602082840312156112a3576112a26110f3565b5b60006112b184828501611119565b91505092915050565b60006020820190506112cf6000830184611239565b92915050565b6112de8161122d565b81146112e957600080fd5b50565b6000813590506112fb816112d5565b92915050565b60008060408385031215611318576113176110f3565b5b6000611326858286016111eb565b9250506020611337858286016112ec565b9150509250929050565b600082825260208201905092915050565b7f556e7374616b696e673a206e6f74207374616b696e6700000000000000000000600082015250565b6000611388601683611341565b915061139382611352565b602082019050919050565b600060208201905081810360008301526113b78161137b565b9050919050565b7f556e7374616b696e673a206c6f636b20706572696f64206e6f74206f76657200600082015250565b60006113f4601f83611341565b91506113ff826113be565b602082019050919050565b60006020820190508181036000830152611423816113e7565b9050919050565b7f4e487b7100000000000000000000000000000000000000000000000000000000600052601160045260246000fd5b6000611464826110f8565b915061146f836110f8565b92508282019050808211156114875761148661142a565b5b92915050565b6000611498826110f8565b91506114a3836110f8565b92508282039050818111156114bb576114ba61142a565b5b92915050565b60006040820190506114d6600083018561116e565b6114e3602083018461116e565b9392505050565b7f5374616b696e673a20616d6f756e74203e203000000000000000000000000000600082015250565b6000611520601383611341565b915061152b826114ea565b602082019050919050565b6000602082019050818103600083015261154f81611513565b9050919050565b7f5374616b696e673a20616c7265616479207374616b696e670000000000000000600082015250565b600061158c601883611341565b915061159782611556565b602082019050919050565b600060208201905081810360008301526115bb8161157f565b9050919050565b7f5374616b696e673a206861726420636170207265616368656400000000000000600082015250565b60006115f8601983611341565b9150611603826115c2565b602082019050919050565b60006020820190508181036000830152611627816115eb565b9050919050565b7f5374616b696e673a20696e76616c6964206475726174696f6e00000000000000600082015250565b6000611664601983611341565b915061166f8261162e565b602082019050919050565b6000602082019050818103600083015261169381611657565b9050919050565b7f4e487b7100000000000000000000000000000000000000000000000000000000600052603260045260246000fd5b60006116d4826110f8565b91506116df836110f8565b92508282026116ed816110f8565b915082820484148315176117045761170361142a565b5b5092915050565b7f4e487b7100000000000000000000000000000000000000000000000000000000600052601260045260246000fd5b6000611745826110f8565b9150611750836110f8565b9250826117605761175f61170b565b5b828204905092915050565b600060408201905061178060008301856111aa565b61178d602083018461116e565b9392505050565b60006060820190506117a960008301866111aa565b6117b660208301856111aa565b6117c3604083018461116e565b94935050505056fea264697066735822122041808618dae69ab8df028325b9ad09ad9ba067a3093df02a61d179eccf30be7c64736f6c63430008140033",
  "linkReferences": {},
  "deployedLinkReferences": {}
}