{
  "_format": "hh-sol-artifact-1",
  "contractName": "F",
  "sourceName": "contracts/F.sol",
  "abi": [
    {
      "inputs": [
        {
          "internalType": "address",
          "name": "_initialOwner",
          "type": "address"
        },
        {
          "internalType": "address",
          "name": "_stakingContract",
          "type": "address"
        },
        {
          "internalType": "address",
          "name": "_treasuryContract",
          "type": "address"
        }
      ],
      "stateMutability": "nonpayable",
      "type": "constructor"
    },
    {
      "inputs": [
        {
          "internalType": "address",
          "name": "spender",
          "type": "address"
        },
        {
          "internalType": "uint256",
          "name": "allowance",
          "type": "uint256"
        },
        {
          "internalType": "uint256",
          "name": "needed",
          "type": "uint256"
        }
      ],
      "name": "ERC20InsufficientAllowance",
      "type": "error"
    },
    {
      "inputs": [
        {
          "internalType": "address",
          "name": "sender",
          "type": "address"
        },
        {
          "internalType": "uint256",
          "name": "balance",
          "type": "uint256"
        },
        {
          "internalType": "uint256",
          "name": "needed",
          "type": "uint256"
        }
      ],
      "name": "ERC20InsufficientBalance",
      "type": "error"
    },
    {
      "inputs": [
        {
          "internalType": "address",
          "name": "approver",
          "type": "address"
        }
      ],
      "name": "ERC20InvalidApprover",
      "type": "error"
    },
    {
      "inputs": [
        {
          "internalType": "address",
          "name": "receiver",
          "type": "address"
        }
      ],
      "name": "ERC20InvalidReceiver",
      "type": "error"
    },
    {
      "inputs": [
        {
          "internalType": "address",
          "name": "sender",
          "type": "address"
        }
      ],
      "name": "ERC20InvalidSender",
      "type": "error"
    },
    {
      "inputs": [
        {
          "internalType": "address",
          "name": "spender",
          "type": "address"
        }
      ],
      "name": "ERC20InvalidSpender",
      "type": "error"
    },
    {
      "inputs": [
        {
          "internalType": "address",
          "name": "owner",
          "type": "address"
        }
      ],
      "name": "OwnableInvalidOwner",
      "type": "error"
    },
    {
      "inputs": [
        {
          "internalType": "address",
          "name": "account",
          "type": "address"
        }
      ],
      "name": "OwnableUnauthorizedAccount",
      "type": "error"
    },
    {
      "anonymous": false,
      "inputs": [
        {
          "indexed": true,
          "internalType": "address",
          "name": "owner",
          "type": "address"
        },
        {
          "indexed": true,
          "internalType": "address",
          "name": "spender",
          "type": "address"
        },
        {
          "indexed": false,
          "internalType": "uint256",
          "name": "value",
          "type": "uint256"
        }
      ],
      "name": "Approval",
      "type": "event"
    },
    {
      "anonymous": false,
      "inputs": [
        {
          "indexed": true,
          "internalType": "address",
          "name": "botAddress",
          "type": "address"
        },
        {
          "indexed": false,
          "internalType": "uint256",
          "name": "amount",
          "type": "uint256"
        }
      ],
      "name": "BotTransactionRedirected",
      "type": "event"
    },
    {
      "anonymous": false,
      "inputs": [
        {
          "indexed": false,
          "internalType": "uint256",
          "name": "newCooldown",
          "type": "uint256"
        }
      ],
      "name": "CooldownChanged",
      "type": "event"
    },
    {
      "anonymous": false,
      "inputs": [
        {
          "indexed": true,
          "internalType": "address",
          "name": "account",
          "type": "address"
        },
        {
          "indexed": false,
          "internalType": "bool",
          "name": "isExempt",
          "type": "bool"
        }
      ],
      "name": "FeeExemptionChanged",
      "type": "event"
    },
    {
      "anonymous": false,
      "inputs": [
        {
          "indexed": false,
          "internalType": "uint256",
          "name": "burnAmount",
          "type": "uint256"
        },
        {
          "indexed": false,
          "internalType": "uint256",
          "name": "stakingAmount",
          "type": "uint256"
        },
        {
          "indexed": false,
          "internalType": "uint256",
          "name": "liquidityAmount",
          "type": "uint256"
        }
      ],
      "name": "FeesDistributed",
      "type": "event"
    },
    {
      "anonymous": false,
      "inputs": [
        {
          "indexed": true,
          "internalType": "address",
          "name": "account",
          "type": "address"
        },
        {
          "indexed": false,
          "internalType": "bool",
          "name": "isExempt",
          "type": "bool"
        }
      ],
      "name": "LimitExemptionChanged",
      "type": "event"
    },
    {
      "anonymous": false,
      "inputs": [
        {
          "indexed": true,
          "internalType": "address",
          "name": "previousOwner",
          "type": "address"
        },
        {
          "indexed": true,
          "internalType": "address",
          "name": "newOwner",
          "type": "address"
        }
      ],
      "name": "OwnershipTransferred",
      "type": "event"
    },
    {
      "anonymous": false,
      "inputs": [
        {
          "indexed": true,
          "internalType": "address",
          "name": "pair",
          "type": "address"
        }
      ],
      "name": "PancakeSwapPairSet",
      "type": "event"
    },
    {
      "anonymous": false,
      "inputs": [
        {
          "indexed": true,
          "internalType": "address",
          "name": "from",
          "type": "address"
        },
        {
          "indexed": true,
          "internalType": "address",
          "name": "to",
          "type": "address"
        },
        {
          "indexed": false,
          "internalType": "uint256",
          "name": "value",
          "type": "uint256"
        }
      ],
      "name": "Transfer",
      "type": "event"
    },
    {
      "anonymous": false,
      "inputs": [
        {
          "indexed": true,
          "internalType": "address",
          "name": "wallet",
          "type": "address"
        },
        {
          "indexed": false,
          "internalType": "uint256",
          "name": "amount",
          "type": "uint256"
        },
        {
          "indexed": false,
          "internalType": "uint256",
          "name": "lockUntil",
          "type": "uint256"
        }
      ],
      "name": "WalletLocked",
      "type": "event"
    },
    {
      "inputs": [],
      "name": "BURN_STOP_THRESHOLD",
      "outputs": [
        {
          "internalType": "uint256",
          "name": "",
          "type": "uint256"
        }
      ],
      "stateMutability": "view",
      "type": "function"
    },
    {
      "inputs": [],
      "name": "LAUNCH_TIMESTAMP",
      "outputs": [
        {
          "internalType": "uint256",
          "name": "",
          "type": "uint256"
        }
      ],
      "stateMutability": "view",
      "type": "function"
    },
    {
      "inputs": [],
      "name": "MAX_SUPPLY",
      "outputs": [
        {
          "internalType": "uint256",
          "name": "",
          "type": "uint256"
        }
      ],
      "stateMutability": "view",
      "type": "function"
    },
    {
      "inputs": [],
      "name": "STAKING_CONTRACT",
      "outputs": [
        {
          "internalType": "address",
          "name": "",
          "type": "address"
        }
      ],
      "stateMutability": "view",
      "type": "function"
    },
    {
      "inputs": [],
      "name": "TREASURY_CONTRACT",
      "outputs": [
        {
          "internalType": "address",
          "name": "",
          "type": "address"
        }
      ],
      "stateMutability": "view",
      "type": "function"
    },
    {
      "inputs": [
        {
          "internalType": "address",
          "name": "owner",
          "type": "address"
        },
        {
          "internalType": "address",
          "name": "spender",
          "type": "address"
        }
      ],
      "name": "allowance",
      "outputs": [
        {
          "internalType": "uint256",
          "name": "",
          "type": "uint256"
        }
      ],
      "stateMutability": "view",
      "type": "function"
    },
    {
      "inputs": [
        {
          "internalType": "address",
          "name": "spender",
          "type": "address"
        },
        {
          "internalType": "uint256",
          "name": "value",
          "type": "uint256"
        }
      ],
      "name": "approve",
      "outputs": [
        {
          "internalType": "bool",
          "name": "",
          "type": "bool"
        }
      ],
      "stateMutability": "nonpayable",
      "type": "function"
    },
    {
      "inputs": [
        {
          "internalType": "address",
          "name": "account",
          "type": "address"
        }
      ],
      "name": "balanceOf",
      "outputs": [
        {
          "internalType": "uint256",
          "name": "",
          "type": "uint256"
        }
      ],
      "stateMutability": "view",
      "type": "function"
    },
    {
      "inputs": [],
      "name": "deadblockCount",
      "outputs": [
        {
          "internalType": "uint256",
          "name": "",
          "type": "uint256"
        }
      ],
      "stateMutability": "view",
      "type": "function"
    },
    {
      "inputs": [],
      "name": "decimals",
      "outputs": [
        {
          "internalType": "uint8",
          "name": "",
          "type": "uint8"
        }
      ],
      "stateMutability": "view",
      "type": "function"
    },
    {
      "inputs": [],
      "name": "dynamicCooldownSeconds",
      "outputs": [
        {
          "internalType": "uint256",
          "name": "",
          "type": "uint256"
        }
      ],
      "stateMutability": "view",
      "type": "function"
    },
    {
      "inputs": [],
      "name": "feeConfigPhase1",
      "outputs": [
        {
          "internalType": "uint256",
          "name": "burnFee",
          "type": "uint256"
        },
        {
          "internalType": "uint256",
          "name": "stakingFee",
          "type": "uint256"
        },
        {
          "internalType": "uint256",
          "name": "liquidityFee",
          "type": "uint256"
        }
      ],
      "stateMutability": "view",
      "type": "function"
    },
    {
      "inputs": [],
      "name": "feeConfigPhase2",
      "outputs": [
        {
          "internalType": "uint256",
          "name": "burnFee",
          "type": "uint256"
        },
        {
          "internalType": "uint256",
          "name": "stakingFee",
          "type": "uint256"
        },
        {
          "internalType": "uint256",
          "name": "liquidityFee",
          "type": "uint256"
        }
      ],
      "stateMutability": "view",
      "type": "function"
    },
    {
      "inputs": [],
      "name": "launchBlockNumber",
      "outputs": [
        {
          "internalType": "uint256",
          "name": "",
          "type": "uint256"
        }
      ],
      "stateMutability": "view",
      "type": "function"
    },
    {
      "inputs": [],
      "name": "maxWalletHolding",
      "outputs": [
        {
          "internalType": "uint256",
          "name": "",
          "type": "uint256"
        }
      ],
      "stateMutability": "view",
      "type": "function"
    },
    {
      "inputs": [],
      "name": "name",
      "outputs": [
        {
          "internalType": "string",
          "name": "",
          "type": "string"
        }
      ],
      "stateMutability": "view",
      "type": "function"
    },
    {
      "inputs": [],
      "name": "owner",
      "outputs": [
        {
          "internalType": "address",
          "name": "",
          "type": "address"
        }
      ],
      "stateMutability": "view",
      "type": "function"
    },
    {
      "inputs": [],
      "name": "pancakeSwapPair",
      "outputs": [
        {
          "internalType": "address",
          "name": "",
          "type": "address"
        }
      ],
      "stateMutability": "view",
      "type": "function"
    },
    {
      "inputs": [],
      "name": "renounceOwnership",
      "outputs": [],
      "stateMutability": "nonpayable",
      "type": "function"
    },
    {
      "inputs": [
        {
          "internalType": "uint256",
          "name": "newCooldownSeconds",
          "type": "uint256"
        }
      ],
      "name": "setDynamicCooldown",
      "outputs": [],
      "stateMutability": "nonpayable",
      "type": "function"
    },
    {
      "inputs": [
        {
          "internalType": "address",
          "name": "account",
          "type": "address"
        },
        {
          "internalType": "bool",
          "name": "isExempt",
          "type": "bool"
        }
      ],
      "name": "setFeeExempt",
      "outputs": [],
      "stateMutability": "nonpayable",
      "type": "function"
    },
    {
      "inputs": [
        {
          "internalType": "address",
          "name": "account",
          "type": "address"
        },
        {
          "internalType": "bool",
          "name": "isExempt",
          "type": "bool"
        }
      ],
      "name": "setLimitExempt",
      "outputs": [],
      "stateMutability": "nonpayable",
      "type": "function"
    },
    {
      "inputs": [
        {
          "internalType": "address",
          "name": "_pair",
          "type": "address"
        }
      ],
      "name": "setPancakeSwapPair",
      "outputs": [],
      "stateMutability": "nonpayable",
      "type": "function"
    },
    {
      "inputs": [],
      "name": "symbol",
      "outputs": [
        {
          "internalType": "string",
          "name": "",
          "type": "string"
        }
      ],
      "stateMutability": "view",
      "type": "function"
    },
    {
      "inputs": [],
      "name": "totalSupply",
      "outputs": [
        {
          "internalType": "uint256",
          "name": "",
          "type": "uint256"
        }
      ],
      "stateMutability": "view",
      "type": "function"
    },
    {
      "inputs": [
        {
          "internalType": "address",
          "name": "to",
          "type": "address"
        },
        {
          "internalType": "uint256",
          "name": "value",
          "type": "uint256"
        }
      ],
      "name": "transfer",
      "outputs": [
        {
          "internalType": "bool",
          "name": "",
          "type": "bool"
        }
      ],
      "stateMutability": "nonpayable",
      "type": "function"
    },
    {
      "inputs": [
        {
          "internalType": "address",
          "name": "from",
          "type": "address"
        },
        {
          "internalType": "address",
          "name": "to",
          "type": "address"
        },
        {
          "internalType": "uint256",
          "name": "value",
          "type": "uint256"
        }
      ],
      "name": "transferFrom",
      "outputs": [
        {
          "internalType": "bool",
          "name": "",
          "type": "bool"
        }
      ],
      "stateMutability": "nonpayable",
      "type": "function"
    },
    {
      "inputs": [
        {
          "internalType": "address",
          "name": "newOwner",
          "type": "address"
        }
      ],
      "name": "transferOwnership",
      "outputs": [],
      "stateMutability": "nonpayable",
      "type": "function"
    }
  ],
  "bytecode": "0x61012060405261dead60e0526a52b7d2dcc80cd2e4000000610100526002601155600f6014553480156200003257600080fd5b5060405162001f7b38038062001f7b8339810160408190526200005591620009b1565b826040518060400160405280600b81526020016a119c9959591bdb55195cdd60aa1b815250604051806040016040528060018152602001602360f91b8152508160039081620000a5919062000a9f565b506004620000b4828262000a9f565b5050506001600160a01b038116620000e757604051631e4fbdf760e01b8152600060048201526024015b60405180910390fd5b620000f28162000240565b504260c052436012556001600160a01b03808316608052811660a052604080516060808201835260fa80835260016020848101829052938501819052600791909155600881905560098190558351918201845260648083529282018190529201829052600a819055600b829055600c919091556200017e6b019d971e4fe8401e74000000600362000b81565b6200018a919062000ba1565b600d556001600160a01b038381166000908152600f602090815260408083208054600160ff1991821681179092553080865283862080548316841790556080518716808752848720805484168517905560a05190971680875284872080548416851790559086526010909452828520805482168317905592845281842080548416821790559383529091208054909116909117905562000237836b019d971e4fe8401e7400000062000292565b50505062000bf0565b600580546001600160a01b038381166001600160a01b0319831681179093556040519116919082907f8be0079c531659141344cd1fd0a4f28419497f9722a3daafe3b4186f6b6457e090600090a35050565b6001600160a01b038216620002be5760405163ec442f0560e01b815260006004820152602401620000de565b620002cc60008383620002d0565b5050565b6001600160a01b038316620002f157620002ec8383836200053e565b505050565b6001600160a01b0383166000908152600f602052604081205460ff161580156200033457506001600160a01b0383166000908152600f602052604090205460ff16155b90508080156200035157506006546001600160a01b038581169116145b80156200036f57506011546012546200036b919062000bc4565b4311155b15620003875762000381838362000671565b50505050565b801562000415576014546001600160a01b038516600090815260136020526040902054620003b6919062000bc4565b421015620003f95760405162461bcd60e51b815260206004820152600f60248201526e436f6f6c646f776e2061637469766560881b6044820152606401620000de565b6001600160a01b03841660009081526013602052604090204290555b80156200042f5762000429848484620006d5565b6200043c565b6200043c8484846200053e565b6001600160a01b03831660009081526010602052604090205460ff16620004c957600d546001600160a01b0384166000908152602081905260409020541115620004c95760405162461bcd60e51b815260206004820152601860248201527f45786365656473206d61782077616c6c6574206c696d697400000000000000006044820152606401620000de565b6006546001600160a01b0385811691161480156200050657508162000503846001600160a01b031660009081526020819052604090205490565b10155b80156200052c57506001600160a01b03831660009081526010602052604090205460ff16155b15620003815762000381838362000843565b6001600160a01b0383166200056d57806002600082825462000561919062000bc4565b90915550620005e19050565b6001600160a01b03831660009081526020819052604090205481811015620005c25760405163391434e360e21b81526001600160a01b03851660048201526024810182905260448101839052606401620000de565b6001600160a01b03841660009081526020819052604090209082900390555b6001600160a01b038216620005ff576002805482900390556200061e565b6001600160a01b03821660009081526020819052604090208054820190555b816001600160a01b0316836001600160a01b03167fddf252ad1be2c89b69c2b068fc378daa952ba7f163c4a11628f55a4df523b3ef836040516200066491815260200190565b60405180910390a3505050565b60065460a0516200068d916001600160a01b031690836200053e565b816001600160a01b03167fab4a0400b4e49e5be3fcfd84afea49e7d6e0352a244e32f3734e2791532d887682604051620006c991815260200190565b60405180910390a25050565b6000620006e16200090a565b90506000612710826000015184620006fa919062000b81565b62000706919062000ba1565b905060006127108360200151856200071f919062000b81565b6200072b919062000ba1565b9050600061271084604001518662000744919062000b81565b62000750919062000ba1565b90506000818362000762868962000bda565b6200076e919062000bda565b6200077a919062000bda565b905080156200079057620007908888836200053e565b61010051600254118015620007a55750600084115b15620007c057620007c08860e051866200053e60201b60201c565b8215620007dc57620007dc88608051856200053e60201b60201c565b8115620007f857620007f88860a051846200053e60201b60201c565b60408051858152602081018590529081018390527f312c5308f42848705a866c73dec11fd0783c2d64aac6a97e94467062ad3f40589060600160405180910390a15050505050505050565b600d5460009062000859836301e1338062000b81565b62000865919062000ba1565b905062278d00811115620002ec57604051806040016040528082426200088c919062000bc4565b815260209081018490526001600160a01b0385166000818152600e8352604090208351815592909101516001909201919091557f5394ea92aca3ea4a83aa22b55619ded8d5ec09b9bfc1c5802c41ae182dfc878e83620008ed844262000bc4565b6040805192835260208301919091520160405180910390a2505050565b6200092f60405180606001604052806000815260200160008152602001600081525090565b60c05162000942906303c2670062000bc4565b4210156200096f575060408051606081018252600754815260085460208201526009549181019190915290565b5060408051606081018252600a548152600b546020820152600c549181019190915290565b80516001600160a01b0381168114620009ac57600080fd5b919050565b600080600060608486031215620009c757600080fd5b620009d28462000994565b9250620009e26020850162000994565b9150620009f26040850162000994565b90509250925092565b634e487b7160e01b600052604160045260246000fd5b600181811c9082168062000a2657607f821691505b60208210810362000a4757634e487b7160e01b600052602260045260246000fd5b50919050565b601f821115620002ec57600081815260208120601f850160051c8101602086101562000a765750805b601f850160051c820191505b8181101562000a975782815560010162000a82565b505050505050565b81516001600160401b0381111562000abb5762000abb620009fb565b62000ad38162000acc845462000a11565b8462000a4d565b602080601f83116001811462000b0b576000841562000af25750858301515b600019600386901b1c1916600185901b17855562000a97565b600085815260208120601f198616915b8281101562000b3c5788860151825594840194600190910190840162000b1b565b508582101562000b5b5787850151600019600388901b60f8161c191681555b5050505050600190811b01905550565b634e487b7160e01b600052601160045260246000fd5b808202811582820484141762000b9b5762000b9b62000b6b565b92915050565b60008262000bbf57634e487b7160e01b600052601260045260246000fd5b500490565b8082018082111562000b9b5762000b9b62000b6b565b8181038181111562000b9b5762000b9b62000b6b565b60805160a05160c05160e0516101005161132362000c58600039600081816104500152610e5101526000610e91015260008181610416015261104a01526000818161036001528181610d4b0152610ef30152600081816103ad0152610ec201526113236000f3fe608060405234801561001057600080fd5b50600436106101c45760003560e01c806384e92c00116100f9578063a9059cbb11610097578063e14e751911610071578063e14e751914610408578063e954f41d14610411578063f2fde38b14610438578063f5d7abb31461044b57600080fd5b8063a9059cbb14610395578063da19ddfb146103a8578063dd62ed3e146103cf57600080fd5b80638ebfc796116100d35780638ebfc7961461034057806395d89b41146103535780639e9df2b91461035b578063a06655a61461038257600080fd5b806384e92c0014610314578063876b33c81461031d5780638da5cb5b1461032f57600080fd5b806340a24e6c116101665780634ee13e97116101405780634ee13e97146102c75780635d0f1ada146102d057806370a08231146102e3578063715018a61461030c57600080fd5b806340a24e6c1461027e578063429494f21461029357806348d79155146102be57600080fd5b806318160ddd116101a257806318160ddd1461023757806323b872dd14610249578063313ce5671461025c57806332cb6b0c1461026b57600080fd5b806306fdde03146101c9578063095ea7b3146101e757806314b800b41461020a575b600080fd5b6101d1610472565b6040516101de91906110c4565b60405180910390f35b6101fa6101f536600461112e565b610504565b60405190151581526020016101de565b600a54600b54600c5461021c92919083565b604080519384526020840192909252908201526060016101de565b6002545b6040519081526020016101de565b6101fa610257366004611158565b61051e565b604051601281526020016101de565b61023b6b019d971e4fe8401e7400000081565b61029161028c366004611194565b610542565b005b6006546102a6906001600160a01b031681565b6040516001600160a01b0390911681526020016101de565b61023b600d5481565b61023b60115481565b6102916102de3660046111d0565b6105aa565b61023b6102f13660046111e9565b6001600160a01b031660009081526020819052604090205490565b610291610638565b61023b60125481565b60075460085460095461021c92919083565b6005546001600160a01b03166102a6565b61029161034e366004611194565b61064c565b6101d16106ac565b6102a67f000000000000000000000000000000000000000000000000000000000000000081565b6102916103903660046111e9565b6106bb565b6101fa6103a336600461112e565b61073b565b6102a67f000000000000000000000000000000000000000000000000000000000000000081565b61023b6103dd36600461120b565b6001600160a01b03918216600090815260016020908152604080832093909416825291909152205490565b61023b60145481565b61023b7f000000000000000000000000000000000000000000000000000000000000000081565b6102916104463660046111e9565b610749565b61023b7f000000000000000000000000000000000000000000000000000000000000000081565b6060600380546104819061123e565b80601f01602080910402602001604051908101604052809291908181526020018280546104ad9061123e565b80156104fa5780601f106104cf576101008083540402835291602001916104fa565b820191906000526020600020905b8154815290600101906020018083116104dd57829003601f168201915b5050505050905090565b600033610512818585610787565b60019150505b92915050565b60003361052c858285610799565b610537858585610818565b506001949350505050565b61054a610877565b6001600160a01b038216600081815260106020908152604091829020805460ff191685151590811790915591519182527fcb24e6b3b5c6d8781cb66cd454a8e78078dccd370402b5c2c3f2f92553556f9b91015b60405180910390a25050565b6105b2610877565b61012c8111156105fd5760405162461bcd60e51b8152602060048201526011602482015270436f6f6c646f776e20746f6f206c6f6e6760781b60448201526064015b60405180910390fd5b60148190556040518181527faa382e040a4d9efeb5a813fb9d768cb574053b0dfd7cdf78936a29006e0a7a1c9060200160405180910390a150565b610640610877565b61064a60006108a4565b565b610654610877565b6001600160a01b0382166000818152600f6020908152604091829020805460ff191685151590811790915591519182527f9f1eaee9ad9cb68284f0dc523aa42c465ed33b53f8da7fc7294ccea47358bbdf910161059e565b6060600480546104819061123e565b6106c3610877565b600680546001600160a01b0319166001600160a01b0383169081179091556000818152600f60209081526040808320805460ff1990811660019081179092556010909352818420805490931617909155517fe0d3fb541ce2b3c956d367ec89ad81e907e861539cdc01a6b81cd5652ae05f899190a250565b600033610512818585610818565b610751610877565b6001600160a01b03811661077b57604051631e4fbdf760e01b8152600060048201526024016105f4565b610784816108a4565b50565b61079483838360016108f6565b505050565b6001600160a01b03838116600090815260016020908152604080832093861683529290522054600019811015610812578181101561080357604051637dc7a0d960e11b81526001600160a01b038416600482015260248101829052604481018390526064016105f4565b610812848484840360006108f6565b50505050565b6001600160a01b03831661084257604051634b637e8f60e11b8152600060048201526024016105f4565b6001600160a01b03821661086c5760405163ec442f0560e01b8152600060048201526024016105f4565b6107948383836109cb565b6005546001600160a01b0316331461064a5760405163118cdaa760e01b81523360048201526024016105f4565b600580546001600160a01b038381166001600160a01b0319831681179093556040519116919082907f8be0079c531659141344cd1fd0a4f28419497f9722a3daafe3b4186f6b6457e090600090a35050565b6001600160a01b0384166109205760405163e602df0560e01b8152600060048201526024016105f4565b6001600160a01b03831661094a57604051634a1406b160e11b8152600060048201526024016105f4565b6001600160a01b038085166000908152600160209081526040808320938716835292905220829055801561081257826001600160a01b0316846001600160a01b03167f8c5be1e5ebec7d5bd14f71427d1e84f3dd0314c0f7b2291e5b200ac8c7c3b925846040516109bd91815260200190565b60405180910390a350505050565b6001600160a01b0383166109e457610794838383610c0f565b6001600160a01b0383166000908152600f602052604081205460ff16158015610a2657506001600160a01b0383166000908152600f602052604090205460ff16155b9050808015610a4257506006546001600160a01b038581169116145b8015610a5d5750601154601254610a59919061128e565b4311155b15610a6c576108128383610d39565b8015610af5576014546001600160a01b038516600090815260136020526040902054610a98919061128e565b421015610ad95760405162461bcd60e51b815260206004820152600f60248201526e436f6f6c646f776e2061637469766560881b60448201526064016105f4565b6001600160a01b03841660009081526013602052604090204290555b8015610b0b57610b06848484610dab565b610b16565b610b16848484610c0f565b6001600160a01b03831660009081526010602052604090205460ff16610ba057600d546001600160a01b0384166000908152602081905260409020541115610ba05760405162461bcd60e51b815260206004820152601860248201527f45786365656473206d61782077616c6c6574206c696d6974000000000000000060448201526064016105f4565b6006546001600160a01b038581169116148015610bdb575081610bd8846001600160a01b031660009081526020819052604090205490565b10155b8015610c0057506001600160a01b03831660009081526010602052604090205460ff16155b15610812576108128383610f63565b6001600160a01b038316610c3a578060026000828254610c2f919061128e565b90915550610cac9050565b6001600160a01b03831660009081526020819052604090205481811015610c8d5760405163391434e360e21b81526001600160a01b038516600482015260248101829052604481018390526064016105f4565b6001600160a01b03841660009081526020819052604090209082900390555b6001600160a01b038216610cc857600280548290039055610ce7565b6001600160a01b03821660009081526020819052604090208054820190555b816001600160a01b0316836001600160a01b03167fddf252ad1be2c89b69c2b068fc378daa952ba7f163c4a11628f55a4df523b3ef83604051610d2c91815260200190565b60405180910390a3505050565b600654610d70906001600160a01b03167f000000000000000000000000000000000000000000000000000000000000000083610c0f565b816001600160a01b03167fab4a0400b4e49e5be3fcfd84afea49e7d6e0352a244e32f3734e2791532d88768260405161059e91815260200190565b6000610db5611021565b90506000612710826000015184610dcc91906112a1565b610dd691906112b8565b90506000612710836020015185610ded91906112a1565b610df791906112b8565b90506000612710846040015186610e0e91906112a1565b610e1891906112b8565b905060008183610e2886896112da565b610e3291906112da565b610e3c91906112da565b90508015610e4f57610e4f888883610c0f565b7f0000000000000000000000000000000000000000000000000000000000000000610e7960025490565b118015610e865750600084115b15610eb657610eb6887f000000000000000000000000000000000000000000000000000000000000000086610c0f565b8215610ee757610ee7887f000000000000000000000000000000000000000000000000000000000000000085610c0f565b8115610f1857610f18887f000000000000000000000000000000000000000000000000000000000000000084610c0f565b60408051858152602081018590529081018390527f312c5308f42848705a866c73dec11fd0783c2d64aac6a97e94467062ad3f40589060600160405180910390a15050505050505050565b600d54600090610f77836301e133806112a1565b610f8191906112b8565b905062278d008111156107945760405180604001604052808242610fa5919061128e565b815260209081018490526001600160a01b0385166000818152600e8352604090208351815592909101516001909201919091557f5394ea92aca3ea4a83aa22b55619ded8d5ec09b9bfc1c5802c41ae182dfc878e83611004844261128e565b6040805192835260208301919091520160405180910390a2505050565b61104560405180606001604052806000815260200160008152602001600081525090565b6110737f00000000000000000000000000000000000000000000000000000000000000006303c2670061128e565b42101561109f575060408051606081018252600754815260085460208201526009549181019190915290565b5060408051606081018252600a548152600b546020820152600c549181019190915290565b600060208083528351808285015260005b818110156110f1578581018301518582016040015282016110d5565b506000604082860101526040601f19601f8301168501019250505092915050565b80356001600160a01b038116811461112957600080fd5b919050565b6000806040838503121561114157600080fd5b61114a83611112565b946020939093013593505050565b60008060006060848603121561116d57600080fd5b61117684611112565b925061118460208501611112565b9150604084013590509250925092565b600080604083850312156111a757600080fd5b6111b083611112565b9150602083013580151581146111c557600080fd5b809150509250929050565b6000602082840312156111e257600080fd5b5035919050565b6000602082840312156111fb57600080fd5b61120482611112565b9392505050565b6000806040838503121561121e57600080fd5b61122783611112565b915061123560208401611112565b90509250929050565b600181811c9082168061125257607f821691505b60208210810361127257634e487b7160e01b600052602260045260246000fd5b50919050565b634e487b7160e01b600052601160045260246000fd5b8082018082111561051857610518611278565b808202811582820484141761051857610518611278565b6000826112d557634e487b7160e01b600052601260045260246000fd5b500490565b818103818111156105185761051861127856fea26469706673582212201252959e112f2b45e9d2b9cdae9fabc5f3d4c0d05bb99f233e5daf58494d3b7864736f6c63430008140033",
  "linkReferences": {},
  "deployedLinkReferences": {}
}